{
  "contractName": "ValsetStorage",
  "abi": [
    {
      "constant": true,
      "inputs": [],
      "name": "currentValsetVersion",
      "outputs": [
        {
          "internalType": "uint256",
          "name": "",
          "type": "uint256"
        }
      ],
      "payable": false,
      "stateMutability": "view",
      "type": "function"
    },
    {
      "constant": true,
      "inputs": [],
      "name": "operator",
      "outputs": [
        {
          "internalType": "address",
          "name": "",
          "type": "address"
        }
      ],
      "payable": false,
      "stateMutability": "view",
      "type": "function"
    },
    {
      "constant": true,
      "inputs": [
        {
          "internalType": "address",
          "name": "",
          "type": "address"
        },
        {
          "internalType": "uint256",
          "name": "",
          "type": "uint256"
        }
      ],
      "name": "powers",
      "outputs": [
        {
          "internalType": "uint256",
          "name": "",
          "type": "uint256"
        }
      ],
      "payable": false,
      "stateMutability": "view",
      "type": "function"
    },
    {
      "constant": true,
      "inputs": [],
      "name": "totalPower",
      "outputs": [
        {
          "internalType": "uint256",
          "name": "",
          "type": "uint256"
        }
      ],
      "payable": false,
      "stateMutability": "view",
      "type": "function"
    },
    {
      "constant": true,
      "inputs": [],
      "name": "validatorCount",
      "outputs": [
        {
          "internalType": "uint256",
          "name": "",
          "type": "uint256"
        }
      ],
      "payable": false,
      "stateMutability": "view",
      "type": "function"
    },
    {
      "constant": true,
      "inputs": [
        {
          "internalType": "address",
          "name": "",
          "type": "address"
        },
        {
          "internalType": "uint256",
          "name": "",
          "type": "uint256"
        }
      ],
      "name": "validators",
      "outputs": [
        {
          "internalType": "bool",
          "name": "",
          "type": "bool"
        }
      ],
      "payable": false,
      "stateMutability": "view",
      "type": "function"
    }
  ],
  "bytecode": "0x608060405234801561001057600080fd5b506101f8806100206000396000f3fe608060405234801561001057600080fd5b50600436106100725760003560e01c8063850f43dd11610050578063850f43dd1461010f5780638d56c37d14610148578063db3ad22c1461015057610072565b80630f43a6771461007757806345aaf18c14610091578063570ca735146100de575b600080fd5b61007f610158565b60408051918252519081900360200190f35b6100ca600480360360408110156100a757600080fd5b5073ffffffffffffffffffffffffffffffffffffffff813516906020013561015e565b604080519115158252519081900360200190f35b6100e661017e565b6040805173ffffffffffffffffffffffffffffffffffffffff9092168252519081900360200190f35b61007f6004803603604081101561012557600080fd5b5073ffffffffffffffffffffffffffffffffffffffff813516906020013561019a565b61007f6101b7565b61007f6101bd565b60025481565b600360209081526000928352604080842090915290825290205460ff1681565b60045473ffffffffffffffffffffffffffffffffffffffff1681565b600560209081526000928352604080842090915290825290205481565b60015481565b6000548156fea265627a7a72315820597d106246cf7c4634cf7d7c3c285871e8dc94cc3b0250dfcb46d7eac2410fbc64736f6c63430005100032",
  "source": "pragma solidity 0.5.16;\n\ncontract ValsetStorage {\n\n    /**\n     * @dev: Total power of all validators\n     */\n    uint256 public totalPower;\n\n    /**\n     * @dev: Current valset version\n     */\n    uint256 public currentValsetVersion;\n\n    /**\n     * @dev: validator count\n     */\n    uint256 public validatorCount;\n\n    /**\n     * @dev: Keep track of active validator\n     */\n    mapping(address => mapping(uint256 => bool)) public validators;\n\n    /**\n     * @dev: operator address\n     */\n    address public operator;\n\n    /**\n     * @dev: validator address + uint then hashed equals key mapped to powers\n     */\n    mapping(address => mapping(uint256 => uint256)) public powers;\n\n    /**\n    * @notice gap of storage for future upgrades\n    */\n    uint256[100] private ____gap;\n}",
  "sourcePath": "/Users/bjmcd/Documents/Development/Clients/sifchain/sifnode/smart-contracts/contracts/ValsetStorage.sol",
  "compiler": {
    "name": "solc",
    "version": "0.5.16+commit.9c3226ce.Emscripten.clang"
  },
  "schemaVersion": "3.3.2",
  "updatedAt": "2021-01-27T03:06:32.649Z",
  "devdoc": {
    "methods": {}
  },
  "userdoc": {
    "methods": {}
  }
}