{
  "contractName": "BridgeRegistry",
  "abi": [
    {
      "anonymous": false,
      "inputs": [
        {
          "indexed": false,
          "internalType": "address",
          "name": "_cosmosBridge",
          "type": "address"
        },
        {
          "indexed": false,
          "internalType": "address",
          "name": "_bridgeBank",
          "type": "address"
        },
        {
          "indexed": false,
          "internalType": "address",
          "name": "_oracle",
          "type": "address"
        },
        {
          "indexed": false,
          "internalType": "address",
          "name": "_valset",
          "type": "address"
        }
      ],
      "name": "LogContractsRegistered",
      "type": "event"
    },
    {
      "constant": true,
      "inputs": [],
      "name": "bridgeBank",
      "outputs": [
        {
          "internalType": "address",
          "name": "",
          "type": "address"
        }
      ],
      "payable": false,
      "stateMutability": "view",
      "type": "function"
    },
    {
      "constant": true,
      "inputs": [],
      "name": "cosmosBridge",
      "outputs": [
        {
          "internalType": "address",
          "name": "",
          "type": "address"
        }
      ],
      "payable": false,
      "stateMutability": "view",
      "type": "function"
    },
    {
      "constant": true,
      "inputs": [],
      "name": "oracle",
      "outputs": [
        {
          "internalType": "address",
          "name": "",
          "type": "address"
        }
      ],
      "payable": false,
      "stateMutability": "view",
      "type": "function"
    },
    {
      "constant": true,
      "inputs": [],
      "name": "valset",
      "outputs": [
        {
          "internalType": "address",
          "name": "",
          "type": "address"
        }
      ],
      "payable": false,
      "stateMutability": "view",
      "type": "function"
    },
    {
      "constant": false,
      "inputs": [
        {
          "internalType": "address",
          "name": "_cosmosBridge",
          "type": "address"
        },
        {
          "internalType": "address",
          "name": "_bridgeBank",
          "type": "address"
        }
      ],
      "name": "initialize",
      "outputs": [],
      "payable": false,
      "stateMutability": "nonpayable",
      "type": "function"
    }
  ],
  "bytecode": "0x608060405234801561001057600080fd5b5061028a806100206000396000f3fe608060405234801561001057600080fd5b50600436106100675760003560e01c80637dc0d1d0116100505780637dc0d1d0146100c05780637f54af0c146100c8578063b0e9ef71146100d057610067565b80630e41f3731461006c578063485cc95514610090575b600080fd5b6100746100d8565b604080516001600160a01b039092168252519081900360200190f35b6100be600480360360408110156100a657600080fd5b506001600160a01b03813581169160200135166100e7565b005b610074610228565b610074610237565b610074610246565b6001546001600160a01b031681565b600354600160a01b900460ff161561016057604080517f08c379a000000000000000000000000000000000000000000000000000000000815260206004820152600b60248201527f496e697469616c697a6564000000000000000000000000000000000000000000604482015290519081900360640190fd5b600080546001600160a01b038085167fffffffffffffffffffffffff000000000000000000000000000000000000000092831617928390556001805485831693169290921791829055600380547fffffffffffffffffffffff00ffffffffffffffffffffffffffffffffffffffff16600160a01b17908190556002546040805195841686529383166020860152821684840152166060830152517f039b733f31259b106f1d278c726870d5b28c7db22957d63df8dbaa70bd3a032a9181900360800190a15050565b6002546001600160a01b031681565b6003546001600160a01b031681565b6000546001600160a01b03168156fea265627a7a723158206047b67219621c327ccc89a38342b9d4f04375a40af88985184a1887155d77e864736f6c63430005100032",
  "source": "pragma solidity 0.5.16;\n\n\ncontract BridgeRegistry {\n    address public cosmosBridge;\n    address public bridgeBank;\n    address public oracle;\n    address public valset;\n\n    bool private _initialized;\n\n    uint256[100] private ____gap;\n\n    event LogContractsRegistered(\n        address _cosmosBridge,\n        address _bridgeBank,\n        address _oracle,\n        address _valset\n    );\n\n    function initialize(\n        address _cosmosBridge,\n        address _bridgeBank\n    ) public {\n        require(!_initialized, \"Initialized\");\n\n        cosmosBridge = _cosmosBridge;\n        bridgeBank = _bridgeBank;\n        _initialized = true;\n\n        emit LogContractsRegistered(cosmosBridge, bridgeBank, oracle, valset);\n    }\n}\n",
  "sourcePath": "/Users/bjmcd/Documents/Development/Clients/sifchain/sifnode/smart-contracts/contracts/BridgeRegistry.sol",
  "compiler": {
    "name": "solc",
    "version": "0.5.16+commit.9c3226ce.Emscripten.clang"
  },
  "schemaVersion": "3.3.2",
  "updatedAt": "2021-01-31T03:30:16.552Z",
  "networkType": "ethereum",
  "devdoc": {
    "methods": {}
  },
  "userdoc": {
    "methods": {}
  }
}