{
  "contractName": "CosmosBridge",
  "abi": [
    {
      "anonymous": false,
      "inputs": [
        {
          "indexed": false,
          "internalType": "address",
          "name": "_bridgeBank",
          "type": "address"
        }
      ],
      "name": "LogBridgeBankSet",
      "type": "event"
    },
    {
      "anonymous": false,
      "inputs": [
        {
          "indexed": false,
          "internalType": "uint256",
          "name": "_prophecyID",
          "type": "uint256"
        },
        {
          "indexed": false,
          "internalType": "address",
          "name": "_validatorAddress",
          "type": "address"
        }
      ],
      "name": "LogNewOracleClaim",
      "type": "event"
    },
    {
      "anonymous": false,
      "inputs": [
        {
          "indexed": false,
          "internalType": "uint256",
          "name": "_prophecyID",
          "type": "uint256"
        },
        {
          "indexed": false,
          "internalType": "enum CosmosBridgeStorage.ClaimType",
          "name": "_claimType",
          "type": "uint8"
        },
        {
          "indexed": false,
          "internalType": "address payable",
          "name": "_ethereumReceiver",
          "type": "address"
        },
        {
          "indexed": false,
          "internalType": "string",
          "name": "_symbol",
          "type": "string"
        },
        {
          "indexed": false,
          "internalType": "uint256",
          "name": "_amount",
          "type": "uint256"
        }
      ],
      "name": "LogNewProphecyClaim",
      "type": "event"
    },
    {
      "anonymous": false,
      "inputs": [
        {
          "indexed": false,
          "internalType": "address",
          "name": "_oracle",
          "type": "address"
        }
      ],
      "name": "LogOracleSet",
      "type": "event"
    },
    {
      "anonymous": false,
      "inputs": [
        {
          "indexed": false,
          "internalType": "uint256",
          "name": "_prophecyID",
          "type": "uint256"
        },
        {
          "indexed": false,
          "internalType": "enum CosmosBridgeStorage.ClaimType",
          "name": "_claimType",
          "type": "uint8"
        }
      ],
      "name": "LogProphecyCompleted",
      "type": "event"
    },
    {
      "anonymous": false,
      "inputs": [
        {
          "indexed": false,
          "internalType": "uint256",
          "name": "_prophecyID",
          "type": "uint256"
        },
        {
          "indexed": false,
          "internalType": "uint256",
          "name": "_prophecyPowerCurrent",
          "type": "uint256"
        },
        {
          "indexed": false,
          "internalType": "uint256",
          "name": "_prophecyPowerThreshold",
          "type": "uint256"
        },
        {
          "indexed": false,
          "internalType": "address",
          "name": "_submitter",
          "type": "address"
        }
      ],
      "name": "LogProphecyProcessed",
      "type": "event"
    },
    {
      "anonymous": false,
      "inputs": [
        {
          "indexed": false,
          "internalType": "address",
          "name": "_validator",
          "type": "address"
        },
        {
          "indexed": false,
          "internalType": "uint256",
          "name": "_power",
          "type": "uint256"
        },
        {
          "indexed": false,
          "internalType": "uint256",
          "name": "_currentValsetVersion",
          "type": "uint256"
        },
        {
          "indexed": false,
          "internalType": "uint256",
          "name": "_validatorCount",
          "type": "uint256"
        },
        {
          "indexed": false,
          "internalType": "uint256",
          "name": "_totalPower",
          "type": "uint256"
        }
      ],
      "name": "LogValidatorAdded",
      "type": "event"
    },
    {
      "anonymous": false,
      "inputs": [
        {
          "indexed": false,
          "internalType": "address",
          "name": "_validator",
          "type": "address"
        },
        {
          "indexed": false,
          "internalType": "uint256",
          "name": "_power",
          "type": "uint256"
        },
        {
          "indexed": false,
          "internalType": "uint256",
          "name": "_currentValsetVersion",
          "type": "uint256"
        },
        {
          "indexed": false,
          "internalType": "uint256",
          "name": "_validatorCount",
          "type": "uint256"
        },
        {
          "indexed": false,
          "internalType": "uint256",
          "name": "_totalPower",
          "type": "uint256"
        }
      ],
      "name": "LogValidatorPowerUpdated",
      "type": "event"
    },
    {
      "anonymous": false,
      "inputs": [
        {
          "indexed": false,
          "internalType": "address",
          "name": "_validator",
          "type": "address"
        },
        {
          "indexed": false,
          "internalType": "uint256",
          "name": "_power",
          "type": "uint256"
        },
        {
          "indexed": false,
          "internalType": "uint256",
          "name": "_currentValsetVersion",
          "type": "uint256"
        },
        {
          "indexed": false,
          "internalType": "uint256",
          "name": "_validatorCount",
          "type": "uint256"
        },
        {
          "indexed": false,
          "internalType": "uint256",
          "name": "_totalPower",
          "type": "uint256"
        }
      ],
      "name": "LogValidatorRemoved",
      "type": "event"
    },
    {
      "anonymous": false,
      "inputs": [
        {
          "indexed": false,
          "internalType": "uint256",
          "name": "_newValsetVersion",
          "type": "uint256"
        },
        {
          "indexed": false,
          "internalType": "uint256",
          "name": "_validatorCount",
          "type": "uint256"
        },
        {
          "indexed": false,
          "internalType": "uint256",
          "name": "_totalPower",
          "type": "uint256"
        }
      ],
      "name": "LogValsetReset",
      "type": "event"
    },
    {
      "anonymous": false,
      "inputs": [
        {
          "indexed": false,
          "internalType": "uint256",
          "name": "_newValsetVersion",
          "type": "uint256"
        },
        {
          "indexed": false,
          "internalType": "uint256",
          "name": "_validatorCount",
          "type": "uint256"
        },
        {
          "indexed": false,
          "internalType": "uint256",
          "name": "_totalPower",
          "type": "uint256"
        }
      ],
      "name": "LogValsetUpdated",
      "type": "event"
    },
    {
      "constant": false,
      "inputs": [
        {
          "internalType": "address",
          "name": "_validatorAddress",
          "type": "address"
        },
        {
          "internalType": "uint256",
          "name": "_validatorPower",
          "type": "uint256"
        }
      ],
      "name": "addValidator",
      "outputs": [],
      "payable": false,
      "stateMutability": "nonpayable",
      "type": "function"
    },
    {
      "constant": true,
      "inputs": [],
      "name": "bridgeBank",
      "outputs": [
        {
          "internalType": "address payable",
          "name": "",
          "type": "address"
        }
      ],
      "payable": false,
      "stateMutability": "view",
      "type": "function"
    },
    {
      "constant": true,
      "inputs": [],
      "name": "consensusThreshold",
      "outputs": [
        {
          "internalType": "uint256",
          "name": "",
          "type": "uint256"
        }
      ],
      "payable": false,
      "stateMutability": "view",
      "type": "function"
    },
    {
      "constant": true,
      "inputs": [],
      "name": "cosmosBridge",
      "outputs": [
        {
          "internalType": "address",
          "name": "",
          "type": "address"
        }
      ],
      "payable": false,
      "stateMutability": "view",
      "type": "function"
    },
    {
      "constant": true,
      "inputs": [],
      "name": "currentValsetVersion",
      "outputs": [
        {
          "internalType": "uint256",
          "name": "",
          "type": "uint256"
        }
      ],
      "payable": false,
      "stateMutability": "view",
      "type": "function"
    },
    {
      "constant": true,
      "inputs": [
        {
          "internalType": "uint256",
          "name": "_prophecyID",
          "type": "uint256"
        }
      ],
      "name": "getProphecyThreshold",
      "outputs": [
        {
          "internalType": "bool",
          "name": "",
          "type": "bool"
        },
        {
          "internalType": "uint256",
          "name": "",
          "type": "uint256"
        },
        {
          "internalType": "uint256",
          "name": "",
          "type": "uint256"
        }
      ],
      "payable": false,
      "stateMutability": "view",
      "type": "function"
    },
    {
      "constant": true,
      "inputs": [
        {
          "internalType": "address",
          "name": "_validatorAddress",
          "type": "address"
        }
      ],
      "name": "getValidatorPower",
      "outputs": [
        {
          "internalType": "uint256",
          "name": "",
          "type": "uint256"
        }
      ],
      "payable": false,
      "stateMutability": "view",
      "type": "function"
    },
    {
      "constant": true,
      "inputs": [],
      "name": "hasBridgeBank",
      "outputs": [
        {
          "internalType": "bool",
          "name": "",
          "type": "bool"
        }
      ],
      "payable": false,
      "stateMutability": "view",
      "type": "function"
    },
    {
      "constant": true,
      "inputs": [
        {
          "internalType": "uint256",
          "name": "",
          "type": "uint256"
        },
        {
          "internalType": "address",
          "name": "",
          "type": "address"
        }
      ],
      "name": "hasMadeClaim",
      "outputs": [
        {
          "internalType": "bool",
          "name": "",
          "type": "bool"
        }
      ],
      "payable": false,
      "stateMutability": "view",
      "type": "function"
    },
    {
      "constant": true,
      "inputs": [
        {
          "internalType": "address",
          "name": "_validatorAddress",
          "type": "address"
        }
      ],
      "name": "isActiveValidator",
      "outputs": [
        {
          "internalType": "bool",
          "name": "",
          "type": "bool"
        }
      ],
      "payable": false,
      "stateMutability": "view",
      "type": "function"
    },
    {
      "constant": true,
      "inputs": [],
      "name": "operator",
      "outputs": [
        {
          "internalType": "address",
          "name": "",
          "type": "address"
        }
      ],
      "payable": false,
      "stateMutability": "view",
      "type": "function"
    },
    {
      "constant": true,
      "inputs": [],
      "name": "oracle",
      "outputs": [
        {
          "internalType": "address payable",
          "name": "",
          "type": "address"
        }
      ],
      "payable": false,
      "stateMutability": "view",
      "type": "function"
    },
    {
      "constant": true,
      "inputs": [
        {
          "internalType": "uint256",
          "name": "",
          "type": "uint256"
        }
      ],
      "name": "oracleClaimValidators",
      "outputs": [
        {
          "internalType": "uint256",
          "name": "",
          "type": "uint256"
        }
      ],
      "payable": false,
      "stateMutability": "view",
      "type": "function"
    },
    {
      "constant": true,
      "inputs": [
        {
          "internalType": "address",
          "name": "",
          "type": "address"
        },
        {
          "internalType": "uint256",
          "name": "",
          "type": "uint256"
        }
      ],
      "name": "powers",
      "outputs": [
        {
          "internalType": "uint256",
          "name": "",
          "type": "uint256"
        }
      ],
      "payable": false,
      "stateMutability": "view",
      "type": "function"
    },
    {
      "constant": true,
      "inputs": [
        {
          "internalType": "uint256",
          "name": "",
          "type": "uint256"
        }
      ],
      "name": "prophecyClaims",
      "outputs": [
        {
          "internalType": "address payable",
          "name": "ethereumReceiver",
          "type": "address"
        },
        {
          "internalType": "string",
          "name": "symbol",
          "type": "string"
        },
        {
          "internalType": "uint256",
          "name": "amount",
          "type": "uint256"
        }
      ],
      "payable": false,
      "stateMutability": "view",
      "type": "function"
    },
    {
      "constant": false,
      "inputs": [
        {
          "internalType": "uint256",
          "name": "_valsetVersion",
          "type": "uint256"
        },
        {
          "internalType": "address",
          "name": "_validatorAddress",
          "type": "address"
        }
      ],
      "name": "recoverGas",
      "outputs": [],
      "payable": false,
      "stateMutability": "nonpayable",
      "type": "function"
    },
    {
      "constant": false,
      "inputs": [
        {
          "internalType": "address",
          "name": "_validatorAddress",
          "type": "address"
        }
      ],
      "name": "removeValidator",
      "outputs": [],
      "payable": false,
      "stateMutability": "nonpayable",
      "type": "function"
    },
    {
      "constant": true,
      "inputs": [],
      "name": "totalPower",
      "outputs": [
        {
          "internalType": "uint256",
          "name": "",
          "type": "uint256"
        }
      ],
      "payable": false,
      "stateMutability": "view",
      "type": "function"
    },
    {
      "constant": false,
      "inputs": [
        {
          "internalType": "address",
          "name": "_validatorAddress",
          "type": "address"
        },
        {
          "internalType": "uint256",
          "name": "_newValidatorPower",
          "type": "uint256"
        }
      ],
      "name": "updateValidatorPower",
      "outputs": [],
      "payable": false,
      "stateMutability": "nonpayable",
      "type": "function"
    },
    {
      "constant": false,
      "inputs": [
        {
          "internalType": "address[]",
          "name": "_validators",
          "type": "address[]"
        },
        {
          "internalType": "uint256[]",
          "name": "_powers",
          "type": "uint256[]"
        }
      ],
      "name": "updateValset",
      "outputs": [],
      "payable": false,
      "stateMutability": "nonpayable",
      "type": "function"
    },
    {
      "constant": true,
      "inputs": [],
      "name": "validatorCount",
      "outputs": [
        {
          "internalType": "uint256",
          "name": "",
          "type": "uint256"
        }
      ],
      "payable": false,
      "stateMutability": "view",
      "type": "function"
    },
    {
      "constant": true,
      "inputs": [
        {
          "internalType": "address",
          "name": "",
          "type": "address"
        },
        {
          "internalType": "uint256",
          "name": "",
          "type": "uint256"
        }
      ],
      "name": "validators",
      "outputs": [
        {
          "internalType": "bool",
          "name": "",
          "type": "bool"
        }
      ],
      "payable": false,
      "stateMutability": "view",
      "type": "function"
    },
    {
      "constant": true,
      "inputs": [],
      "name": "valset",
      "outputs": [
        {
          "internalType": "address payable",
          "name": "",
          "type": "address"
        }
      ],
      "payable": false,
      "stateMutability": "view",
      "type": "function"
    },
    {
      "constant": false,
      "inputs": [
        {
          "internalType": "address",
          "name": "_operator",
          "type": "address"
        },
        {
          "internalType": "uint256",
          "name": "_consensusThreshold",
          "type": "uint256"
        },
        {
          "internalType": "address[]",
          "name": "_initValidators",
          "type": "address[]"
        },
        {
          "internalType": "uint256[]",
          "name": "_initPowers",
          "type": "uint256[]"
        }
      ],
      "name": "initialize",
      "outputs": [],
      "payable": false,
      "stateMutability": "nonpayable",
      "type": "function"
    },
    {
      "constant": false,
      "inputs": [
        {
          "internalType": "address payable",
          "name": "_bridgeBank",
          "type": "address"
        }
      ],
      "name": "setBridgeBank",
      "outputs": [],
      "payable": false,
      "stateMutability": "nonpayable",
      "type": "function"
    },
    {
      "constant": true,
      "inputs": [
        {
          "internalType": "enum CosmosBridgeStorage.ClaimType",
          "name": "_claimType",
          "type": "uint8"
        },
        {
          "internalType": "bytes",
          "name": "_cosmosSender",
          "type": "bytes"
        },
        {
          "internalType": "uint256",
          "name": "_cosmosSenderSequence",
          "type": "uint256"
        },
        {
          "internalType": "address payable",
          "name": "_ethereumReceiver",
          "type": "address"
        },
        {
          "internalType": "string",
          "name": "_symbol",
          "type": "string"
        },
        {
          "internalType": "uint256",
          "name": "_amount",
          "type": "uint256"
        }
      ],
      "name": "getProphecyID",
      "outputs": [
        {
          "internalType": "uint256",
          "name": "",
          "type": "uint256"
        }
      ],
      "payable": false,
      "stateMutability": "pure",
      "type": "function"
    },
    {
      "constant": false,
      "inputs": [
        {
          "internalType": "enum CosmosBridgeStorage.ClaimType",
          "name": "_claimType",
          "type": "uint8"
        },
        {
          "internalType": "bytes",
          "name": "_cosmosSender",
          "type": "bytes"
        },
        {
          "internalType": "uint256",
          "name": "_cosmosSenderSequence",
          "type": "uint256"
        },
        {
          "internalType": "address payable",
          "name": "_ethereumReceiver",
          "type": "address"
        },
        {
          "internalType": "string",
          "name": "_symbol",
          "type": "string"
        },
        {
          "internalType": "uint256",
          "name": "_amount",
          "type": "uint256"
        }
      ],
      "name": "newProphecyClaim",
      "outputs": [],
      "payable": false,
      "stateMutability": "nonpayable",
      "type": "function"
    }
  ],
  "bytecode": "0x608060405234801561001057600080fd5b506131bb806100206000396000f3fe608060405234801561001057600080fd5b50600436106101b95760003560e01c80637dc0d1d0116100f9578063aef6ac3a11610097578063db3ad22c11610071578063db3ad22c146108a2578063db4237af146108aa578063f9b0b5b914610955578063fc6c1f021461095d576101b9565b8063aef6ac3a14610831578063b0e9ef711461086e578063b5672be314610876576101b9565b8063850f43dd116100d3578063850f43dd146106955780638d56c37d146106c15780639a19224f146106c9578063a219763e14610805576101b9565b80637dc0d1d01461065f5780637f54af0c14610667578063814c92c31461066f576101b9565b8063473691a41161016657806369294a4e1161014057806369294a4e146104325780636e850da41461043a578063788cf92f1461051b57806378ffb1c614610642576101b9565b8063473691a4146102b6578063570ca735146102dc5780635d4c66a3146102e4576101b9565b806340550a1c1161019757806340550a1c1461022a57806340a141ff1461026457806345aaf18c1461028a576101b9565b80630e41f373146101be5780630f43a677146101e25780632e75293b146101fc575b600080fd5b6101c6610989565b604080516001600160a01b039092168252519081900360200190f35b6101ea610998565b60408051918252519081900360200190f35b6102286004803603604081101561021257600080fd5b506001600160a01b03813516906020013561099e565b005b6102506004803603602081101561024057600080fd5b50356001600160a01b0316610b2e565b604080519115158252519081900360200190f35b6102286004803603602081101561027a57600080fd5b50356001600160a01b0316610b59565b610250600480360360408110156102a057600080fd5b506001600160a01b038135169060200135610d05565b6101ea600480360360208110156102cc57600080fd5b50356001600160a01b0316610d25565b6101c6610d4d565b610228600480360360c08110156102fa57600080fd5b60ff823516919081019060408101602082013564010000000081111561031f57600080fd5b82018360208201111561033157600080fd5b8035906020019184600183028401116401000000008311171561035357600080fd5b91908080601f01602080910402602001604051908101604052809392919081815260200183838082843760009201919091525092958435956001600160a01b03602087013516959194509250606081019150604001356401000000008111156103bb57600080fd5b8201836020820111156103cd57600080fd5b803590602001918460018302840111640100000000831117156103ef57600080fd5b91908080601f0160208091040260200160405190810160405280939291908181526020018383808284376000920191909152509295505091359250610d5c915050565b610250611eee565b6101ea600480360360c081101561045057600080fd5b60ff823516919081019060408101602082013564010000000081111561047557600080fd5b82018360208201111561048757600080fd5b803590602001918460018302840111640100000000831117156104a957600080fd5b919390928235926001600160a01b036020820135169291906060810190604001356401000000008111156104dc57600080fd5b8201836020820111156104ee57600080fd5b8035906020019184600183028401116401000000008311171561051057600080fd5b919350915035611efe565b6102286004803603604081101561053157600080fd5b81019060208101813564010000000081111561054c57600080fd5b82018360208201111561055e57600080fd5b8035906020019184602083028401116401000000008311171561058057600080fd5b91908080602002602001604051908101604052809392919081815260200183836020028082843760009201919091525092959493602081019350359150506401000000008111156105d057600080fd5b8201836020820111156105e257600080fd5b8035906020019184602083028401116401000000008311171561060457600080fd5b919080806020026020016040519081016040528093929190818152602001838360200280828437600092019190915250929550611f8b945050505050565b6101ea6004803603602081101561065857600080fd5b50356120ca565b6101c66120dc565b6101c66120eb565b6102286004803603602081101561068557600080fd5b50356001600160a01b03166120fa565b6101ea600480360360408110156106ab57600080fd5b506001600160a01b038135169060200135612210565b6101ea61222d565b610228600480360360808110156106df57600080fd5b6001600160a01b038235169160208101359181019060608101604082013564010000000081111561070f57600080fd5b82018360208201111561072157600080fd5b8035906020019184602083028401116401000000008311171561074357600080fd5b919080806020026020016040519081016040528093929190818152602001838360200280828437600092019190915250929594936020810193503591505064010000000081111561079357600080fd5b8201836020820111156107a557600080fd5b803590602001918460208302840111640100000000831117156107c757600080fd5b919080806020026020016040519081016040528093929190818152602001838360200280828437600092019190915250929550612233945050505050565b6102506004803603604081101561081b57600080fd5b50803590602001356001600160a01b0316612320565b61084e6004803603602081101561084757600080fd5b5035612340565b604080519315158452602084019290925282820152519081900360600190f35b6101c6612399565b6102286004803603604081101561088c57600080fd5b50803590602001356001600160a01b03166123a8565b6101ea612485565b6108c7600480360360208110156108c057600080fd5b503561248b565b604080516001600160a01b0385168152908101829052606060208083018281528551928401929092528451608084019186019080838360005b83811015610918578181015183820152602001610900565b50505050905090810190601f1680156109455780820380516001836020036101000a031916815260200191505b5094505050505060405180910390f35b6101ea612545565b6102286004803603604081101561097357600080fd5b506001600160a01b03813516906020013561254b565b6004546001600160a01b031681565b60d55481565b60d7546001600160a01b031633146109f5576040805162461bcd60e51b815260206004820152601560248201527426bab9ba103132903a34329037b832b930ba37b91760591b604482015290519081900360640190fd5b6001600160a01b038216600090815260d66020908152604080832060d454845290915290205460ff16610a595760405162461bcd60e51b815260040180806020018281038252602e81526020018061312a602e913960400191505060405180910390fd5b6001600160a01b038216600090815260d86020908152604080832060d454845290915290205460d354610a92908263ffffffff6125b016565b60d3819055610aa7908363ffffffff6125fb16565b60d39081556001600160a01b038416600081815260d86020908152604080832060d48054855290835292819020879055915460d55494548351948552918401879052838301526060830193909352608082019290925290517f335940ce4119f8aae891d73dba74510a3d51f6210134d058237f26e6a31d53409181900360a00190a1505050565b6001600160a01b0316600090815260d66020908152604080832060d454845290915290205460ff1690565b60d7546001600160a01b03163314610bb0576040805162461bcd60e51b815260206004820152601560248201527426bab9ba103132903a34329037b832b930ba37b91760591b604482015290519081900360640190fd5b6001600160a01b038116600090815260d66020908152604080832060d454845290915290205460ff16610c145760405162461bcd60e51b815260040180806020018281038252602181526020018061302f6021913960400191505060405180910390fd5b60d554610c2890600163ffffffff6125b016565b60d5556001600160a01b038116600090815260d86020908152604080832060d454845290915290205460d354610c639163ffffffff6125b016565b60d39081556001600160a01b038216600081815260d66020908152604080832060d480548552908352818420805460ff1916905584845260d883528184208154855283528184208490555460d5549554825195865292850193909352838101929092526060830193909352608082019290925290517f1241fb43a101ff98ab819a1882097d4ccada51ba60f326c1981cc48840f55b8c9181900360a00190a150565b60d660209081526000928352604080842090915290825290205460ff1681565b6001600160a01b0316600090815260d86020908152604080832060d454845290915290205490565b60d7546001600160a01b031681565b610d6533610b2e565b610db6576040805162461bcd60e51b815260206004820152601b60248201527f4d75737420626520616e206163746976652076616c696461746f720000000000604482015290519081900360640190fd5b600086868686868660405160200180876002811115610dd157fe5b60ff1660f81b815260010186805190602001908083835b60208310610e075780518252601f199092019160209182019101610de8565b51815160209384036101000a60001901801990921691161790529201878152606087901b6bffffffffffffffffffffffff1916818401528551603490910192860191508083835b60208310610e6d5780518252601f199092019160209182019101610e4e565b51815160209384036101000a600019018019909216911617905292019384525060408051808503815293820190528251920191909120965060009550610eba945086935061234092505050565b505090508015610f11576040805162461bcd60e51b815260206004820152601160248201527f70726f7068656379436f6d706c65746564000000000000000000000000000000604482015290519081900360640190fd5b6000828152606d60205260409020546119285760606001896002811115610f3457fe5b14156113ee57600480546040516373d8866560e01b815260209281018381528851602483015288516001600160a01b03909316936373d88665938a9383926044909101919085019080838360005b83811015610f9a578181015183820152602001610f82565b50505050905090810190601f168015610fc75780820380516001836020036101000a031916815260200191505b509250505060006040518083038186803b158015610fe457600080fd5b505afa158015610ff8573d6000803e3d6000fd5b505050506040513d6000823e601f3d908101601f19168201604052602081101561102157600080fd5b810190808051604051939291908464010000000082111561104157600080fd5b90830190602082018581111561105657600080fd5b825164010000000081118282018810171561107057600080fd5b82525081516020918201929091019080838360005b8381101561109d578181015183820152602001611085565b50505050905090810190601f1680156110ca5780820380516001836020036101000a031916815260200191505b506040819052600480547f5acba65500000000000000000000000000000000000000000000000000000000835260209183018281528751602485015287519798508b976001600160a01b039092169650635acba65595508894509283926044909101919085019080838360005b8381101561114f578181015183820152602001611137565b50505050905090810190601f16801561117c5780820380516001836020036101000a031916815260200191505b509250505060206040518083038186803b15801561119957600080fd5b505afa1580156111ad573d6000803e3d6000fd5b505050506040513d60208110156111c357600080fd5b505110156112025760405162461bcd60e51b815260040180806020018281038252603a8152602001806130bb603a913960400191505060405180910390fd5b6004805460405163050fcdb360e11b815260209281018381528451602483015284516000946001600160a01b0390941693630a1f9b669387939283926044909201918501908083838b5b8381101561126457818101518382015260200161124c565b50505050905090810190601f1680156112915780820380516001836020036101000a031916815260200191505b509250505060206040518083038186803b1580156112ae57600080fd5b505afa1580156112c2573d6000803e3d6000fd5b505050506040513d60208110156112d857600080fd5b505190506001600160a01b0381161580156113965750604080517f6574680000000000000000000000000000000000000000000000000000000000815290519081900360030181208351909184916020918201918291908401908083835b602083106113555780518252601f199092019160209182019101611336565b6001836020036101000a0380198251168184511680821785525050505050509050019150506040516020818303038152906040528051906020012060001c14155b156113e8576040805162461bcd60e51b815260206004820152601560248201527f496e76616c696420746f6b656e20616464726573730000000000000000000000604482015290519081900360640190fd5b5061184d565b60028960028111156113fc57fe5b14156118165760008054604080516020601f6002600019610100600188161502019095169490940493840181900481028201810190925282815261149a939092909183018282801561148f5780601f106114645761010080835404028352916020019161148f565b820191906000526020600020905b81548152906001019060200180831161147257829003601f168201915b505050505086612655565b600480546040516373d8866560e01b815260209281018381528451602483015284519495506001600160a01b03909216936373d8866593869392839260449091019185019080838360005b838110156114fd5781810151838201526020016114e5565b50505050905090810190601f16801561152a5780820380516001836020036101000a031916815260200191505b509250505060006040518083038186803b15801561154757600080fd5b505afa15801561155b573d6000803e3d6000fd5b505050506040513d6000823e601f3d908101601f19168201604052602081101561158457600080fd5b81019080805160405193929190846401000000008211156115a457600080fd5b9083019060208201858111156115b957600080fd5b82516401000000008111828201881017156115d357600080fd5b82525081516020918201929091019080838360005b838110156116005781810151838201526020016115e8565b50505050905090810190601f16801561162d5780820380516001836020036101000a031916815260200191505b5060408190526004805463ebb73ca960e01b835260209183018281528751602485015287519798506000976001600160a01b03909216965063ebb73ca99550889450928392604490910191908501908083838b5b83811015611699578181015183820152602001611681565b50505050905090810190601f1680156116c65780820380516001836020036101000a031916815260200191505b509250505060206040518083038186803b1580156116e357600080fd5b505afa1580156116f7573d6000803e3d6000fd5b505050506040513d602081101561170d57600080fd5b505190506001600160a01b0381166113e857600480546040517f50b06e4d00000000000000000000000000000000000000000000000000000000815260209281018381528551602483015285516001600160a01b03909316936350b06e4d93879383926044909101919085019080838360005b83811015611798578181015183820152602001611780565b50505050905090810190601f1680156117c55780820380516001836020036101000a031916815260200191505b5092505050602060405180830381600087803b1580156117e457600080fd5b505af11580156117f8573d6000803e3d6000fd5b505050506040513d602081101561180e57600080fd5b50505061184d565b60405162461bcd60e51b81526004018080602001828103825260358152602001806130866035913960400191505060405180910390fd5b7f4a5e641839ab01f64c7378be2bdcfe883606b326a7f4b46fc016690230dbd492838a8884886040518086815260200185600281111561188957fe5b60ff168152602001846001600160a01b03166001600160a01b0316815260200180602001838152602001828103825284818151815260200191508051906020019080838360005b838110156118e85781810151838201526020016118d0565b50505050905090810190601f1680156119155780820380516001836020036101000a031916815260200191505b50965050505050505060405180910390a1505b60006119348333612710565b90508015611ee357600060028a600281111561194c57fe5b1415611c625760008054604080516020601f600260001961010060018816150201909516949094049384018190048102820181019092528281526119ea93909290918301828280156119df5780601f106119b4576101008083540402835291602001916119df565b820191906000526020600020905b8154815290600101906020018083116119c257829003601f168201915b505050505087612655565b600480546040516373d8866560e01b81526020928101838152845160248301528451949a506001600160a01b03909216936373d88665938b9392839260449091019185019080838360005b83811015611a4d578181015183820152602001611a35565b50505050905090810190601f168015611a7a5780820380516001836020036101000a031916815260200191505b509250505060006040518083038186803b158015611a9757600080fd5b505afa158015611aab573d6000803e3d6000fd5b505050506040513d6000823e601f3d908101601f191682016040526020811015611ad457600080fd5b8101908080516040519392919084640100000000821115611af457600080fd5b908301906020820185811115611b0957600080fd5b8251640100000000811182820188101715611b2357600080fd5b82525081516020918201929091019080838360005b83811015611b50578181015183820152602001611b38565b50505050905090810190601f168015611b7d5780820380516001836020036101000a031916815260200191505b5060408190526004805463ebb73ca960e01b83526020918301828152875160248501528751979d506001600160a01b039091169663ebb73ca996508d955090935083926044019185019080838360005b83811015611be5578181015183820152602001611bcd565b50505050905090810190601f168015611c125780820380516001836020036101000a031916815260200191505b509250505060206040518083038186803b158015611c2f57600080fd5b505afa158015611c43573d6000803e3d6000fd5b505050506040513d6020811015611c5957600080fd5b50519050611ed3565b600480546040516373d8866560e01b815260209281018381528951602483015289516001600160a01b03909316936373d88665938b9383926044909101919085019080838360005b83811015611cc2578181015183820152602001611caa565b50505050905090810190601f168015611cef5780820380516001836020036101000a031916815260200191505b509250505060006040518083038186803b158015611d0c57600080fd5b505afa158015611d20573d6000803e3d6000fd5b505050506040513d6000823e601f3d908101601f191682016040526020811015611d4957600080fd5b8101908080516040519392919084640100000000821115611d6957600080fd5b908301906020820185811115611d7e57600080fd5b8251640100000000811182820188101715611d9857600080fd5b82525081516020918201929091019080838360005b83811015611dc5578181015183820152602001611dad565b50505050905090810190601f168015611df25780820380516001836020036101000a031916815260200191505b5060408190526004805463050fcdb360e11b83526020918301828152875160248501528751979d506001600160a01b0390911696630a1f9b6696508d955090935083926044019185019080838360005b83811015611e5a578181015183820152602001611e42565b50505050905090810190601f168015611e875780820380516001836020036101000a031916815260200191505b509250505060206040518083038186803b158015611ea457600080fd5b505afa158015611eb8573d6000803e3d6000fd5b505050506040513d6020811015611ece57600080fd5b505190505b611ee184828c8a8a8a6128ab565b505b505050505050505050565b600454600160a01b900460ff1681565b6000888888888888888860405160200180896002811115611f1b57fe5b60ff1660f81b8152600101888880828437919091018781526bffffffffffffffffffffffff19606088901b16602082015260340190508484808284379190910192835250506040805180830381526020928301909152805191012097505050505050505098975050505050505050565b60d7546001600160a01b03163314611fe2576040805162461bcd60e51b815260206004820152601560248201527426bab9ba103132903a34329037b832b930ba37b91760591b604482015290519081900360640190fd5b80518251146120225760405162461bcd60e51b815260040180806020018281038252602f815260200180613158602f913960400191505060405180910390fd5b61202a612930565b60005b825181101561207e5761206683828151811061204557fe5b602002602001015183838151811061205957fe5b6020026020010151612997565b61207781600163ffffffff6125fb16565b905061202d565b5060d45460d55460d35460408051938452602084019290925282820152517f3a7ef0da3179668af8114719645585b5a37092ef2d66f187dcf63d83a221eaa69181900360600190a15050565b606d6020526000908152604090205481565b6003546001600160a01b031681565b6002546001600160a01b031681565b60d7546001600160a01b03163314612151576040805162461bcd60e51b815260206004820152601560248201527426bab9ba103132903a34329037b832b930ba37b91760591b604482015290519081900360640190fd5b600454600160a01b900460ff161561219a5760405162461bcd60e51b81526004018080602001828103825260368152602001806130506036913960400191505060405180910390fd5b60048054600160a01b60ff60a01b199091161773ffffffffffffffffffffffffffffffffffffffff19166001600160a01b03838116919091179182905560408051929091168252517fc8b65043fb196ac032b79a435397d1d14a96b4e9d12e366c3b1f550cb01d2dfa916020908290030190a150565b60d860209081526000928352604080842090915290825290205481565b60d45481565b61013d5462010000900460ff1615612280576040805162461bcd60e51b815260206004820152600b60248201526a125b9a5d1a585b1a5e995960aa1b604482015290519081900360640190fd5b6040805180820190915260018082527f650000000000000000000000000000000000000000000000000000000000000060209092019182526122c491600091612f13565b5060d780546001600160a01b03861673ffffffffffffffffffffffffffffffffffffffff199091161790556004805460ff60a01b1916905561013d805462ff000019166201000017905561231a84848484612a65565b50505050565b606e60209081526000928352604080842090915290825290205460ff1681565b60d3546000828152606d6020526040812054606c549192839283929190839061237090839063ffffffff612b9016565b9050600061238584606463ffffffff612b9016565b828110159990985091965090945050505050565b606a546001600160a01b031681565b60d7546001600160a01b031633146123ff576040805162461bcd60e51b815260206004820152601560248201527426bab9ba103132903a34329037b832b930ba37b91760591b604482015290519081900360640190fd5b60d454821061243f5760405162461bcd60e51b81526004018080602001828103825260358152602001806130f56035913960400191505060405180910390fd5b6001600160a01b0316600081815260d66020908152604080832060d480548552908352818420805460ff1916905593835260d88252808320935483529290529081205550565b60d35481565b6005602090815260009182526040918290208054600180830180548651600261010094831615949094026000190190911692909204601f81018690048602830186019096528582526001600160a01b039092169492939092908301828280156125355780601f1061250a57610100808354040283529160200191612535565b820191906000526020600020905b81548152906001019060200180831161251857829003601f168201915b5050505050908060020154905083565b606c5481565b60d7546001600160a01b031633146125a2576040805162461bcd60e51b815260206004820152601560248201527426bab9ba103132903a34329037b832b930ba37b91760591b604482015290519081900360640190fd5b6125ac8282612997565b5050565b60006125f283836040518060400160405280601e81526020017f536166654d6174683a207375627472616374696f6e206f766572666c6f770000815250612be9565b90505b92915050565b6000828201838110156125f2576040805162461bcd60e51b815260206004820152601b60248201527f536166654d6174683a206164646974696f6e206f766572666c6f770000000000604482015290519081900360640190fd5b606082826040516020018083805190602001908083835b6020831061268b5780518252601f19909201916020918201910161266c565b51815160209384036101000a600019018019909216911617905285519190930192850191508083835b602083106126d35780518252601f1990920191602091820191016126b4565b6001836020036101000a03801982511681845116808217855250505050505090500192505050604051602081830303815290604052905092915050565b6000828152606e602090815260408083206001600160a01b038516845290915281205460ff16156127725760405162461bcd60e51b815260040180806020018281038252603a815260200180612fd4603a913960400191505060405180910390fd5b6000838152606e602090815260408083206001600160a01b03861680855290835292819020805460ff1916600117905580517f473691a400000000000000000000000000000000000000000000000000000000815260048101939093525161283d92309263473691a492602480840193829003018186803b1580156127f657600080fd5b505afa15801561280a573d6000803e3d6000fd5b505050506040513d602081101561282057600080fd5b50516000858152606d60205260409020549063ffffffff6125fb16565b6000848152606d60209081526040918290209290925580518581526001600160a01b0385169281019290925280517f668fce9833323940537a9000d512a6c580a1c0797d2b526db0078ee9c5a087a99281900390910190a160006128a084612340565b509095945050505050565b60018460028111156128b957fe5b14156128cf576128ca838383612c80565b6128db565b6128db83868484612d79565b7f79e7c1c0bd54f11809c3bf6023c242783602d61ceff272c6bba6f8559c24ad0d86856040518083815260200182600281111561291457fe5b60ff1681526020019250505060405180910390a1505050505050565b60d45461294490600163ffffffff6125fb16565b60d4819055600060d581905560d3819055604080519283526020830182905282810191909152517fd870653e19f161500290fd0c4ca41bf5cf2bcb1ba66448f41c66c512dabd65f29181900360600190a1565b60d5546129ab90600163ffffffff6125fb16565b60d55560d3546129c1908263ffffffff6125fb16565b60d39081556001600160a01b038316600081815260d66020908152604080832060d480548552908352818420805460ff1916600117905584845260d8835281842081548552835292819020869055915460d55494548351948552918401869052838301526060830193909352608082019290925290517f1a396bcf647502e902dce665d58a0c1b25f982f193ab9a1d0f1500d8d927bf2a9181900360a00190a15050565b61013d54610100900460ff1615612ab1576040805162461bcd60e51b815260206004820152600b60248201526a125b9a5d1a585b1a5e995960aa1b604482015290519081900360640190fd5b60008311612af05760405162461bcd60e51b8152600401808060200182810382526025815260200180612faf6025913960400191505060405180910390fd5b6064831115612b46576040805162461bcd60e51b815260206004820152601c60248201527f496e76616c696420636f6e73656e737573207468726573686f6c642e00000000604482015290519081900360640190fd5b60d780546001600160a01b03861673ffffffffffffffffffffffffffffffffffffffff19909116179055606c83905561013d805461ff00191661010017905561231a848383612e82565b600082612b9f575060006125f5565b82820282848281612bac57fe5b04146125f25760405162461bcd60e51b815260040180806020018281038252602181526020018061300e6021913960400191505060405180910390fd5b60008184841115612c785760405162461bcd60e51b81526004018080602001828103825283818151815260200191508051906020019080838360005b83811015612c3d578181015183820152602001612c25565b50505050905090810190601f168015612c6a5780820380516001836020036101000a031916815260200191505b509250505060405180910390fd5b505050900390565b600480546040517fe05988a40000000000000000000000000000000000000000000000000000000081526001600160a01b0386811693820193845260448201859052606060248301908152865160648401528651919093169363e05988a493889388938893929160840190602086019080838360005b83811015612d0e578181015183820152602001612cf6565b50505050905090810190601f168015612d3b5780820380516001836020036101000a031916815260200191505b50945050505050600060405180830381600087803b158015612d5c57600080fd5b505af1158015612d70573d6000803e3d6000fd5b50505050505050565b600480546040517ffce0b8310000000000000000000000000000000000000000000000000000000081526001600160a01b03878116938201938452868116602483015260648201859052608060448301908152865160848401528651919093169363fce0b8319389938993899389939092909160a490910190602086019080838360005b83811015612e15578181015183820152602001612dfd565b50505050905090810190601f168015612e425780820380516001836020036101000a031916815260200191505b5095505050505050600060405180830381600087803b158015612e6457600080fd5b505af1158015612e78573d6000803e3d6000fd5b5050505050505050565b61013d5460ff1615612ec9576040805162461bcd60e51b815260206004820152600b60248201526a125b9a5d1a585b1a5e995960aa1b604482015290519081900360640190fd5b60d7805473ffffffffffffffffffffffffffffffffffffffff19166001600160a01b038516179055600060d45561013d805460ff19166001179055612f0e8282611f8b565b505050565b828054600181600116156101000203166002900490600052602060002090601f016020900481019282601f10612f5457805160ff1916838001178555612f81565b82800160010185558215612f81579182015b82811115612f81578251825591602001919060010190612f66565b50612f8d929150612f91565b5090565b612fab91905b80821115612f8d5760008155600101612f97565b9056fe436f6e73656e737573207468726573686f6c64206d75737420626520706f7369746976652e43616e6e6f74206d616b65206475706c6963617465206f7261636c6520636c61696d732066726f6d207468652073616d6520616464726573732e536166654d6174683a206d756c7469706c69636174696f6e206f766572666c6f7743616e206f6e6c792072656d6f7665206163746976652076616c696461746f7273546865204272696467652042616e6b2063616e6e6f742062652075706461746564206f6e636520697420686173206265656e20736574496e76616c696420636c61696d20747970652c206f6e6c79206275726e20616e64206c6f636b2061726520737570706f727465642e4e6f7420656e6f756768206c6f636b65642061737365747320746f20636f6d706c657465207468652070726f706f7365642070726f7068656379476173207265636f76657279206f6e6c7920616c6c6f77656420666f722070726576696f75732076616c696461746f72207365747343616e206f6e6c79207570646174652074686520706f776572206f66206163746976652076616c646961746f727345766572792076616c696461746f72206d7573742068617665206120636f72726573706f6e64696e6720706f776572a265627a7a72315820bef1a89cd42b06734a97c83b69b4429dd482cd9c3b3102045935bdf9f10124f264736f6c63430005100032",
  "source": "pragma solidity 0.5.16;\n\nimport \"../node_modules/openzeppelin-solidity/contracts/math/SafeMath.sol\";\nimport \"./Valset.sol\";\nimport \"./Oracle.sol\";\nimport \"./BridgeBank/BridgeBank.sol\";\nimport \"./CosmosBridgeStorage.sol\";\n\n\ncontract CosmosBridge is CosmosBridgeStorage, Oracle {\n    using SafeMath for uint256;\n    \n    bool private _initialized;\n    uint256[100] private ___gap;\n\n    /*\n     * @dev: Event declarations\n     */\n\n    event LogOracleSet(address _oracle);\n\n    event LogBridgeBankSet(address _bridgeBank);\n\n    event LogNewProphecyClaim(\n        uint256 _prophecyID,\n        ClaimType _claimType,\n        address payable _ethereumReceiver,\n        string _symbol,\n        uint256 _amount\n    );\n\n    event LogProphecyCompleted(uint256 _prophecyID, ClaimType _claimType);\n\n    /*\n     * @dev: Modifier to restrict access to the operator.\n     */\n    modifier onlyOperator() {\n        require(msg.sender == operator, \"Must be the operator.\");\n        _;\n    }\n\n    /*\n     * @dev: Modifier to restrict access to current ValSet validators\n     */\n    modifier onlyValidator() {\n        require(\n            isActiveValidator(msg.sender),\n            \"Must be an active validator\"\n        );\n        _;\n    }\n\n    /*\n     * @dev: Constructor\n     */\n    function initialize(\n        address _operator,\n        uint256 _consensusThreshold,\n        address[] memory _initValidators,\n        uint256[] memory _initPowers\n    ) public {\n        require(!_initialized, \"Initialized\");\n\n        COSMOS_NATIVE_ASSET_PREFIX = \"e\";\n        operator = _operator;\n        hasBridgeBank = false;\n        _initialized = true;\n        Oracle._initialize(\n            _operator,\n            _consensusThreshold,\n            _initValidators,\n            _initPowers\n        );\n    }\n\n    /*\n     * @dev: setBridgeBank\n     */\n    function setBridgeBank(address payable _bridgeBank) public onlyOperator {\n        require(\n            !hasBridgeBank,\n            \"The Bridge Bank cannot be updated once it has been set\"\n        );\n\n        hasBridgeBank = true;\n        bridgeBank = _bridgeBank;\n\n        emit LogBridgeBankSet(bridgeBank);\n    }\n\n    function getProphecyID(\n        ClaimType _claimType,\n        bytes calldata _cosmosSender,\n        uint256 _cosmosSenderSequence,\n        address payable _ethereumReceiver,\n        string calldata _symbol,\n        uint256 _amount\n    ) external pure returns (uint256) {\n        return uint256(keccak256(abi.encodePacked(_claimType, _cosmosSender, _cosmosSenderSequence, _ethereumReceiver, _symbol, _amount)));\n    }\n\n    /*\n     * @dev: newProphecyClaim\n     *       Creates a new burn or lock prophecy claim, adding it to the prophecyClaims mapping.\n     *       Burn claims require that there are enough locked Ethereum assets to complete the prophecy.\n     *       Lock claims have a new token contract deployed or use an existing contract based on symbol.\n     */\n    function newProphecyClaim(\n        ClaimType _claimType,\n        bytes memory _cosmosSender,\n        uint256 _cosmosSenderSequence,\n        address payable _ethereumReceiver,\n        string memory _symbol,\n        uint256 _amount\n    ) public onlyValidator {\n        uint256 _prophecyID = uint256(keccak256(abi.encodePacked(_claimType, _cosmosSender, _cosmosSenderSequence, _ethereumReceiver, _symbol, _amount)));\n        (bool prophecyCompleted, , ) = getProphecyThreshold(_prophecyID);\n        require(!prophecyCompleted, \"prophecyCompleted\");\n\n        if (oracleClaimValidators[_prophecyID] == 0) {\n            string memory symbol;\n            if (_claimType == ClaimType.Burn) {\n                symbol = BridgeBank(bridgeBank).safeLowerToUpperTokens(_symbol);\n                require(\n                    BridgeBank(bridgeBank).getLockedFunds(symbol) >= _amount,\n                    \"Not enough locked assets to complete the proposed prophecy\"\n                );\n                address tokenAddress = BridgeBank(bridgeBank).getLockedTokenAddress(symbol);\n                if (tokenAddress == address(0) && uint256(keccak256(abi.encodePacked(symbol))) != uint256(keccak256(\"eth\"))) {\n                    revert(\"Invalid token address\");\n                }\n            } else if (_claimType == ClaimType.Lock) {\n                symbol = concat(COSMOS_NATIVE_ASSET_PREFIX, _symbol); // Add 'e' symbol prefix\n                symbol = BridgeBank(bridgeBank).safeLowerToUpperTokens(symbol);\n                address bridgeTokenAddress = BridgeBank(bridgeBank).getBridgeToken(symbol);\n                if (bridgeTokenAddress == address(0)) {\n                    // First lock of this asset, deploy new contract and get new symbol/token address\n                    BridgeBank(bridgeBank).createNewBridgeToken(symbol);\n                }\n            } else {\n                revert(\"Invalid claim type, only burn and lock are supported.\");\n            }\n\n            emit LogNewProphecyClaim(\n                _prophecyID,\n                _claimType,\n                _ethereumReceiver,\n                symbol,\n                _amount\n            );\n        }\n\n        bool claimComplete = newOracleClaim(_prophecyID, msg.sender);\n\n        if (claimComplete) {\n            address tokenAddress;\n            if (_claimType == ClaimType.Lock) {\n                _symbol = concat(COSMOS_NATIVE_ASSET_PREFIX, _symbol);\n                _symbol = BridgeBank(bridgeBank).safeLowerToUpperTokens(_symbol);\n                tokenAddress = BridgeBank(bridgeBank).getBridgeToken(_symbol);\n            } else {\n                _symbol = BridgeBank(bridgeBank).safeLowerToUpperTokens(_symbol);\n                tokenAddress = BridgeBank(bridgeBank).getLockedTokenAddress(_symbol);\n            }\n            completeProphecyClaim(\n                _prophecyID,\n                tokenAddress,\n                _claimType,\n                _ethereumReceiver,\n                _symbol,\n                _amount\n            );\n        }\n    }\n\n    /*\n     * @dev: completeProphecyClaim\n     *       Allows for the completion of ProphecyClaims once processed by the Oracle.\n     *       Burn claims unlock tokens stored by BridgeBank.\n     *       Lock claims mint BridgeTokens on BridgeBank's token whitelist.\n     */\n    function completeProphecyClaim(\n        uint256 _prophecyID,\n        address tokenAddress,\n        ClaimType claimType,\n        address payable ethereumReceiver,\n        string memory symbol,\n        uint256 amount\n    ) internal {\n\n        if (claimType == ClaimType.Burn) {\n            unlockTokens(ethereumReceiver, symbol, amount);\n        } else {\n            issueBridgeTokens(ethereumReceiver, tokenAddress, symbol, amount);\n        }\n\n        emit LogProphecyCompleted(_prophecyID, claimType);\n    }\n\n    /*\n     * @dev: issueBridgeTokens\n     *       Issues a request for the BridgeBank to mint new BridgeTokens\n     */\n    function issueBridgeTokens(\n        address payable ethereumReceiver,\n        address tokenAddress,\n        string memory symbol,\n        uint256 amount\n    ) internal {\n        BridgeBank(bridgeBank).mintBridgeTokens(\n            ethereumReceiver,\n            tokenAddress,\n            symbol,\n            amount\n        );\n    }\n\n    /*\n     * @dev: unlockTokens\n     *       Issues a request for the BridgeBank to unlock funds held on contract\n     */\n    function unlockTokens(\n        address payable ethereumReceiver,\n        string memory symbol,\n        uint256 amount\n    ) internal {\n        BridgeBank(bridgeBank).unlock(\n            ethereumReceiver,\n            symbol,\n            amount\n        );\n    }\n\n    /*\n     * @dev: Performs low gas-comsuption string concatenation\n     *\n     * @param _prefix: start of the string\n     * @param _suffix: end of the string\n     */\n    function concat(string memory _prefix, string memory _suffix)\n        internal\n        pure\n        returns (string memory)\n    {\n        return string(abi.encodePacked(_prefix, _suffix));\n    }\n}\n",
  "sourcePath": "/Users/bjmcd/Documents/Development/Clients/sifchain/sifnode/smart-contracts/contracts/CosmosBridge.sol",
  "compiler": {
    "name": "solc",
    "version": "0.5.16+commit.9c3226ce.Emscripten.clang"
  },
  "schemaVersion": "3.3.2",
  "updatedAt": "2021-01-31T03:30:16.523Z",
  "networkType": "ethereum",
  "devdoc": {
    "methods": {}
  },
  "userdoc": {
    "methods": {}
  }
}