{
  "contractName": "MockCosmosBridgeUpgrade",
  "abi": [
    {
      "anonymous": false,
      "inputs": [
        {
          "indexed": false,
          "internalType": "address",
          "name": "_bridgeBank",
          "type": "address"
        }
      ],
      "name": "LogBridgeBankSet",
      "type": "event"
    },
    {
      "anonymous": false,
      "inputs": [
        {
          "indexed": false,
          "internalType": "uint256",
          "name": "_prophecyID",
          "type": "uint256"
        },
        {
          "indexed": false,
          "internalType": "address",
          "name": "_validatorAddress",
          "type": "address"
        }
      ],
      "name": "LogNewOracleClaim",
      "type": "event"
    },
    {
      "anonymous": false,
      "inputs": [
        {
          "indexed": false,
          "internalType": "uint256",
          "name": "_prophecyID",
          "type": "uint256"
        },
        {
          "indexed": false,
          "internalType": "enum CosmosBridgeStorage.ClaimType",
          "name": "_claimType",
          "type": "uint8"
        },
        {
          "indexed": false,
          "internalType": "address payable",
          "name": "_ethereumReceiver",
          "type": "address"
        },
        {
          "indexed": false,
          "internalType": "string",
          "name": "_symbol",
          "type": "string"
        },
        {
          "indexed": false,
          "internalType": "uint256",
          "name": "_amount",
          "type": "uint256"
        }
      ],
      "name": "LogNewProphecyClaim",
      "type": "event"
    },
    {
      "anonymous": false,
      "inputs": [
        {
          "indexed": false,
          "internalType": "address",
          "name": "_oracle",
          "type": "address"
        }
      ],
      "name": "LogOracleSet",
      "type": "event"
    },
    {
      "anonymous": false,
      "inputs": [
        {
          "indexed": false,
          "internalType": "uint256",
          "name": "_prophecyID",
          "type": "uint256"
        },
        {
          "indexed": false,
          "internalType": "enum CosmosBridgeStorage.ClaimType",
          "name": "_claimType",
          "type": "uint8"
        }
      ],
      "name": "LogProphecyCompleted",
      "type": "event"
    },
    {
      "anonymous": false,
      "inputs": [
        {
          "indexed": false,
          "internalType": "uint256",
          "name": "_prophecyID",
          "type": "uint256"
        },
        {
          "indexed": false,
          "internalType": "uint256",
          "name": "_prophecyPowerCurrent",
          "type": "uint256"
        },
        {
          "indexed": false,
          "internalType": "uint256",
          "name": "_prophecyPowerThreshold",
          "type": "uint256"
        },
        {
          "indexed": false,
          "internalType": "address",
          "name": "_submitter",
          "type": "address"
        }
      ],
      "name": "LogProphecyProcessed",
      "type": "event"
    },
    {
      "anonymous": false,
      "inputs": [
        {
          "indexed": false,
          "internalType": "address",
          "name": "_validator",
          "type": "address"
        },
        {
          "indexed": false,
          "internalType": "uint256",
          "name": "_power",
          "type": "uint256"
        },
        {
          "indexed": false,
          "internalType": "uint256",
          "name": "_currentValsetVersion",
          "type": "uint256"
        },
        {
          "indexed": false,
          "internalType": "uint256",
          "name": "_validatorCount",
          "type": "uint256"
        },
        {
          "indexed": false,
          "internalType": "uint256",
          "name": "_totalPower",
          "type": "uint256"
        }
      ],
      "name": "LogValidatorAdded",
      "type": "event"
    },
    {
      "anonymous": false,
      "inputs": [
        {
          "indexed": false,
          "internalType": "address",
          "name": "_validator",
          "type": "address"
        },
        {
          "indexed": false,
          "internalType": "uint256",
          "name": "_power",
          "type": "uint256"
        },
        {
          "indexed": false,
          "internalType": "uint256",
          "name": "_currentValsetVersion",
          "type": "uint256"
        },
        {
          "indexed": false,
          "internalType": "uint256",
          "name": "_validatorCount",
          "type": "uint256"
        },
        {
          "indexed": false,
          "internalType": "uint256",
          "name": "_totalPower",
          "type": "uint256"
        }
      ],
      "name": "LogValidatorPowerUpdated",
      "type": "event"
    },
    {
      "anonymous": false,
      "inputs": [
        {
          "indexed": false,
          "internalType": "address",
          "name": "_validator",
          "type": "address"
        },
        {
          "indexed": false,
          "internalType": "uint256",
          "name": "_power",
          "type": "uint256"
        },
        {
          "indexed": false,
          "internalType": "uint256",
          "name": "_currentValsetVersion",
          "type": "uint256"
        },
        {
          "indexed": false,
          "internalType": "uint256",
          "name": "_validatorCount",
          "type": "uint256"
        },
        {
          "indexed": false,
          "internalType": "uint256",
          "name": "_totalPower",
          "type": "uint256"
        }
      ],
      "name": "LogValidatorRemoved",
      "type": "event"
    },
    {
      "anonymous": false,
      "inputs": [
        {
          "indexed": false,
          "internalType": "uint256",
          "name": "_newValsetVersion",
          "type": "uint256"
        },
        {
          "indexed": false,
          "internalType": "uint256",
          "name": "_validatorCount",
          "type": "uint256"
        },
        {
          "indexed": false,
          "internalType": "uint256",
          "name": "_totalPower",
          "type": "uint256"
        }
      ],
      "name": "LogValsetReset",
      "type": "event"
    },
    {
      "anonymous": false,
      "inputs": [
        {
          "indexed": false,
          "internalType": "uint256",
          "name": "_newValsetVersion",
          "type": "uint256"
        },
        {
          "indexed": false,
          "internalType": "uint256",
          "name": "_validatorCount",
          "type": "uint256"
        },
        {
          "indexed": false,
          "internalType": "uint256",
          "name": "_totalPower",
          "type": "uint256"
        }
      ],
      "name": "LogValsetUpdated",
      "type": "event"
    },
    {
      "constant": false,
      "inputs": [
        {
          "internalType": "address",
          "name": "_validatorAddress",
          "type": "address"
        },
        {
          "internalType": "uint256",
          "name": "_validatorPower",
          "type": "uint256"
        }
      ],
      "name": "addValidator",
      "outputs": [],
      "payable": false,
      "stateMutability": "nonpayable",
      "type": "function"
    },
    {
      "constant": true,
      "inputs": [
        {
          "internalType": "address",
          "name": "account",
          "type": "address"
        }
      ],
      "name": "balanceOf",
      "outputs": [
        {
          "internalType": "uint256",
          "name": "",
          "type": "uint256"
        }
      ],
      "payable": false,
      "stateMutability": "view",
      "type": "function"
    },
    {
      "constant": true,
      "inputs": [],
      "name": "bridgeBank",
      "outputs": [
        {
          "internalType": "address payable",
          "name": "",
          "type": "address"
        }
      ],
      "payable": false,
      "stateMutability": "view",
      "type": "function"
    },
    {
      "constant": true,
      "inputs": [],
      "name": "consensusThreshold",
      "outputs": [
        {
          "internalType": "uint256",
          "name": "",
          "type": "uint256"
        }
      ],
      "payable": false,
      "stateMutability": "view",
      "type": "function"
    },
    {
      "constant": true,
      "inputs": [],
      "name": "cosmosBridge",
      "outputs": [
        {
          "internalType": "address",
          "name": "",
          "type": "address"
        }
      ],
      "payable": false,
      "stateMutability": "view",
      "type": "function"
    },
    {
      "constant": true,
      "inputs": [],
      "name": "currentValsetVersion",
      "outputs": [
        {
          "internalType": "uint256",
          "name": "",
          "type": "uint256"
        }
      ],
      "payable": false,
      "stateMutability": "view",
      "type": "function"
    },
    {
      "constant": true,
      "inputs": [
        {
          "internalType": "enum CosmosBridgeStorage.ClaimType",
          "name": "_claimType",
          "type": "uint8"
        },
        {
          "internalType": "bytes",
          "name": "_cosmosSender",
          "type": "bytes"
        },
        {
          "internalType": "uint256",
          "name": "_cosmosSenderSequence",
          "type": "uint256"
        },
        {
          "internalType": "address payable",
          "name": "_ethereumReceiver",
          "type": "address"
        },
        {
          "internalType": "string",
          "name": "_symbol",
          "type": "string"
        },
        {
          "internalType": "uint256",
          "name": "_amount",
          "type": "uint256"
        }
      ],
      "name": "getProphecyID",
      "outputs": [
        {
          "internalType": "uint256",
          "name": "",
          "type": "uint256"
        }
      ],
      "payable": false,
      "stateMutability": "pure",
      "type": "function"
    },
    {
      "constant": true,
      "inputs": [
        {
          "internalType": "uint256",
          "name": "_prophecyID",
          "type": "uint256"
        }
      ],
      "name": "getProphecyThreshold",
      "outputs": [
        {
          "internalType": "bool",
          "name": "",
          "type": "bool"
        },
        {
          "internalType": "uint256",
          "name": "",
          "type": "uint256"
        },
        {
          "internalType": "uint256",
          "name": "",
          "type": "uint256"
        }
      ],
      "payable": false,
      "stateMutability": "view",
      "type": "function"
    },
    {
      "constant": true,
      "inputs": [
        {
          "internalType": "address",
          "name": "_validatorAddress",
          "type": "address"
        }
      ],
      "name": "getValidatorPower",
      "outputs": [
        {
          "internalType": "uint256",
          "name": "",
          "type": "uint256"
        }
      ],
      "payable": false,
      "stateMutability": "view",
      "type": "function"
    },
    {
      "constant": true,
      "inputs": [],
      "name": "hasBridgeBank",
      "outputs": [
        {
          "internalType": "bool",
          "name": "",
          "type": "bool"
        }
      ],
      "payable": false,
      "stateMutability": "view",
      "type": "function"
    },
    {
      "constant": true,
      "inputs": [
        {
          "internalType": "uint256",
          "name": "",
          "type": "uint256"
        },
        {
          "internalType": "address",
          "name": "",
          "type": "address"
        }
      ],
      "name": "hasMadeClaim",
      "outputs": [
        {
          "internalType": "bool",
          "name": "",
          "type": "bool"
        }
      ],
      "payable": false,
      "stateMutability": "view",
      "type": "function"
    },
    {
      "constant": false,
      "inputs": [
        {
          "internalType": "address",
          "name": "_operator",
          "type": "address"
        },
        {
          "internalType": "uint256",
          "name": "_consensusThreshold",
          "type": "uint256"
        },
        {
          "internalType": "address[]",
          "name": "_initValidators",
          "type": "address[]"
        },
        {
          "internalType": "uint256[]",
          "name": "_initPowers",
          "type": "uint256[]"
        }
      ],
      "name": "initialize",
      "outputs": [],
      "payable": false,
      "stateMutability": "nonpayable",
      "type": "function"
    },
    {
      "constant": true,
      "inputs": [
        {
          "internalType": "address",
          "name": "_validatorAddress",
          "type": "address"
        }
      ],
      "name": "isActiveValidator",
      "outputs": [
        {
          "internalType": "bool",
          "name": "",
          "type": "bool"
        }
      ],
      "payable": false,
      "stateMutability": "view",
      "type": "function"
    },
    {
      "constant": false,
      "inputs": [
        {
          "internalType": "enum CosmosBridgeStorage.ClaimType",
          "name": "_claimType",
          "type": "uint8"
        },
        {
          "internalType": "bytes",
          "name": "_cosmosSender",
          "type": "bytes"
        },
        {
          "internalType": "uint256",
          "name": "_cosmosSenderSequence",
          "type": "uint256"
        },
        {
          "internalType": "address payable",
          "name": "_ethereumReceiver",
          "type": "address"
        },
        {
          "internalType": "string",
          "name": "_symbol",
          "type": "string"
        },
        {
          "internalType": "uint256",
          "name": "_amount",
          "type": "uint256"
        }
      ],
      "name": "newProphecyClaim",
      "outputs": [],
      "payable": false,
      "stateMutability": "nonpayable",
      "type": "function"
    },
    {
      "constant": true,
      "inputs": [],
      "name": "operator",
      "outputs": [
        {
          "internalType": "address",
          "name": "",
          "type": "address"
        }
      ],
      "payable": false,
      "stateMutability": "view",
      "type": "function"
    },
    {
      "constant": true,
      "inputs": [],
      "name": "oracle",
      "outputs": [
        {
          "internalType": "address payable",
          "name": "",
          "type": "address"
        }
      ],
      "payable": false,
      "stateMutability": "view",
      "type": "function"
    },
    {
      "constant": true,
      "inputs": [
        {
          "internalType": "uint256",
          "name": "",
          "type": "uint256"
        }
      ],
      "name": "oracleClaimValidators",
      "outputs": [
        {
          "internalType": "uint256",
          "name": "",
          "type": "uint256"
        }
      ],
      "payable": false,
      "stateMutability": "view",
      "type": "function"
    },
    {
      "constant": true,
      "inputs": [
        {
          "internalType": "address",
          "name": "",
          "type": "address"
        },
        {
          "internalType": "uint256",
          "name": "",
          "type": "uint256"
        }
      ],
      "name": "powers",
      "outputs": [
        {
          "internalType": "uint256",
          "name": "",
          "type": "uint256"
        }
      ],
      "payable": false,
      "stateMutability": "view",
      "type": "function"
    },
    {
      "constant": true,
      "inputs": [
        {
          "internalType": "uint256",
          "name": "",
          "type": "uint256"
        }
      ],
      "name": "prophecyClaims",
      "outputs": [
        {
          "internalType": "address payable",
          "name": "ethereumReceiver",
          "type": "address"
        },
        {
          "internalType": "string",
          "name": "symbol",
          "type": "string"
        },
        {
          "internalType": "uint256",
          "name": "amount",
          "type": "uint256"
        }
      ],
      "payable": false,
      "stateMutability": "view",
      "type": "function"
    },
    {
      "constant": false,
      "inputs": [
        {
          "internalType": "uint256",
          "name": "_valsetVersion",
          "type": "uint256"
        },
        {
          "internalType": "address",
          "name": "_validatorAddress",
          "type": "address"
        }
      ],
      "name": "recoverGas",
      "outputs": [],
      "payable": false,
      "stateMutability": "nonpayable",
      "type": "function"
    },
    {
      "constant": false,
      "inputs": [
        {
          "internalType": "address",
          "name": "_validatorAddress",
          "type": "address"
        }
      ],
      "name": "removeValidator",
      "outputs": [],
      "payable": false,
      "stateMutability": "nonpayable",
      "type": "function"
    },
    {
      "constant": false,
      "inputs": [
        {
          "internalType": "address payable",
          "name": "_bridgeBank",
          "type": "address"
        }
      ],
      "name": "setBridgeBank",
      "outputs": [],
      "payable": false,
      "stateMutability": "nonpayable",
      "type": "function"
    },
    {
      "constant": true,
      "inputs": [],
      "name": "totalPower",
      "outputs": [
        {
          "internalType": "uint256",
          "name": "",
          "type": "uint256"
        }
      ],
      "payable": false,
      "stateMutability": "view",
      "type": "function"
    },
    {
      "constant": false,
      "inputs": [
        {
          "internalType": "address",
          "name": "recipient",
          "type": "address"
        },
        {
          "internalType": "uint256",
          "name": "amount",
          "type": "uint256"
        }
      ],
      "name": "transfer",
      "outputs": [
        {
          "internalType": "bool",
          "name": "",
          "type": "bool"
        }
      ],
      "payable": false,
      "stateMutability": "nonpayable",
      "type": "function"
    },
    {
      "constant": false,
      "inputs": [
        {
          "internalType": "address",
          "name": "_validatorAddress",
          "type": "address"
        },
        {
          "internalType": "uint256",
          "name": "_newValidatorPower",
          "type": "uint256"
        }
      ],
      "name": "updateValidatorPower",
      "outputs": [],
      "payable": false,
      "stateMutability": "nonpayable",
      "type": "function"
    },
    {
      "constant": false,
      "inputs": [
        {
          "internalType": "address[]",
          "name": "_validators",
          "type": "address[]"
        },
        {
          "internalType": "uint256[]",
          "name": "_powers",
          "type": "uint256[]"
        }
      ],
      "name": "updateValset",
      "outputs": [],
      "payable": false,
      "stateMutability": "nonpayable",
      "type": "function"
    },
    {
      "constant": true,
      "inputs": [],
      "name": "validatorCount",
      "outputs": [
        {
          "internalType": "uint256",
          "name": "",
          "type": "uint256"
        }
      ],
      "payable": false,
      "stateMutability": "view",
      "type": "function"
    },
    {
      "constant": true,
      "inputs": [
        {
          "internalType": "address",
          "name": "",
          "type": "address"
        },
        {
          "internalType": "uint256",
          "name": "",
          "type": "uint256"
        }
      ],
      "name": "validators",
      "outputs": [
        {
          "internalType": "bool",
          "name": "",
          "type": "bool"
        }
      ],
      "payable": false,
      "stateMutability": "view",
      "type": "function"
    },
    {
      "constant": true,
      "inputs": [],
      "name": "valset",
      "outputs": [
        {
          "internalType": "address payable",
          "name": "",
          "type": "address"
        }
      ],
      "payable": false,
      "stateMutability": "view",
      "type": "function"
    },
    {
      "constant": false,
      "inputs": [],
      "name": "tokenFaucet",
      "outputs": [],
      "payable": false,
      "stateMutability": "nonpayable",
      "type": "function"
    }
  ],
  "bytecode": "0x608060405234801561001057600080fd5b50613404806100206000396000f3fe608060405234801561001057600080fd5b50600436106101da5760003560e01c80637f54af0c11610104578063a9059cbb116100a2578063db3ad22c11610071578063db3ad22c1461091d578063db4237af14610925578063f9b0b5b9146109d0578063fc6c1f02146109d8576101da565b8063a9059cbb14610880578063aef6ac3a146108ac578063b0e9ef71146108e9578063b5672be3146108f1576101da565b806389eb068a116100de57806389eb068a146107085780638d56c37d146107105780639a19224f14610718578063a219763e14610854576101da565b80637f54af0c146106ae578063814c92c3146106b6578063850f43dd146106dc576101da565b8063570ca7351161017c57806370a082311161014b57806370a082311461053c578063788cf92f1461056257806378ffb1c6146106895780637dc0d1d0146106a6576101da565b8063570ca735146102fd5780635d4c66a31461030557806369294a4e146104535780636e850da41461045b576101da565b806340550a1c116101b857806340550a1c1461024b57806340a141ff1461028557806345aaf18c146102ab578063473691a4146102d7576101da565b80630e41f373146101df5780630f43a677146102035780632e75293b1461021d575b600080fd5b6101e7610a04565b604080516001600160a01b039092168252519081900360200190f35b61020b610a13565b60408051918252519081900360200190f35b6102496004803603604081101561023357600080fd5b506001600160a01b038135169060200135610a19565b005b6102716004803603602081101561026157600080fd5b50356001600160a01b0316610ba9565b604080519115158252519081900360200190f35b6102496004803603602081101561029b57600080fd5b50356001600160a01b0316610bd4565b610271600480360360408110156102c157600080fd5b506001600160a01b038135169060200135610d80565b61020b600480360360208110156102ed57600080fd5b50356001600160a01b0316610da0565b6101e7610dc8565b610249600480360360c081101561031b57600080fd5b60ff823516919081019060408101602082013564010000000081111561034057600080fd5b82018360208201111561035257600080fd5b8035906020019184600183028401116401000000008311171561037457600080fd5b91908080601f01602080910402602001604051908101604052809392919081815260200183838082843760009201919091525092958435956001600160a01b03602087013516959194509250606081019150604001356401000000008111156103dc57600080fd5b8201836020820111156103ee57600080fd5b8035906020019184600183028401116401000000008311171561041057600080fd5b91908080601f0160208091040260200160405190810160405280939291908181526020018383808284376000920191909152509295505091359250610dd7915050565b610271611f69565b61020b600480360360c081101561047157600080fd5b60ff823516919081019060408101602082013564010000000081111561049657600080fd5b8201836020820111156104a857600080fd5b803590602001918460018302840111640100000000831117156104ca57600080fd5b919390928235926001600160a01b036020820135169291906060810190604001356401000000008111156104fd57600080fd5b82018360208201111561050f57600080fd5b8035906020019184600183028401116401000000008311171561053157600080fd5b919350915035611f79565b61020b6004803603602081101561055257600080fd5b50356001600160a01b0316612006565b6102496004803603604081101561057857600080fd5b81019060208101813564010000000081111561059357600080fd5b8201836020820111156105a557600080fd5b803590602001918460208302840111640100000000831117156105c757600080fd5b919080806020026020016040519081016040528093929190818152602001838360200280828437600092019190915250929594936020810193503591505064010000000081111561061757600080fd5b82018360208201111561062957600080fd5b8035906020019184602083028401116401000000008311171561064b57600080fd5b919080806020026020016040519081016040528093929190818152602001838360200280828437600092019190915250929550612022945050505050565b61020b6004803603602081101561069f57600080fd5b5035612161565b6101e7612173565b6101e7612182565b610249600480360360208110156106cc57600080fd5b50356001600160a01b0316612191565b61020b600480360360408110156106f257600080fd5b506001600160a01b0381351690602001356122a7565b6102496122c4565b61020b6122d5565b6102496004803603608081101561072e57600080fd5b6001600160a01b038235169160208101359181019060608101604082013564010000000081111561075e57600080fd5b82018360208201111561077057600080fd5b8035906020019184602083028401116401000000008311171561079257600080fd5b91908080602002602001604051908101604052809392919081815260200183836020028082843760009201919091525092959493602081019350359150506401000000008111156107e257600080fd5b8201836020820111156107f457600080fd5b8035906020019184602083028401116401000000008311171561081657600080fd5b9190808060200260200160405190810160405280939291908181526020018383602002808284376000920191909152509295506122db945050505050565b6102716004803603604081101561086a57600080fd5b50803590602001356001600160a01b03166123c8565b6102716004803603604081101561089657600080fd5b506001600160a01b0381351690602001356123e8565b6108c9600480360360208110156108c257600080fd5b50356123ff565b604080519315158452602084019290925282820152519081900360600190f35b6101e7612458565b6102496004803603604081101561090757600080fd5b50803590602001356001600160a01b0316612467565b61020b612544565b6109426004803603602081101561093b57600080fd5b503561254a565b604080516001600160a01b0385168152908101829052606060208083018281528551928401929092528451608084019186019080838360005b8381101561099357818101518382015260200161097b565b50505050905090810190601f1680156109c05780820380516001836020036101000a031916815260200191505b5094505050505060405180910390f35b61020b612604565b610249600480360360408110156109ee57600080fd5b506001600160a01b03813516906020013561260a565b6004546001600160a01b031681565b60d55481565b60d7546001600160a01b03163314610a70576040805162461bcd60e51b815260206004820152601560248201527426bab9ba103132903a34329037b832b930ba37b91760591b604482015290519081900360640190fd5b6001600160a01b038216600090815260d66020908152604080832060d454845290915290205460ff16610ad45760405162461bcd60e51b815260040180806020018281038252602e815260200180613373602e913960400191505060405180910390fd5b6001600160a01b038216600090815260d86020908152604080832060d454845290915290205460d354610b0d908263ffffffff61266f16565b60d3819055610b22908363ffffffff6126b816565b60d39081556001600160a01b038416600081815260d86020908152604080832060d48054855290835292819020879055915460d55494548351948552918401879052838301526060830193909352608082019290925290517f335940ce4119f8aae891d73dba74510a3d51f6210134d058237f26e6a31d53409181900360a00190a1505050565b6001600160a01b0316600090815260d66020908152604080832060d454845290915290205460ff1690565b60d7546001600160a01b03163314610c2b576040805162461bcd60e51b815260206004820152601560248201527426bab9ba103132903a34329037b832b930ba37b91760591b604482015290519081900360640190fd5b6001600160a01b038116600090815260d66020908152604080832060d454845290915290205460ff16610c8f5760405162461bcd60e51b81526004018080602001828103825260218152602001806132536021913960400191505060405180910390fd5b60d554610ca390600163ffffffff61266f16565b60d5556001600160a01b038116600090815260d86020908152604080832060d454845290915290205460d354610cde9163ffffffff61266f16565b60d39081556001600160a01b038216600081815260d66020908152604080832060d480548552908352818420805460ff1916905584845260d883528184208154855283528184208490555460d5549554825195865292850193909352838101929092526060830193909352608082019290925290517f1241fb43a101ff98ab819a1882097d4ccada51ba60f326c1981cc48840f55b8c9181900360a00190a150565b60d660209081526000928352604080842090915290825290205460ff1681565b6001600160a01b0316600090815260d86020908152604080832060d454845290915290205490565b60d7546001600160a01b031681565b610de033610ba9565b610e31576040805162461bcd60e51b815260206004820152601b60248201527f4d75737420626520616e206163746976652076616c696461746f720000000000604482015290519081900360640190fd5b600086868686868660405160200180876002811115610e4c57fe5b60ff1660f81b815260010186805190602001908083835b60208310610e825780518252601f199092019160209182019101610e63565b51815160209384036101000a60001901801990921691161790529201878152606087901b6bffffffffffffffffffffffff1916818401528551603490910192860191508083835b60208310610ee85780518252601f199092019160209182019101610ec9565b51815160209384036101000a600019018019909216911617905292019384525060408051808503815293820190528251920191909120965060009550610f3594508693506123ff92505050565b505090508015610f8c576040805162461bcd60e51b815260206004820152601160248201527f70726f7068656379436f6d706c65746564000000000000000000000000000000604482015290519081900360640190fd5b6000828152606d60205260409020546119a35760606001896002811115610faf57fe5b141561146957600480546040516373d8866560e01b815260209281018381528851602483015288516001600160a01b03909316936373d88665938a9383926044909101919085019080838360005b83811015611015578181015183820152602001610ffd565b50505050905090810190601f1680156110425780820380516001836020036101000a031916815260200191505b509250505060006040518083038186803b15801561105f57600080fd5b505afa158015611073573d6000803e3d6000fd5b505050506040513d6000823e601f3d908101601f19168201604052602081101561109c57600080fd5b81019080805160405193929190846401000000008211156110bc57600080fd5b9083019060208201858111156110d157600080fd5b82516401000000008111828201881017156110eb57600080fd5b82525081516020918201929091019080838360005b83811015611118578181015183820152602001611100565b50505050905090810190601f1680156111455780820380516001836020036101000a031916815260200191505b506040819052600480547f5acba65500000000000000000000000000000000000000000000000000000000835260209183018281528751602485015287519798508b976001600160a01b039092169650635acba65595508894509283926044909101919085019080838360005b838110156111ca5781810151838201526020016111b2565b50505050905090810190601f1680156111f75780820380516001836020036101000a031916815260200191505b509250505060206040518083038186803b15801561121457600080fd5b505afa158015611228573d6000803e3d6000fd5b505050506040513d602081101561123e57600080fd5b5051101561127d5760405162461bcd60e51b815260040180806020018281038252603a8152602001806132df603a913960400191505060405180910390fd5b6004805460405163050fcdb360e11b815260209281018381528451602483015284516000946001600160a01b0390941693630a1f9b669387939283926044909201918501908083838b5b838110156112df5781810151838201526020016112c7565b50505050905090810190601f16801561130c5780820380516001836020036101000a031916815260200191505b509250505060206040518083038186803b15801561132957600080fd5b505afa15801561133d573d6000803e3d6000fd5b505050506040513d602081101561135357600080fd5b505190506001600160a01b0381161580156114115750604080517f6574680000000000000000000000000000000000000000000000000000000000815290519081900360030181208351909184916020918201918291908401908083835b602083106113d05780518252601f1990920191602091820191016113b1565b6001836020036101000a0380198251168184511680821785525050505050509050019150506040516020818303038152906040528051906020012060001c14155b15611463576040805162461bcd60e51b815260206004820152601560248201527f496e76616c696420746f6b656e20616464726573730000000000000000000000604482015290519081900360640190fd5b506118c8565b600289600281111561147757fe5b14156118915760008054604080516020601f60026000196101006001881615020190951694909404938401819004810282018101909252828152611515939092909183018282801561150a5780601f106114df5761010080835404028352916020019161150a565b820191906000526020600020905b8154815290600101906020018083116114ed57829003601f168201915b505050505086612712565b600480546040516373d8866560e01b815260209281018381528451602483015284519495506001600160a01b03909216936373d8866593869392839260449091019185019080838360005b83811015611578578181015183820152602001611560565b50505050905090810190601f1680156115a55780820380516001836020036101000a031916815260200191505b509250505060006040518083038186803b1580156115c257600080fd5b505afa1580156115d6573d6000803e3d6000fd5b505050506040513d6000823e601f3d908101601f1916820160405260208110156115ff57600080fd5b810190808051604051939291908464010000000082111561161f57600080fd5b90830190602082018581111561163457600080fd5b825164010000000081118282018810171561164e57600080fd5b82525081516020918201929091019080838360005b8381101561167b578181015183820152602001611663565b50505050905090810190601f1680156116a85780820380516001836020036101000a031916815260200191505b5060408190526004805463ebb73ca960e01b835260209183018281528751602485015287519798506000976001600160a01b03909216965063ebb73ca99550889450928392604490910191908501908083838b5b838110156117145781810151838201526020016116fc565b50505050905090810190601f1680156117415780820380516001836020036101000a031916815260200191505b509250505060206040518083038186803b15801561175e57600080fd5b505afa158015611772573d6000803e3d6000fd5b505050506040513d602081101561178857600080fd5b505190506001600160a01b03811661146357600480546040517f50b06e4d00000000000000000000000000000000000000000000000000000000815260209281018381528551602483015285516001600160a01b03909316936350b06e4d93879383926044909101919085019080838360005b838110156118135781810151838201526020016117fb565b50505050905090810190601f1680156118405780820380516001836020036101000a031916815260200191505b5092505050602060405180830381600087803b15801561185f57600080fd5b505af1158015611873573d6000803e3d6000fd5b505050506040513d602081101561188957600080fd5b5050506118c8565b60405162461bcd60e51b81526004018080602001828103825260358152602001806132aa6035913960400191505060405180910390fd5b7f4a5e641839ab01f64c7378be2bdcfe883606b326a7f4b46fc016690230dbd492838a8884886040518086815260200185600281111561190457fe5b60ff168152602001846001600160a01b03166001600160a01b0316815260200180602001838152602001828103825284818151815260200191508051906020019080838360005b8381101561196357818101518382015260200161194b565b50505050905090810190601f1680156119905780820380516001836020036101000a031916815260200191505b50965050505050505060405180910390a1505b60006119af83336127cd565b90508015611f5e57600060028a60028111156119c757fe5b1415611cdd5760008054604080516020601f60026000196101006001881615020190951694909404938401819004810282018101909252828152611a659390929091830182828015611a5a5780601f10611a2f57610100808354040283529160200191611a5a565b820191906000526020600020905b815481529060010190602001808311611a3d57829003601f168201915b505050505087612712565b600480546040516373d8866560e01b81526020928101838152845160248301528451949a506001600160a01b03909216936373d88665938b9392839260449091019185019080838360005b83811015611ac8578181015183820152602001611ab0565b50505050905090810190601f168015611af55780820380516001836020036101000a031916815260200191505b509250505060006040518083038186803b158015611b1257600080fd5b505afa158015611b26573d6000803e3d6000fd5b505050506040513d6000823e601f3d908101601f191682016040526020811015611b4f57600080fd5b8101908080516040519392919084640100000000821115611b6f57600080fd5b908301906020820185811115611b8457600080fd5b8251640100000000811182820188101715611b9e57600080fd5b82525081516020918201929091019080838360005b83811015611bcb578181015183820152602001611bb3565b50505050905090810190601f168015611bf85780820380516001836020036101000a031916815260200191505b5060408190526004805463ebb73ca960e01b83526020918301828152875160248501528751979d506001600160a01b039091169663ebb73ca996508d955090935083926044019185019080838360005b83811015611c60578181015183820152602001611c48565b50505050905090810190601f168015611c8d5780820380516001836020036101000a031916815260200191505b509250505060206040518083038186803b158015611caa57600080fd5b505afa158015611cbe573d6000803e3d6000fd5b505050506040513d6020811015611cd457600080fd5b50519050611f4e565b600480546040516373d8866560e01b815260209281018381528951602483015289516001600160a01b03909316936373d88665938b9383926044909101919085019080838360005b83811015611d3d578181015183820152602001611d25565b50505050905090810190601f168015611d6a5780820380516001836020036101000a031916815260200191505b509250505060006040518083038186803b158015611d8757600080fd5b505afa158015611d9b573d6000803e3d6000fd5b505050506040513d6000823e601f3d908101601f191682016040526020811015611dc457600080fd5b8101908080516040519392919084640100000000821115611de457600080fd5b908301906020820185811115611df957600080fd5b8251640100000000811182820188101715611e1357600080fd5b82525081516020918201929091019080838360005b83811015611e40578181015183820152602001611e28565b50505050905090810190601f168015611e6d5780820380516001836020036101000a031916815260200191505b5060408190526004805463050fcdb360e11b83526020918301828152875160248501528751979d506001600160a01b0390911696630a1f9b6696508d955090935083926044019185019080838360005b83811015611ed5578181015183820152602001611ebd565b50505050905090810190601f168015611f025780820380516001836020036101000a031916815260200191505b509250505060206040518083038186803b158015611f1f57600080fd5b505afa158015611f33573d6000803e3d6000fd5b505050506040513d6020811015611f4957600080fd5b505190505b611f5c84828c8a8a8a612968565b505b505050505050505050565b600454600160a01b900460ff1681565b6000888888888888888860405160200180896002811115611f9657fe5b60ff1660f81b8152600101888880828437919091018781526bffffffffffffffffffffffff19606088901b16602082015260340190508484808284379190910192835250506040805180830381526020928301909152805191012097505050505050505098975050505050505050565b6001600160a01b031660009081526101a3602052604090205490565b60d7546001600160a01b03163314612079576040805162461bcd60e51b815260206004820152601560248201527426bab9ba103132903a34329037b832b930ba37b91760591b604482015290519081900360640190fd5b80518251146120b95760405162461bcd60e51b815260040180806020018281038252602f8152602001806133a1602f913960400191505060405180910390fd5b6120c16129ed565b60005b8251811015612115576120fd8382815181106120dc57fe5b60200260200101518383815181106120f057fe5b6020026020010151612a54565b61210e81600163ffffffff6126b816565b90506120c4565b5060d45460d55460d35460408051938452602084019290925282820152517f3a7ef0da3179668af8114719645585b5a37092ef2d66f187dcf63d83a221eaa69181900360600190a15050565b606d6020526000908152604090205481565b6003546001600160a01b031681565b6002546001600160a01b031681565b60d7546001600160a01b031633146121e8576040805162461bcd60e51b815260206004820152601560248201527426bab9ba103132903a34329037b832b930ba37b91760591b604482015290519081900360640190fd5b600454600160a01b900460ff16156122315760405162461bcd60e51b81526004018080602001828103825260368152602001806132746036913960400191505060405180910390fd5b60048054600160a01b60ff60a01b199091161773ffffffffffffffffffffffffffffffffffffffff19166001600160a01b03838116919091179182905560408051929091168252517fc8b65043fb196ac032b79a435397d1d14a96b4e9d12e366c3b1f550cb01d2dfa916020908290030190a150565b60d860209081526000928352604080842090915290825290205481565b6122d33364174876e800612b22565b565b60d45481565b61013d5462010000900460ff1615612328576040805162461bcd60e51b815260206004820152600b60248201526a125b9a5d1a585b1a5e995960aa1b604482015290519081900360640190fd5b6040805180820190915260018082527f6500000000000000000000000000000000000000000000000000000000000000602090920191825261236c91600091613114565b5060d780546001600160a01b03861673ffffffffffffffffffffffffffffffffffffffff199091161790556004805460ff60a01b1916905561013d805462ff00001916620100001790556123c284848484612ba9565b50505050565b606e60209081526000928352604080842090915290825290205460ff1681565b60006123f5338484612cd4565b5060015b92915050565b60d3546000828152606d6020526040812054606c549192839283929190839061242f90839063ffffffff612d9116565b9050600061244484606463ffffffff612d9116565b828110159990985091965090945050505050565b606a546001600160a01b031681565b60d7546001600160a01b031633146124be576040805162461bcd60e51b815260206004820152601560248201527426bab9ba103132903a34329037b832b930ba37b91760591b604482015290519081900360640190fd5b60d45482106124fe5760405162461bcd60e51b815260040180806020018281038252603581526020018061333e6035913960400191505060405180910390fd5b6001600160a01b0316600081815260d66020908152604080832060d480548552908352818420805460ff1916905593835260d88252808320935483529290529081205550565b60d35481565b6005602090815260009182526040918290208054600180830180548651600261010094831615949094026000190190911692909204601f81018690048602830186019096528582526001600160a01b039092169492939092908301828280156125f45780601f106125c9576101008083540402835291602001916125f4565b820191906000526020600020905b8154815290600101906020018083116125d757829003601f168201915b5050505050908060020154905083565b606c5481565b60d7546001600160a01b03163314612661576040805162461bcd60e51b815260206004820152601560248201527426bab9ba103132903a34329037b832b930ba37b91760591b604482015290519081900360640190fd5b61266b8282612a54565b5050565b60006126b183836040518060400160405280601e81526020017f536166654d6174683a207375627472616374696f6e206f766572666c6f770000815250612dea565b9392505050565b6000828201838110156126b1576040805162461bcd60e51b815260206004820152601b60248201527f536166654d6174683a206164646974696f6e206f766572666c6f770000000000604482015290519081900360640190fd5b606082826040516020018083805190602001908083835b602083106127485780518252601f199092019160209182019101612729565b51815160209384036101000a600019018019909216911617905285519190930192850191508083835b602083106127905780518252601f199092019160209182019101612771565b6001836020036101000a03801982511681845116808217855250505050505090500192505050604051602081830303815290604052905092915050565b6000828152606e602090815260408083206001600160a01b038516845290915281205460ff161561282f5760405162461bcd60e51b815260040180806020018281038252603a8152602001806131f8603a913960400191505060405180910390fd5b6000838152606e602090815260408083206001600160a01b03861680855290835292819020805460ff1916600117905580517f473691a40000000000000000000000000000000000000000000000000000000081526004810193909352516128fa92309263473691a492602480840193829003018186803b1580156128b357600080fd5b505afa1580156128c7573d6000803e3d6000fd5b505050506040513d60208110156128dd57600080fd5b50516000858152606d60205260409020549063ffffffff6126b816565b6000848152606d60209081526040918290209290925580518581526001600160a01b0385169281019290925280517f668fce9833323940537a9000d512a6c580a1c0797d2b526db0078ee9c5a087a99281900390910190a1600061295d846123ff565b509095945050505050565b600184600281111561297657fe5b141561298c57612987838383612e81565b612998565b61299883868484612f7a565b7f79e7c1c0bd54f11809c3bf6023c242783602d61ceff272c6bba6f8559c24ad0d8685604051808381526020018260028111156129d157fe5b60ff1681526020019250505060405180910390a1505050505050565b60d454612a0190600163ffffffff6126b816565b60d4819055600060d581905560d3819055604080519283526020830182905282810191909152517fd870653e19f161500290fd0c4ca41bf5cf2bcb1ba66448f41c66c512dabd65f29181900360600190a1565b60d554612a6890600163ffffffff6126b816565b60d55560d354612a7e908263ffffffff6126b816565b60d39081556001600160a01b038316600081815260d66020908152604080832060d480548552908352818420805460ff1916600117905584845260d8835281842081548552835292819020869055915460d55494548351948552918401869052838301526060830193909352608082019290925290517f1a396bcf647502e902dce665d58a0c1b25f982f193ab9a1d0f1500d8d927bf2a9181900360a00190a15050565b6001600160a01b038216612b7d576040805162461bcd60e51b815260206004820152601f60248201527f45524332303a206d696e7420746f20746865207a65726f206164647265737300604482015290519081900360640190fd5b6101a28054820190556001600160a01b0390911660009081526101a36020526040902080549091019055565b61013d54610100900460ff1615612bf5576040805162461bcd60e51b815260206004820152600b60248201526a125b9a5d1a585b1a5e995960aa1b604482015290519081900360640190fd5b60008311612c345760405162461bcd60e51b81526004018080602001828103825260258152602001806131d36025913960400191505060405180910390fd5b6064831115612c8a576040805162461bcd60e51b815260206004820152601c60248201527f496e76616c696420636f6e73656e737573207468726573686f6c642e00000000604482015290519081900360640190fd5b60d780546001600160a01b03861673ffffffffffffffffffffffffffffffffffffffff19909116179055606c83905561013d805461ff0019166101001790556123c2848383613083565b6001600160a01b038316612d195760405162461bcd60e51b81526004018080602001828103825260258152602001806133196025913960400191505060405180910390fd5b6001600160a01b038216612d5e5760405162461bcd60e51b81526004018080602001828103825260238152602001806131b06023913960400191505060405180910390fd5b6001600160a01b0392831660009081526101a3602052604080822080548490039055929093168352912080549091019055565b600082612da0575060006123f9565b82820282848281612dad57fe5b04146126b15760405162461bcd60e51b81526004018080602001828103825260218152602001806132326021913960400191505060405180910390fd5b60008184841115612e795760405162461bcd60e51b81526004018080602001828103825283818151815260200191508051906020019080838360005b83811015612e3e578181015183820152602001612e26565b50505050905090810190601f168015612e6b5780820380516001836020036101000a031916815260200191505b509250505060405180910390fd5b505050900390565b600480546040517fe05988a40000000000000000000000000000000000000000000000000000000081526001600160a01b0386811693820193845260448201859052606060248301908152865160648401528651919093169363e05988a493889388938893929160840190602086019080838360005b83811015612f0f578181015183820152602001612ef7565b50505050905090810190601f168015612f3c5780820380516001836020036101000a031916815260200191505b50945050505050600060405180830381600087803b158015612f5d57600080fd5b505af1158015612f71573d6000803e3d6000fd5b50505050505050565b600480546040517ffce0b8310000000000000000000000000000000000000000000000000000000081526001600160a01b03878116938201938452868116602483015260648201859052608060448301908152865160848401528651919093169363fce0b8319389938993899389939092909160a490910190602086019080838360005b83811015613016578181015183820152602001612ffe565b50505050905090810190601f1680156130435780820380516001836020036101000a031916815260200191505b5095505050505050600060405180830381600087803b15801561306557600080fd5b505af1158015613079573d6000803e3d6000fd5b5050505050505050565b61013d5460ff16156130ca576040805162461bcd60e51b815260206004820152600b60248201526a125b9a5d1a585b1a5e995960aa1b604482015290519081900360640190fd5b60d7805473ffffffffffffffffffffffffffffffffffffffff19166001600160a01b038516179055600060d45561013d805460ff1916600117905561310f8282612022565b505050565b828054600181600116156101000203166002900490600052602060002090601f016020900481019282601f1061315557805160ff1916838001178555613182565b82800160010185558215613182579182015b82811115613182578251825591602001919060010190613167565b5061318e929150613192565b5090565b6131ac91905b8082111561318e5760008155600101613198565b9056fe45524332303a207472616e7366657220746f20746865207a65726f2061646472657373436f6e73656e737573207468726573686f6c64206d75737420626520706f7369746976652e43616e6e6f74206d616b65206475706c6963617465206f7261636c6520636c61696d732066726f6d207468652073616d6520616464726573732e536166654d6174683a206d756c7469706c69636174696f6e206f766572666c6f7743616e206f6e6c792072656d6f7665206163746976652076616c696461746f7273546865204272696467652042616e6b2063616e6e6f742062652075706461746564206f6e636520697420686173206265656e20736574496e76616c696420636c61696d20747970652c206f6e6c79206275726e20616e64206c6f636b2061726520737570706f727465642e4e6f7420656e6f756768206c6f636b65642061737365747320746f20636f6d706c657465207468652070726f706f7365642070726f706865637945524332303a207472616e736665722066726f6d20746865207a65726f2061646472657373476173207265636f76657279206f6e6c7920616c6c6f77656420666f722070726576696f75732076616c696461746f72207365747343616e206f6e6c79207570646174652074686520706f776572206f66206163746976652076616c646961746f727345766572792076616c696461746f72206d7573742068617665206120636f72726573706f6e64696e6720706f776572a265627a7a72315820aa8d756f73461585fd1ad95a1f84380f67fef8b81b1158454f1083f9ab3c048264736f6c63430005100032",
  "source": "pragma solidity 0.5.16;\n\nimport \"./../CosmosBridge.sol\";\n\ncontract ERC20UNSAFE {\n    uint256 private _totalSupply;\n    mapping (address => uint256) private _balances;\n\n    /**\n     * @dev See {IERC20-balanceOf}.\n     */\n    function balanceOf(address account) public view returns (uint256) {\n        return _balances[account];\n    }\n\n    /**\n     * @dev See {IERC20-transfer}.\n     *\n     * Requirements:\n     *\n     * - `recipient` cannot be the zero address.\n     * - the caller must have a balance of at least `amount`.\n     */\n    function transfer(address recipient, uint256 amount) public returns (bool) {\n        _transfer(msg.sender, recipient, amount);\n        return true;\n    }\n\n        /**\n     * @dev Moves tokens `amount` from `sender` to `recipient`.\n     *\n     * This is internal function is equivalent to {transfer}, and can be used to\n     * e.g. implement automatic token fees, slashing mechanisms, etc.\n     *\n     * Emits a {Transfer} event.\n     *\n     * Requirements:\n     *\n     * - `sender` cannot be the zero address.\n     * - `recipient` cannot be the zero address.\n     * - `sender` must have a balance of at least `amount`.\n     */\n    function _transfer(address sender, address recipient, uint256 amount) internal {\n        require(sender != address(0), \"ERC20: transfer from the zero address\");\n        require(recipient != address(0), \"ERC20: transfer to the zero address\");\n\n        _balances[sender] = _balances[sender] - amount;\n        _balances[recipient] = _balances[recipient] + amount;\n    }\n\n    /** @dev Creates `amount` tokens and assigns them to `account`, increasing\n     * the total supply.\n     *\n     * Emits a {Transfer} event with `from` set to the zero address.\n     *\n     * Requirements\n     *\n     * - `to` cannot be the zero address.\n     */\n    function _mint(address account, uint256 amount) internal {\n        require(account != address(0), \"ERC20: mint to the zero address\");\n\n        _totalSupply = _totalSupply + amount;\n        _balances[account] = _balances[account] + amount;\n    }\n}\n\n\n/// @notice Add a token to the cosmos bridge to test that upgrades work correctly\ncontract MockCosmosBridgeUpgrade is CosmosBridge, ERC20UNSAFE {\n\n    function tokenFaucet() public {\n        _mint(msg.sender, 100000000000);\n    }\n}",
  "sourcePath": "/Users/bjmcd/Documents/Development/Clients/sifchain/sifnode/smart-contracts/contracts/MockUpgrade/MockCosmsosBridgeUpgrade.sol",
  "compiler": {
    "name": "solc",
    "version": "0.5.16+commit.9c3226ce.Emscripten.clang"
  },
  "schemaVersion": "3.3.2",
  "updatedAt": "2021-01-31T03:14:05.343Z",
  "devdoc": {
    "methods": {
      "balanceOf(address)": {
        "details": "See {IERC20-balanceOf}."
      },
      "transfer(address,uint256)": {
        "details": "See {IERC20-transfer}.     * Requirements:     * - `recipient` cannot be the zero address. - the caller must have a balance of at least `amount`."
      }
    }
  },
  "userdoc": {
    "methods": {},
    "notice": "Add a token to the cosmos bridge to test that upgrades work correctly"
  }
}