{
  "contractName": "PauserRole",
  "abi": [
    {
      "constant": true,
      "inputs": [
        {
          "internalType": "address",
          "name": "",
          "type": "address"
        }
      ],
      "name": "pausers",
      "outputs": [
        {
          "internalType": "bool",
          "name": "",
          "type": "bool"
        }
      ],
      "payable": false,
      "stateMutability": "view",
      "type": "function"
    },
    {
      "constant": false,
      "inputs": [
        {
          "internalType": "address",
          "name": "account",
          "type": "address"
        }
      ],
      "name": "addPauser",
      "outputs": [],
      "payable": false,
      "stateMutability": "nonpayable",
      "type": "function"
    },
    {
      "constant": false,
      "inputs": [],
      "name": "renouncePauser",
      "outputs": [],
      "payable": false,
      "stateMutability": "nonpayable",
      "type": "function"
    }
  ],
  "bytecode": "0x608060405234801561001057600080fd5b50610222806100206000396000f3fe608060405234801561001057600080fd5b50600436106100415760003560e01c80636ef8d66d1461004657806380f51c121461005057806382dc1ec414610097575b600080fd5b61004e6100ca565b005b6100836004803603602081101561006657600080fd5b503573ffffffffffffffffffffffffffffffffffffffff166100d5565b604080519115158252519081900360200190f35b61004e600480360360208110156100ad57600080fd5b503573ffffffffffffffffffffffffffffffffffffffff166100ea565b6100d33361015e565b565b60006020819052908152604090205460ff1681565b3360009081526020819052604090205460ff16610152576040517f08c379a00000000000000000000000000000000000000000000000000000000081526004018080602001828103825260308152602001806101be6030913960400191505060405180910390fd5b61015b8161018c565b50565b73ffffffffffffffffffffffffffffffffffffffff166000908152602081905260409020805460ff19169055565b73ffffffffffffffffffffffffffffffffffffffff166000908152602081905260409020805460ff1916600117905556fe506175736572526f6c653a2063616c6c657220646f6573206e6f742068617665207468652050617573657220726f6c65a265627a7a7231582061c64c02b0d7b20a3b09a51c98de3c3480aeb6d5de342929bea55e91c80ddca664736f6c63430005100032",
  "source": "pragma solidity 0.5.16;\n\ncontract PauserRole {\n\n    mapping (address => bool) public pausers;\n\n    modifier onlyPauser() {\n        require(pausers[msg.sender], \"PauserRole: caller does not have the Pauser role\");\n        _;\n    }\n\n    function addPauser(address account) public onlyPauser {\n        _addPauser(account);\n    }\n\n    function renouncePauser() public {\n        _removePauser(msg.sender);\n    }\n\n    function _addPauser(address account) internal {\n        pausers[account] = true;\n    }\n\n    function _removePauser(address account) internal {\n        pausers[account] = false;\n    }\n}\n",
  "sourcePath": "/Users/bjmcd/Documents/Development/Clients/sifchain/sifnode/smart-contracts/contracts/BridgeBank/PauserRole.sol",
  "compiler": {
    "name": "solc",
    "version": "0.5.16+commit.9c3226ce.Emscripten.clang"
  },
  "schemaVersion": "3.3.2",
  "updatedAt": "2021-01-31T03:14:05.331Z",
  "devdoc": {
    "methods": {}
  },
  "userdoc": {
    "methods": {}
  }
}