{
  "_format": "hh-sol-artifact-1",
  "contractName": "EthereumBank",
  "sourceName": "contracts/BridgeBank/EthereumBank.sol",
  "abi": [
    {
      "anonymous": false,
      "inputs": [
        {
          "indexed": false,
          "internalType": "address",
          "name": "_from",
          "type": "address"
        },
        {
          "indexed": false,
          "internalType": "bytes",
          "name": "_to",
          "type": "bytes"
        },
        {
          "indexed": false,
          "internalType": "address",
          "name": "_token",
          "type": "address"
        },
        {
          "indexed": false,
          "internalType": "string",
          "name": "_symbol",
          "type": "string"
        },
        {
          "indexed": false,
          "internalType": "uint256",
          "name": "_value",
          "type": "uint256"
        },
        {
          "indexed": false,
          "internalType": "uint256",
          "name": "_nonce",
          "type": "uint256"
        }
      ],
      "name": "LogBurn",
      "type": "event"
    },
    {
      "anonymous": false,
      "inputs": [
        {
          "indexed": false,
          "internalType": "address",
          "name": "_from",
          "type": "address"
        },
        {
          "indexed": false,
          "internalType": "bytes",
          "name": "_to",
          "type": "bytes"
        },
        {
          "indexed": false,
          "internalType": "address",
          "name": "_token",
          "type": "address"
        },
        {
          "indexed": false,
          "internalType": "string",
          "name": "_symbol",
          "type": "string"
        },
        {
          "indexed": false,
          "internalType": "uint256",
          "name": "_value",
          "type": "uint256"
        },
        {
          "indexed": false,
          "internalType": "uint256",
          "name": "_nonce",
          "type": "uint256"
        }
      ],
      "name": "LogLock",
      "type": "event"
    },
    {
      "anonymous": false,
      "inputs": [
        {
          "indexed": false,
          "internalType": "address",
          "name": "_to",
          "type": "address"
        },
        {
          "indexed": false,
          "internalType": "address",
          "name": "_token",
          "type": "address"
        },
        {
          "indexed": false,
          "internalType": "string",
          "name": "_symbol",
          "type": "string"
        },
        {
          "indexed": false,
          "internalType": "uint256",
          "name": "_value",
          "type": "uint256"
        }
      ],
      "name": "LogUnlock",
      "type": "event"
    },
    {
      "constant": true,
      "inputs": [
        {
          "internalType": "string",
          "name": "_symbol",
          "type": "string"
        }
      ],
      "name": "getLockedFunds",
      "outputs": [
        {
          "internalType": "uint256",
          "name": "",
          "type": "uint256"
        }
      ],
      "payable": false,
      "stateMutability": "view",
      "type": "function"
    },
    {
      "constant": true,
      "inputs": [
        {
          "internalType": "string",
          "name": "_symbol",
          "type": "string"
        }
      ],
      "name": "getLockedTokenAddress",
      "outputs": [
        {
          "internalType": "address",
          "name": "",
          "type": "address"
        }
      ],
      "payable": false,
      "stateMutability": "view",
      "type": "function"
    },
    {
      "constant": true,
      "inputs": [],
      "name": "lockBurnNonce",
      "outputs": [
        {
          "internalType": "uint256",
          "name": "",
          "type": "uint256"
        }
      ],
      "payable": false,
      "stateMutability": "view",
      "type": "function"
    },
    {
      "constant": true,
      "inputs": [
        {
          "internalType": "address",
          "name": "",
          "type": "address"
        }
      ],
      "name": "lockedFunds",
      "outputs": [
        {
          "internalType": "uint256",
          "name": "",
          "type": "uint256"
        }
      ],
      "payable": false,
      "stateMutability": "view",
      "type": "function"
    },
    {
      "constant": true,
      "inputs": [
        {
          "internalType": "string",
          "name": "",
          "type": "string"
        }
      ],
      "name": "lockedTokenList",
      "outputs": [
        {
          "internalType": "address",
          "name": "",
          "type": "address"
        }
      ],
      "payable": false,
      "stateMutability": "view",
      "type": "function"
    }
  ],
  "bytecode": "0x608060405234801561001057600080fd5b50610412806100206000396000f3fe608060405234801561001057600080fd5b50600436106100575760003560e01c80630a1f9b661461005c5780631deed3bb1461011e5780635acba65514610138578063b86247d7146101de578063f24a590a14610204575b600080fd5b6101026004803603602081101561007257600080fd5b81019060208101813564010000000081111561008d57600080fd5b82018360208201111561009f57600080fd5b803590602001918460018302840111640100000000831117156100c157600080fd5b91908080601f0160208091040260200160405190810160405280939291908181526020018383808284376000920191909152509295506102aa945050505050565b604080516001600160a01b039092168252519081900360200190f35b61012661031b565b60408051918252519081900360200190f35b6101266004803603602081101561014e57600080fd5b81019060208101813564010000000081111561016957600080fd5b82018360208201111561017b57600080fd5b8035906020019184600183028401116401000000008311171561019d57600080fd5b91908080601f016020809104026020016040519081016040528093929190818152602001838380828437600092019190915250929550610321945050505050565b610126600480360360208110156101f457600080fd5b50356001600160a01b03166103a5565b6101026004803603602081101561021a57600080fd5b81019060208101813564010000000081111561023557600080fd5b82018360208201111561024757600080fd5b8035906020019184600183028401116401000000008311171561026957600080fd5b91908080601f0160208091040260200160405190810160405280939291908181526020018383808284376000920191909152509295506103b7945050505050565b60006002826040518082805190602001908083835b602083106102de5780518252601f1990920191602091820191016102bf565b51815160209384036101000a60001901801990921691161790529201948552506040519384900301909220546001600160a01b0316949350505050565b60005481565b6000600160006002846040518082805190602001908083835b602083106103595780518252601f19909201916020918201910161033a565b51815160209384036101000a600019018019909216911617905292019485525060408051948590038201909420546001600160a01b031685528401949094525001600020549392505050565b60016020526000908152604090205481565b80516020818301810180516002825292820191909301209152546001600160a01b03168156fea265627a7a72315820958aa4b3f5e38f53254ee6cdafab94949e95028fc5677c12f5ea8de82e14429764736f6c63430005100032",
  "linkReferences": {},
  "deployedLinkReferences": {}
}