{
  "_format": "hh-sol-artifact-1",
  "contractName": "CosmosBridgeStorage",
  "sourceName": "contracts/CosmosBridgeStorage.sol",
  "abi": [
    {
      "constant": true,
      "inputs": [],
      "name": "bridgeBank",
      "outputs": [
        {
          "internalType": "address payable",
          "name": "",
          "type": "address"
        }
      ],
      "payable": false,
      "stateMutability": "view",
      "type": "function"
    },
    {
      "constant": true,
      "inputs": [],
      "name": "hasBridgeBank",
      "outputs": [
        {
          "internalType": "bool",
          "name": "",
          "type": "bool"
        }
      ],
      "payable": false,
      "stateMutability": "view",
      "type": "function"
    },
    {
      "constant": true,
      "inputs": [],
      "name": "operator",
      "outputs": [
        {
          "internalType": "address",
          "name": "",
          "type": "address"
        }
      ],
      "payable": false,
      "stateMutability": "view",
      "type": "function"
    },
    {
      "constant": true,
      "inputs": [],
      "name": "oracle",
      "outputs": [
        {
          "internalType": "address payable",
          "name": "",
          "type": "address"
        }
      ],
      "payable": false,
      "stateMutability": "view",
      "type": "function"
    },
    {
      "constant": true,
      "inputs": [
        {
          "internalType": "uint256",
          "name": "",
          "type": "uint256"
        }
      ],
      "name": "prophecyClaims",
      "outputs": [
        {
          "internalType": "address payable",
          "name": "ethereumReceiver",
          "type": "address"
        },
        {
          "internalType": "string",
          "name": "symbol",
          "type": "string"
        },
        {
          "internalType": "uint256",
          "name": "amount",
          "type": "uint256"
        }
      ],
      "payable": false,
      "stateMutability": "view",
      "type": "function"
    },
    {
      "constant": true,
      "inputs": [],
      "name": "valset",
      "outputs": [
        {
          "internalType": "address payable",
          "name": "",
          "type": "address"
        }
      ],
      "payable": false,
      "stateMutability": "view",
      "type": "function"
    }
  ],
  "bytecode": "0x608060405234801561001057600080fd5b506102a5806100206000396000f3fe608060405234801561001057600080fd5b50600436106100625760003560e01c80630e41f37314610067578063570ca7351461008b57806369294a4e146100935780637dc0d1d0146100af5780637f54af0c146100b7578063db4237af146100bf575b600080fd5b61006f61016a565b604080516001600160a01b039092168252519081900360200190f35b61006f610179565b61009b610188565b604080519115158252519081900360200190f35b61006f610198565b61006f6101a7565b6100dc600480360360208110156100d557600080fd5b50356101b6565b604080516001600160a01b0385168152908101829052606060208083018281528551928401929092528451608084019186019080838360005b8381101561012d578181015183820152602001610115565b50505050905090810190601f16801561015a5780820380516001836020036101000a031916815260200191505b5094505050505060405180910390f35b6004546001600160a01b031681565b6001546001600160a01b031681565b600454600160a01b900460ff1681565b6003546001600160a01b031681565b6002546001600160a01b031681565b6005602090815260009182526040918290208054600180830180548651600261010094831615949094026000190190911692909204601f81018690048602830186019096528582526001600160a01b039092169492939092908301828280156102605780601f1061023557610100808354040283529160200191610260565b820191906000526020600020905b81548152906001019060200180831161024357829003601f168201915b505050505090806002015490508356fea265627a7a723158204337b09354e227861d7def4623459a855b9a570655f84450ab661e32e8d6ca0864736f6c63430005100032",
  "linkReferences": {},
  "deployedLinkReferences": {}
}