{
  "contractName": "CosmosBankStorage",
  "abi": [
    {
      "constant": true,
      "inputs": [],
      "name": "bridgeTokenCount",
      "outputs": [
        {
          "internalType": "uint256",
          "name": "",
          "type": "uint256"
        }
      ],
      "payable": false,
      "stateMutability": "view",
      "type": "function"
    },
    {
      "constant": true,
      "inputs": [],
      "name": "cosmosDepositNonce",
      "outputs": [
        {
          "internalType": "uint256",
          "name": "",
          "type": "uint256"
        }
      ],
      "payable": false,
      "stateMutability": "view",
      "type": "function"
    },
    {
      "constant": true,
      "inputs": [
        {
          "internalType": "string",
          "name": "",
          "type": "string"
        }
      ],
      "name": "lowerToUpperTokens",
      "outputs": [
        {
          "internalType": "string",
          "name": "",
          "type": "string"
        }
      ],
      "payable": false,
      "stateMutability": "view",
      "type": "function"
    }
  ],
  "bytecode": "0x608060405234801561001057600080fd5b5061026b806100206000396000f3fe608060405234801561001057600080fd5b50600436106100415760003560e01c8063328470ab14610046578063416d322714610060578063867910d314610068575b600080fd5b61004e610183565b60408051918252519081900360200190f35b61004e610189565b61010e6004803603602081101561007e57600080fd5b81019060208101813564010000000081111561009957600080fd5b8201836020820111156100ab57600080fd5b803590602001918460018302840111640100000000831117156100cd57600080fd5b91908080601f01602080910402602001604051908101604052809392919081815260200183838082843760009201919091525092955061018f945050505050565b6040805160208082528351818301528351919283929083019185019080838360005b83811015610148578181015183820152602001610130565b50505050905090810190601f1680156101755780820380516001836020036101000a031916815260200191505b509250505060405180910390f35b60005481565b60015481565b805160208183018101805160038252928201938201939093209190925280546040805160026001841615610100026000190190931692909204601f8101859004850283018501909152808252909283018282801561022e5780601f106102035761010080835404028352916020019161022e565b820191906000526020600020905b81548152906001019060200180831161021157829003601f168201915b50505050508156fea265627a7a72315820782e25083cfd55ec6f65e973bc383286fa6e64f99edb8b66cc4c2cef2d8f2d9f64736f6c63430005100032",
  "source": "pragma solidity 0.5.16;\n\ncontract CosmosBankStorage {\n\n    /**\n    * @notice Cosmos deposit struct\n    */\n    struct CosmosDeposit {\n        bytes cosmosSender;\n        address payable ethereumRecipient;\n        address bridgeTokenAddress;\n        uint256 amount;\n        bool locked;\n    }\n\n    /**\n    * @notice number of bridge tokens\n    */\n    uint256 public bridgeTokenCount;\n\n    /**\n    * @notice cosmos deposit nonce\n    */\n    uint256 public cosmosDepositNonce;\n    \n    /**\n    * @notice mapping of symbols to token addresses\n    */\n    mapping(string => address) controlledBridgeTokens;\n    \n    /**\n    * @notice mapping of lowercase symbols to properly capitalized tokens\n    */\n    mapping(string => string) public lowerToUpperTokens;\n\n    /**\n    * @notice gap of storage for future upgrades\n    */\n    uint256[100] private ____gap;\n}",
  "sourcePath": "/Users/bjmcd/Documents/Development/Clients/sifchain/sifnode/smart-contracts/contracts/BridgeBank/CosmosBankStorage.sol",
  "compiler": {
    "name": "solc",
    "version": "0.5.16+commit.9c3226ce.Emscripten.clang"
  },
  "schemaVersion": "3.3.2",
  "updatedAt": "2021-03-24T07:09:07.427Z",
  "devdoc": {
    "methods": {}
  },
  "userdoc": {
    "methods": {}
  }
}