{
  "_format": "hh-sol-artifact-1",
  "contractName": "CosmosBridge",
  "sourceName": "contracts/CosmosBridge.sol",
  "abi": [
    {
      "anonymous": false,
      "inputs": [
        {
          "indexed": false,
          "internalType": "address",
          "name": "_bridgeBank",
          "type": "address"
        }
      ],
      "name": "LogBridgeBankSet",
      "type": "event"
    },
    {
      "anonymous": false,
      "inputs": [
        {
          "indexed": false,
          "internalType": "uint256",
          "name": "_prophecyID",
          "type": "uint256"
        },
        {
          "indexed": false,
          "internalType": "address",
          "name": "_validatorAddress",
          "type": "address"
        }
      ],
      "name": "LogNewOracleClaim",
      "type": "event"
    },
    {
      "anonymous": false,
      "inputs": [
        {
          "indexed": false,
          "internalType": "uint256",
          "name": "_prophecyID",
          "type": "uint256"
        },
        {
          "indexed": false,
          "internalType": "enum CosmosBridgeStorage.ClaimType",
          "name": "_claimType",
          "type": "uint8"
        },
        {
          "indexed": false,
          "internalType": "address payable",
          "name": "_ethereumReceiver",
          "type": "address"
        },
        {
          "indexed": false,
          "internalType": "string",
          "name": "_symbol",
          "type": "string"
        },
        {
          "indexed": false,
          "internalType": "uint256",
          "name": "_amount",
          "type": "uint256"
        }
      ],
      "name": "LogNewProphecyClaim",
      "type": "event"
    },
    {
      "anonymous": false,
      "inputs": [
        {
          "indexed": false,
          "internalType": "address",
          "name": "_oracle",
          "type": "address"
        }
      ],
      "name": "LogOracleSet",
      "type": "event"
    },
    {
      "anonymous": false,
      "inputs": [
        {
          "indexed": false,
          "internalType": "uint256",
          "name": "_prophecyID",
          "type": "uint256"
        },
        {
          "indexed": false,
          "internalType": "enum CosmosBridgeStorage.ClaimType",
          "name": "_claimType",
          "type": "uint8"
        }
      ],
      "name": "LogProphecyCompleted",
      "type": "event"
    },
    {
      "anonymous": false,
      "inputs": [
        {
          "indexed": false,
          "internalType": "uint256",
          "name": "_prophecyID",
          "type": "uint256"
        },
        {
          "indexed": false,
          "internalType": "uint256",
          "name": "_prophecyPowerCurrent",
          "type": "uint256"
        },
        {
          "indexed": false,
          "internalType": "uint256",
          "name": "_prophecyPowerThreshold",
          "type": "uint256"
        },
        {
          "indexed": false,
          "internalType": "address",
          "name": "_submitter",
          "type": "address"
        }
      ],
      "name": "LogProphecyProcessed",
      "type": "event"
    },
    {
      "anonymous": false,
      "inputs": [
        {
          "indexed": false,
          "internalType": "address",
          "name": "_validator",
          "type": "address"
        },
        {
          "indexed": false,
          "internalType": "uint256",
          "name": "_power",
          "type": "uint256"
        },
        {
          "indexed": false,
          "internalType": "uint256",
          "name": "_currentValsetVersion",
          "type": "uint256"
        },
        {
          "indexed": false,
          "internalType": "uint256",
          "name": "_validatorCount",
          "type": "uint256"
        },
        {
          "indexed": false,
          "internalType": "uint256",
          "name": "_totalPower",
          "type": "uint256"
        }
      ],
      "name": "LogValidatorAdded",
      "type": "event"
    },
    {
      "anonymous": false,
      "inputs": [
        {
          "indexed": false,
          "internalType": "address",
          "name": "_validator",
          "type": "address"
        },
        {
          "indexed": false,
          "internalType": "uint256",
          "name": "_power",
          "type": "uint256"
        },
        {
          "indexed": false,
          "internalType": "uint256",
          "name": "_currentValsetVersion",
          "type": "uint256"
        },
        {
          "indexed": false,
          "internalType": "uint256",
          "name": "_validatorCount",
          "type": "uint256"
        },
        {
          "indexed": false,
          "internalType": "uint256",
          "name": "_totalPower",
          "type": "uint256"
        }
      ],
      "name": "LogValidatorPowerUpdated",
      "type": "event"
    },
    {
      "anonymous": false,
      "inputs": [
        {
          "indexed": false,
          "internalType": "address",
          "name": "_validator",
          "type": "address"
        },
        {
          "indexed": false,
          "internalType": "uint256",
          "name": "_power",
          "type": "uint256"
        },
        {
          "indexed": false,
          "internalType": "uint256",
          "name": "_currentValsetVersion",
          "type": "uint256"
        },
        {
          "indexed": false,
          "internalType": "uint256",
          "name": "_validatorCount",
          "type": "uint256"
        },
        {
          "indexed": false,
          "internalType": "uint256",
          "name": "_totalPower",
          "type": "uint256"
        }
      ],
      "name": "LogValidatorRemoved",
      "type": "event"
    },
    {
      "anonymous": false,
      "inputs": [
        {
          "indexed": false,
          "internalType": "uint256",
          "name": "_newValsetVersion",
          "type": "uint256"
        },
        {
          "indexed": false,
          "internalType": "uint256",
          "name": "_validatorCount",
          "type": "uint256"
        },
        {
          "indexed": false,
          "internalType": "uint256",
          "name": "_totalPower",
          "type": "uint256"
        }
      ],
      "name": "LogValsetReset",
      "type": "event"
    },
    {
      "anonymous": false,
      "inputs": [
        {
          "indexed": false,
          "internalType": "uint256",
          "name": "_newValsetVersion",
          "type": "uint256"
        },
        {
          "indexed": false,
          "internalType": "uint256",
          "name": "_validatorCount",
          "type": "uint256"
        },
        {
          "indexed": false,
          "internalType": "uint256",
          "name": "_totalPower",
          "type": "uint256"
        }
      ],
      "name": "LogValsetUpdated",
      "type": "event"
    },
    {
      "constant": false,
      "inputs": [
        {
          "internalType": "address",
          "name": "_validatorAddress",
          "type": "address"
        },
        {
          "internalType": "uint256",
          "name": "_validatorPower",
          "type": "uint256"
        }
      ],
      "name": "addValidator",
      "outputs": [],
      "payable": false,
      "stateMutability": "nonpayable",
      "type": "function"
    },
    {
      "constant": true,
      "inputs": [],
      "name": "bridgeBank",
      "outputs": [
        {
          "internalType": "address payable",
          "name": "",
          "type": "address"
        }
      ],
      "payable": false,
      "stateMutability": "view",
      "type": "function"
    },
    {
      "constant": false,
      "inputs": [
        {
          "internalType": "address",
          "name": "_newOperator",
          "type": "address"
        }
      ],
      "name": "changeOperator",
      "outputs": [],
      "payable": false,
      "stateMutability": "nonpayable",
      "type": "function"
    },
    {
      "constant": true,
      "inputs": [],
      "name": "consensusThreshold",
      "outputs": [
        {
          "internalType": "uint256",
          "name": "",
          "type": "uint256"
        }
      ],
      "payable": false,
      "stateMutability": "view",
      "type": "function"
    },
    {
      "constant": true,
      "inputs": [],
      "name": "cosmosBridge",
      "outputs": [
        {
          "internalType": "address",
          "name": "",
          "type": "address"
        }
      ],
      "payable": false,
      "stateMutability": "view",
      "type": "function"
    },
    {
      "constant": true,
      "inputs": [],
      "name": "currentValsetVersion",
      "outputs": [
        {
          "internalType": "uint256",
          "name": "",
          "type": "uint256"
        }
      ],
      "payable": false,
      "stateMutability": "view",
      "type": "function"
    },
    {
      "constant": true,
      "inputs": [
        {
          "internalType": "enum CosmosBridgeStorage.ClaimType",
          "name": "_claimType",
          "type": "uint8"
        },
        {
          "internalType": "bytes",
          "name": "_cosmosSender",
          "type": "bytes"
        },
        {
          "internalType": "uint256",
          "name": "_cosmosSenderSequence",
          "type": "uint256"
        },
        {
          "internalType": "address payable",
          "name": "_ethereumReceiver",
          "type": "address"
        },
        {
          "internalType": "string",
          "name": "_symbol",
          "type": "string"
        },
        {
          "internalType": "uint256",
          "name": "_amount",
          "type": "uint256"
        }
      ],
      "name": "getProphecyID",
      "outputs": [
        {
          "internalType": "uint256",
          "name": "",
          "type": "uint256"
        }
      ],
      "payable": false,
      "stateMutability": "pure",
      "type": "function"
    },
    {
      "constant": true,
      "inputs": [
        {
          "internalType": "uint256",
          "name": "_prophecyID",
          "type": "uint256"
        }
      ],
      "name": "getProphecyThreshold",
      "outputs": [
        {
          "internalType": "bool",
          "name": "",
          "type": "bool"
        },
        {
          "internalType": "uint256",
          "name": "",
          "type": "uint256"
        },
        {
          "internalType": "uint256",
          "name": "",
          "type": "uint256"
        }
      ],
      "payable": false,
      "stateMutability": "view",
      "type": "function"
    },
    {
      "constant": true,
      "inputs": [
        {
          "internalType": "address",
          "name": "_validatorAddress",
          "type": "address"
        }
      ],
      "name": "getValidatorPower",
      "outputs": [
        {
          "internalType": "uint256",
          "name": "",
          "type": "uint256"
        }
      ],
      "payable": false,
      "stateMutability": "view",
      "type": "function"
    },
    {
      "constant": true,
      "inputs": [],
      "name": "hasBridgeBank",
      "outputs": [
        {
          "internalType": "bool",
          "name": "",
          "type": "bool"
        }
      ],
      "payable": false,
      "stateMutability": "view",
      "type": "function"
    },
    {
      "constant": true,
      "inputs": [
        {
          "internalType": "uint256",
          "name": "",
          "type": "uint256"
        },
        {
          "internalType": "address",
          "name": "",
          "type": "address"
        }
      ],
      "name": "hasMadeClaim",
      "outputs": [
        {
          "internalType": "bool",
          "name": "",
          "type": "bool"
        }
      ],
      "payable": false,
      "stateMutability": "view",
      "type": "function"
    },
    {
      "constant": false,
      "inputs": [
        {
          "internalType": "address",
          "name": "_operator",
          "type": "address"
        },
        {
          "internalType": "uint256",
          "name": "_consensusThreshold",
          "type": "uint256"
        },
        {
          "internalType": "address[]",
          "name": "_initValidators",
          "type": "address[]"
        },
        {
          "internalType": "uint256[]",
          "name": "_initPowers",
          "type": "uint256[]"
        }
      ],
      "name": "initialize",
      "outputs": [],
      "payable": false,
      "stateMutability": "nonpayable",
      "type": "function"
    },
    {
      "constant": true,
      "inputs": [
        {
          "internalType": "address",
          "name": "_validatorAddress",
          "type": "address"
        }
      ],
      "name": "isActiveValidator",
      "outputs": [
        {
          "internalType": "bool",
          "name": "",
          "type": "bool"
        }
      ],
      "payable": false,
      "stateMutability": "view",
      "type": "function"
    },
    {
      "constant": false,
      "inputs": [
        {
          "internalType": "enum CosmosBridgeStorage.ClaimType",
          "name": "_claimType",
          "type": "uint8"
        },
        {
          "internalType": "bytes",
          "name": "_cosmosSender",
          "type": "bytes"
        },
        {
          "internalType": "uint256",
          "name": "_cosmosSenderSequence",
          "type": "uint256"
        },
        {
          "internalType": "address payable",
          "name": "_ethereumReceiver",
          "type": "address"
        },
        {
          "internalType": "string",
          "name": "_symbol",
          "type": "string"
        },
        {
          "internalType": "uint256",
          "name": "_amount",
          "type": "uint256"
        }
      ],
      "name": "newProphecyClaim",
      "outputs": [],
      "payable": false,
      "stateMutability": "nonpayable",
      "type": "function"
    },
    {
      "constant": true,
      "inputs": [],
      "name": "operator",
      "outputs": [
        {
          "internalType": "address",
          "name": "",
          "type": "address"
        }
      ],
      "payable": false,
      "stateMutability": "view",
      "type": "function"
    },
    {
      "constant": true,
      "inputs": [],
      "name": "oracle",
      "outputs": [
        {
          "internalType": "address payable",
          "name": "",
          "type": "address"
        }
      ],
      "payable": false,
      "stateMutability": "view",
      "type": "function"
    },
    {
      "constant": true,
      "inputs": [
        {
          "internalType": "uint256",
          "name": "",
          "type": "uint256"
        }
      ],
      "name": "oracleClaimValidators",
      "outputs": [
        {
          "internalType": "uint256",
          "name": "",
          "type": "uint256"
        }
      ],
      "payable": false,
      "stateMutability": "view",
      "type": "function"
    },
    {
      "constant": true,
      "inputs": [
        {
          "internalType": "address",
          "name": "",
          "type": "address"
        },
        {
          "internalType": "uint256",
          "name": "",
          "type": "uint256"
        }
      ],
      "name": "powers",
      "outputs": [
        {
          "internalType": "uint256",
          "name": "",
          "type": "uint256"
        }
      ],
      "payable": false,
      "stateMutability": "view",
      "type": "function"
    },
    {
      "constant": true,
      "inputs": [
        {
          "internalType": "uint256",
          "name": "",
          "type": "uint256"
        }
      ],
      "name": "prophecyClaims",
      "outputs": [
        {
          "internalType": "address payable",
          "name": "ethereumReceiver",
          "type": "address"
        },
        {
          "internalType": "string",
          "name": "symbol",
          "type": "string"
        },
        {
          "internalType": "uint256",
          "name": "amount",
          "type": "uint256"
        }
      ],
      "payable": false,
      "stateMutability": "view",
      "type": "function"
    },
    {
      "constant": false,
      "inputs": [
        {
          "internalType": "uint256",
          "name": "_valsetVersion",
          "type": "uint256"
        },
        {
          "internalType": "address",
          "name": "_validatorAddress",
          "type": "address"
        }
      ],
      "name": "recoverGas",
      "outputs": [],
      "payable": false,
      "stateMutability": "nonpayable",
      "type": "function"
    },
    {
      "constant": false,
      "inputs": [
        {
          "internalType": "address",
          "name": "_validatorAddress",
          "type": "address"
        }
      ],
      "name": "removeValidator",
      "outputs": [],
      "payable": false,
      "stateMutability": "nonpayable",
      "type": "function"
    },
    {
      "constant": false,
      "inputs": [
        {
          "internalType": "address payable",
          "name": "_bridgeBank",
          "type": "address"
        }
      ],
      "name": "setBridgeBank",
      "outputs": [],
      "payable": false,
      "stateMutability": "nonpayable",
      "type": "function"
    },
    {
      "constant": true,
      "inputs": [],
      "name": "totalPower",
      "outputs": [
        {
          "internalType": "uint256",
          "name": "",
          "type": "uint256"
        }
      ],
      "payable": false,
      "stateMutability": "view",
      "type": "function"
    },
    {
      "constant": false,
      "inputs": [
        {
          "internalType": "address",
          "name": "_validatorAddress",
          "type": "address"
        },
        {
          "internalType": "uint256",
          "name": "_newValidatorPower",
          "type": "uint256"
        }
      ],
      "name": "updateValidatorPower",
      "outputs": [],
      "payable": false,
      "stateMutability": "nonpayable",
      "type": "function"
    },
    {
      "constant": false,
      "inputs": [
        {
          "internalType": "address[]",
          "name": "_validators",
          "type": "address[]"
        },
        {
          "internalType": "uint256[]",
          "name": "_powers",
          "type": "uint256[]"
        }
      ],
      "name": "updateValset",
      "outputs": [],
      "payable": false,
      "stateMutability": "nonpayable",
      "type": "function"
    },
    {
      "constant": true,
      "inputs": [],
      "name": "validatorCount",
      "outputs": [
        {
          "internalType": "uint256",
          "name": "",
          "type": "uint256"
        }
      ],
      "payable": false,
      "stateMutability": "view",
      "type": "function"
    },
    {
      "constant": true,
      "inputs": [
        {
          "internalType": "address",
          "name": "",
          "type": "address"
        },
        {
          "internalType": "uint256",
          "name": "",
          "type": "uint256"
        }
      ],
      "name": "validators",
      "outputs": [
        {
          "internalType": "bool",
          "name": "",
          "type": "bool"
        }
      ],
      "payable": false,
      "stateMutability": "view",
      "type": "function"
    },
    {
      "constant": true,
      "inputs": [],
      "name": "valset",
      "outputs": [
        {
          "internalType": "address payable",
          "name": "",
          "type": "address"
        }
      ],
      "payable": false,
      "stateMutability": "view",
      "type": "function"
    }
  ],
  "bytecode": "0x608060405234801561001057600080fd5b50612769806100206000396000f3fe608060405234801561001057600080fd5b50600436106101c45760003560e01c80637dc0d1d0116100f9578063aef6ac3a11610097578063db3ad22c11610071578063db3ad22c146108c3578063db4237af146108cb578063f9b0b5b914610976578063fc6c1f021461097e576101c4565b8063aef6ac3a14610852578063b0e9ef711461088f578063b5672be314610897576101c4565b8063850f43dd116100d3578063850f43dd146106ba5780638d56c37d146106e65780639a19224f146106ee578063a219763e14610826576101c4565b80637dc0d1d0146106845780637f54af0c1461068c578063814c92c314610694576101c4565b8063473691a41161016657806369294a4e1161014057806369294a4e1461045f5780636e850da414610467578063788cf92f1461054457806378ffb1c614610667576101c4565b8063473691a4146102e7578063570ca7351461030d5780635d4c66a314610315576101c4565b80632e75293b116101a25780632e75293b1461022f57806340550a1c1461025b57806340a141ff1461029557806345aaf18c146102bb576101c4565b806306394c9b146101c95780630e41f373146101f15780630f43a67714610215575b600080fd5b6101ef600480360360208110156101df57600080fd5b50356001600160a01b03166109aa565b005b6101f9610a66565b604080516001600160a01b039092168252519081900360200190f35b61021d610a75565b60408051918252519081900360200190f35b6101ef6004803603604081101561024557600080fd5b506001600160a01b038135169060200135610a7b565b6102816004803603602081101561027157600080fd5b50356001600160a01b0316610c01565b604080519115158252519081900360200190f35b6101ef600480360360208110156102ab57600080fd5b50356001600160a01b0316610c2c565b610281600480360360408110156102d157600080fd5b506001600160a01b038135169060200135610dce565b61021d600480360360208110156102fd57600080fd5b50356001600160a01b0316610dee565b6101f9610e16565b6101ef600480360360c081101561032b57600080fd5b60ff8235169190810190604081016020820135600160201b81111561034f57600080fd5b82018360208201111561036157600080fd5b803590602001918460018302840111600160201b8311171561038257600080fd5b91908080601f01602080910402602001604051908101604052809392919081815260200183838082843760009201919091525092958435956001600160a01b0360208701351695919450925060608101915060400135600160201b8111156103e957600080fd5b8201836020820111156103fb57600080fd5b803590602001918460018302840111600160201b8311171561041c57600080fd5b91908080601f0160208091040260200160405190810160405280939291908181526020018383808284376000920191909152509295505091359250610e25915050565b610281611679565b61021d600480360360c081101561047d57600080fd5b60ff8235169190810190604081016020820135600160201b8111156104a157600080fd5b8201836020820111156104b357600080fd5b803590602001918460018302840111600160201b831117156104d457600080fd5b919390928235926001600160a01b03602082013516929190606081019060400135600160201b81111561050657600080fd5b82018360208201111561051857600080fd5b803590602001918460018302840111600160201b8311171561053957600080fd5b919350915035611689565b6101ef6004803603604081101561055a57600080fd5b810190602081018135600160201b81111561057457600080fd5b82018360208201111561058657600080fd5b803590602001918460208302840111600160201b831117156105a757600080fd5b9190808060200260200160405190810160405280939291908181526020018383602002808284376000920191909152509295949360208101935035915050600160201b8111156105f657600080fd5b82018360208201111561060857600080fd5b803590602001918460208302840111600160201b8311171561062957600080fd5b919080806020026020016040519081016040528093929190818152602001838360200280828437600092019190915250929550611716945050505050565b61021d6004803603602081101561067d57600080fd5b503561183b565b6101f961184d565b6101f961185c565b6101ef600480360360208110156106aa57600080fd5b50356001600160a01b031661186b565b61021d600480360360408110156106d057600080fd5b506001600160a01b03813516906020013561196a565b61021d611987565b6101ef6004803603608081101561070457600080fd5b6001600160a01b0382351691602081013591810190606081016040820135600160201b81111561073357600080fd5b82018360208201111561074557600080fd5b803590602001918460208302840111600160201b8311171561076657600080fd5b9190808060200260200160405190810160405280939291908181526020018383602002808284376000920191909152509295949360208101935035915050600160201b8111156107b557600080fd5b8201836020820111156107c757600080fd5b803590602001918460208302840111600160201b831117156107e857600080fd5b91908080602002602001604051908101604052809392919081815260200183836020028082843760009201919091525092955061198d945050505050565b6102816004803603604081101561083c57600080fd5b50803590602001356001600160a01b0316611a51565b61086f6004803603602081101561086857600080fd5b5035611a71565b604080519315158452602084019290925282820152519081900360600190f35b6101f9611aca565b6101ef600480360360408110156108ad57600080fd5b50803590602001356001600160a01b0316611ad9565b61021d611bac565b6108e8600480360360208110156108e157600080fd5b5035611bb2565b604080516001600160a01b0385168152908101829052606060208083018281528551928401929092528451608084019186019080838360005b83811015610939578181015183820152602001610921565b50505050905090810190601f1680156109665780820380516001836020036101000a031916815260200191505b5094505050505060405180910390f35b61021d611c6c565b6101ef6004803603604081101561099457600080fd5b506001600160a01b038135169060200135611c72565b60d7546001600160a01b031633146109f7576040805162461bcd60e51b81526020600482015260156024820152600080516020612577833981519152604482015290519081900360640190fd5b6001600160a01b038116610a44576040805162461bcd60e51b815260206004820152600f60248201526e696e76616c6964206164647265737360881b604482015290519081900360640190fd5b60d780546001600160a01b0319166001600160a01b0392909216919091179055565b6004546001600160a01b031681565b60d55481565b60d7546001600160a01b03163314610ac8576040805162461bcd60e51b81526020600482015260156024820152600080516020612577833981519152604482015290519081900360640190fd5b6001600160a01b038216600090815260d66020908152604080832060d454845290915290205460ff16610b2c5760405162461bcd60e51b815260040180806020018281038252602e8152602001806126d8602e913960400191505060405180910390fd5b6001600160a01b038216600090815260d86020908152604080832060d454845290915290205460d354610b65908263ffffffff611ccd16565b60d3819055610b7a908363ffffffff611d1816565b60d39081556001600160a01b038416600081815260d86020908152604080832060d48054855290835292819020879055915460d55494548351948552918401879052838301526060830193909352608082019290925290517f335940ce4119f8aae891d73dba74510a3d51f6210134d058237f26e6a31d53409181900360a00190a1505050565b6001600160a01b0316600090815260d66020908152604080832060d454845290915290205460ff1690565b60d7546001600160a01b03163314610c79576040805162461bcd60e51b81526020600482015260156024820152600080516020612577833981519152604482015290519081900360640190fd5b6001600160a01b038116600090815260d66020908152604080832060d454845290915290205460ff16610cdd5760405162461bcd60e51b81526004018080602001828103825260218152602001806126176021913960400191505060405180910390fd5b60d554610cf190600163ffffffff611ccd16565b60d5556001600160a01b038116600090815260d86020908152604080832060d454845290915290205460d354610d2c9163ffffffff611ccd16565b60d39081556001600160a01b038216600081815260d66020908152604080832060d480548552908352818420805460ff1916905584845260d883528184208154855283528184208490555460d5549554825195865292850193909352838101929092526060830193909352608082019290925290517f1241fb43a101ff98ab819a1882097d4ccada51ba60f326c1981cc48840f55b8c9181900360a00190a150565b60d660209081526000928352604080842090915290825290205460ff1681565b6001600160a01b0316600090815260d86020908152604080832060d454845290915290205490565b60d7546001600160a01b031681565b610e2e33610c01565b610e7f576040805162461bcd60e51b815260206004820152601b60248201527f4d75737420626520616e206163746976652076616c696461746f720000000000604482015290519081900360640190fd5b600086868686868660405160200180876002811115610e9a57fe5b60ff1660f81b815260010186805190602001908083835b60208310610ed05780518252601f199092019160209182019101610eb1565b51815160209384036101000a60001901801990921691161790529201878152606087901b6bffffffffffffffffffffffff1916818401528551603490910192860191508083835b60208310610f365780518252601f199092019160209182019101610f17565b51815160209384036101000a600019018019909216911617905292019384525060408051808503815293820190528251920191909120965060009550610f839450869350611a7192505050565b505090508015610fce576040805162461bcd60e51b81526020600482015260116024820152701c1c9bdc1a1958de50dbdb5c1b195d1959607a1b604482015290519081900360640190fd5b6000828152606d602052604090205461164d57600480546040516373d8866560e01b815260209281018381528751602483015287516060946001600160a01b03909416936373d88665938a9392839260449092019185019080838360005b8381101561104457818101518382015260200161102c565b50505050905090810190601f1680156110715780820380516001836020036101000a031916815260200191505b509250505060006040518083038186803b15801561108e57600080fd5b505afa1580156110a2573d6000803e3d6000fd5b505050506040513d6000823e601f3d908101601f1916820160405260208110156110cb57600080fd5b8101908080516040519392919084600160201b8211156110ea57600080fd5b9083019060208201858111156110ff57600080fd5b8251600160201b81118282018810171561111857600080fd5b82525081516020918201929091019080838360005b8381101561114557818101518382015260200161112d565b50505050905090810190601f1680156111725780820380516001836020036101000a031916815260200191505b5060405250919250600191506111859050565b89600281111561119157fe5b1415611361576004805460405163050fcdb360e11b815260209281018381528451602483015284516000946001600160a01b0390941693630a1f9b669387939283926044909201918501908083838b5b838110156111f95781810151838201526020016111e1565b50505050905090810190601f1680156112265780820380516001836020036101000a031916815260200191505b509250505060206040518083038186803b15801561124357600080fd5b505afa158015611257573d6000803e3d6000fd5b505050506040513d602081101561126d57600080fd5b505190506001600160a01b038116158015611311575060408051620cae8d60eb1b815290519081900360030181208351909184916020918201918291908401908083835b602083106112d05780518252601f1990920191602091820191016112b1565b6001836020036101000a0380198251168184511680821785525050505050509050019150506040516020818303038152906040528051906020012060001c14155b1561135b576040805162461bcd60e51b8152602060048201526015602482015274496e76616c696420746f6b656e206164647265737360581b604482015290519081900360640190fd5b50611572565b600289600281111561136f57fe5b141561153b576004805460405163ebb73ca960e01b815260209281018381528451602483015284516000946001600160a01b039094169363ebb73ca99387939283926044909201918501908083838b5b838110156113d75781810151838201526020016113bf565b50505050905090810190601f1680156114045780820380516001836020036101000a031916815260200191505b509250505060206040518083038186803b15801561142157600080fd5b505afa158015611435573d6000803e3d6000fd5b505050506040513d602081101561144b57600080fd5b505190506001600160a01b03811661135b57600480546040516350b06e4d60e01b815260209281018381528551602483015285516001600160a01b03909316936350b06e4d93879383926044909101919085019080838360005b838110156114bd5781810151838201526020016114a5565b50505050905090810190601f1680156114ea5780820380516001836020036101000a031916815260200191505b5092505050602060405180830381600087803b15801561150957600080fd5b505af115801561151d573d6000803e3d6000fd5b505050506040513d602081101561153357600080fd5b505050611572565b60405162461bcd60e51b815260040180806020018281038252603581526020018061266e6035913960400191505060405180910390fd5b7f4a5e641839ab01f64c7378be2bdcfe883606b326a7f4b46fc016690230dbd492838a888488604051808681526020018560028111156115ae57fe5b60ff168152602001846001600160a01b03166001600160a01b0316815260200180602001838152602001828103825284818151815260200191508051906020019080838360005b8381101561160d5781810151838201526020016115f5565b50505050905090810190601f16801561163a5780820380516001836020036101000a031916815260200191505b50965050505050505060405180910390a1505b60006116598333611d72565b9050801561166e5761166e838a888888611e96565b505050505050505050565b600454600160a01b900460ff1681565b60008888888888888888604051602001808960028111156116a657fe5b60ff1660f81b8152600101888880828437919091018781526bffffffffffffffffffffffff19606088901b16602082015260340190508484808284379190910192835250506040805180830381526020928301909152805191012097505050505050505098975050505050505050565b60d7546001600160a01b03163314611763576040805162461bcd60e51b81526020600482015260156024820152600080516020612577833981519152604482015290519081900360640190fd5b80518251146117a35760405162461bcd60e51b815260040180806020018281038252602f815260200180612706602f913960400191505060405180910390fd5b6117ab611f19565b60005b82518110156117ef576117e78382815181106117c657fe5b60200260200101518383815181106117da57fe5b6020026020010151611f80565b6001016117ae565b5060d45460d55460d35460408051938452602084019290925282820152517f3a7ef0da3179668af8114719645585b5a37092ef2d66f187dcf63d83a221eaa69181900360600190a15050565b606d6020526000908152604090205481565b6003546001600160a01b031681565b6002546001600160a01b031681565b60d7546001600160a01b031633146118b8576040805162461bcd60e51b81526020600482015260156024820152600080516020612577833981519152604482015290519081900360640190fd5b600454600160a01b900460ff16156119015760405162461bcd60e51b81526004018080602001828103825260368152602001806126386036913960400191505060405180910390fd5b60048054600160a01b60ff60a01b19909116176001600160a01b0319166001600160a01b03838116919091179182905560408051929091168252517fc8b65043fb196ac032b79a435397d1d14a96b4e9d12e366c3b1f550cb01d2dfa916020908290030190a150565b60d860209081526000928352604080842090915290825290205481565b60d45481565b61013d5462010000900460ff16156119da576040805162461bcd60e51b815260206004820152600b60248201526a125b9a5d1a585b1a5e995960aa1b604482015290519081900360640190fd5b604080518082019091526001808252606560f81b6020909201918252611a02916000916124db565b5060d780546001600160a01b0386166001600160a01b03199091161790556004805460ff60a01b1916905561013d805462ff0000191662010000179055611a4b8484848461204e565b50505050565b606e60209081526000928352604080842090915290825290205460ff1681565b60d3546000828152606d6020526040812054606c5491928392839291908390611aa190839063ffffffff61216c16565b90506000611ab684606463ffffffff61216c16565b828110159990985091965090945050505050565b606a546001600160a01b031681565b60d7546001600160a01b03163314611b26576040805162461bcd60e51b81526020600482015260156024820152600080516020612577833981519152604482015290519081900360640190fd5b60d4548210611b665760405162461bcd60e51b81526004018080602001828103825260358152602001806126a36035913960400191505060405180910390fd5b6001600160a01b0316600081815260d66020908152604080832060d480548552908352818420805460ff1916905593835260d88252808320935483529290529081205550565b60d35481565b6005602090815260009182526040918290208054600180830180548651600261010094831615949094026000190190911692909204601f81018690048602830186019096528582526001600160a01b03909216949293909290830182828015611c5c5780601f10611c3157610100808354040283529160200191611c5c565b820191906000526020600020905b815481529060010190602001808311611c3f57829003601f168201915b5050505050908060020154905083565b606c5481565b60d7546001600160a01b03163314611cbf576040805162461bcd60e51b81526020600482015260156024820152600080516020612577833981519152604482015290519081900360640190fd5b611cc98282611f80565b5050565b6000611d0f83836040518060400160405280601e81526020017f536166654d6174683a207375627472616374696f6e206f766572666c6f7700008152506121c5565b90505b92915050565b600082820183811015611d0f576040805162461bcd60e51b815260206004820152601b60248201527f536166654d6174683a206164646974696f6e206f766572666c6f770000000000604482015290519081900360640190fd5b6000828152606e602090815260408083206001600160a01b038516845290915281205460ff1615611dd45760405162461bcd60e51b815260040180806020018281038252603a8152602001806125bc603a913960400191505060405180910390fd5b6000838152606e602090815260408083206001600160a01b03861684529091529020805460ff19166001179055611e28611e0d83610dee565b6000858152606d60205260409020549063ffffffff611d1816565b6000848152606d60209081526040918290209290925580518581526001600160a01b0385169281019290925280517f668fce9833323940537a9000d512a6c580a1c0797d2b526db0078ee9c5a087a99281900390910190a16000611e8b84611a71565b509095945050505050565b6001846002811115611ea457fe5b1415611eba57611eb583838361225c565b611ec5565b611ec583838361233c565b7f79e7c1c0bd54f11809c3bf6023c242783602d61ceff272c6bba6f8559c24ad0d858560405180838152602001826002811115611efe57fe5b60ff1681526020019250505060405180910390a15050505050565b60d454611f2d90600163ffffffff611d1816565b60d4819055600060d581905560d3819055604080519283526020830182905282810191909152517fd870653e19f161500290fd0c4ca41bf5cf2bcb1ba66448f41c66c512dabd65f29181900360600190a1565b60d554611f9490600163ffffffff611d1816565b60d55560d354611faa908263ffffffff611d1816565b60d39081556001600160a01b038316600081815260d66020908152604080832060d480548552908352818420805460ff1916600117905584845260d8835281842081548552835292819020869055915460d55494548351948552918401869052838301526060830193909352608082019290925290517f1a396bcf647502e902dce665d58a0c1b25f982f193ab9a1d0f1500d8d927bf2a9181900360a00190a15050565b61013d54610100900460ff161561209a576040805162461bcd60e51b815260206004820152600b60248201526a125b9a5d1a585b1a5e995960aa1b604482015290519081900360640190fd5b600083116120d95760405162461bcd60e51b81526004018080602001828103825260258152602001806125976025913960400191505060405180910390fd5b606483111561212f576040805162461bcd60e51b815260206004820152601c60248201527f496e76616c696420636f6e73656e737573207468726573686f6c642e00000000604482015290519081900360640190fd5b60d780546001600160a01b0386166001600160a01b0319909116179055606c83905561013d805461ff001916610100179055611a4b8483836123ae565b60008261217b57506000611d12565b8282028284828161218857fe5b0414611d0f5760405162461bcd60e51b81526004018080602001828103825260218152602001806125f66021913960400191505060405180910390fd5b600081848411156122545760405162461bcd60e51b81526004018080602001828103825283818151815260200191508051906020019080838360005b83811015612219578181015183820152602001612201565b50505050905090810190601f1680156122465780820380516001836020036101000a031916815260200191505b509250505060405180910390fd5b505050900390565b60048054604051633816622960e21b81526001600160a01b0386811693820193845260448201859052606060248301908152865160648401528651919093169363e05988a493889388938893929160840190602086019080838360005b838110156122d15781810151838201526020016122b9565b50505050905090810190601f1680156122fe5780820380516001836020036101000a031916815260200191505b50945050505050600060405180830381600087803b15801561231f57600080fd5b505af1158015612333573d6000803e3d6000fd5b50505050505050565b60048054604051636175047160e01b81526001600160a01b038681169382019384526044820185905260606024830190815286516064840152865191909316936361750471938893889388939291608401906020860190808383600083156122d15781810151838201526020016122b9565b61013d5460ff16156123f5576040805162461bcd60e51b815260206004820152600b60248201526a125b9a5d1a585b1a5e995960aa1b604482015290519081900360640190fd5b60d780546001600160a01b0319166001600160a01b038516179055600060d45561013d805460ff1916600117905580518251146124635760405162461bcd60e51b815260040180806020018281038252602f815260200180612706602f913960400191505060405180910390fd5b61246b611f19565b60005b825181101561248e576124868382815181106117c657fe5b60010161246e565b5060d45460d55460d35460408051938452602084019290925282820152517f3a7ef0da3179668af8114719645585b5a37092ef2d66f187dcf63d83a221eaa69181900360600190a1505050565b828054600181600116156101000203166002900490600052602060002090601f016020900481019282601f1061251c57805160ff1916838001178555612549565b82800160010185558215612549579182015b8281111561254957825182559160200191906001019061252e565b50612555929150612559565b5090565b61257391905b80821115612555576000815560010161255f565b9056fe4d75737420626520746865206f70657261746f722e0000000000000000000000436f6e73656e737573207468726573686f6c64206d75737420626520706f7369746976652e43616e6e6f74206d616b65206475706c6963617465206f7261636c6520636c61696d732066726f6d207468652073616d6520616464726573732e536166654d6174683a206d756c7469706c69636174696f6e206f766572666c6f7743616e206f6e6c792072656d6f7665206163746976652076616c696461746f7273546865204272696467652042616e6b2063616e6e6f742062652075706461746564206f6e636520697420686173206265656e20736574496e76616c696420636c61696d20747970652c206f6e6c79206275726e20616e64206c6f636b2061726520737570706f727465642e476173207265636f76657279206f6e6c7920616c6c6f77656420666f722070726576696f75732076616c696461746f72207365747343616e206f6e6c79207570646174652074686520706f776572206f66206163746976652076616c646961746f727345766572792076616c696461746f72206d7573742068617665206120636f72726573706f6e64696e6720706f776572a265627a7a723158208c75f6e10793644837d822114f2a767378826362facd045975b8cf7ff24ca8ba64736f6c63430005100032",
  "linkReferences": {},
  "deployedLinkReferences": {}
}