{
  "contracts/OracleStorage.sol": {
    "OracleStorage": {
      "abi": [
        {
          "constant": true,
          "inputs": [],
          "name": "consensusThreshold",
          "outputs": [
            {
              "internalType": "uint256",
              "name": "",
              "type": "uint256"
            }
          ],
          "payable": false,
          "stateMutability": "view",
          "type": "function"
        },
        {
          "constant": true,
          "inputs": [],
          "name": "cosmosBridge",
          "outputs": [
            {
              "internalType": "address",
              "name": "",
              "type": "address"
            }
          ],
          "payable": false,
          "stateMutability": "view",
          "type": "function"
        },
        {
          "constant": true,
          "inputs": [
            {
              "internalType": "uint256",
              "name": "",
              "type": "uint256"
            },
            {
              "internalType": "address",
              "name": "",
              "type": "address"
            }
          ],
          "name": "hasMadeClaim",
          "outputs": [
            {
              "internalType": "bool",
              "name": "",
              "type": "bool"
            }
          ],
          "payable": false,
          "stateMutability": "view",
          "type": "function"
        },
        {
          "constant": true,
          "inputs": [],
          "name": "operator",
          "outputs": [
            {
              "internalType": "address",
              "name": "",
              "type": "address"
            }
          ],
          "payable": false,
          "stateMutability": "view",
          "type": "function"
        },
        {
          "constant": true,
          "inputs": [
            {
              "internalType": "uint256",
              "name": "",
              "type": "uint256"
            }
          ],
          "name": "oracleClaimValidators",
          "outputs": [
            {
              "internalType": "uint256",
              "name": "",
              "type": "uint256"
            }
          ],
          "payable": false,
          "stateMutability": "view",
          "type": "function"
        }
      ],
      "evm": {
        "bytecode": {
          "linkReferences": {},
          "object": "608060405234801561001057600080fd5b5061018a806100206000396000f3fe608060405234801561001057600080fd5b50600436106100575760003560e01c8063570ca7351461005c57806378ffb1c614610080578063a219763e146100af578063b0e9ef71146100ef578063f9b0b5b9146100f7575b600080fd5b6100646100ff565b604080516001600160a01b039092168252519081900360200190f35b61009d6004803603602081101561009657600080fd5b503561010e565b60408051918252519081900360200190f35b6100db600480360360408110156100c557600080fd5b50803590602001356001600160a01b0316610120565b604080519115158252519081900360200190f35b610064610140565b61009d61014f565b6001546001600160a01b031681565b60036020526000908152604090205481565b600460209081526000928352604080842090915290825290205460ff1681565b6000546001600160a01b031681565b6002548156fea265627a7a7231582066c40a40c5e79221fd67592e9b43586dbd183666ad2bebd593ae424f49048db864736f6c63430005100032",
          "opcodes": "PUSH1 0x80 PUSH1 0x40 MSTORE CALLVALUE DUP1 ISZERO PUSH2 0x10 JUMPI PUSH1 0x0 DUP1 REVERT JUMPDEST POP PUSH2 0x18A DUP1 PUSH2 0x20 PUSH1 0x0 CODECOPY PUSH1 0x0 RETURN INVALID PUSH1 0x80 PUSH1 0x40 MSTORE CALLVALUE DUP1 ISZERO PUSH2 0x10 JUMPI PUSH1 0x0 DUP1 REVERT JUMPDEST POP PUSH1 0x4 CALLDATASIZE LT PUSH2 0x57 JUMPI PUSH1 0x0 CALLDATALOAD PUSH1 0xE0 SHR DUP1 PUSH4 0x570CA735 EQ PUSH2 0x5C JUMPI DUP1 PUSH4 0x78FFB1C6 EQ PUSH2 0x80 JUMPI DUP1 PUSH4 0xA219763E EQ PUSH2 0xAF JUMPI DUP1 PUSH4 0xB0E9EF71 EQ PUSH2 0xEF JUMPI DUP1 PUSH4 0xF9B0B5B9 EQ PUSH2 0xF7 JUMPI JUMPDEST PUSH1 0x0 DUP1 REVERT JUMPDEST PUSH2 0x64 PUSH2 0xFF JUMP JUMPDEST PUSH1 0x40 DUP1 MLOAD PUSH1 0x1 PUSH1 0x1 PUSH1 0xA0 SHL SUB SWAP1 SWAP3 AND DUP3 MSTORE MLOAD SWAP1 DUP2 SWAP1 SUB PUSH1 0x20 ADD SWAP1 RETURN JUMPDEST PUSH2 0x9D PUSH1 0x4 DUP1 CALLDATASIZE SUB PUSH1 0x20 DUP2 LT ISZERO PUSH2 0x96 JUMPI PUSH1 0x0 DUP1 REVERT JUMPDEST POP CALLDATALOAD PUSH2 0x10E JUMP JUMPDEST PUSH1 0x40 DUP1 MLOAD SWAP2 DUP3 MSTORE MLOAD SWAP1 DUP2 SWAP1 SUB PUSH1 0x20 ADD SWAP1 RETURN JUMPDEST PUSH2 0xDB PUSH1 0x4 DUP1 CALLDATASIZE SUB PUSH1 0x40 DUP2 LT ISZERO PUSH2 0xC5 JUMPI PUSH1 0x0 DUP1 REVERT JUMPDEST POP DUP1 CALLDATALOAD SWAP1 PUSH1 0x20 ADD CALLDATALOAD PUSH1 0x1 PUSH1 0x1 PUSH1 0xA0 SHL SUB AND PUSH2 0x120 JUMP JUMPDEST PUSH1 0x40 DUP1 MLOAD SWAP2 ISZERO ISZERO DUP3 MSTORE MLOAD SWAP1 DUP2 SWAP1 SUB PUSH1 0x20 ADD SWAP1 RETURN JUMPDEST PUSH2 0x64 PUSH2 0x140 JUMP JUMPDEST PUSH2 0x9D PUSH2 0x14F JUMP JUMPDEST PUSH1 0x1 SLOAD PUSH1 0x1 PUSH1 0x1 PUSH1 0xA0 SHL SUB AND DUP2 JUMP JUMPDEST PUSH1 0x3 PUSH1 0x20 MSTORE PUSH1 0x0 SWAP1 DUP2 MSTORE PUSH1 0x40 SWAP1 KECCAK256 SLOAD DUP2 JUMP JUMPDEST PUSH1 0x4 PUSH1 0x20 SWAP1 DUP2 MSTORE PUSH1 0x0 SWAP3 DUP4 MSTORE PUSH1 0x40 DUP1 DUP5 KECCAK256 SWAP1 SWAP2 MSTORE SWAP1 DUP3 MSTORE SWAP1 KECCAK256 SLOAD PUSH1 0xFF AND DUP2 JUMP JUMPDEST PUSH1 0x0 SLOAD PUSH1 0x1 PUSH1 0x1 PUSH1 0xA0 SHL SUB AND DUP2 JUMP JUMPDEST PUSH1 0x2 SLOAD DUP2 JUMP INVALID LOG2 PUSH6 0x627A7A723158 KECCAK256 PUSH7 0xC40A40C5E79221 REVERT PUSH8 0x592E9B43586DBD18 CALLDATASIZE PUSH7 0xAD2BEBD593AE42 0x4F 0x49 DIV DUP14 0xB8 PUSH5 0x736F6C6343 STOP SDIV LT STOP ORIGIN "
        },
        "methodIdentifiers": {
          "consensusThreshold()": "f9b0b5b9",
          "cosmosBridge()": "b0e9ef71",
          "hasMadeClaim(uint256,address)": "a219763e",
          "operator()": "570ca735",
          "oracleClaimValidators(uint256)": "78ffb1c6"
        }
      }
    }
  }
}