{
  "contracts/MockUpgrade/MockCosmsosBridgeUpgrade.sol": {
    "MockCosmosBridgeUpgrade": {
      "abi": [
        {
          "anonymous": false,
          "inputs": [
            {
              "indexed": false,
              "internalType": "address",
              "name": "_bridgeBank",
              "type": "address"
            }
          ],
          "name": "LogBridgeBankSet",
          "type": "event"
        },
        {
          "anonymous": false,
          "inputs": [
            {
              "indexed": false,
              "internalType": "uint256",
              "name": "_prophecyID",
              "type": "uint256"
            },
            {
              "indexed": false,
              "internalType": "address",
              "name": "_validatorAddress",
              "type": "address"
            }
          ],
          "name": "LogNewOracleClaim",
          "type": "event"
        },
        {
          "anonymous": false,
          "inputs": [
            {
              "indexed": false,
              "internalType": "uint256",
              "name": "_prophecyID",
              "type": "uint256"
            },
            {
              "indexed": false,
              "internalType": "enum CosmosBridgeStorage.ClaimType",
              "name": "_claimType",
              "type": "uint8"
            },
            {
              "indexed": false,
              "internalType": "address payable",
              "name": "_ethereumReceiver",
              "type": "address"
            },
            {
              "indexed": false,
              "internalType": "string",
              "name": "_symbol",
              "type": "string"
            },
            {
              "indexed": false,
              "internalType": "uint256",
              "name": "_amount",
              "type": "uint256"
            }
          ],
          "name": "LogNewProphecyClaim",
          "type": "event"
        },
        {
          "anonymous": false,
          "inputs": [
            {
              "indexed": false,
              "internalType": "address",
              "name": "_oracle",
              "type": "address"
            }
          ],
          "name": "LogOracleSet",
          "type": "event"
        },
        {
          "anonymous": false,
          "inputs": [
            {
              "indexed": false,
              "internalType": "uint256",
              "name": "_prophecyID",
              "type": "uint256"
            },
            {
              "indexed": false,
              "internalType": "enum CosmosBridgeStorage.ClaimType",
              "name": "_claimType",
              "type": "uint8"
            }
          ],
          "name": "LogProphecyCompleted",
          "type": "event"
        },
        {
          "anonymous": false,
          "inputs": [
            {
              "indexed": false,
              "internalType": "uint256",
              "name": "_prophecyID",
              "type": "uint256"
            },
            {
              "indexed": false,
              "internalType": "uint256",
              "name": "_prophecyPowerCurrent",
              "type": "uint256"
            },
            {
              "indexed": false,
              "internalType": "uint256",
              "name": "_prophecyPowerThreshold",
              "type": "uint256"
            },
            {
              "indexed": false,
              "internalType": "address",
              "name": "_submitter",
              "type": "address"
            }
          ],
          "name": "LogProphecyProcessed",
          "type": "event"
        },
        {
          "anonymous": false,
          "inputs": [
            {
              "indexed": false,
              "internalType": "address",
              "name": "_validator",
              "type": "address"
            },
            {
              "indexed": false,
              "internalType": "uint256",
              "name": "_power",
              "type": "uint256"
            },
            {
              "indexed": false,
              "internalType": "uint256",
              "name": "_currentValsetVersion",
              "type": "uint256"
            },
            {
              "indexed": false,
              "internalType": "uint256",
              "name": "_validatorCount",
              "type": "uint256"
            },
            {
              "indexed": false,
              "internalType": "uint256",
              "name": "_totalPower",
              "type": "uint256"
            }
          ],
          "name": "LogValidatorAdded",
          "type": "event"
        },
        {
          "anonymous": false,
          "inputs": [
            {
              "indexed": false,
              "internalType": "address",
              "name": "_validator",
              "type": "address"
            },
            {
              "indexed": false,
              "internalType": "uint256",
              "name": "_power",
              "type": "uint256"
            },
            {
              "indexed": false,
              "internalType": "uint256",
              "name": "_currentValsetVersion",
              "type": "uint256"
            },
            {
              "indexed": false,
              "internalType": "uint256",
              "name": "_validatorCount",
              "type": "uint256"
            },
            {
              "indexed": false,
              "internalType": "uint256",
              "name": "_totalPower",
              "type": "uint256"
            }
          ],
          "name": "LogValidatorPowerUpdated",
          "type": "event"
        },
        {
          "anonymous": false,
          "inputs": [
            {
              "indexed": false,
              "internalType": "address",
              "name": "_validator",
              "type": "address"
            },
            {
              "indexed": false,
              "internalType": "uint256",
              "name": "_power",
              "type": "uint256"
            },
            {
              "indexed": false,
              "internalType": "uint256",
              "name": "_currentValsetVersion",
              "type": "uint256"
            },
            {
              "indexed": false,
              "internalType": "uint256",
              "name": "_validatorCount",
              "type": "uint256"
            },
            {
              "indexed": false,
              "internalType": "uint256",
              "name": "_totalPower",
              "type": "uint256"
            }
          ],
          "name": "LogValidatorRemoved",
          "type": "event"
        },
        {
          "anonymous": false,
          "inputs": [
            {
              "indexed": false,
              "internalType": "uint256",
              "name": "_newValsetVersion",
              "type": "uint256"
            },
            {
              "indexed": false,
              "internalType": "uint256",
              "name": "_validatorCount",
              "type": "uint256"
            },
            {
              "indexed": false,
              "internalType": "uint256",
              "name": "_totalPower",
              "type": "uint256"
            }
          ],
          "name": "LogValsetReset",
          "type": "event"
        },
        {
          "anonymous": false,
          "inputs": [
            {
              "indexed": false,
              "internalType": "uint256",
              "name": "_newValsetVersion",
              "type": "uint256"
            },
            {
              "indexed": false,
              "internalType": "uint256",
              "name": "_validatorCount",
              "type": "uint256"
            },
            {
              "indexed": false,
              "internalType": "uint256",
              "name": "_totalPower",
              "type": "uint256"
            }
          ],
          "name": "LogValsetUpdated",
          "type": "event"
        },
        {
          "constant": false,
          "inputs": [
            {
              "internalType": "address",
              "name": "_validatorAddress",
              "type": "address"
            },
            {
              "internalType": "uint256",
              "name": "_validatorPower",
              "type": "uint256"
            }
          ],
          "name": "addValidator",
          "outputs": [],
          "payable": false,
          "stateMutability": "nonpayable",
          "type": "function"
        },
        {
          "constant": true,
          "inputs": [
            {
              "internalType": "address",
              "name": "account",
              "type": "address"
            }
          ],
          "name": "balanceOf",
          "outputs": [
            {
              "internalType": "uint256",
              "name": "",
              "type": "uint256"
            }
          ],
          "payable": false,
          "stateMutability": "view",
          "type": "function"
        },
        {
          "constant": true,
          "inputs": [],
          "name": "bridgeBank",
          "outputs": [
            {
              "internalType": "address payable",
              "name": "",
              "type": "address"
            }
          ],
          "payable": false,
          "stateMutability": "view",
          "type": "function"
        },
        {
          "constant": false,
          "inputs": [
            {
              "internalType": "address",
              "name": "_newOperator",
              "type": "address"
            }
          ],
          "name": "changeOperator",
          "outputs": [],
          "payable": false,
          "stateMutability": "nonpayable",
          "type": "function"
        },
        {
          "constant": true,
          "inputs": [],
          "name": "consensusThreshold",
          "outputs": [
            {
              "internalType": "uint256",
              "name": "",
              "type": "uint256"
            }
          ],
          "payable": false,
          "stateMutability": "view",
          "type": "function"
        },
        {
          "constant": true,
          "inputs": [],
          "name": "cosmosBridge",
          "outputs": [
            {
              "internalType": "address",
              "name": "",
              "type": "address"
            }
          ],
          "payable": false,
          "stateMutability": "view",
          "type": "function"
        },
        {
          "constant": true,
          "inputs": [],
          "name": "currentValsetVersion",
          "outputs": [
            {
              "internalType": "uint256",
              "name": "",
              "type": "uint256"
            }
          ],
          "payable": false,
          "stateMutability": "view",
          "type": "function"
        },
        {
          "constant": true,
          "inputs": [
            {
              "internalType": "enum CosmosBridgeStorage.ClaimType",
              "name": "_claimType",
              "type": "uint8"
            },
            {
              "internalType": "bytes",
              "name": "_cosmosSender",
              "type": "bytes"
            },
            {
              "internalType": "uint256",
              "name": "_cosmosSenderSequence",
              "type": "uint256"
            },
            {
              "internalType": "address payable",
              "name": "_ethereumReceiver",
              "type": "address"
            },
            {
              "internalType": "string",
              "name": "_symbol",
              "type": "string"
            },
            {
              "internalType": "uint256",
              "name": "_amount",
              "type": "uint256"
            }
          ],
          "name": "getProphecyID",
          "outputs": [
            {
              "internalType": "uint256",
              "name": "",
              "type": "uint256"
            }
          ],
          "payable": false,
          "stateMutability": "pure",
          "type": "function"
        },
        {
          "constant": true,
          "inputs": [
            {
              "internalType": "uint256",
              "name": "_prophecyID",
              "type": "uint256"
            }
          ],
          "name": "getProphecyThreshold",
          "outputs": [
            {
              "internalType": "bool",
              "name": "",
              "type": "bool"
            },
            {
              "internalType": "uint256",
              "name": "",
              "type": "uint256"
            },
            {
              "internalType": "uint256",
              "name": "",
              "type": "uint256"
            }
          ],
          "payable": false,
          "stateMutability": "view",
          "type": "function"
        },
        {
          "constant": true,
          "inputs": [
            {
              "internalType": "address",
              "name": "_validatorAddress",
              "type": "address"
            }
          ],
          "name": "getValidatorPower",
          "outputs": [
            {
              "internalType": "uint256",
              "name": "",
              "type": "uint256"
            }
          ],
          "payable": false,
          "stateMutability": "view",
          "type": "function"
        },
        {
          "constant": true,
          "inputs": [],
          "name": "hasBridgeBank",
          "outputs": [
            {
              "internalType": "bool",
              "name": "",
              "type": "bool"
            }
          ],
          "payable": false,
          "stateMutability": "view",
          "type": "function"
        },
        {
          "constant": true,
          "inputs": [
            {
              "internalType": "uint256",
              "name": "",
              "type": "uint256"
            },
            {
              "internalType": "address",
              "name": "",
              "type": "address"
            }
          ],
          "name": "hasMadeClaim",
          "outputs": [
            {
              "internalType": "bool",
              "name": "",
              "type": "bool"
            }
          ],
          "payable": false,
          "stateMutability": "view",
          "type": "function"
        },
        {
          "constant": false,
          "inputs": [
            {
              "internalType": "address",
              "name": "_operator",
              "type": "address"
            },
            {
              "internalType": "uint256",
              "name": "_consensusThreshold",
              "type": "uint256"
            },
            {
              "internalType": "address[]",
              "name": "_initValidators",
              "type": "address[]"
            },
            {
              "internalType": "uint256[]",
              "name": "_initPowers",
              "type": "uint256[]"
            }
          ],
          "name": "initialize",
          "outputs": [],
          "payable": false,
          "stateMutability": "nonpayable",
          "type": "function"
        },
        {
          "constant": true,
          "inputs": [
            {
              "internalType": "address",
              "name": "_validatorAddress",
              "type": "address"
            }
          ],
          "name": "isActiveValidator",
          "outputs": [
            {
              "internalType": "bool",
              "name": "",
              "type": "bool"
            }
          ],
          "payable": false,
          "stateMutability": "view",
          "type": "function"
        },
        {
          "constant": false,
          "inputs": [
            {
              "internalType": "enum CosmosBridgeStorage.ClaimType",
              "name": "_claimType",
              "type": "uint8"
            },
            {
              "internalType": "bytes",
              "name": "_cosmosSender",
              "type": "bytes"
            },
            {
              "internalType": "uint256",
              "name": "_cosmosSenderSequence",
              "type": "uint256"
            },
            {
              "internalType": "address payable",
              "name": "_ethereumReceiver",
              "type": "address"
            },
            {
              "internalType": "string",
              "name": "_symbol",
              "type": "string"
            },
            {
              "internalType": "uint256",
              "name": "_amount",
              "type": "uint256"
            }
          ],
          "name": "newProphecyClaim",
          "outputs": [],
          "payable": false,
          "stateMutability": "nonpayable",
          "type": "function"
        },
        {
          "constant": true,
          "inputs": [],
          "name": "operator",
          "outputs": [
            {
              "internalType": "address",
              "name": "",
              "type": "address"
            }
          ],
          "payable": false,
          "stateMutability": "view",
          "type": "function"
        },
        {
          "constant": true,
          "inputs": [],
          "name": "oracle",
          "outputs": [
            {
              "internalType": "address payable",
              "name": "",
              "type": "address"
            }
          ],
          "payable": false,
          "stateMutability": "view",
          "type": "function"
        },
        {
          "constant": true,
          "inputs": [
            {
              "internalType": "uint256",
              "name": "",
              "type": "uint256"
            }
          ],
          "name": "oracleClaimValidators",
          "outputs": [
            {
              "internalType": "uint256",
              "name": "",
              "type": "uint256"
            }
          ],
          "payable": false,
          "stateMutability": "view",
          "type": "function"
        },
        {
          "constant": true,
          "inputs": [
            {
              "internalType": "address",
              "name": "",
              "type": "address"
            },
            {
              "internalType": "uint256",
              "name": "",
              "type": "uint256"
            }
          ],
          "name": "powers",
          "outputs": [
            {
              "internalType": "uint256",
              "name": "",
              "type": "uint256"
            }
          ],
          "payable": false,
          "stateMutability": "view",
          "type": "function"
        },
        {
          "constant": true,
          "inputs": [
            {
              "internalType": "uint256",
              "name": "",
              "type": "uint256"
            }
          ],
          "name": "prophecyClaims",
          "outputs": [
            {
              "internalType": "address payable",
              "name": "ethereumReceiver",
              "type": "address"
            },
            {
              "internalType": "string",
              "name": "symbol",
              "type": "string"
            },
            {
              "internalType": "uint256",
              "name": "amount",
              "type": "uint256"
            }
          ],
          "payable": false,
          "stateMutability": "view",
          "type": "function"
        },
        {
          "constant": false,
          "inputs": [
            {
              "internalType": "uint256",
              "name": "_valsetVersion",
              "type": "uint256"
            },
            {
              "internalType": "address",
              "name": "_validatorAddress",
              "type": "address"
            }
          ],
          "name": "recoverGas",
          "outputs": [],
          "payable": false,
          "stateMutability": "nonpayable",
          "type": "function"
        },
        {
          "constant": false,
          "inputs": [
            {
              "internalType": "address",
              "name": "_validatorAddress",
              "type": "address"
            }
          ],
          "name": "removeValidator",
          "outputs": [],
          "payable": false,
          "stateMutability": "nonpayable",
          "type": "function"
        },
        {
          "constant": false,
          "inputs": [
            {
              "internalType": "address payable",
              "name": "_bridgeBank",
              "type": "address"
            }
          ],
          "name": "setBridgeBank",
          "outputs": [],
          "payable": false,
          "stateMutability": "nonpayable",
          "type": "function"
        },
        {
          "constant": false,
          "inputs": [],
          "name": "tokenFaucet",
          "outputs": [],
          "payable": false,
          "stateMutability": "nonpayable",
          "type": "function"
        },
        {
          "constant": true,
          "inputs": [],
          "name": "totalPower",
          "outputs": [
            {
              "internalType": "uint256",
              "name": "",
              "type": "uint256"
            }
          ],
          "payable": false,
          "stateMutability": "view",
          "type": "function"
        },
        {
          "constant": false,
          "inputs": [
            {
              "internalType": "address",
              "name": "recipient",
              "type": "address"
            },
            {
              "internalType": "uint256",
              "name": "amount",
              "type": "uint256"
            }
          ],
          "name": "transfer",
          "outputs": [
            {
              "internalType": "bool",
              "name": "",
              "type": "bool"
            }
          ],
          "payable": false,
          "stateMutability": "nonpayable",
          "type": "function"
        },
        {
          "constant": false,
          "inputs": [
            {
              "internalType": "address",
              "name": "_validatorAddress",
              "type": "address"
            },
            {
              "internalType": "uint256",
              "name": "_newValidatorPower",
              "type": "uint256"
            }
          ],
          "name": "updateValidatorPower",
          "outputs": [],
          "payable": false,
          "stateMutability": "nonpayable",
          "type": "function"
        },
        {
          "constant": false,
          "inputs": [
            {
              "internalType": "address[]",
              "name": "_validators",
              "type": "address[]"
            },
            {
              "internalType": "uint256[]",
              "name": "_powers",
              "type": "uint256[]"
            }
          ],
          "name": "updateValset",
          "outputs": [],
          "payable": false,
          "stateMutability": "nonpayable",
          "type": "function"
        },
        {
          "constant": true,
          "inputs": [],
          "name": "validatorCount",
          "outputs": [
            {
              "internalType": "uint256",
              "name": "",
              "type": "uint256"
            }
          ],
          "payable": false,
          "stateMutability": "view",
          "type": "function"
        },
        {
          "constant": true,
          "inputs": [
            {
              "internalType": "address",
              "name": "",
              "type": "address"
            },
            {
              "internalType": "uint256",
              "name": "",
              "type": "uint256"
            }
          ],
          "name": "validators",
          "outputs": [
            {
              "internalType": "bool",
              "name": "",
              "type": "bool"
            }
          ],
          "payable": false,
          "stateMutability": "view",
          "type": "function"
        },
        {
          "constant": true,
          "inputs": [],
          "name": "valset",
          "outputs": [
            {
              "internalType": "address payable",
              "name": "",
              "type": "address"
            }
          ],
          "payable": false,
          "stateMutability": "view",
          "type": "function"
        }
      ],
      "evm": {
        "bytecode": {
          "linkReferences": {},
          "object": "608060405234801561001057600080fd5b506129b2806100206000396000f3fe608060405234801561001057600080fd5b50600436106101e55760003560e01c80637dc0d1d01161010f578063a9059cbb116100a2578063db3ad22c11610071578063db3ad22c1461093e578063db4237af14610946578063f9b0b5b9146109f1578063fc6c1f02146109f9576101e5565b8063a9059cbb146108a1578063aef6ac3a146108cd578063b0e9ef711461090a578063b5672be314610912576101e5565b806389eb068a116100de57806389eb068a1461072d5780638d56c37d146107355780639a19224f1461073d578063a219763e14610875576101e5565b80637dc0d1d0146106cb5780637f54af0c146106d3578063814c92c3146106db578063850f43dd14610701576101e5565b8063473691a4116101875780636e850da4116101565780636e850da41461048857806370a0823114610565578063788cf92f1461058b57806378ffb1c6146106ae576101e5565b8063473691a414610308578063570ca7351461032e5780635d4c66a31461033657806369294a4e14610480576101e5565b80632e75293b116101c35780632e75293b1461025057806340550a1c1461027c57806340a141ff146102b657806345aaf18c146102dc576101e5565b806306394c9b146101ea5780630e41f373146102125780630f43a67714610236575b600080fd5b6102106004803603602081101561020057600080fd5b50356001600160a01b0316610a25565b005b61021a610ae1565b604080516001600160a01b039092168252519081900360200190f35b61023e610af0565b60408051918252519081900360200190f35b6102106004803603604081101561026657600080fd5b506001600160a01b038135169060200135610af6565b6102a26004803603602081101561029257600080fd5b50356001600160a01b0316610c7c565b604080519115158252519081900360200190f35b610210600480360360208110156102cc57600080fd5b50356001600160a01b0316610ca7565b6102a2600480360360408110156102f257600080fd5b506001600160a01b038135169060200135610e49565b61023e6004803603602081101561031e57600080fd5b50356001600160a01b0316610e69565b61021a610e91565b610210600480360360c081101561034c57600080fd5b60ff8235169190810190604081016020820135600160201b81111561037057600080fd5b82018360208201111561038257600080fd5b803590602001918460018302840111600160201b831117156103a357600080fd5b91908080601f01602080910402602001604051908101604052809392919081815260200183838082843760009201919091525092958435956001600160a01b0360208701351695919450925060608101915060400135600160201b81111561040a57600080fd5b82018360208201111561041c57600080fd5b803590602001918460018302840111600160201b8311171561043d57600080fd5b91908080601f0160208091040260200160405190810160405280939291908181526020018383808284376000920191909152509295505091359250610ea0915050565b6102a26116f4565b61023e600480360360c081101561049e57600080fd5b60ff8235169190810190604081016020820135600160201b8111156104c257600080fd5b8201836020820111156104d457600080fd5b803590602001918460018302840111600160201b831117156104f557600080fd5b919390928235926001600160a01b03602082013516929190606081019060400135600160201b81111561052757600080fd5b82018360208201111561053957600080fd5b803590602001918460018302840111600160201b8311171561055a57600080fd5b919350915035611704565b61023e6004803603602081101561057b57600080fd5b50356001600160a01b0316611791565b610210600480360360408110156105a157600080fd5b810190602081018135600160201b8111156105bb57600080fd5b8201836020820111156105cd57600080fd5b803590602001918460208302840111600160201b831117156105ee57600080fd5b9190808060200260200160405190810160405280939291908181526020018383602002808284376000920191909152509295949360208101935035915050600160201b81111561063d57600080fd5b82018360208201111561064f57600080fd5b803590602001918460208302840111600160201b8311171561067057600080fd5b9190808060200260200160405190810160405280939291908181526020018383602002808284376000920191909152509295506117ad945050505050565b61023e600480360360208110156106c457600080fd5b50356118d2565b61021a6118e4565b61021a6118f3565b610210600480360360208110156106f157600080fd5b50356001600160a01b0316611902565b61023e6004803603604081101561071757600080fd5b506001600160a01b038135169060200135611a01565b610210611a1e565b61023e611a2f565b6102106004803603608081101561075357600080fd5b6001600160a01b0382351691602081013591810190606081016040820135600160201b81111561078257600080fd5b82018360208201111561079457600080fd5b803590602001918460208302840111600160201b831117156107b557600080fd5b9190808060200260200160405190810160405280939291908181526020018383602002808284376000920191909152509295949360208101935035915050600160201b81111561080457600080fd5b82018360208201111561081657600080fd5b803590602001918460208302840111600160201b8311171561083757600080fd5b919080806020026020016040519081016040528093929190818152602001838360200280828437600092019190915250929550611a35945050505050565b6102a26004803603604081101561088b57600080fd5b50803590602001356001600160a01b0316611af9565b6102a2600480360360408110156108b757600080fd5b506001600160a01b038135169060200135611b19565b6108ea600480360360208110156108e357600080fd5b5035611b30565b604080519315158452602084019290925282820152519081900360600190f35b61021a611b89565b6102106004803603604081101561092857600080fd5b50803590602001356001600160a01b0316611b98565b61023e611c6b565b6109636004803603602081101561095c57600080fd5b5035611c71565b604080516001600160a01b0385168152908101829052606060208083018281528551928401929092528451608084019186019080838360005b838110156109b457818101518382015260200161099c565b50505050905090810190601f1680156109e15780820380516001836020036101000a031916815260200191505b5094505050505060405180910390f35b61023e611d2b565b61021060048036036040811015610a0f57600080fd5b506001600160a01b038135169060200135611d31565b60d7546001600160a01b03163314610a72576040805162461bcd60e51b8152602060048201526015602482015260008051602061279b833981519152604482015290519081900360640190fd5b6001600160a01b038116610abf576040805162461bcd60e51b815260206004820152600f60248201526e696e76616c6964206164647265737360881b604482015290519081900360640190fd5b60d780546001600160a01b0319166001600160a01b0392909216919091179055565b6004546001600160a01b031681565b60d55481565b60d7546001600160a01b03163314610b43576040805162461bcd60e51b8152602060048201526015602482015260008051602061279b833981519152604482015290519081900360640190fd5b6001600160a01b038216600090815260d66020908152604080832060d454845290915290205460ff16610ba75760405162461bcd60e51b815260040180806020018281038252602e815260200180612921602e913960400191505060405180910390fd5b6001600160a01b038216600090815260d86020908152604080832060d454845290915290205460d354610be0908263ffffffff611d8c16565b60d3819055610bf5908363ffffffff611dd516565b60d39081556001600160a01b038416600081815260d86020908152604080832060d48054855290835292819020879055915460d55494548351948552918401879052838301526060830193909352608082019290925290517f335940ce4119f8aae891d73dba74510a3d51f6210134d058237f26e6a31d53409181900360a00190a1505050565b6001600160a01b0316600090815260d66020908152604080832060d454845290915290205460ff1690565b60d7546001600160a01b03163314610cf4576040805162461bcd60e51b8152602060048201526015602482015260008051602061279b833981519152604482015290519081900360640190fd5b6001600160a01b038116600090815260d66020908152604080832060d454845290915290205460ff16610d585760405162461bcd60e51b815260040180806020018281038252602181526020018061283b6021913960400191505060405180910390fd5b60d554610d6c90600163ffffffff611d8c16565b60d5556001600160a01b038116600090815260d86020908152604080832060d454845290915290205460d354610da79163ffffffff611d8c16565b60d39081556001600160a01b038216600081815260d66020908152604080832060d480548552908352818420805460ff1916905584845260d883528184208154855283528184208490555460d5549554825195865292850193909352838101929092526060830193909352608082019290925290517f1241fb43a101ff98ab819a1882097d4ccada51ba60f326c1981cc48840f55b8c9181900360a00190a150565b60d660209081526000928352604080842090915290825290205460ff1681565b6001600160a01b0316600090815260d86020908152604080832060d454845290915290205490565b60d7546001600160a01b031681565b610ea933610c7c565b610efa576040805162461bcd60e51b815260206004820152601b60248201527f4d75737420626520616e206163746976652076616c696461746f720000000000604482015290519081900360640190fd5b600086868686868660405160200180876002811115610f1557fe5b60ff1660f81b815260010186805190602001908083835b60208310610f4b5780518252601f199092019160209182019101610f2c565b51815160209384036101000a60001901801990921691161790529201878152606087901b6bffffffffffffffffffffffff1916818401528551603490910192860191508083835b60208310610fb15780518252601f199092019160209182019101610f92565b51815160209384036101000a600019018019909216911617905292019384525060408051808503815293820190528251920191909120965060009550610ffe9450869350611b3092505050565b505090508015611049576040805162461bcd60e51b81526020600482015260116024820152701c1c9bdc1a1958de50dbdb5c1b195d1959607a1b604482015290519081900360640190fd5b6000828152606d60205260409020546116c857600480546040516373d8866560e01b815260209281018381528751602483015287516060946001600160a01b03909416936373d88665938a9392839260449092019185019080838360005b838110156110bf5781810151838201526020016110a7565b50505050905090810190601f1680156110ec5780820380516001836020036101000a031916815260200191505b509250505060006040518083038186803b15801561110957600080fd5b505afa15801561111d573d6000803e3d6000fd5b505050506040513d6000823e601f3d908101601f19168201604052602081101561114657600080fd5b8101908080516040519392919084600160201b82111561116557600080fd5b90830190602082018581111561117a57600080fd5b8251600160201b81118282018810171561119357600080fd5b82525081516020918201929091019080838360005b838110156111c05781810151838201526020016111a8565b50505050905090810190601f1680156111ed5780820380516001836020036101000a031916815260200191505b5060405250919250600191506112009050565b89600281111561120c57fe5b14156113dc576004805460405163050fcdb360e11b815260209281018381528451602483015284516000946001600160a01b0390941693630a1f9b669387939283926044909201918501908083838b5b8381101561127457818101518382015260200161125c565b50505050905090810190601f1680156112a15780820380516001836020036101000a031916815260200191505b509250505060206040518083038186803b1580156112be57600080fd5b505afa1580156112d2573d6000803e3d6000fd5b505050506040513d60208110156112e857600080fd5b505190506001600160a01b03811615801561138c575060408051620cae8d60eb1b815290519081900360030181208351909184916020918201918291908401908083835b6020831061134b5780518252601f19909201916020918201910161132c565b6001836020036101000a0380198251168184511680821785525050505050509050019150506040516020818303038152906040528051906020012060001c14155b156113d6576040805162461bcd60e51b8152602060048201526015602482015274496e76616c696420746f6b656e206164647265737360581b604482015290519081900360640190fd5b506115ed565b60028960028111156113ea57fe5b14156115b6576004805460405163ebb73ca960e01b815260209281018381528451602483015284516000946001600160a01b039094169363ebb73ca99387939283926044909201918501908083838b5b8381101561145257818101518382015260200161143a565b50505050905090810190601f16801561147f5780820380516001836020036101000a031916815260200191505b509250505060206040518083038186803b15801561149c57600080fd5b505afa1580156114b0573d6000803e3d6000fd5b505050506040513d60208110156114c657600080fd5b505190506001600160a01b0381166113d657600480546040516350b06e4d60e01b815260209281018381528551602483015285516001600160a01b03909316936350b06e4d93879383926044909101919085019080838360005b83811015611538578181015183820152602001611520565b50505050905090810190601f1680156115655780820380516001836020036101000a031916815260200191505b5092505050602060405180830381600087803b15801561158457600080fd5b505af1158015611598573d6000803e3d6000fd5b505050506040513d60208110156115ae57600080fd5b5050506115ed565b60405162461bcd60e51b81526004018080602001828103825260358152602001806128926035913960400191505060405180910390fd5b7f4a5e641839ab01f64c7378be2bdcfe883606b326a7f4b46fc016690230dbd492838a8884886040518086815260200185600281111561162957fe5b60ff168152602001846001600160a01b03166001600160a01b0316815260200180602001838152602001828103825284818151815260200191508051906020019080838360005b83811015611688578181015183820152602001611670565b50505050905090810190601f1680156116b55780820380516001836020036101000a031916815260200191505b50965050505050505060405180910390a1505b60006116d48333611e2f565b905080156116e9576116e9838a888888611f53565b505050505050505050565b600454600160a01b900460ff1681565b600088888888888888886040516020018089600281111561172157fe5b60ff1660f81b8152600101888880828437919091018781526bffffffffffffffffffffffff19606088901b16602082015260340190508484808284379190910192835250506040805180830381526020928301909152805191012097505050505050505098975050505050505050565b6001600160a01b031660009081526101a3602052604090205490565b60d7546001600160a01b031633146117fa576040805162461bcd60e51b8152602060048201526015602482015260008051602061279b833981519152604482015290519081900360640190fd5b805182511461183a5760405162461bcd60e51b815260040180806020018281038252602f81526020018061294f602f913960400191505060405180910390fd5b611842611fd6565b60005b82518110156118865761187e83828151811061185d57fe5b602002602001015183838151811061187157fe5b602002602001015161203d565b600101611845565b5060d45460d55460d35460408051938452602084019290925282820152517f3a7ef0da3179668af8114719645585b5a37092ef2d66f187dcf63d83a221eaa69181900360600190a15050565b606d6020526000908152604090205481565b6003546001600160a01b031681565b6002546001600160a01b031681565b60d7546001600160a01b0316331461194f576040805162461bcd60e51b8152602060048201526015602482015260008051602061279b833981519152604482015290519081900360640190fd5b600454600160a01b900460ff16156119985760405162461bcd60e51b815260040180806020018281038252603681526020018061285c6036913960400191505060405180910390fd5b60048054600160a01b60ff60a01b19909116176001600160a01b0319166001600160a01b03838116919091179182905560408051929091168252517fc8b65043fb196ac032b79a435397d1d14a96b4e9d12e366c3b1f550cb01d2dfa916020908290030190a150565b60d860209081526000928352604080842090915290825290205481565b611a2d3364174876e80061210b565b565b60d45481565b61013d5462010000900460ff1615611a82576040805162461bcd60e51b815260206004820152600b60248201526a125b9a5d1a585b1a5e995960aa1b604482015290519081900360640190fd5b604080518082019091526001808252606560f81b6020909201918252611aaa916000916126dc565b5060d780546001600160a01b0386166001600160a01b03199091161790556004805460ff60a01b1916905561013d805462ff0000191662010000179055611af384848484612192565b50505050565b606e60209081526000928352604080842090915290825290205460ff1681565b6000611b263384846122b0565b5060015b92915050565b60d3546000828152606d6020526040812054606c5491928392839291908390611b6090839063ffffffff61236d16565b90506000611b7584606463ffffffff61236d16565b828110159990985091965090945050505050565b606a546001600160a01b031681565b60d7546001600160a01b03163314611be5576040805162461bcd60e51b8152602060048201526015602482015260008051602061279b833981519152604482015290519081900360640190fd5b60d4548210611c255760405162461bcd60e51b81526004018080602001828103825260358152602001806128ec6035913960400191505060405180910390fd5b6001600160a01b0316600081815260d66020908152604080832060d480548552908352818420805460ff1916905593835260d88252808320935483529290529081205550565b60d35481565b6005602090815260009182526040918290208054600180830180548651600261010094831615949094026000190190911692909204601f81018690048602830186019096528582526001600160a01b03909216949293909290830182828015611d1b5780601f10611cf057610100808354040283529160200191611d1b565b820191906000526020600020905b815481529060010190602001808311611cfe57829003601f168201915b5050505050908060020154905083565b606c5481565b60d7546001600160a01b03163314611d7e576040805162461bcd60e51b8152602060048201526015602482015260008051602061279b833981519152604482015290519081900360640190fd5b611d88828261203d565b5050565b6000611dce83836040518060400160405280601e81526020017f536166654d6174683a207375627472616374696f6e206f766572666c6f7700008152506123c6565b9392505050565b600082820183811015611dce576040805162461bcd60e51b815260206004820152601b60248201527f536166654d6174683a206164646974696f6e206f766572666c6f770000000000604482015290519081900360640190fd5b6000828152606e602090815260408083206001600160a01b038516845290915281205460ff1615611e915760405162461bcd60e51b815260040180806020018281038252603a8152602001806127e0603a913960400191505060405180910390fd5b6000838152606e602090815260408083206001600160a01b03861684529091529020805460ff19166001179055611ee5611eca83610e69565b6000858152606d60205260409020549063ffffffff611dd516565b6000848152606d60209081526040918290209290925580518581526001600160a01b0385169281019290925280517f668fce9833323940537a9000d512a6c580a1c0797d2b526db0078ee9c5a087a99281900390910190a16000611f4884611b30565b509095945050505050565b6001846002811115611f6157fe5b1415611f7757611f7283838361245d565b611f82565b611f8283838361253d565b7f79e7c1c0bd54f11809c3bf6023c242783602d61ceff272c6bba6f8559c24ad0d858560405180838152602001826002811115611fbb57fe5b60ff1681526020019250505060405180910390a15050505050565b60d454611fea90600163ffffffff611dd516565b60d4819055600060d581905560d3819055604080519283526020830182905282810191909152517fd870653e19f161500290fd0c4ca41bf5cf2bcb1ba66448f41c66c512dabd65f29181900360600190a1565b60d55461205190600163ffffffff611dd516565b60d55560d354612067908263ffffffff611dd516565b60d39081556001600160a01b038316600081815260d66020908152604080832060d480548552908352818420805460ff1916600117905584845260d8835281842081548552835292819020869055915460d55494548351948552918401869052838301526060830193909352608082019290925290517f1a396bcf647502e902dce665d58a0c1b25f982f193ab9a1d0f1500d8d927bf2a9181900360a00190a15050565b6001600160a01b038216612166576040805162461bcd60e51b815260206004820152601f60248201527f45524332303a206d696e7420746f20746865207a65726f206164647265737300604482015290519081900360640190fd5b6101a28054820190556001600160a01b0390911660009081526101a36020526040902080549091019055565b61013d54610100900460ff16156121de576040805162461bcd60e51b815260206004820152600b60248201526a125b9a5d1a585b1a5e995960aa1b604482015290519081900360640190fd5b6000831161221d5760405162461bcd60e51b81526004018080602001828103825260258152602001806127bb6025913960400191505060405180910390fd5b6064831115612273576040805162461bcd60e51b815260206004820152601c60248201527f496e76616c696420636f6e73656e737573207468726573686f6c642e00000000604482015290519081900360640190fd5b60d780546001600160a01b0386166001600160a01b0319909116179055606c83905561013d805461ff001916610100179055611af38483836125af565b6001600160a01b0383166122f55760405162461bcd60e51b81526004018080602001828103825260258152602001806128c76025913960400191505060405180910390fd5b6001600160a01b03821661233a5760405162461bcd60e51b81526004018080602001828103825260238152602001806127786023913960400191505060405180910390fd5b6001600160a01b0392831660009081526101a3602052604080822080548490039055929093168352912080549091019055565b60008261237c57506000611b2a565b8282028284828161238957fe5b0414611dce5760405162461bcd60e51b815260040180806020018281038252602181526020018061281a6021913960400191505060405180910390fd5b600081848411156124555760405162461bcd60e51b81526004018080602001828103825283818151815260200191508051906020019080838360005b8381101561241a578181015183820152602001612402565b50505050905090810190601f1680156124475780820380516001836020036101000a031916815260200191505b509250505060405180910390fd5b505050900390565b60048054604051633816622960e21b81526001600160a01b0386811693820193845260448201859052606060248301908152865160648401528651919093169363e05988a493889388938893929160840190602086019080838360005b838110156124d25781810151838201526020016124ba565b50505050905090810190601f1680156124ff5780820380516001836020036101000a031916815260200191505b50945050505050600060405180830381600087803b15801561252057600080fd5b505af1158015612534573d6000803e3d6000fd5b50505050505050565b60048054604051636175047160e01b81526001600160a01b038681169382019384526044820185905260606024830190815286516064840152865191909316936361750471938893889388939291608401906020860190808383600083156124d25781810151838201526020016124ba565b61013d5460ff16156125f6576040805162461bcd60e51b815260206004820152600b60248201526a125b9a5d1a585b1a5e995960aa1b604482015290519081900360640190fd5b60d780546001600160a01b0319166001600160a01b038516179055600060d45561013d805460ff1916600117905580518251146126645760405162461bcd60e51b815260040180806020018281038252602f81526020018061294f602f913960400191505060405180910390fd5b61266c611fd6565b60005b825181101561268f5761268783828151811061185d57fe5b60010161266f565b5060d45460d55460d35460408051938452602084019290925282820152517f3a7ef0da3179668af8114719645585b5a37092ef2d66f187dcf63d83a221eaa69181900360600190a1505050565b828054600181600116156101000203166002900490600052602060002090601f016020900481019282601f1061271d57805160ff191683800117855561274a565b8280016001018555821561274a579182015b8281111561274a57825182559160200191906001019061272f565b5061275692915061275a565b5090565b61277491905b808211156127565760008155600101612760565b9056fe45524332303a207472616e7366657220746f20746865207a65726f20616464726573734d75737420626520746865206f70657261746f722e0000000000000000000000436f6e73656e737573207468726573686f6c64206d75737420626520706f7369746976652e43616e6e6f74206d616b65206475706c6963617465206f7261636c6520636c61696d732066726f6d207468652073616d6520616464726573732e536166654d6174683a206d756c7469706c69636174696f6e206f766572666c6f7743616e206f6e6c792072656d6f7665206163746976652076616c696461746f7273546865204272696467652042616e6b2063616e6e6f742062652075706461746564206f6e636520697420686173206265656e20736574496e76616c696420636c61696d20747970652c206f6e6c79206275726e20616e64206c6f636b2061726520737570706f727465642e45524332303a207472616e736665722066726f6d20746865207a65726f2061646472657373476173207265636f76657279206f6e6c7920616c6c6f77656420666f722070726576696f75732076616c696461746f72207365747343616e206f6e6c79207570646174652074686520706f776572206f66206163746976652076616c646961746f727345766572792076616c696461746f72206d7573742068617665206120636f72726573706f6e64696e6720706f776572a265627a7a7231582010b3171d973d69cb5aa34bfc9b470f9a1dc73eff533284dc5e1c87cd74af1fe264736f6c63430005100032",
          "opcodes": "PUSH1 0x80 PUSH1 0x40 MSTORE CALLVALUE DUP1 ISZERO PUSH2 0x10 JUMPI PUSH1 0x0 DUP1 REVERT JUMPDEST POP PUSH2 0x29B2 DUP1 PUSH2 0x20 PUSH1 0x0 CODECOPY PUSH1 0x0 RETURN INVALID PUSH1 0x80 PUSH1 0x40 MSTORE CALLVALUE DUP1 ISZERO PUSH2 0x10 JUMPI PUSH1 0x0 DUP1 REVERT JUMPDEST POP PUSH1 0x4 CALLDATASIZE LT PUSH2 0x1E5 JUMPI PUSH1 0x0 CALLDATALOAD PUSH1 0xE0 SHR DUP1 PUSH4 0x7DC0D1D0 GT PUSH2 0x10F JUMPI DUP1 PUSH4 0xA9059CBB GT PUSH2 0xA2 JUMPI DUP1 PUSH4 0xDB3AD22C GT PUSH2 0x71 JUMPI DUP1 PUSH4 0xDB3AD22C EQ PUSH2 0x93E JUMPI DUP1 PUSH4 0xDB4237AF EQ PUSH2 0x946 JUMPI DUP1 PUSH4 0xF9B0B5B9 EQ PUSH2 0x9F1 JUMPI DUP1 PUSH4 0xFC6C1F02 EQ PUSH2 0x9F9 JUMPI PUSH2 0x1E5 JUMP JUMPDEST DUP1 PUSH4 0xA9059CBB EQ PUSH2 0x8A1 JUMPI DUP1 PUSH4 0xAEF6AC3A EQ PUSH2 0x8CD JUMPI DUP1 PUSH4 0xB0E9EF71 EQ PUSH2 0x90A JUMPI DUP1 PUSH4 0xB5672BE3 EQ PUSH2 0x912 JUMPI PUSH2 0x1E5 JUMP JUMPDEST DUP1 PUSH4 0x89EB068A GT PUSH2 0xDE JUMPI DUP1 PUSH4 0x89EB068A EQ PUSH2 0x72D JUMPI DUP1 PUSH4 0x8D56C37D EQ PUSH2 0x735 JUMPI DUP1 PUSH4 0x9A19224F EQ PUSH2 0x73D JUMPI DUP1 PUSH4 0xA219763E EQ PUSH2 0x875 JUMPI PUSH2 0x1E5 JUMP JUMPDEST DUP1 PUSH4 0x7DC0D1D0 EQ PUSH2 0x6CB JUMPI DUP1 PUSH4 0x7F54AF0C EQ PUSH2 0x6D3 JUMPI DUP1 PUSH4 0x814C92C3 EQ PUSH2 0x6DB JUMPI DUP1 PUSH4 0x850F43DD EQ PUSH2 0x701 JUMPI PUSH2 0x1E5 JUMP JUMPDEST DUP1 PUSH4 0x473691A4 GT PUSH2 0x187 JUMPI DUP1 PUSH4 0x6E850DA4 GT PUSH2 0x156 JUMPI DUP1 PUSH4 0x6E850DA4 EQ PUSH2 0x488 JUMPI DUP1 PUSH4 0x70A08231 EQ PUSH2 0x565 JUMPI DUP1 PUSH4 0x788CF92F EQ PUSH2 0x58B JUMPI DUP1 PUSH4 0x78FFB1C6 EQ PUSH2 0x6AE JUMPI PUSH2 0x1E5 JUMP JUMPDEST DUP1 PUSH4 0x473691A4 EQ PUSH2 0x308 JUMPI DUP1 PUSH4 0x570CA735 EQ PUSH2 0x32E JUMPI DUP1 PUSH4 0x5D4C66A3 EQ PUSH2 0x336 JUMPI DUP1 PUSH4 0x69294A4E EQ PUSH2 0x480 JUMPI PUSH2 0x1E5 JUMP JUMPDEST DUP1 PUSH4 0x2E75293B GT PUSH2 0x1C3 JUMPI DUP1 PUSH4 0x2E75293B EQ PUSH2 0x250 JUMPI DUP1 PUSH4 0x40550A1C EQ PUSH2 0x27C JUMPI DUP1 PUSH4 0x40A141FF EQ PUSH2 0x2B6 JUMPI DUP1 PUSH4 0x45AAF18C EQ PUSH2 0x2DC JUMPI PUSH2 0x1E5 JUMP JUMPDEST DUP1 PUSH4 0x6394C9B EQ PUSH2 0x1EA JUMPI DUP1 PUSH4 0xE41F373 EQ PUSH2 0x212 JUMPI DUP1 PUSH4 0xF43A677 EQ PUSH2 0x236 JUMPI JUMPDEST PUSH1 0x0 DUP1 REVERT JUMPDEST PUSH2 0x210 PUSH1 0x4 DUP1 CALLDATASIZE SUB PUSH1 0x20 DUP2 LT ISZERO PUSH2 0x200 JUMPI PUSH1 0x0 DUP1 REVERT JUMPDEST POP CALLDATALOAD PUSH1 0x1 PUSH1 0x1 PUSH1 0xA0 SHL SUB AND PUSH2 0xA25 JUMP JUMPDEST STOP JUMPDEST PUSH2 0x21A PUSH2 0xAE1 JUMP JUMPDEST PUSH1 0x40 DUP1 MLOAD PUSH1 0x1 PUSH1 0x1 PUSH1 0xA0 SHL SUB SWAP1 SWAP3 AND DUP3 MSTORE MLOAD SWAP1 DUP2 SWAP1 SUB PUSH1 0x20 ADD SWAP1 RETURN JUMPDEST PUSH2 0x23E PUSH2 0xAF0 JUMP JUMPDEST PUSH1 0x40 DUP1 MLOAD SWAP2 DUP3 MSTORE MLOAD SWAP1 DUP2 SWAP1 SUB PUSH1 0x20 ADD SWAP1 RETURN JUMPDEST PUSH2 0x210 PUSH1 0x4 DUP1 CALLDATASIZE SUB PUSH1 0x40 DUP2 LT ISZERO PUSH2 0x266 JUMPI PUSH1 0x0 DUP1 REVERT JUMPDEST POP PUSH1 0x1 PUSH1 0x1 PUSH1 0xA0 SHL SUB DUP2 CALLDATALOAD AND SWAP1 PUSH1 0x20 ADD CALLDATALOAD PUSH2 0xAF6 JUMP JUMPDEST PUSH2 0x2A2 PUSH1 0x4 DUP1 CALLDATASIZE SUB PUSH1 0x20 DUP2 LT ISZERO PUSH2 0x292 JUMPI PUSH1 0x0 DUP1 REVERT JUMPDEST POP CALLDATALOAD PUSH1 0x1 PUSH1 0x1 PUSH1 0xA0 SHL SUB AND PUSH2 0xC7C JUMP JUMPDEST PUSH1 0x40 DUP1 MLOAD SWAP2 ISZERO ISZERO DUP3 MSTORE MLOAD SWAP1 DUP2 SWAP1 SUB PUSH1 0x20 ADD SWAP1 RETURN JUMPDEST PUSH2 0x210 PUSH1 0x4 DUP1 CALLDATASIZE SUB PUSH1 0x20 DUP2 LT ISZERO PUSH2 0x2CC JUMPI PUSH1 0x0 DUP1 REVERT JUMPDEST POP CALLDATALOAD PUSH1 0x1 PUSH1 0x1 PUSH1 0xA0 SHL SUB AND PUSH2 0xCA7 JUMP JUMPDEST PUSH2 0x2A2 PUSH1 0x4 DUP1 CALLDATASIZE SUB PUSH1 0x40 DUP2 LT ISZERO PUSH2 0x2F2 JUMPI PUSH1 0x0 DUP1 REVERT JUMPDEST POP PUSH1 0x1 PUSH1 0x1 PUSH1 0xA0 SHL SUB DUP2 CALLDATALOAD AND SWAP1 PUSH1 0x20 ADD CALLDATALOAD PUSH2 0xE49 JUMP JUMPDEST PUSH2 0x23E PUSH1 0x4 DUP1 CALLDATASIZE SUB PUSH1 0x20 DUP2 LT ISZERO PUSH2 0x31E JUMPI PUSH1 0x0 DUP1 REVERT JUMPDEST POP CALLDATALOAD PUSH1 0x1 PUSH1 0x1 PUSH1 0xA0 SHL SUB AND PUSH2 0xE69 JUMP JUMPDEST PUSH2 0x21A PUSH2 0xE91 JUMP JUMPDEST PUSH2 0x210 PUSH1 0x4 DUP1 CALLDATASIZE SUB PUSH1 0xC0 DUP2 LT ISZERO PUSH2 0x34C JUMPI PUSH1 0x0 DUP1 REVERT JUMPDEST PUSH1 0xFF DUP3 CALLDATALOAD AND SWAP2 SWAP1 DUP2 ADD SWAP1 PUSH1 0x40 DUP2 ADD PUSH1 0x20 DUP3 ADD CALLDATALOAD PUSH1 0x1 PUSH1 0x20 SHL DUP2 GT ISZERO PUSH2 0x370 JUMPI PUSH1 0x0 DUP1 REVERT JUMPDEST DUP3 ADD DUP4 PUSH1 0x20 DUP3 ADD GT ISZERO PUSH2 0x382 JUMPI PUSH1 0x0 DUP1 REVERT JUMPDEST DUP1 CALLDATALOAD SWAP1 PUSH1 0x20 ADD SWAP2 DUP5 PUSH1 0x1 DUP4 MUL DUP5 ADD GT PUSH1 0x1 PUSH1 0x20 SHL DUP4 GT OR ISZERO PUSH2 0x3A3 JUMPI PUSH1 0x0 DUP1 REVERT JUMPDEST SWAP2 SWAP1 DUP1 DUP1 PUSH1 0x1F ADD PUSH1 0x20 DUP1 SWAP2 DIV MUL PUSH1 0x20 ADD PUSH1 0x40 MLOAD SWAP1 DUP2 ADD PUSH1 0x40 MSTORE DUP1 SWAP4 SWAP3 SWAP2 SWAP1 DUP2 DUP2 MSTORE PUSH1 0x20 ADD DUP4 DUP4 DUP1 DUP3 DUP5 CALLDATACOPY PUSH1 0x0 SWAP3 ADD SWAP2 SWAP1 SWAP2 MSTORE POP SWAP3 SWAP6 DUP5 CALLDATALOAD SWAP6 PUSH1 0x1 PUSH1 0x1 PUSH1 0xA0 SHL SUB PUSH1 0x20 DUP8 ADD CALLDATALOAD AND SWAP6 SWAP2 SWAP5 POP SWAP3 POP PUSH1 0x60 DUP2 ADD SWAP2 POP PUSH1 0x40 ADD CALLDATALOAD PUSH1 0x1 PUSH1 0x20 SHL DUP2 GT ISZERO PUSH2 0x40A JUMPI PUSH1 0x0 DUP1 REVERT JUMPDEST DUP3 ADD DUP4 PUSH1 0x20 DUP3 ADD GT ISZERO PUSH2 0x41C JUMPI PUSH1 0x0 DUP1 REVERT JUMPDEST DUP1 CALLDATALOAD SWAP1 PUSH1 0x20 ADD SWAP2 DUP5 PUSH1 0x1 DUP4 MUL DUP5 ADD GT PUSH1 0x1 PUSH1 0x20 SHL DUP4 GT OR ISZERO PUSH2 0x43D JUMPI PUSH1 0x0 DUP1 REVERT JUMPDEST SWAP2 SWAP1 DUP1 DUP1 PUSH1 0x1F ADD PUSH1 0x20 DUP1 SWAP2 DIV MUL PUSH1 0x20 ADD PUSH1 0x40 MLOAD SWAP1 DUP2 ADD PUSH1 0x40 MSTORE DUP1 SWAP4 SWAP3 SWAP2 SWAP1 DUP2 DUP2 MSTORE PUSH1 0x20 ADD DUP4 DUP4 DUP1 DUP3 DUP5 CALLDATACOPY PUSH1 0x0 SWAP3 ADD SWAP2 SWAP1 SWAP2 MSTORE POP SWAP3 SWAP6 POP POP SWAP2 CALLDATALOAD SWAP3 POP PUSH2 0xEA0 SWAP2 POP POP JUMP JUMPDEST PUSH2 0x2A2 PUSH2 0x16F4 JUMP JUMPDEST PUSH2 0x23E PUSH1 0x4 DUP1 CALLDATASIZE SUB PUSH1 0xC0 DUP2 LT ISZERO PUSH2 0x49E JUMPI PUSH1 0x0 DUP1 REVERT JUMPDEST PUSH1 0xFF DUP3 CALLDATALOAD AND SWAP2 SWAP1 DUP2 ADD SWAP1 PUSH1 0x40 DUP2 ADD PUSH1 0x20 DUP3 ADD CALLDATALOAD PUSH1 0x1 PUSH1 0x20 SHL DUP2 GT ISZERO PUSH2 0x4C2 JUMPI PUSH1 0x0 DUP1 REVERT JUMPDEST DUP3 ADD DUP4 PUSH1 0x20 DUP3 ADD GT ISZERO PUSH2 0x4D4 JUMPI PUSH1 0x0 DUP1 REVERT JUMPDEST DUP1 CALLDATALOAD SWAP1 PUSH1 0x20 ADD SWAP2 DUP5 PUSH1 0x1 DUP4 MUL DUP5 ADD GT PUSH1 0x1 PUSH1 0x20 SHL DUP4 GT OR ISZERO PUSH2 0x4F5 JUMPI PUSH1 0x0 DUP1 REVERT JUMPDEST SWAP2 SWAP4 SWAP1 SWAP3 DUP3 CALLDATALOAD SWAP3 PUSH1 0x1 PUSH1 0x1 PUSH1 0xA0 SHL SUB PUSH1 0x20 DUP3 ADD CALLDATALOAD AND SWAP3 SWAP2 SWAP1 PUSH1 0x60 DUP2 ADD SWAP1 PUSH1 0x40 ADD CALLDATALOAD PUSH1 0x1 PUSH1 0x20 SHL DUP2 GT ISZERO PUSH2 0x527 JUMPI PUSH1 0x0 DUP1 REVERT JUMPDEST DUP3 ADD DUP4 PUSH1 0x20 DUP3 ADD GT ISZERO PUSH2 0x539 JUMPI PUSH1 0x0 DUP1 REVERT JUMPDEST DUP1 CALLDATALOAD SWAP1 PUSH1 0x20 ADD SWAP2 DUP5 PUSH1 0x1 DUP4 MUL DUP5 ADD GT PUSH1 0x1 PUSH1 0x20 SHL DUP4 GT OR ISZERO PUSH2 0x55A JUMPI PUSH1 0x0 DUP1 REVERT JUMPDEST SWAP2 SWAP4 POP SWAP2 POP CALLDATALOAD PUSH2 0x1704 JUMP JUMPDEST PUSH2 0x23E PUSH1 0x4 DUP1 CALLDATASIZE SUB PUSH1 0x20 DUP2 LT ISZERO PUSH2 0x57B JUMPI PUSH1 0x0 DUP1 REVERT JUMPDEST POP CALLDATALOAD PUSH1 0x1 PUSH1 0x1 PUSH1 0xA0 SHL SUB AND PUSH2 0x1791 JUMP JUMPDEST PUSH2 0x210 PUSH1 0x4 DUP1 CALLDATASIZE SUB PUSH1 0x40 DUP2 LT ISZERO PUSH2 0x5A1 JUMPI PUSH1 0x0 DUP1 REVERT JUMPDEST DUP2 ADD SWAP1 PUSH1 0x20 DUP2 ADD DUP2 CALLDATALOAD PUSH1 0x1 PUSH1 0x20 SHL DUP2 GT ISZERO PUSH2 0x5BB JUMPI PUSH1 0x0 DUP1 REVERT JUMPDEST DUP3 ADD DUP4 PUSH1 0x20 DUP3 ADD GT ISZERO PUSH2 0x5CD JUMPI PUSH1 0x0 DUP1 REVERT JUMPDEST DUP1 CALLDATALOAD SWAP1 PUSH1 0x20 ADD SWAP2 DUP5 PUSH1 0x20 DUP4 MUL DUP5 ADD GT PUSH1 0x1 PUSH1 0x20 SHL DUP4 GT OR ISZERO PUSH2 0x5EE JUMPI PUSH1 0x0 DUP1 REVERT JUMPDEST SWAP2 SWAP1 DUP1 DUP1 PUSH1 0x20 MUL PUSH1 0x20 ADD PUSH1 0x40 MLOAD SWAP1 DUP2 ADD PUSH1 0x40 MSTORE DUP1 SWAP4 SWAP3 SWAP2 SWAP1 DUP2 DUP2 MSTORE PUSH1 0x20 ADD DUP4 DUP4 PUSH1 0x20 MUL DUP1 DUP3 DUP5 CALLDATACOPY PUSH1 0x0 SWAP3 ADD SWAP2 SWAP1 SWAP2 MSTORE POP SWAP3 SWAP6 SWAP5 SWAP4 PUSH1 0x20 DUP2 ADD SWAP4 POP CALLDATALOAD SWAP2 POP POP PUSH1 0x1 PUSH1 0x20 SHL DUP2 GT ISZERO PUSH2 0x63D JUMPI PUSH1 0x0 DUP1 REVERT JUMPDEST DUP3 ADD DUP4 PUSH1 0x20 DUP3 ADD GT ISZERO PUSH2 0x64F JUMPI PUSH1 0x0 DUP1 REVERT JUMPDEST DUP1 CALLDATALOAD SWAP1 PUSH1 0x20 ADD SWAP2 DUP5 PUSH1 0x20 DUP4 MUL DUP5 ADD GT PUSH1 0x1 PUSH1 0x20 SHL DUP4 GT OR ISZERO PUSH2 0x670 JUMPI PUSH1 0x0 DUP1 REVERT JUMPDEST SWAP2 SWAP1 DUP1 DUP1 PUSH1 0x20 MUL PUSH1 0x20 ADD PUSH1 0x40 MLOAD SWAP1 DUP2 ADD PUSH1 0x40 MSTORE DUP1 SWAP4 SWAP3 SWAP2 SWAP1 DUP2 DUP2 MSTORE PUSH1 0x20 ADD DUP4 DUP4 PUSH1 0x20 MUL DUP1 DUP3 DUP5 CALLDATACOPY PUSH1 0x0 SWAP3 ADD SWAP2 SWAP1 SWAP2 MSTORE POP SWAP3 SWAP6 POP PUSH2 0x17AD SWAP5 POP POP POP POP POP JUMP JUMPDEST PUSH2 0x23E PUSH1 0x4 DUP1 CALLDATASIZE SUB PUSH1 0x20 DUP2 LT ISZERO PUSH2 0x6C4 JUMPI PUSH1 0x0 DUP1 REVERT JUMPDEST POP CALLDATALOAD PUSH2 0x18D2 JUMP JUMPDEST PUSH2 0x21A PUSH2 0x18E4 JUMP JUMPDEST PUSH2 0x21A PUSH2 0x18F3 JUMP JUMPDEST PUSH2 0x210 PUSH1 0x4 DUP1 CALLDATASIZE SUB PUSH1 0x20 DUP2 LT ISZERO PUSH2 0x6F1 JUMPI PUSH1 0x0 DUP1 REVERT JUMPDEST POP CALLDATALOAD PUSH1 0x1 PUSH1 0x1 PUSH1 0xA0 SHL SUB AND PUSH2 0x1902 JUMP JUMPDEST PUSH2 0x23E PUSH1 0x4 DUP1 CALLDATASIZE SUB PUSH1 0x40 DUP2 LT ISZERO PUSH2 0x717 JUMPI PUSH1 0x0 DUP1 REVERT JUMPDEST POP PUSH1 0x1 PUSH1 0x1 PUSH1 0xA0 SHL SUB DUP2 CALLDATALOAD AND SWAP1 PUSH1 0x20 ADD CALLDATALOAD PUSH2 0x1A01 JUMP JUMPDEST PUSH2 0x210 PUSH2 0x1A1E JUMP JUMPDEST PUSH2 0x23E PUSH2 0x1A2F JUMP JUMPDEST PUSH2 0x210 PUSH1 0x4 DUP1 CALLDATASIZE SUB PUSH1 0x80 DUP2 LT ISZERO PUSH2 0x753 JUMPI PUSH1 0x0 DUP1 REVERT JUMPDEST PUSH1 0x1 PUSH1 0x1 PUSH1 0xA0 SHL SUB DUP3 CALLDATALOAD AND SWAP2 PUSH1 0x20 DUP2 ADD CALLDATALOAD SWAP2 DUP2 ADD SWAP1 PUSH1 0x60 DUP2 ADD PUSH1 0x40 DUP3 ADD CALLDATALOAD PUSH1 0x1 PUSH1 0x20 SHL DUP2 GT ISZERO PUSH2 0x782 JUMPI PUSH1 0x0 DUP1 REVERT JUMPDEST DUP3 ADD DUP4 PUSH1 0x20 DUP3 ADD GT ISZERO PUSH2 0x794 JUMPI PUSH1 0x0 DUP1 REVERT JUMPDEST DUP1 CALLDATALOAD SWAP1 PUSH1 0x20 ADD SWAP2 DUP5 PUSH1 0x20 DUP4 MUL DUP5 ADD GT PUSH1 0x1 PUSH1 0x20 SHL DUP4 GT OR ISZERO PUSH2 0x7B5 JUMPI PUSH1 0x0 DUP1 REVERT JUMPDEST SWAP2 SWAP1 DUP1 DUP1 PUSH1 0x20 MUL PUSH1 0x20 ADD PUSH1 0x40 MLOAD SWAP1 DUP2 ADD PUSH1 0x40 MSTORE DUP1 SWAP4 SWAP3 SWAP2 SWAP1 DUP2 DUP2 MSTORE PUSH1 0x20 ADD DUP4 DUP4 PUSH1 0x20 MUL DUP1 DUP3 DUP5 CALLDATACOPY PUSH1 0x0 SWAP3 ADD SWAP2 SWAP1 SWAP2 MSTORE POP SWAP3 SWAP6 SWAP5 SWAP4 PUSH1 0x20 DUP2 ADD SWAP4 POP CALLDATALOAD SWAP2 POP POP PUSH1 0x1 PUSH1 0x20 SHL DUP2 GT ISZERO PUSH2 0x804 JUMPI PUSH1 0x0 DUP1 REVERT JUMPDEST DUP3 ADD DUP4 PUSH1 0x20 DUP3 ADD GT ISZERO PUSH2 0x816 JUMPI PUSH1 0x0 DUP1 REVERT JUMPDEST DUP1 CALLDATALOAD SWAP1 PUSH1 0x20 ADD SWAP2 DUP5 PUSH1 0x20 DUP4 MUL DUP5 ADD GT PUSH1 0x1 PUSH1 0x20 SHL DUP4 GT OR ISZERO PUSH2 0x837 JUMPI PUSH1 0x0 DUP1 REVERT JUMPDEST SWAP2 SWAP1 DUP1 DUP1 PUSH1 0x20 MUL PUSH1 0x20 ADD PUSH1 0x40 MLOAD SWAP1 DUP2 ADD PUSH1 0x40 MSTORE DUP1 SWAP4 SWAP3 SWAP2 SWAP1 DUP2 DUP2 MSTORE PUSH1 0x20 ADD DUP4 DUP4 PUSH1 0x20 MUL DUP1 DUP3 DUP5 CALLDATACOPY PUSH1 0x0 SWAP3 ADD SWAP2 SWAP1 SWAP2 MSTORE POP SWAP3 SWAP6 POP PUSH2 0x1A35 SWAP5 POP POP POP POP POP JUMP JUMPDEST PUSH2 0x2A2 PUSH1 0x4 DUP1 CALLDATASIZE SUB PUSH1 0x40 DUP2 LT ISZERO PUSH2 0x88B JUMPI PUSH1 0x0 DUP1 REVERT JUMPDEST POP DUP1 CALLDATALOAD SWAP1 PUSH1 0x20 ADD CALLDATALOAD PUSH1 0x1 PUSH1 0x1 PUSH1 0xA0 SHL SUB AND PUSH2 0x1AF9 JUMP JUMPDEST PUSH2 0x2A2 PUSH1 0x4 DUP1 CALLDATASIZE SUB PUSH1 0x40 DUP2 LT ISZERO PUSH2 0x8B7 JUMPI PUSH1 0x0 DUP1 REVERT JUMPDEST POP PUSH1 0x1 PUSH1 0x1 PUSH1 0xA0 SHL SUB DUP2 CALLDATALOAD AND SWAP1 PUSH1 0x20 ADD CALLDATALOAD PUSH2 0x1B19 JUMP JUMPDEST PUSH2 0x8EA PUSH1 0x4 DUP1 CALLDATASIZE SUB PUSH1 0x20 DUP2 LT ISZERO PUSH2 0x8E3 JUMPI PUSH1 0x0 DUP1 REVERT JUMPDEST POP CALLDATALOAD PUSH2 0x1B30 JUMP JUMPDEST PUSH1 0x40 DUP1 MLOAD SWAP4 ISZERO ISZERO DUP5 MSTORE PUSH1 0x20 DUP5 ADD SWAP3 SWAP1 SWAP3 MSTORE DUP3 DUP3 ADD MSTORE MLOAD SWAP1 DUP2 SWAP1 SUB PUSH1 0x60 ADD SWAP1 RETURN JUMPDEST PUSH2 0x21A PUSH2 0x1B89 JUMP JUMPDEST PUSH2 0x210 PUSH1 0x4 DUP1 CALLDATASIZE SUB PUSH1 0x40 DUP2 LT ISZERO PUSH2 0x928 JUMPI PUSH1 0x0 DUP1 REVERT JUMPDEST POP DUP1 CALLDATALOAD SWAP1 PUSH1 0x20 ADD CALLDATALOAD PUSH1 0x1 PUSH1 0x1 PUSH1 0xA0 SHL SUB AND PUSH2 0x1B98 JUMP JUMPDEST PUSH2 0x23E PUSH2 0x1C6B JUMP JUMPDEST PUSH2 0x963 PUSH1 0x4 DUP1 CALLDATASIZE SUB PUSH1 0x20 DUP2 LT ISZERO PUSH2 0x95C JUMPI PUSH1 0x0 DUP1 REVERT JUMPDEST POP CALLDATALOAD PUSH2 0x1C71 JUMP JUMPDEST PUSH1 0x40 DUP1 MLOAD PUSH1 0x1 PUSH1 0x1 PUSH1 0xA0 SHL SUB DUP6 AND DUP2 MSTORE SWAP1 DUP2 ADD DUP3 SWAP1 MSTORE PUSH1 0x60 PUSH1 0x20 DUP1 DUP4 ADD DUP3 DUP2 MSTORE DUP6 MLOAD SWAP3 DUP5 ADD SWAP3 SWAP1 SWAP3 MSTORE DUP5 MLOAD PUSH1 0x80 DUP5 ADD SWAP2 DUP7 ADD SWAP1 DUP1 DUP4 DUP4 PUSH1 0x0 JUMPDEST DUP4 DUP2 LT ISZERO PUSH2 0x9B4 JUMPI DUP2 DUP2 ADD MLOAD DUP4 DUP3 ADD MSTORE PUSH1 0x20 ADD PUSH2 0x99C JUMP JUMPDEST POP POP POP POP SWAP1 POP SWAP1 DUP2 ADD SWAP1 PUSH1 0x1F AND DUP1 ISZERO PUSH2 0x9E1 JUMPI DUP1 DUP3 SUB DUP1 MLOAD PUSH1 0x1 DUP4 PUSH1 0x20 SUB PUSH2 0x100 EXP SUB NOT AND DUP2 MSTORE PUSH1 0x20 ADD SWAP2 POP JUMPDEST POP SWAP5 POP POP POP POP POP PUSH1 0x40 MLOAD DUP1 SWAP2 SUB SWAP1 RETURN JUMPDEST PUSH2 0x23E PUSH2 0x1D2B JUMP JUMPDEST PUSH2 0x210 PUSH1 0x4 DUP1 CALLDATASIZE SUB PUSH1 0x40 DUP2 LT ISZERO PUSH2 0xA0F JUMPI PUSH1 0x0 DUP1 REVERT JUMPDEST POP PUSH1 0x1 PUSH1 0x1 PUSH1 0xA0 SHL SUB DUP2 CALLDATALOAD AND SWAP1 PUSH1 0x20 ADD CALLDATALOAD PUSH2 0x1D31 JUMP JUMPDEST PUSH1 0xD7 SLOAD PUSH1 0x1 PUSH1 0x1 PUSH1 0xA0 SHL SUB AND CALLER EQ PUSH2 0xA72 JUMPI PUSH1 0x40 DUP1 MLOAD PUSH3 0x461BCD PUSH1 0xE5 SHL DUP2 MSTORE PUSH1 0x20 PUSH1 0x4 DUP3 ADD MSTORE PUSH1 0x15 PUSH1 0x24 DUP3 ADD MSTORE PUSH1 0x0 DUP1 MLOAD PUSH1 0x20 PUSH2 0x279B DUP4 CODECOPY DUP2 MLOAD SWAP2 MSTORE PUSH1 0x44 DUP3 ADD MSTORE SWAP1 MLOAD SWAP1 DUP2 SWAP1 SUB PUSH1 0x64 ADD SWAP1 REVERT JUMPDEST PUSH1 0x1 PUSH1 0x1 PUSH1 0xA0 SHL SUB DUP2 AND PUSH2 0xABF JUMPI PUSH1 0x40 DUP1 MLOAD PUSH3 0x461BCD PUSH1 0xE5 SHL DUP2 MSTORE PUSH1 0x20 PUSH1 0x4 DUP3 ADD MSTORE PUSH1 0xF PUSH1 0x24 DUP3 ADD MSTORE PUSH15 0x696E76616C69642061646472657373 PUSH1 0x88 SHL PUSH1 0x44 DUP3 ADD MSTORE SWAP1 MLOAD SWAP1 DUP2 SWAP1 SUB PUSH1 0x64 ADD SWAP1 REVERT JUMPDEST PUSH1 0xD7 DUP1 SLOAD PUSH1 0x1 PUSH1 0x1 PUSH1 0xA0 SHL SUB NOT AND PUSH1 0x1 PUSH1 0x1 PUSH1 0xA0 SHL SUB SWAP3 SWAP1 SWAP3 AND SWAP2 SWAP1 SWAP2 OR SWAP1 SSTORE JUMP JUMPDEST PUSH1 0x4 SLOAD PUSH1 0x1 PUSH1 0x1 PUSH1 0xA0 SHL SUB AND DUP2 JUMP JUMPDEST PUSH1 0xD5 SLOAD DUP2 JUMP JUMPDEST PUSH1 0xD7 SLOAD PUSH1 0x1 PUSH1 0x1 PUSH1 0xA0 SHL SUB AND CALLER EQ PUSH2 0xB43 JUMPI PUSH1 0x40 DUP1 MLOAD PUSH3 0x461BCD PUSH1 0xE5 SHL DUP2 MSTORE PUSH1 0x20 PUSH1 0x4 DUP3 ADD MSTORE PUSH1 0x15 PUSH1 0x24 DUP3 ADD MSTORE PUSH1 0x0 DUP1 MLOAD PUSH1 0x20 PUSH2 0x279B DUP4 CODECOPY DUP2 MLOAD SWAP2 MSTORE PUSH1 0x44 DUP3 ADD MSTORE SWAP1 MLOAD SWAP1 DUP2 SWAP1 SUB PUSH1 0x64 ADD SWAP1 REVERT JUMPDEST PUSH1 0x1 PUSH1 0x1 PUSH1 0xA0 SHL SUB DUP3 AND PUSH1 0x0 SWAP1 DUP2 MSTORE PUSH1 0xD6 PUSH1 0x20 SWAP1 DUP2 MSTORE PUSH1 0x40 DUP1 DUP4 KECCAK256 PUSH1 0xD4 SLOAD DUP5 MSTORE SWAP1 SWAP2 MSTORE SWAP1 KECCAK256 SLOAD PUSH1 0xFF AND PUSH2 0xBA7 JUMPI PUSH1 0x40 MLOAD PUSH3 0x461BCD PUSH1 0xE5 SHL DUP2 MSTORE PUSH1 0x4 ADD DUP1 DUP1 PUSH1 0x20 ADD DUP3 DUP2 SUB DUP3 MSTORE PUSH1 0x2E DUP2 MSTORE PUSH1 0x20 ADD DUP1 PUSH2 0x2921 PUSH1 0x2E SWAP2 CODECOPY PUSH1 0x40 ADD SWAP2 POP POP PUSH1 0x40 MLOAD DUP1 SWAP2 SUB SWAP1 REVERT JUMPDEST PUSH1 0x1 PUSH1 0x1 PUSH1 0xA0 SHL SUB DUP3 AND PUSH1 0x0 SWAP1 DUP2 MSTORE PUSH1 0xD8 PUSH1 0x20 SWAP1 DUP2 MSTORE PUSH1 0x40 DUP1 DUP4 KECCAK256 PUSH1 0xD4 SLOAD DUP5 MSTORE SWAP1 SWAP2 MSTORE SWAP1 KECCAK256 SLOAD PUSH1 0xD3 SLOAD PUSH2 0xBE0 SWAP1 DUP3 PUSH4 0xFFFFFFFF PUSH2 0x1D8C AND JUMP JUMPDEST PUSH1 0xD3 DUP2 SWAP1 SSTORE PUSH2 0xBF5 SWAP1 DUP4 PUSH4 0xFFFFFFFF PUSH2 0x1DD5 AND JUMP JUMPDEST PUSH1 0xD3 SWAP1 DUP2 SSTORE PUSH1 0x1 PUSH1 0x1 PUSH1 0xA0 SHL SUB DUP5 AND PUSH1 0x0 DUP2 DUP2 MSTORE PUSH1 0xD8 PUSH1 0x20 SWAP1 DUP2 MSTORE PUSH1 0x40 DUP1 DUP4 KECCAK256 PUSH1 0xD4 DUP1 SLOAD DUP6 MSTORE SWAP1 DUP4 MSTORE SWAP3 DUP2 SWAP1 KECCAK256 DUP8 SWAP1 SSTORE SWAP2 SLOAD PUSH1 0xD5 SLOAD SWAP5 SLOAD DUP4 MLOAD SWAP5 DUP6 MSTORE SWAP2 DUP5 ADD DUP8 SWAP1 MSTORE DUP4 DUP4 ADD MSTORE PUSH1 0x60 DUP4 ADD SWAP4 SWAP1 SWAP4 MSTORE PUSH1 0x80 DUP3 ADD SWAP3 SWAP1 SWAP3 MSTORE SWAP1 MLOAD PUSH32 0x335940CE4119F8AAE891D73DBA74510A3D51F6210134D058237F26E6A31D5340 SWAP2 DUP2 SWAP1 SUB PUSH1 0xA0 ADD SWAP1 LOG1 POP POP POP JUMP JUMPDEST PUSH1 0x1 PUSH1 0x1 PUSH1 0xA0 SHL SUB AND PUSH1 0x0 SWAP1 DUP2 MSTORE PUSH1 0xD6 PUSH1 0x20 SWAP1 DUP2 MSTORE PUSH1 0x40 DUP1 DUP4 KECCAK256 PUSH1 0xD4 SLOAD DUP5 MSTORE SWAP1 SWAP2 MSTORE SWAP1 KECCAK256 SLOAD PUSH1 0xFF AND SWAP1 JUMP JUMPDEST PUSH1 0xD7 SLOAD PUSH1 0x1 PUSH1 0x1 PUSH1 0xA0 SHL SUB AND CALLER EQ PUSH2 0xCF4 JUMPI PUSH1 0x40 DUP1 MLOAD PUSH3 0x461BCD PUSH1 0xE5 SHL DUP2 MSTORE PUSH1 0x20 PUSH1 0x4 DUP3 ADD MSTORE PUSH1 0x15 PUSH1 0x24 DUP3 ADD MSTORE PUSH1 0x0 DUP1 MLOAD PUSH1 0x20 PUSH2 0x279B DUP4 CODECOPY DUP2 MLOAD SWAP2 MSTORE PUSH1 0x44 DUP3 ADD MSTORE SWAP1 MLOAD SWAP1 DUP2 SWAP1 SUB PUSH1 0x64 ADD SWAP1 REVERT JUMPDEST PUSH1 0x1 PUSH1 0x1 PUSH1 0xA0 SHL SUB DUP2 AND PUSH1 0x0 SWAP1 DUP2 MSTORE PUSH1 0xD6 PUSH1 0x20 SWAP1 DUP2 MSTORE PUSH1 0x40 DUP1 DUP4 KECCAK256 PUSH1 0xD4 SLOAD DUP5 MSTORE SWAP1 SWAP2 MSTORE SWAP1 KECCAK256 SLOAD PUSH1 0xFF AND PUSH2 0xD58 JUMPI PUSH1 0x40 MLOAD PUSH3 0x461BCD PUSH1 0xE5 SHL DUP2 MSTORE PUSH1 0x4 ADD DUP1 DUP1 PUSH1 0x20 ADD DUP3 DUP2 SUB DUP3 MSTORE PUSH1 0x21 DUP2 MSTORE PUSH1 0x20 ADD DUP1 PUSH2 0x283B PUSH1 0x21 SWAP2 CODECOPY PUSH1 0x40 ADD SWAP2 POP POP PUSH1 0x40 MLOAD DUP1 SWAP2 SUB SWAP1 REVERT JUMPDEST PUSH1 0xD5 SLOAD PUSH2 0xD6C SWAP1 PUSH1 0x1 PUSH4 0xFFFFFFFF PUSH2 0x1D8C AND JUMP JUMPDEST PUSH1 0xD5 SSTORE PUSH1 0x1 PUSH1 0x1 PUSH1 0xA0 SHL SUB DUP2 AND PUSH1 0x0 SWAP1 DUP2 MSTORE PUSH1 0xD8 PUSH1 0x20 SWAP1 DUP2 MSTORE PUSH1 0x40 DUP1 DUP4 KECCAK256 PUSH1 0xD4 SLOAD DUP5 MSTORE SWAP1 SWAP2 MSTORE SWAP1 KECCAK256 SLOAD PUSH1 0xD3 SLOAD PUSH2 0xDA7 SWAP2 PUSH4 0xFFFFFFFF PUSH2 0x1D8C AND JUMP JUMPDEST PUSH1 0xD3 SWAP1 DUP2 SSTORE PUSH1 0x1 PUSH1 0x1 PUSH1 0xA0 SHL SUB DUP3 AND PUSH1 0x0 DUP2 DUP2 MSTORE PUSH1 0xD6 PUSH1 0x20 SWAP1 DUP2 MSTORE PUSH1 0x40 DUP1 DUP4 KECCAK256 PUSH1 0xD4 DUP1 SLOAD DUP6 MSTORE SWAP1 DUP4 MSTORE DUP2 DUP5 KECCAK256 DUP1 SLOAD PUSH1 0xFF NOT AND SWAP1 SSTORE DUP5 DUP5 MSTORE PUSH1 0xD8 DUP4 MSTORE DUP2 DUP5 KECCAK256 DUP2 SLOAD DUP6 MSTORE DUP4 MSTORE DUP2 DUP5 KECCAK256 DUP5 SWAP1 SSTORE SLOAD PUSH1 0xD5 SLOAD SWAP6 SLOAD DUP3 MLOAD SWAP6 DUP7 MSTORE SWAP3 DUP6 ADD SWAP4 SWAP1 SWAP4 MSTORE DUP4 DUP2 ADD SWAP3 SWAP1 SWAP3 MSTORE PUSH1 0x60 DUP4 ADD SWAP4 SWAP1 SWAP4 MSTORE PUSH1 0x80 DUP3 ADD SWAP3 SWAP1 SWAP3 MSTORE SWAP1 MLOAD PUSH32 0x1241FB43A101FF98AB819A1882097D4CCADA51BA60F326C1981CC48840F55B8C SWAP2 DUP2 SWAP1 SUB PUSH1 0xA0 ADD SWAP1 LOG1 POP JUMP JUMPDEST PUSH1 0xD6 PUSH1 0x20 SWAP1 DUP2 MSTORE PUSH1 0x0 SWAP3 DUP4 MSTORE PUSH1 0x40 DUP1 DUP5 KECCAK256 SWAP1 SWAP2 MSTORE SWAP1 DUP3 MSTORE SWAP1 KECCAK256 SLOAD PUSH1 0xFF AND DUP2 JUMP JUMPDEST PUSH1 0x1 PUSH1 0x1 PUSH1 0xA0 SHL SUB AND PUSH1 0x0 SWAP1 DUP2 MSTORE PUSH1 0xD8 PUSH1 0x20 SWAP1 DUP2 MSTORE PUSH1 0x40 DUP1 DUP4 KECCAK256 PUSH1 0xD4 SLOAD DUP5 MSTORE SWAP1 SWAP2 MSTORE SWAP1 KECCAK256 SLOAD SWAP1 JUMP JUMPDEST PUSH1 0xD7 SLOAD PUSH1 0x1 PUSH1 0x1 PUSH1 0xA0 SHL SUB AND DUP2 JUMP JUMPDEST PUSH2 0xEA9 CALLER PUSH2 0xC7C JUMP JUMPDEST PUSH2 0xEFA JUMPI PUSH1 0x40 DUP1 MLOAD PUSH3 0x461BCD PUSH1 0xE5 SHL DUP2 MSTORE PUSH1 0x20 PUSH1 0x4 DUP3 ADD MSTORE PUSH1 0x1B PUSH1 0x24 DUP3 ADD MSTORE PUSH32 0x4D75737420626520616E206163746976652076616C696461746F720000000000 PUSH1 0x44 DUP3 ADD MSTORE SWAP1 MLOAD SWAP1 DUP2 SWAP1 SUB PUSH1 0x64 ADD SWAP1 REVERT JUMPDEST PUSH1 0x0 DUP7 DUP7 DUP7 DUP7 DUP7 DUP7 PUSH1 0x40 MLOAD PUSH1 0x20 ADD DUP1 DUP8 PUSH1 0x2 DUP2 GT ISZERO PUSH2 0xF15 JUMPI INVALID JUMPDEST PUSH1 0xFF AND PUSH1 0xF8 SHL DUP2 MSTORE PUSH1 0x1 ADD DUP7 DUP1 MLOAD SWAP1 PUSH1 0x20 ADD SWAP1 DUP1 DUP4 DUP4 JUMPDEST PUSH1 0x20 DUP4 LT PUSH2 0xF4B JUMPI DUP1 MLOAD DUP3 MSTORE PUSH1 0x1F NOT SWAP1 SWAP3 ADD SWAP2 PUSH1 0x20 SWAP2 DUP3 ADD SWAP2 ADD PUSH2 0xF2C JUMP JUMPDEST MLOAD DUP2 MLOAD PUSH1 0x20 SWAP4 DUP5 SUB PUSH2 0x100 EXP PUSH1 0x0 NOT ADD DUP1 NOT SWAP1 SWAP3 AND SWAP2 AND OR SWAP1 MSTORE SWAP3 ADD DUP8 DUP2 MSTORE PUSH1 0x60 DUP8 SWAP1 SHL PUSH12 0xFFFFFFFFFFFFFFFFFFFFFFFF NOT AND DUP2 DUP5 ADD MSTORE DUP6 MLOAD PUSH1 0x34 SWAP1 SWAP2 ADD SWAP3 DUP7 ADD SWAP2 POP DUP1 DUP4 DUP4 JUMPDEST PUSH1 0x20 DUP4 LT PUSH2 0xFB1 JUMPI DUP1 MLOAD DUP3 MSTORE PUSH1 0x1F NOT SWAP1 SWAP3 ADD SWAP2 PUSH1 0x20 SWAP2 DUP3 ADD SWAP2 ADD PUSH2 0xF92 JUMP JUMPDEST MLOAD DUP2 MLOAD PUSH1 0x20 SWAP4 DUP5 SUB PUSH2 0x100 EXP PUSH1 0x0 NOT ADD DUP1 NOT SWAP1 SWAP3 AND SWAP2 AND OR SWAP1 MSTORE SWAP3 ADD SWAP4 DUP5 MSTORE POP PUSH1 0x40 DUP1 MLOAD DUP1 DUP6 SUB DUP2 MSTORE SWAP4 DUP3 ADD SWAP1 MSTORE DUP3 MLOAD SWAP3 ADD SWAP2 SWAP1 SWAP2 KECCAK256 SWAP7 POP PUSH1 0x0 SWAP6 POP PUSH2 0xFFE SWAP5 POP DUP7 SWAP4 POP PUSH2 0x1B30 SWAP3 POP POP POP JUMP JUMPDEST POP POP SWAP1 POP DUP1 ISZERO PUSH2 0x1049 JUMPI PUSH1 0x40 DUP1 MLOAD PUSH3 0x461BCD PUSH1 0xE5 SHL DUP2 MSTORE PUSH1 0x20 PUSH1 0x4 DUP3 ADD MSTORE PUSH1 0x11 PUSH1 0x24 DUP3 ADD MSTORE PUSH17 0x1C1C9BDC1A1958DE50DBDB5C1B195D1959 PUSH1 0x7A SHL PUSH1 0x44 DUP3 ADD MSTORE SWAP1 MLOAD SWAP1 DUP2 SWAP1 SUB PUSH1 0x64 ADD SWAP1 REVERT JUMPDEST PUSH1 0x0 DUP3 DUP2 MSTORE PUSH1 0x6D PUSH1 0x20 MSTORE PUSH1 0x40 SWAP1 KECCAK256 SLOAD PUSH2 0x16C8 JUMPI PUSH1 0x4 DUP1 SLOAD PUSH1 0x40 MLOAD PUSH4 0x73D88665 PUSH1 0xE0 SHL DUP2 MSTORE PUSH1 0x20 SWAP3 DUP2 ADD DUP4 DUP2 MSTORE DUP8 MLOAD PUSH1 0x24 DUP4 ADD MSTORE DUP8 MLOAD PUSH1 0x60 SWAP5 PUSH1 0x1 PUSH1 0x1 PUSH1 0xA0 SHL SUB SWAP1 SWAP5 AND SWAP4 PUSH4 0x73D88665 SWAP4 DUP11 SWAP4 SWAP3 DUP4 SWAP3 PUSH1 0x44 SWAP1 SWAP3 ADD SWAP2 DUP6 ADD SWAP1 DUP1 DUP4 DUP4 PUSH1 0x0 JUMPDEST DUP4 DUP2 LT ISZERO PUSH2 0x10BF JUMPI DUP2 DUP2 ADD MLOAD DUP4 DUP3 ADD MSTORE PUSH1 0x20 ADD PUSH2 0x10A7 JUMP JUMPDEST POP POP POP POP SWAP1 POP SWAP1 DUP2 ADD SWAP1 PUSH1 0x1F AND DUP1 ISZERO PUSH2 0x10EC JUMPI DUP1 DUP3 SUB DUP1 MLOAD PUSH1 0x1 DUP4 PUSH1 0x20 SUB PUSH2 0x100 EXP SUB NOT AND DUP2 MSTORE PUSH1 0x20 ADD SWAP2 POP JUMPDEST POP SWAP3 POP POP POP PUSH1 0x0 PUSH1 0x40 MLOAD DUP1 DUP4 SUB DUP2 DUP7 DUP1 EXTCODESIZE ISZERO DUP1 ISZERO PUSH2 0x1109 JUMPI PUSH1 0x0 DUP1 REVERT JUMPDEST POP GAS STATICCALL ISZERO DUP1 ISZERO PUSH2 0x111D JUMPI RETURNDATASIZE PUSH1 0x0 DUP1 RETURNDATACOPY RETURNDATASIZE PUSH1 0x0 REVERT JUMPDEST POP POP POP POP PUSH1 0x40 MLOAD RETURNDATASIZE PUSH1 0x0 DUP3 RETURNDATACOPY PUSH1 0x1F RETURNDATASIZE SWAP1 DUP2 ADD PUSH1 0x1F NOT AND DUP3 ADD PUSH1 0x40 MSTORE PUSH1 0x20 DUP2 LT ISZERO PUSH2 0x1146 JUMPI PUSH1 0x0 DUP1 REVERT JUMPDEST DUP2 ADD SWAP1 DUP1 DUP1 MLOAD PUSH1 0x40 MLOAD SWAP4 SWAP3 SWAP2 SWAP1 DUP5 PUSH1 0x1 PUSH1 0x20 SHL DUP3 GT ISZERO PUSH2 0x1165 JUMPI PUSH1 0x0 DUP1 REVERT JUMPDEST SWAP1 DUP4 ADD SWAP1 PUSH1 0x20 DUP3 ADD DUP6 DUP2 GT ISZERO PUSH2 0x117A JUMPI PUSH1 0x0 DUP1 REVERT JUMPDEST DUP3 MLOAD PUSH1 0x1 PUSH1 0x20 SHL DUP2 GT DUP3 DUP3 ADD DUP9 LT OR ISZERO PUSH2 0x1193 JUMPI PUSH1 0x0 DUP1 REVERT JUMPDEST DUP3 MSTORE POP DUP2 MLOAD PUSH1 0x20 SWAP2 DUP3 ADD SWAP3 SWAP1 SWAP2 ADD SWAP1 DUP1 DUP4 DUP4 PUSH1 0x0 JUMPDEST DUP4 DUP2 LT ISZERO PUSH2 0x11C0 JUMPI DUP2 DUP2 ADD MLOAD DUP4 DUP3 ADD MSTORE PUSH1 0x20 ADD PUSH2 0x11A8 JUMP JUMPDEST POP POP POP POP SWAP1 POP SWAP1 DUP2 ADD SWAP1 PUSH1 0x1F AND DUP1 ISZERO PUSH2 0x11ED JUMPI DUP1 DUP3 SUB DUP1 MLOAD PUSH1 0x1 DUP4 PUSH1 0x20 SUB PUSH2 0x100 EXP SUB NOT AND DUP2 MSTORE PUSH1 0x20 ADD SWAP2 POP JUMPDEST POP PUSH1 0x40 MSTORE POP SWAP2 SWAP3 POP PUSH1 0x1 SWAP2 POP PUSH2 0x1200 SWAP1 POP JUMP JUMPDEST DUP10 PUSH1 0x2 DUP2 GT ISZERO PUSH2 0x120C JUMPI INVALID JUMPDEST EQ ISZERO PUSH2 0x13DC JUMPI PUSH1 0x4 DUP1 SLOAD PUSH1 0x40 MLOAD PUSH4 0x50FCDB3 PUSH1 0xE1 SHL DUP2 MSTORE PUSH1 0x20 SWAP3 DUP2 ADD DUP4 DUP2 MSTORE DUP5 MLOAD PUSH1 0x24 DUP4 ADD MSTORE DUP5 MLOAD PUSH1 0x0 SWAP5 PUSH1 0x1 PUSH1 0x1 PUSH1 0xA0 SHL SUB SWAP1 SWAP5 AND SWAP4 PUSH4 0xA1F9B66 SWAP4 DUP8 SWAP4 SWAP3 DUP4 SWAP3 PUSH1 0x44 SWAP1 SWAP3 ADD SWAP2 DUP6 ADD SWAP1 DUP1 DUP4 DUP4 DUP12 JUMPDEST DUP4 DUP2 LT ISZERO PUSH2 0x1274 JUMPI DUP2 DUP2 ADD MLOAD DUP4 DUP3 ADD MSTORE PUSH1 0x20 ADD PUSH2 0x125C JUMP JUMPDEST POP POP POP POP SWAP1 POP SWAP1 DUP2 ADD SWAP1 PUSH1 0x1F AND DUP1 ISZERO PUSH2 0x12A1 JUMPI DUP1 DUP3 SUB DUP1 MLOAD PUSH1 0x1 DUP4 PUSH1 0x20 SUB PUSH2 0x100 EXP SUB NOT AND DUP2 MSTORE PUSH1 0x20 ADD SWAP2 POP JUMPDEST POP SWAP3 POP POP POP PUSH1 0x20 PUSH1 0x40 MLOAD DUP1 DUP4 SUB DUP2 DUP7 DUP1 EXTCODESIZE ISZERO DUP1 ISZERO PUSH2 0x12BE JUMPI PUSH1 0x0 DUP1 REVERT JUMPDEST POP GAS STATICCALL ISZERO DUP1 ISZERO PUSH2 0x12D2 JUMPI RETURNDATASIZE PUSH1 0x0 DUP1 RETURNDATACOPY RETURNDATASIZE PUSH1 0x0 REVERT JUMPDEST POP POP POP POP PUSH1 0x40 MLOAD RETURNDATASIZE PUSH1 0x20 DUP2 LT ISZERO PUSH2 0x12E8 JUMPI PUSH1 0x0 DUP1 REVERT JUMPDEST POP MLOAD SWAP1 POP PUSH1 0x1 PUSH1 0x1 PUSH1 0xA0 SHL SUB DUP2 AND ISZERO DUP1 ISZERO PUSH2 0x138C JUMPI POP PUSH1 0x40 DUP1 MLOAD PUSH3 0xCAE8D PUSH1 0xEB SHL DUP2 MSTORE SWAP1 MLOAD SWAP1 DUP2 SWAP1 SUB PUSH1 0x3 ADD DUP2 KECCAK256 DUP4 MLOAD SWAP1 SWAP2 DUP5 SWAP2 PUSH1 0x20 SWAP2 DUP3 ADD SWAP2 DUP3 SWAP2 SWAP1 DUP5 ADD SWAP1 DUP1 DUP4 DUP4 JUMPDEST PUSH1 0x20 DUP4 LT PUSH2 0x134B JUMPI DUP1 MLOAD DUP3 MSTORE PUSH1 0x1F NOT SWAP1 SWAP3 ADD SWAP2 PUSH1 0x20 SWAP2 DUP3 ADD SWAP2 ADD PUSH2 0x132C JUMP JUMPDEST PUSH1 0x1 DUP4 PUSH1 0x20 SUB PUSH2 0x100 EXP SUB DUP1 NOT DUP3 MLOAD AND DUP2 DUP5 MLOAD AND DUP1 DUP3 OR DUP6 MSTORE POP POP POP POP POP POP SWAP1 POP ADD SWAP2 POP POP PUSH1 0x40 MLOAD PUSH1 0x20 DUP2 DUP4 SUB SUB DUP2 MSTORE SWAP1 PUSH1 0x40 MSTORE DUP1 MLOAD SWAP1 PUSH1 0x20 ADD KECCAK256 PUSH1 0x0 SHR EQ ISZERO JUMPDEST ISZERO PUSH2 0x13D6 JUMPI PUSH1 0x40 DUP1 MLOAD PUSH3 0x461BCD PUSH1 0xE5 SHL DUP2 MSTORE PUSH1 0x20 PUSH1 0x4 DUP3 ADD MSTORE PUSH1 0x15 PUSH1 0x24 DUP3 ADD MSTORE PUSH21 0x496E76616C696420746F6B656E2061646472657373 PUSH1 0x58 SHL PUSH1 0x44 DUP3 ADD MSTORE SWAP1 MLOAD SWAP1 DUP2 SWAP1 SUB PUSH1 0x64 ADD SWAP1 REVERT JUMPDEST POP PUSH2 0x15ED JUMP JUMPDEST PUSH1 0x2 DUP10 PUSH1 0x2 DUP2 GT ISZERO PUSH2 0x13EA JUMPI INVALID JUMPDEST EQ ISZERO PUSH2 0x15B6 JUMPI PUSH1 0x4 DUP1 SLOAD PUSH1 0x40 MLOAD PUSH4 0xEBB73CA9 PUSH1 0xE0 SHL DUP2 MSTORE PUSH1 0x20 SWAP3 DUP2 ADD DUP4 DUP2 MSTORE DUP5 MLOAD PUSH1 0x24 DUP4 ADD MSTORE DUP5 MLOAD PUSH1 0x0 SWAP5 PUSH1 0x1 PUSH1 0x1 PUSH1 0xA0 SHL SUB SWAP1 SWAP5 AND SWAP4 PUSH4 0xEBB73CA9 SWAP4 DUP8 SWAP4 SWAP3 DUP4 SWAP3 PUSH1 0x44 SWAP1 SWAP3 ADD SWAP2 DUP6 ADD SWAP1 DUP1 DUP4 DUP4 DUP12 JUMPDEST DUP4 DUP2 LT ISZERO PUSH2 0x1452 JUMPI DUP2 DUP2 ADD MLOAD DUP4 DUP3 ADD MSTORE PUSH1 0x20 ADD PUSH2 0x143A JUMP JUMPDEST POP POP POP POP SWAP1 POP SWAP1 DUP2 ADD SWAP1 PUSH1 0x1F AND DUP1 ISZERO PUSH2 0x147F JUMPI DUP1 DUP3 SUB DUP1 MLOAD PUSH1 0x1 DUP4 PUSH1 0x20 SUB PUSH2 0x100 EXP SUB NOT AND DUP2 MSTORE PUSH1 0x20 ADD SWAP2 POP JUMPDEST POP SWAP3 POP POP POP PUSH1 0x20 PUSH1 0x40 MLOAD DUP1 DUP4 SUB DUP2 DUP7 DUP1 EXTCODESIZE ISZERO DUP1 ISZERO PUSH2 0x149C JUMPI PUSH1 0x0 DUP1 REVERT JUMPDEST POP GAS STATICCALL ISZERO DUP1 ISZERO PUSH2 0x14B0 JUMPI RETURNDATASIZE PUSH1 0x0 DUP1 RETURNDATACOPY RETURNDATASIZE PUSH1 0x0 REVERT JUMPDEST POP POP POP POP PUSH1 0x40 MLOAD RETURNDATASIZE PUSH1 0x20 DUP2 LT ISZERO PUSH2 0x14C6 JUMPI PUSH1 0x0 DUP1 REVERT JUMPDEST POP MLOAD SWAP1 POP PUSH1 0x1 PUSH1 0x1 PUSH1 0xA0 SHL SUB DUP2 AND PUSH2 0x13D6 JUMPI PUSH1 0x4 DUP1 SLOAD PUSH1 0x40 MLOAD PUSH4 0x50B06E4D PUSH1 0xE0 SHL DUP2 MSTORE PUSH1 0x20 SWAP3 DUP2 ADD DUP4 DUP2 MSTORE DUP6 MLOAD PUSH1 0x24 DUP4 ADD MSTORE DUP6 MLOAD PUSH1 0x1 PUSH1 0x1 PUSH1 0xA0 SHL SUB SWAP1 SWAP4 AND SWAP4 PUSH4 0x50B06E4D SWAP4 DUP8 SWAP4 DUP4 SWAP3 PUSH1 0x44 SWAP1 SWAP2 ADD SWAP2 SWAP1 DUP6 ADD SWAP1 DUP1 DUP4 DUP4 PUSH1 0x0 JUMPDEST DUP4 DUP2 LT ISZERO PUSH2 0x1538 JUMPI DUP2 DUP2 ADD MLOAD DUP4 DUP3 ADD MSTORE PUSH1 0x20 ADD PUSH2 0x1520 JUMP JUMPDEST POP POP POP POP SWAP1 POP SWAP1 DUP2 ADD SWAP1 PUSH1 0x1F AND DUP1 ISZERO PUSH2 0x1565 JUMPI DUP1 DUP3 SUB DUP1 MLOAD PUSH1 0x1 DUP4 PUSH1 0x20 SUB PUSH2 0x100 EXP SUB NOT AND DUP2 MSTORE PUSH1 0x20 ADD SWAP2 POP JUMPDEST POP SWAP3 POP POP POP PUSH1 0x20 PUSH1 0x40 MLOAD DUP1 DUP4 SUB DUP2 PUSH1 0x0 DUP8 DUP1 EXTCODESIZE ISZERO DUP1 ISZERO PUSH2 0x1584 JUMPI PUSH1 0x0 DUP1 REVERT JUMPDEST POP GAS CALL ISZERO DUP1 ISZERO PUSH2 0x1598 JUMPI RETURNDATASIZE PUSH1 0x0 DUP1 RETURNDATACOPY RETURNDATASIZE PUSH1 0x0 REVERT JUMPDEST POP POP POP POP PUSH1 0x40 MLOAD RETURNDATASIZE PUSH1 0x20 DUP2 LT ISZERO PUSH2 0x15AE JUMPI PUSH1 0x0 DUP1 REVERT JUMPDEST POP POP POP PUSH2 0x15ED JUMP JUMPDEST PUSH1 0x40 MLOAD PUSH3 0x461BCD PUSH1 0xE5 SHL DUP2 MSTORE PUSH1 0x4 ADD DUP1 DUP1 PUSH1 0x20 ADD DUP3 DUP2 SUB DUP3 MSTORE PUSH1 0x35 DUP2 MSTORE PUSH1 0x20 ADD DUP1 PUSH2 0x2892 PUSH1 0x35 SWAP2 CODECOPY PUSH1 0x40 ADD SWAP2 POP POP PUSH1 0x40 MLOAD DUP1 SWAP2 SUB SWAP1 REVERT JUMPDEST PUSH32 0x4A5E641839AB01F64C7378BE2BDCFE883606B326A7F4B46FC016690230DBD492 DUP4 DUP11 DUP9 DUP5 DUP9 PUSH1 0x40 MLOAD DUP1 DUP7 DUP2 MSTORE PUSH1 0x20 ADD DUP6 PUSH1 0x2 DUP2 GT ISZERO PUSH2 0x1629 JUMPI INVALID JUMPDEST PUSH1 0xFF AND DUP2 MSTORE PUSH1 0x20 ADD DUP5 PUSH1 0x1 PUSH1 0x1 PUSH1 0xA0 SHL SUB AND PUSH1 0x1 PUSH1 0x1 PUSH1 0xA0 SHL SUB AND DUP2 MSTORE PUSH1 0x20 ADD DUP1 PUSH1 0x20 ADD DUP4 DUP2 MSTORE PUSH1 0x20 ADD DUP3 DUP2 SUB DUP3 MSTORE DUP5 DUP2 DUP2 MLOAD DUP2 MSTORE PUSH1 0x20 ADD SWAP2 POP DUP1 MLOAD SWAP1 PUSH1 0x20 ADD SWAP1 DUP1 DUP4 DUP4 PUSH1 0x0 JUMPDEST DUP4 DUP2 LT ISZERO PUSH2 0x1688 JUMPI DUP2 DUP2 ADD MLOAD DUP4 DUP3 ADD MSTORE PUSH1 0x20 ADD PUSH2 0x1670 JUMP JUMPDEST POP POP POP POP SWAP1 POP SWAP1 DUP2 ADD SWAP1 PUSH1 0x1F AND DUP1 ISZERO PUSH2 0x16B5 JUMPI DUP1 DUP3 SUB DUP1 MLOAD PUSH1 0x1 DUP4 PUSH1 0x20 SUB PUSH2 0x100 EXP SUB NOT AND DUP2 MSTORE PUSH1 0x20 ADD SWAP2 POP JUMPDEST POP SWAP7 POP POP POP POP POP POP POP PUSH1 0x40 MLOAD DUP1 SWAP2 SUB SWAP1 LOG1 POP JUMPDEST PUSH1 0x0 PUSH2 0x16D4 DUP4 CALLER PUSH2 0x1E2F JUMP JUMPDEST SWAP1 POP DUP1 ISZERO PUSH2 0x16E9 JUMPI PUSH2 0x16E9 DUP4 DUP11 DUP9 DUP9 DUP9 PUSH2 0x1F53 JUMP JUMPDEST POP POP POP POP POP POP POP POP POP JUMP JUMPDEST PUSH1 0x4 SLOAD PUSH1 0x1 PUSH1 0xA0 SHL SWAP1 DIV PUSH1 0xFF AND DUP2 JUMP JUMPDEST PUSH1 0x0 DUP9 DUP9 DUP9 DUP9 DUP9 DUP9 DUP9 DUP9 PUSH1 0x40 MLOAD PUSH1 0x20 ADD DUP1 DUP10 PUSH1 0x2 DUP2 GT ISZERO PUSH2 0x1721 JUMPI INVALID JUMPDEST PUSH1 0xFF AND PUSH1 0xF8 SHL DUP2 MSTORE PUSH1 0x1 ADD DUP9 DUP9 DUP1 DUP3 DUP5 CALLDATACOPY SWAP2 SWAP1 SWAP2 ADD DUP8 DUP2 MSTORE PUSH12 0xFFFFFFFFFFFFFFFFFFFFFFFF NOT PUSH1 0x60 DUP9 SWAP1 SHL AND PUSH1 0x20 DUP3 ADD MSTORE PUSH1 0x34 ADD SWAP1 POP DUP5 DUP5 DUP1 DUP3 DUP5 CALLDATACOPY SWAP2 SWAP1 SWAP2 ADD SWAP3 DUP4 MSTORE POP POP PUSH1 0x40 DUP1 MLOAD DUP1 DUP4 SUB DUP2 MSTORE PUSH1 0x20 SWAP3 DUP4 ADD SWAP1 SWAP2 MSTORE DUP1 MLOAD SWAP2 ADD KECCAK256 SWAP8 POP POP POP POP POP POP POP POP SWAP9 SWAP8 POP POP POP POP POP POP POP POP JUMP JUMPDEST PUSH1 0x1 PUSH1 0x1 PUSH1 0xA0 SHL SUB AND PUSH1 0x0 SWAP1 DUP2 MSTORE PUSH2 0x1A3 PUSH1 0x20 MSTORE PUSH1 0x40 SWAP1 KECCAK256 SLOAD SWAP1 JUMP JUMPDEST PUSH1 0xD7 SLOAD PUSH1 0x1 PUSH1 0x1 PUSH1 0xA0 SHL SUB AND CALLER EQ PUSH2 0x17FA JUMPI PUSH1 0x40 DUP1 MLOAD PUSH3 0x461BCD PUSH1 0xE5 SHL DUP2 MSTORE PUSH1 0x20 PUSH1 0x4 DUP3 ADD MSTORE PUSH1 0x15 PUSH1 0x24 DUP3 ADD MSTORE PUSH1 0x0 DUP1 MLOAD PUSH1 0x20 PUSH2 0x279B DUP4 CODECOPY DUP2 MLOAD SWAP2 MSTORE PUSH1 0x44 DUP3 ADD MSTORE SWAP1 MLOAD SWAP1 DUP2 SWAP1 SUB PUSH1 0x64 ADD SWAP1 REVERT JUMPDEST DUP1 MLOAD DUP3 MLOAD EQ PUSH2 0x183A JUMPI PUSH1 0x40 MLOAD PUSH3 0x461BCD PUSH1 0xE5 SHL DUP2 MSTORE PUSH1 0x4 ADD DUP1 DUP1 PUSH1 0x20 ADD DUP3 DUP2 SUB DUP3 MSTORE PUSH1 0x2F DUP2 MSTORE PUSH1 0x20 ADD DUP1 PUSH2 0x294F PUSH1 0x2F SWAP2 CODECOPY PUSH1 0x40 ADD SWAP2 POP POP PUSH1 0x40 MLOAD DUP1 SWAP2 SUB SWAP1 REVERT JUMPDEST PUSH2 0x1842 PUSH2 0x1FD6 JUMP JUMPDEST PUSH1 0x0 JUMPDEST DUP3 MLOAD DUP2 LT ISZERO PUSH2 0x1886 JUMPI PUSH2 0x187E DUP4 DUP3 DUP2 MLOAD DUP2 LT PUSH2 0x185D JUMPI INVALID JUMPDEST PUSH1 0x20 MUL PUSH1 0x20 ADD ADD MLOAD DUP4 DUP4 DUP2 MLOAD DUP2 LT PUSH2 0x1871 JUMPI INVALID JUMPDEST PUSH1 0x20 MUL PUSH1 0x20 ADD ADD MLOAD PUSH2 0x203D JUMP JUMPDEST PUSH1 0x1 ADD PUSH2 0x1845 JUMP JUMPDEST POP PUSH1 0xD4 SLOAD PUSH1 0xD5 SLOAD PUSH1 0xD3 SLOAD PUSH1 0x40 DUP1 MLOAD SWAP4 DUP5 MSTORE PUSH1 0x20 DUP5 ADD SWAP3 SWAP1 SWAP3 MSTORE DUP3 DUP3 ADD MSTORE MLOAD PUSH32 0x3A7EF0DA3179668AF8114719645585B5A37092EF2D66F187DCF63D83A221EAA6 SWAP2 DUP2 SWAP1 SUB PUSH1 0x60 ADD SWAP1 LOG1 POP POP JUMP JUMPDEST PUSH1 0x6D PUSH1 0x20 MSTORE PUSH1 0x0 SWAP1 DUP2 MSTORE PUSH1 0x40 SWAP1 KECCAK256 SLOAD DUP2 JUMP JUMPDEST PUSH1 0x3 SLOAD PUSH1 0x1 PUSH1 0x1 PUSH1 0xA0 SHL SUB AND DUP2 JUMP JUMPDEST PUSH1 0x2 SLOAD PUSH1 0x1 PUSH1 0x1 PUSH1 0xA0 SHL SUB AND DUP2 JUMP JUMPDEST PUSH1 0xD7 SLOAD PUSH1 0x1 PUSH1 0x1 PUSH1 0xA0 SHL SUB AND CALLER EQ PUSH2 0x194F JUMPI PUSH1 0x40 DUP1 MLOAD PUSH3 0x461BCD PUSH1 0xE5 SHL DUP2 MSTORE PUSH1 0x20 PUSH1 0x4 DUP3 ADD MSTORE PUSH1 0x15 PUSH1 0x24 DUP3 ADD MSTORE PUSH1 0x0 DUP1 MLOAD PUSH1 0x20 PUSH2 0x279B DUP4 CODECOPY DUP2 MLOAD SWAP2 MSTORE PUSH1 0x44 DUP3 ADD MSTORE SWAP1 MLOAD SWAP1 DUP2 SWAP1 SUB PUSH1 0x64 ADD SWAP1 REVERT JUMPDEST PUSH1 0x4 SLOAD PUSH1 0x1 PUSH1 0xA0 SHL SWAP1 DIV PUSH1 0xFF AND ISZERO PUSH2 0x1998 JUMPI PUSH1 0x40 MLOAD PUSH3 0x461BCD PUSH1 0xE5 SHL DUP2 MSTORE PUSH1 0x4 ADD DUP1 DUP1 PUSH1 0x20 ADD DUP3 DUP2 SUB DUP3 MSTORE PUSH1 0x36 DUP2 MSTORE PUSH1 0x20 ADD DUP1 PUSH2 0x285C PUSH1 0x36 SWAP2 CODECOPY PUSH1 0x40 ADD SWAP2 POP POP PUSH1 0x40 MLOAD DUP1 SWAP2 SUB SWAP1 REVERT JUMPDEST PUSH1 0x4 DUP1 SLOAD PUSH1 0x1 PUSH1 0xA0 SHL PUSH1 0xFF PUSH1 0xA0 SHL NOT SWAP1 SWAP2 AND OR PUSH1 0x1 PUSH1 0x1 PUSH1 0xA0 SHL SUB NOT AND PUSH1 0x1 PUSH1 0x1 PUSH1 0xA0 SHL SUB DUP4 DUP2 AND SWAP2 SWAP1 SWAP2 OR SWAP2 DUP3 SWAP1 SSTORE PUSH1 0x40 DUP1 MLOAD SWAP3 SWAP1 SWAP2 AND DUP3 MSTORE MLOAD PUSH32 0xC8B65043FB196AC032B79A435397D1D14A96B4E9D12E366C3B1F550CB01D2DFA SWAP2 PUSH1 0x20 SWAP1 DUP3 SWAP1 SUB ADD SWAP1 LOG1 POP JUMP JUMPDEST PUSH1 0xD8 PUSH1 0x20 SWAP1 DUP2 MSTORE PUSH1 0x0 SWAP3 DUP4 MSTORE PUSH1 0x40 DUP1 DUP5 KECCAK256 SWAP1 SWAP2 MSTORE SWAP1 DUP3 MSTORE SWAP1 KECCAK256 SLOAD DUP2 JUMP JUMPDEST PUSH2 0x1A2D CALLER PUSH5 0x174876E800 PUSH2 0x210B JUMP JUMPDEST JUMP JUMPDEST PUSH1 0xD4 SLOAD DUP2 JUMP JUMPDEST PUSH2 0x13D SLOAD PUSH3 0x10000 SWAP1 DIV PUSH1 0xFF AND ISZERO PUSH2 0x1A82 JUMPI PUSH1 0x40 DUP1 MLOAD PUSH3 0x461BCD PUSH1 0xE5 SHL DUP2 MSTORE PUSH1 0x20 PUSH1 0x4 DUP3 ADD MSTORE PUSH1 0xB PUSH1 0x24 DUP3 ADD MSTORE PUSH11 0x125B9A5D1A585B1A5E9959 PUSH1 0xAA SHL PUSH1 0x44 DUP3 ADD MSTORE SWAP1 MLOAD SWAP1 DUP2 SWAP1 SUB PUSH1 0x64 ADD SWAP1 REVERT JUMPDEST PUSH1 0x40 DUP1 MLOAD DUP1 DUP3 ADD SWAP1 SWAP2 MSTORE PUSH1 0x1 DUP1 DUP3 MSTORE PUSH1 0x65 PUSH1 0xF8 SHL PUSH1 0x20 SWAP1 SWAP3 ADD SWAP2 DUP3 MSTORE PUSH2 0x1AAA SWAP2 PUSH1 0x0 SWAP2 PUSH2 0x26DC JUMP JUMPDEST POP PUSH1 0xD7 DUP1 SLOAD PUSH1 0x1 PUSH1 0x1 PUSH1 0xA0 SHL SUB DUP7 AND PUSH1 0x1 PUSH1 0x1 PUSH1 0xA0 SHL SUB NOT SWAP1 SWAP2 AND OR SWAP1 SSTORE PUSH1 0x4 DUP1 SLOAD PUSH1 0xFF PUSH1 0xA0 SHL NOT AND SWAP1 SSTORE PUSH2 0x13D DUP1 SLOAD PUSH3 0xFF0000 NOT AND PUSH3 0x10000 OR SWAP1 SSTORE PUSH2 0x1AF3 DUP5 DUP5 DUP5 DUP5 PUSH2 0x2192 JUMP JUMPDEST POP POP POP POP JUMP JUMPDEST PUSH1 0x6E PUSH1 0x20 SWAP1 DUP2 MSTORE PUSH1 0x0 SWAP3 DUP4 MSTORE PUSH1 0x40 DUP1 DUP5 KECCAK256 SWAP1 SWAP2 MSTORE SWAP1 DUP3 MSTORE SWAP1 KECCAK256 SLOAD PUSH1 0xFF AND DUP2 JUMP JUMPDEST PUSH1 0x0 PUSH2 0x1B26 CALLER DUP5 DUP5 PUSH2 0x22B0 JUMP JUMPDEST POP PUSH1 0x1 JUMPDEST SWAP3 SWAP2 POP POP JUMP JUMPDEST PUSH1 0xD3 SLOAD PUSH1 0x0 DUP3 DUP2 MSTORE PUSH1 0x6D PUSH1 0x20 MSTORE PUSH1 0x40 DUP2 KECCAK256 SLOAD PUSH1 0x6C SLOAD SWAP2 SWAP3 DUP4 SWAP3 DUP4 SWAP3 SWAP2 SWAP1 DUP4 SWAP1 PUSH2 0x1B60 SWAP1 DUP4 SWAP1 PUSH4 0xFFFFFFFF PUSH2 0x236D AND JUMP JUMPDEST SWAP1 POP PUSH1 0x0 PUSH2 0x1B75 DUP5 PUSH1 0x64 PUSH4 0xFFFFFFFF PUSH2 0x236D AND JUMP JUMPDEST DUP3 DUP2 LT ISZERO SWAP10 SWAP1 SWAP9 POP SWAP2 SWAP7 POP SWAP1 SWAP5 POP POP POP POP POP JUMP JUMPDEST PUSH1 0x6A SLOAD PUSH1 0x1 PUSH1 0x1 PUSH1 0xA0 SHL SUB AND DUP2 JUMP JUMPDEST PUSH1 0xD7 SLOAD PUSH1 0x1 PUSH1 0x1 PUSH1 0xA0 SHL SUB AND CALLER EQ PUSH2 0x1BE5 JUMPI PUSH1 0x40 DUP1 MLOAD PUSH3 0x461BCD PUSH1 0xE5 SHL DUP2 MSTORE PUSH1 0x20 PUSH1 0x4 DUP3 ADD MSTORE PUSH1 0x15 PUSH1 0x24 DUP3 ADD MSTORE PUSH1 0x0 DUP1 MLOAD PUSH1 0x20 PUSH2 0x279B DUP4 CODECOPY DUP2 MLOAD SWAP2 MSTORE PUSH1 0x44 DUP3 ADD MSTORE SWAP1 MLOAD SWAP1 DUP2 SWAP1 SUB PUSH1 0x64 ADD SWAP1 REVERT JUMPDEST PUSH1 0xD4 SLOAD DUP3 LT PUSH2 0x1C25 JUMPI PUSH1 0x40 MLOAD PUSH3 0x461BCD PUSH1 0xE5 SHL DUP2 MSTORE PUSH1 0x4 ADD DUP1 DUP1 PUSH1 0x20 ADD DUP3 DUP2 SUB DUP3 MSTORE PUSH1 0x35 DUP2 MSTORE PUSH1 0x20 ADD DUP1 PUSH2 0x28EC PUSH1 0x35 SWAP2 CODECOPY PUSH1 0x40 ADD SWAP2 POP POP PUSH1 0x40 MLOAD DUP1 SWAP2 SUB SWAP1 REVERT JUMPDEST PUSH1 0x1 PUSH1 0x1 PUSH1 0xA0 SHL SUB AND PUSH1 0x0 DUP2 DUP2 MSTORE PUSH1 0xD6 PUSH1 0x20 SWAP1 DUP2 MSTORE PUSH1 0x40 DUP1 DUP4 KECCAK256 PUSH1 0xD4 DUP1 SLOAD DUP6 MSTORE SWAP1 DUP4 MSTORE DUP2 DUP5 KECCAK256 DUP1 SLOAD PUSH1 0xFF NOT AND SWAP1 SSTORE SWAP4 DUP4 MSTORE PUSH1 0xD8 DUP3 MSTORE DUP1 DUP4 KECCAK256 SWAP4 SLOAD DUP4 MSTORE SWAP3 SWAP1 MSTORE SWAP1 DUP2 KECCAK256 SSTORE POP JUMP JUMPDEST PUSH1 0xD3 SLOAD DUP2 JUMP JUMPDEST PUSH1 0x5 PUSH1 0x20 SWAP1 DUP2 MSTORE PUSH1 0x0 SWAP2 DUP3 MSTORE PUSH1 0x40 SWAP2 DUP3 SWAP1 KECCAK256 DUP1 SLOAD PUSH1 0x1 DUP1 DUP4 ADD DUP1 SLOAD DUP7 MLOAD PUSH1 0x2 PUSH2 0x100 SWAP5 DUP4 AND ISZERO SWAP5 SWAP1 SWAP5 MUL PUSH1 0x0 NOT ADD SWAP1 SWAP2 AND SWAP3 SWAP1 SWAP3 DIV PUSH1 0x1F DUP2 ADD DUP7 SWAP1 DIV DUP7 MUL DUP4 ADD DUP7 ADD SWAP1 SWAP7 MSTORE DUP6 DUP3 MSTORE PUSH1 0x1 PUSH1 0x1 PUSH1 0xA0 SHL SUB SWAP1 SWAP3 AND SWAP5 SWAP3 SWAP4 SWAP1 SWAP3 SWAP1 DUP4 ADD DUP3 DUP3 DUP1 ISZERO PUSH2 0x1D1B JUMPI DUP1 PUSH1 0x1F LT PUSH2 0x1CF0 JUMPI PUSH2 0x100 DUP1 DUP4 SLOAD DIV MUL DUP4 MSTORE SWAP2 PUSH1 0x20 ADD SWAP2 PUSH2 0x1D1B JUMP JUMPDEST DUP3 ADD SWAP2 SWAP1 PUSH1 0x0 MSTORE PUSH1 0x20 PUSH1 0x0 KECCAK256 SWAP1 JUMPDEST DUP2 SLOAD DUP2 MSTORE SWAP1 PUSH1 0x1 ADD SWAP1 PUSH1 0x20 ADD DUP1 DUP4 GT PUSH2 0x1CFE JUMPI DUP3 SWAP1 SUB PUSH1 0x1F AND DUP3 ADD SWAP2 JUMPDEST POP POP POP POP POP SWAP1 DUP1 PUSH1 0x2 ADD SLOAD SWAP1 POP DUP4 JUMP JUMPDEST PUSH1 0x6C SLOAD DUP2 JUMP JUMPDEST PUSH1 0xD7 SLOAD PUSH1 0x1 PUSH1 0x1 PUSH1 0xA0 SHL SUB AND CALLER EQ PUSH2 0x1D7E JUMPI PUSH1 0x40 DUP1 MLOAD PUSH3 0x461BCD PUSH1 0xE5 SHL DUP2 MSTORE PUSH1 0x20 PUSH1 0x4 DUP3 ADD MSTORE PUSH1 0x15 PUSH1 0x24 DUP3 ADD MSTORE PUSH1 0x0 DUP1 MLOAD PUSH1 0x20 PUSH2 0x279B DUP4 CODECOPY DUP2 MLOAD SWAP2 MSTORE PUSH1 0x44 DUP3 ADD MSTORE SWAP1 MLOAD SWAP1 DUP2 SWAP1 SUB PUSH1 0x64 ADD SWAP1 REVERT JUMPDEST PUSH2 0x1D88 DUP3 DUP3 PUSH2 0x203D JUMP JUMPDEST POP POP JUMP JUMPDEST PUSH1 0x0 PUSH2 0x1DCE DUP4 DUP4 PUSH1 0x40 MLOAD DUP1 PUSH1 0x40 ADD PUSH1 0x40 MSTORE DUP1 PUSH1 0x1E DUP2 MSTORE PUSH1 0x20 ADD PUSH32 0x536166654D6174683A207375627472616374696F6E206F766572666C6F770000 DUP2 MSTORE POP PUSH2 0x23C6 JUMP JUMPDEST SWAP4 SWAP3 POP POP POP JUMP JUMPDEST PUSH1 0x0 DUP3 DUP3 ADD DUP4 DUP2 LT ISZERO PUSH2 0x1DCE JUMPI PUSH1 0x40 DUP1 MLOAD PUSH3 0x461BCD PUSH1 0xE5 SHL DUP2 MSTORE PUSH1 0x20 PUSH1 0x4 DUP3 ADD MSTORE PUSH1 0x1B PUSH1 0x24 DUP3 ADD MSTORE PUSH32 0x536166654D6174683A206164646974696F6E206F766572666C6F770000000000 PUSH1 0x44 DUP3 ADD MSTORE SWAP1 MLOAD SWAP1 DUP2 SWAP1 SUB PUSH1 0x64 ADD SWAP1 REVERT JUMPDEST PUSH1 0x0 DUP3 DUP2 MSTORE PUSH1 0x6E PUSH1 0x20 SWAP1 DUP2 MSTORE PUSH1 0x40 DUP1 DUP4 KECCAK256 PUSH1 0x1 PUSH1 0x1 PUSH1 0xA0 SHL SUB DUP6 AND DUP5 MSTORE SWAP1 SWAP2 MSTORE DUP2 KECCAK256 SLOAD PUSH1 0xFF AND ISZERO PUSH2 0x1E91 JUMPI PUSH1 0x40 MLOAD PUSH3 0x461BCD PUSH1 0xE5 SHL DUP2 MSTORE PUSH1 0x4 ADD DUP1 DUP1 PUSH1 0x20 ADD DUP3 DUP2 SUB DUP3 MSTORE PUSH1 0x3A DUP2 MSTORE PUSH1 0x20 ADD DUP1 PUSH2 0x27E0 PUSH1 0x3A SWAP2 CODECOPY PUSH1 0x40 ADD SWAP2 POP POP PUSH1 0x40 MLOAD DUP1 SWAP2 SUB SWAP1 REVERT JUMPDEST PUSH1 0x0 DUP4 DUP2 MSTORE PUSH1 0x6E PUSH1 0x20 SWAP1 DUP2 MSTORE PUSH1 0x40 DUP1 DUP4 KECCAK256 PUSH1 0x1 PUSH1 0x1 PUSH1 0xA0 SHL SUB DUP7 AND DUP5 MSTORE SWAP1 SWAP2 MSTORE SWAP1 KECCAK256 DUP1 SLOAD PUSH1 0xFF NOT AND PUSH1 0x1 OR SWAP1 SSTORE PUSH2 0x1EE5 PUSH2 0x1ECA DUP4 PUSH2 0xE69 JUMP JUMPDEST PUSH1 0x0 DUP6 DUP2 MSTORE PUSH1 0x6D PUSH1 0x20 MSTORE PUSH1 0x40 SWAP1 KECCAK256 SLOAD SWAP1 PUSH4 0xFFFFFFFF PUSH2 0x1DD5 AND JUMP JUMPDEST PUSH1 0x0 DUP5 DUP2 MSTORE PUSH1 0x6D PUSH1 0x20 SWAP1 DUP2 MSTORE PUSH1 0x40 SWAP2 DUP3 SWAP1 KECCAK256 SWAP3 SWAP1 SWAP3 SSTORE DUP1 MLOAD DUP6 DUP2 MSTORE PUSH1 0x1 PUSH1 0x1 PUSH1 0xA0 SHL SUB DUP6 AND SWAP3 DUP2 ADD SWAP3 SWAP1 SWAP3 MSTORE DUP1 MLOAD PUSH32 0x668FCE9833323940537A9000D512A6C580A1C0797D2B526DB0078EE9C5A087A9 SWAP3 DUP2 SWAP1 SUB SWAP1 SWAP2 ADD SWAP1 LOG1 PUSH1 0x0 PUSH2 0x1F48 DUP5 PUSH2 0x1B30 JUMP JUMPDEST POP SWAP1 SWAP6 SWAP5 POP POP POP POP POP JUMP JUMPDEST PUSH1 0x1 DUP5 PUSH1 0x2 DUP2 GT ISZERO PUSH2 0x1F61 JUMPI INVALID JUMPDEST EQ ISZERO PUSH2 0x1F77 JUMPI PUSH2 0x1F72 DUP4 DUP4 DUP4 PUSH2 0x245D JUMP JUMPDEST PUSH2 0x1F82 JUMP JUMPDEST PUSH2 0x1F82 DUP4 DUP4 DUP4 PUSH2 0x253D JUMP JUMPDEST PUSH32 0x79E7C1C0BD54F11809C3BF6023C242783602D61CEFF272C6BBA6F8559C24AD0D DUP6 DUP6 PUSH1 0x40 MLOAD DUP1 DUP4 DUP2 MSTORE PUSH1 0x20 ADD DUP3 PUSH1 0x2 DUP2 GT ISZERO PUSH2 0x1FBB JUMPI INVALID JUMPDEST PUSH1 0xFF AND DUP2 MSTORE PUSH1 0x20 ADD SWAP3 POP POP POP PUSH1 0x40 MLOAD DUP1 SWAP2 SUB SWAP1 LOG1 POP POP POP POP POP JUMP JUMPDEST PUSH1 0xD4 SLOAD PUSH2 0x1FEA SWAP1 PUSH1 0x1 PUSH4 0xFFFFFFFF PUSH2 0x1DD5 AND JUMP JUMPDEST PUSH1 0xD4 DUP2 SWAP1 SSTORE PUSH1 0x0 PUSH1 0xD5 DUP2 SWAP1 SSTORE PUSH1 0xD3 DUP2 SWAP1 SSTORE PUSH1 0x40 DUP1 MLOAD SWAP3 DUP4 MSTORE PUSH1 0x20 DUP4 ADD DUP3 SWAP1 MSTORE DUP3 DUP2 ADD SWAP2 SWAP1 SWAP2 MSTORE MLOAD PUSH32 0xD870653E19F161500290FD0C4CA41BF5CF2BCB1BA66448F41C66C512DABD65F2 SWAP2 DUP2 SWAP1 SUB PUSH1 0x60 ADD SWAP1 LOG1 JUMP JUMPDEST PUSH1 0xD5 SLOAD PUSH2 0x2051 SWAP1 PUSH1 0x1 PUSH4 0xFFFFFFFF PUSH2 0x1DD5 AND JUMP JUMPDEST PUSH1 0xD5 SSTORE PUSH1 0xD3 SLOAD PUSH2 0x2067 SWAP1 DUP3 PUSH4 0xFFFFFFFF PUSH2 0x1DD5 AND JUMP JUMPDEST PUSH1 0xD3 SWAP1 DUP2 SSTORE PUSH1 0x1 PUSH1 0x1 PUSH1 0xA0 SHL SUB DUP4 AND PUSH1 0x0 DUP2 DUP2 MSTORE PUSH1 0xD6 PUSH1 0x20 SWAP1 DUP2 MSTORE PUSH1 0x40 DUP1 DUP4 KECCAK256 PUSH1 0xD4 DUP1 SLOAD DUP6 MSTORE SWAP1 DUP4 MSTORE DUP2 DUP5 KECCAK256 DUP1 SLOAD PUSH1 0xFF NOT AND PUSH1 0x1 OR SWAP1 SSTORE DUP5 DUP5 MSTORE PUSH1 0xD8 DUP4 MSTORE DUP2 DUP5 KECCAK256 DUP2 SLOAD DUP6 MSTORE DUP4 MSTORE SWAP3 DUP2 SWAP1 KECCAK256 DUP7 SWAP1 SSTORE SWAP2 SLOAD PUSH1 0xD5 SLOAD SWAP5 SLOAD DUP4 MLOAD SWAP5 DUP6 MSTORE SWAP2 DUP5 ADD DUP7 SWAP1 MSTORE DUP4 DUP4 ADD MSTORE PUSH1 0x60 DUP4 ADD SWAP4 SWAP1 SWAP4 MSTORE PUSH1 0x80 DUP3 ADD SWAP3 SWAP1 SWAP3 MSTORE SWAP1 MLOAD PUSH32 0x1A396BCF647502E902DCE665D58A0C1B25F982F193AB9A1D0F1500D8D927BF2A SWAP2 DUP2 SWAP1 SUB PUSH1 0xA0 ADD SWAP1 LOG1 POP POP JUMP JUMPDEST PUSH1 0x1 PUSH1 0x1 PUSH1 0xA0 SHL SUB DUP3 AND PUSH2 0x2166 JUMPI PUSH1 0x40 DUP1 MLOAD PUSH3 0x461BCD PUSH1 0xE5 SHL DUP2 MSTORE PUSH1 0x20 PUSH1 0x4 DUP3 ADD MSTORE PUSH1 0x1F PUSH1 0x24 DUP3 ADD MSTORE PUSH32 0x45524332303A206D696E7420746F20746865207A65726F206164647265737300 PUSH1 0x44 DUP3 ADD MSTORE SWAP1 MLOAD SWAP1 DUP2 SWAP1 SUB PUSH1 0x64 ADD SWAP1 REVERT JUMPDEST PUSH2 0x1A2 DUP1 SLOAD DUP3 ADD SWAP1 SSTORE PUSH1 0x1 PUSH1 0x1 PUSH1 0xA0 SHL SUB SWAP1 SWAP2 AND PUSH1 0x0 SWAP1 DUP2 MSTORE PUSH2 0x1A3 PUSH1 0x20 MSTORE PUSH1 0x40 SWAP1 KECCAK256 DUP1 SLOAD SWAP1 SWAP2 ADD SWAP1 SSTORE JUMP JUMPDEST PUSH2 0x13D SLOAD PUSH2 0x100 SWAP1 DIV PUSH1 0xFF AND ISZERO PUSH2 0x21DE JUMPI PUSH1 0x40 DUP1 MLOAD PUSH3 0x461BCD PUSH1 0xE5 SHL DUP2 MSTORE PUSH1 0x20 PUSH1 0x4 DUP3 ADD MSTORE PUSH1 0xB PUSH1 0x24 DUP3 ADD MSTORE PUSH11 0x125B9A5D1A585B1A5E9959 PUSH1 0xAA SHL PUSH1 0x44 DUP3 ADD MSTORE SWAP1 MLOAD SWAP1 DUP2 SWAP1 SUB PUSH1 0x64 ADD SWAP1 REVERT JUMPDEST PUSH1 0x0 DUP4 GT PUSH2 0x221D JUMPI PUSH1 0x40 MLOAD PUSH3 0x461BCD PUSH1 0xE5 SHL DUP2 MSTORE PUSH1 0x4 ADD DUP1 DUP1 PUSH1 0x20 ADD DUP3 DUP2 SUB DUP3 MSTORE PUSH1 0x25 DUP2 MSTORE PUSH1 0x20 ADD DUP1 PUSH2 0x27BB PUSH1 0x25 SWAP2 CODECOPY PUSH1 0x40 ADD SWAP2 POP POP PUSH1 0x40 MLOAD DUP1 SWAP2 SUB SWAP1 REVERT JUMPDEST PUSH1 0x64 DUP4 GT ISZERO PUSH2 0x2273 JUMPI PUSH1 0x40 DUP1 MLOAD PUSH3 0x461BCD PUSH1 0xE5 SHL DUP2 MSTORE PUSH1 0x20 PUSH1 0x4 DUP3 ADD MSTORE PUSH1 0x1C PUSH1 0x24 DUP3 ADD MSTORE PUSH32 0x496E76616C696420636F6E73656E737573207468726573686F6C642E00000000 PUSH1 0x44 DUP3 ADD MSTORE SWAP1 MLOAD SWAP1 DUP2 SWAP1 SUB PUSH1 0x64 ADD SWAP1 REVERT JUMPDEST PUSH1 0xD7 DUP1 SLOAD PUSH1 0x1 PUSH1 0x1 PUSH1 0xA0 SHL SUB DUP7 AND PUSH1 0x1 PUSH1 0x1 PUSH1 0xA0 SHL SUB NOT SWAP1 SWAP2 AND OR SWAP1 SSTORE PUSH1 0x6C DUP4 SWAP1 SSTORE PUSH2 0x13D DUP1 SLOAD PUSH2 0xFF00 NOT AND PUSH2 0x100 OR SWAP1 SSTORE PUSH2 0x1AF3 DUP5 DUP4 DUP4 PUSH2 0x25AF JUMP JUMPDEST PUSH1 0x1 PUSH1 0x1 PUSH1 0xA0 SHL SUB DUP4 AND PUSH2 0x22F5 JUMPI PUSH1 0x40 MLOAD PUSH3 0x461BCD PUSH1 0xE5 SHL DUP2 MSTORE PUSH1 0x4 ADD DUP1 DUP1 PUSH1 0x20 ADD DUP3 DUP2 SUB DUP3 MSTORE PUSH1 0x25 DUP2 MSTORE PUSH1 0x20 ADD DUP1 PUSH2 0x28C7 PUSH1 0x25 SWAP2 CODECOPY PUSH1 0x40 ADD SWAP2 POP POP PUSH1 0x40 MLOAD DUP1 SWAP2 SUB SWAP1 REVERT JUMPDEST PUSH1 0x1 PUSH1 0x1 PUSH1 0xA0 SHL SUB DUP3 AND PUSH2 0x233A JUMPI PUSH1 0x40 MLOAD PUSH3 0x461BCD PUSH1 0xE5 SHL DUP2 MSTORE PUSH1 0x4 ADD DUP1 DUP1 PUSH1 0x20 ADD DUP3 DUP2 SUB DUP3 MSTORE PUSH1 0x23 DUP2 MSTORE PUSH1 0x20 ADD DUP1 PUSH2 0x2778 PUSH1 0x23 SWAP2 CODECOPY PUSH1 0x40 ADD SWAP2 POP POP PUSH1 0x40 MLOAD DUP1 SWAP2 SUB SWAP1 REVERT JUMPDEST PUSH1 0x1 PUSH1 0x1 PUSH1 0xA0 SHL SUB SWAP3 DUP4 AND PUSH1 0x0 SWAP1 DUP2 MSTORE PUSH2 0x1A3 PUSH1 0x20 MSTORE PUSH1 0x40 DUP1 DUP3 KECCAK256 DUP1 SLOAD DUP5 SWAP1 SUB SWAP1 SSTORE SWAP3 SWAP1 SWAP4 AND DUP4 MSTORE SWAP2 KECCAK256 DUP1 SLOAD SWAP1 SWAP2 ADD SWAP1 SSTORE JUMP JUMPDEST PUSH1 0x0 DUP3 PUSH2 0x237C JUMPI POP PUSH1 0x0 PUSH2 0x1B2A JUMP JUMPDEST DUP3 DUP3 MUL DUP3 DUP5 DUP3 DUP2 PUSH2 0x2389 JUMPI INVALID JUMPDEST DIV EQ PUSH2 0x1DCE JUMPI PUSH1 0x40 MLOAD PUSH3 0x461BCD PUSH1 0xE5 SHL DUP2 MSTORE PUSH1 0x4 ADD DUP1 DUP1 PUSH1 0x20 ADD DUP3 DUP2 SUB DUP3 MSTORE PUSH1 0x21 DUP2 MSTORE PUSH1 0x20 ADD DUP1 PUSH2 0x281A PUSH1 0x21 SWAP2 CODECOPY PUSH1 0x40 ADD SWAP2 POP POP PUSH1 0x40 MLOAD DUP1 SWAP2 SUB SWAP1 REVERT JUMPDEST PUSH1 0x0 DUP2 DUP5 DUP5 GT ISZERO PUSH2 0x2455 JUMPI PUSH1 0x40 MLOAD PUSH3 0x461BCD PUSH1 0xE5 SHL DUP2 MSTORE PUSH1 0x4 ADD DUP1 DUP1 PUSH1 0x20 ADD DUP3 DUP2 SUB DUP3 MSTORE DUP4 DUP2 DUP2 MLOAD DUP2 MSTORE PUSH1 0x20 ADD SWAP2 POP DUP1 MLOAD SWAP1 PUSH1 0x20 ADD SWAP1 DUP1 DUP4 DUP4 PUSH1 0x0 JUMPDEST DUP4 DUP2 LT ISZERO PUSH2 0x241A JUMPI DUP2 DUP2 ADD MLOAD DUP4 DUP3 ADD MSTORE PUSH1 0x20 ADD PUSH2 0x2402 JUMP JUMPDEST POP POP POP POP SWAP1 POP SWAP1 DUP2 ADD SWAP1 PUSH1 0x1F AND DUP1 ISZERO PUSH2 0x2447 JUMPI DUP1 DUP3 SUB DUP1 MLOAD PUSH1 0x1 DUP4 PUSH1 0x20 SUB PUSH2 0x100 EXP SUB NOT AND DUP2 MSTORE PUSH1 0x20 ADD SWAP2 POP JUMPDEST POP SWAP3 POP POP POP PUSH1 0x40 MLOAD DUP1 SWAP2 SUB SWAP1 REVERT JUMPDEST POP POP POP SWAP1 SUB SWAP1 JUMP JUMPDEST PUSH1 0x4 DUP1 SLOAD PUSH1 0x40 MLOAD PUSH4 0x38166229 PUSH1 0xE2 SHL DUP2 MSTORE PUSH1 0x1 PUSH1 0x1 PUSH1 0xA0 SHL SUB DUP7 DUP2 AND SWAP4 DUP3 ADD SWAP4 DUP5 MSTORE PUSH1 0x44 DUP3 ADD DUP6 SWAP1 MSTORE PUSH1 0x60 PUSH1 0x24 DUP4 ADD SWAP1 DUP2 MSTORE DUP7 MLOAD PUSH1 0x64 DUP5 ADD MSTORE DUP7 MLOAD SWAP2 SWAP1 SWAP4 AND SWAP4 PUSH4 0xE05988A4 SWAP4 DUP9 SWAP4 DUP9 SWAP4 DUP9 SWAP4 SWAP3 SWAP2 PUSH1 0x84 ADD SWAP1 PUSH1 0x20 DUP7 ADD SWAP1 DUP1 DUP4 DUP4 PUSH1 0x0 JUMPDEST DUP4 DUP2 LT ISZERO PUSH2 0x24D2 JUMPI DUP2 DUP2 ADD MLOAD DUP4 DUP3 ADD MSTORE PUSH1 0x20 ADD PUSH2 0x24BA JUMP JUMPDEST POP POP POP POP SWAP1 POP SWAP1 DUP2 ADD SWAP1 PUSH1 0x1F AND DUP1 ISZERO PUSH2 0x24FF JUMPI DUP1 DUP3 SUB DUP1 MLOAD PUSH1 0x1 DUP4 PUSH1 0x20 SUB PUSH2 0x100 EXP SUB NOT AND DUP2 MSTORE PUSH1 0x20 ADD SWAP2 POP JUMPDEST POP SWAP5 POP POP POP POP POP PUSH1 0x0 PUSH1 0x40 MLOAD DUP1 DUP4 SUB DUP2 PUSH1 0x0 DUP8 DUP1 EXTCODESIZE ISZERO DUP1 ISZERO PUSH2 0x2520 JUMPI PUSH1 0x0 DUP1 REVERT JUMPDEST POP GAS CALL ISZERO DUP1 ISZERO PUSH2 0x2534 JUMPI RETURNDATASIZE PUSH1 0x0 DUP1 RETURNDATACOPY RETURNDATASIZE PUSH1 0x0 REVERT JUMPDEST POP POP POP POP POP POP POP JUMP JUMPDEST PUSH1 0x4 DUP1 SLOAD PUSH1 0x40 MLOAD PUSH4 0x61750471 PUSH1 0xE0 SHL DUP2 MSTORE PUSH1 0x1 PUSH1 0x1 PUSH1 0xA0 SHL SUB DUP7 DUP2 AND SWAP4 DUP3 ADD SWAP4 DUP5 MSTORE PUSH1 0x44 DUP3 ADD DUP6 SWAP1 MSTORE PUSH1 0x60 PUSH1 0x24 DUP4 ADD SWAP1 DUP2 MSTORE DUP7 MLOAD PUSH1 0x64 DUP5 ADD MSTORE DUP7 MLOAD SWAP2 SWAP1 SWAP4 AND SWAP4 PUSH4 0x61750471 SWAP4 DUP9 SWAP4 DUP9 SWAP4 DUP9 SWAP4 SWAP3 SWAP2 PUSH1 0x84 ADD SWAP1 PUSH1 0x20 DUP7 ADD SWAP1 DUP1 DUP4 DUP4 PUSH1 0x0 DUP4 ISZERO PUSH2 0x24D2 JUMPI DUP2 DUP2 ADD MLOAD DUP4 DUP3 ADD MSTORE PUSH1 0x20 ADD PUSH2 0x24BA JUMP JUMPDEST PUSH2 0x13D SLOAD PUSH1 0xFF AND ISZERO PUSH2 0x25F6 JUMPI PUSH1 0x40 DUP1 MLOAD PUSH3 0x461BCD PUSH1 0xE5 SHL DUP2 MSTORE PUSH1 0x20 PUSH1 0x4 DUP3 ADD MSTORE PUSH1 0xB PUSH1 0x24 DUP3 ADD MSTORE PUSH11 0x125B9A5D1A585B1A5E9959 PUSH1 0xAA SHL PUSH1 0x44 DUP3 ADD MSTORE SWAP1 MLOAD SWAP1 DUP2 SWAP1 SUB PUSH1 0x64 ADD SWAP1 REVERT JUMPDEST PUSH1 0xD7 DUP1 SLOAD PUSH1 0x1 PUSH1 0x1 PUSH1 0xA0 SHL SUB NOT AND PUSH1 0x1 PUSH1 0x1 PUSH1 0xA0 SHL SUB DUP6 AND OR SWAP1 SSTORE PUSH1 0x0 PUSH1 0xD4 SSTORE PUSH2 0x13D DUP1 SLOAD PUSH1 0xFF NOT AND PUSH1 0x1 OR SWAP1 SSTORE DUP1 MLOAD DUP3 MLOAD EQ PUSH2 0x2664 JUMPI PUSH1 0x40 MLOAD PUSH3 0x461BCD PUSH1 0xE5 SHL DUP2 MSTORE PUSH1 0x4 ADD DUP1 DUP1 PUSH1 0x20 ADD DUP3 DUP2 SUB DUP3 MSTORE PUSH1 0x2F DUP2 MSTORE PUSH1 0x20 ADD DUP1 PUSH2 0x294F PUSH1 0x2F SWAP2 CODECOPY PUSH1 0x40 ADD SWAP2 POP POP PUSH1 0x40 MLOAD DUP1 SWAP2 SUB SWAP1 REVERT JUMPDEST PUSH2 0x266C PUSH2 0x1FD6 JUMP JUMPDEST PUSH1 0x0 JUMPDEST DUP3 MLOAD DUP2 LT ISZERO PUSH2 0x268F JUMPI PUSH2 0x2687 DUP4 DUP3 DUP2 MLOAD DUP2 LT PUSH2 0x185D JUMPI INVALID JUMPDEST PUSH1 0x1 ADD PUSH2 0x266F JUMP JUMPDEST POP PUSH1 0xD4 SLOAD PUSH1 0xD5 SLOAD PUSH1 0xD3 SLOAD PUSH1 0x40 DUP1 MLOAD SWAP4 DUP5 MSTORE PUSH1 0x20 DUP5 ADD SWAP3 SWAP1 SWAP3 MSTORE DUP3 DUP3 ADD MSTORE MLOAD PUSH32 0x3A7EF0DA3179668AF8114719645585B5A37092EF2D66F187DCF63D83A221EAA6 SWAP2 DUP2 SWAP1 SUB PUSH1 0x60 ADD SWAP1 LOG1 POP POP POP JUMP JUMPDEST DUP3 DUP1 SLOAD PUSH1 0x1 DUP2 PUSH1 0x1 AND ISZERO PUSH2 0x100 MUL SUB AND PUSH1 0x2 SWAP1 DIV SWAP1 PUSH1 0x0 MSTORE PUSH1 0x20 PUSH1 0x0 KECCAK256 SWAP1 PUSH1 0x1F ADD PUSH1 0x20 SWAP1 DIV DUP2 ADD SWAP3 DUP3 PUSH1 0x1F LT PUSH2 0x271D JUMPI DUP1 MLOAD PUSH1 0xFF NOT AND DUP4 DUP1 ADD OR DUP6 SSTORE PUSH2 0x274A JUMP JUMPDEST DUP3 DUP1 ADD PUSH1 0x1 ADD DUP6 SSTORE DUP3 ISZERO PUSH2 0x274A JUMPI SWAP2 DUP3 ADD JUMPDEST DUP3 DUP2 GT ISZERO PUSH2 0x274A JUMPI DUP3 MLOAD DUP3 SSTORE SWAP2 PUSH1 0x20 ADD SWAP2 SWAP1 PUSH1 0x1 ADD SWAP1 PUSH2 0x272F JUMP JUMPDEST POP PUSH2 0x2756 SWAP3 SWAP2 POP PUSH2 0x275A JUMP JUMPDEST POP SWAP1 JUMP JUMPDEST PUSH2 0x2774 SWAP2 SWAP1 JUMPDEST DUP1 DUP3 GT ISZERO PUSH2 0x2756 JUMPI PUSH1 0x0 DUP2 SSTORE PUSH1 0x1 ADD PUSH2 0x2760 JUMP JUMPDEST SWAP1 JUMP INVALID GASLIMIT MSTORE NUMBER ORIGIN ADDRESS GASPRICE KECCAK256 PUSH21 0x72616E7366657220746F20746865207A65726F2061 PUSH5 0x6472657373 0x4D PUSH22 0x737420626520746865206F70657261746F722E000000 STOP STOP STOP STOP STOP STOP STOP STOP NUMBER PUSH16 0x6E73656E737573207468726573686F6C PUSH5 0x206D757374 KECCAK256 PUSH3 0x652070 PUSH16 0x7369746976652E43616E6E6F74206D61 PUSH12 0x65206475706C696361746520 PUSH16 0x7261636C6520636C61696D732066726F PUSH14 0x207468652073616D652061646472 PUSH6 0x73732E536166 PUSH6 0x4D6174683A20 PUSH14 0x756C7469706C69636174696F6E20 PUSH16 0x766572666C6F7743616E206F6E6C7920 PUSH19 0x656D6F7665206163746976652076616C696461 PUSH21 0x6F7273546865204272696467652042616E6B206361 PUSH15 0x6E6F74206265207570646174656420 PUSH16 0x6E636520697420686173206265656E20 PUSH20 0x6574496E76616C696420636C61696D2074797065 0x2C KECCAK256 PUSH16 0x6E6C79206275726E20616E64206C6F63 PUSH12 0x2061726520737570706F7274 PUSH6 0x642E45524332 ADDRESS GASPRICE KECCAK256 PUSH21 0x72616E736665722066726F6D20746865207A65726F KECCAK256 PUSH2 0x6464 PUSH19 0x657373476173207265636F76657279206F6E6C PUSH26 0x20616C6C6F77656420666F722070726576696F75732076616C69 PUSH5 0x61746F7220 PUSH20 0x65747343616E206F6E6C79207570646174652074 PUSH9 0x6520706F776572206F PUSH7 0x20616374697665 KECCAK256 PUSH23 0x616C646961746F727345766572792076616C696461746F PUSH19 0x206D7573742068617665206120636F72726573 PUSH17 0x6F6E64696E6720706F776572A265627A7A PUSH19 0x31582010B3171D973D69CB5AA34BFC9B470F9A SAR 0xC7 RETURNDATACOPY SELFDESTRUCT MSTORE8 ORIGIN DUP5 0xDC 0x5E SHR DUP8 0xCD PUSH21 0xAF1FE264736F6C6343000510003200000000000000 "
        },
        "methodIdentifiers": {
          "addValidator(address,uint256)": "fc6c1f02",
          "balanceOf(address)": "70a08231",
          "bridgeBank()": "0e41f373",
          "changeOperator(address)": "06394c9b",
          "consensusThreshold()": "f9b0b5b9",
          "cosmosBridge()": "b0e9ef71",
          "currentValsetVersion()": "8d56c37d",
          "getProphecyID(uint8,bytes,uint256,address,string,uint256)": "6e850da4",
          "getProphecyThreshold(uint256)": "aef6ac3a",
          "getValidatorPower(address)": "473691a4",
          "hasBridgeBank()": "69294a4e",
          "hasMadeClaim(uint256,address)": "a219763e",
          "initialize(address,uint256,address[],uint256[])": "9a19224f",
          "isActiveValidator(address)": "40550a1c",
          "newProphecyClaim(uint8,bytes,uint256,address,string,uint256)": "5d4c66a3",
          "operator()": "570ca735",
          "oracle()": "7dc0d1d0",
          "oracleClaimValidators(uint256)": "78ffb1c6",
          "powers(address,uint256)": "850f43dd",
          "prophecyClaims(uint256)": "db4237af",
          "recoverGas(uint256,address)": "b5672be3",
          "removeValidator(address)": "40a141ff",
          "setBridgeBank(address)": "814c92c3",
          "tokenFaucet()": "89eb068a",
          "totalPower()": "db3ad22c",
          "transfer(address,uint256)": "a9059cbb",
          "updateValidatorPower(address,uint256)": "2e75293b",
          "updateValset(address[],uint256[])": "788cf92f",
          "validatorCount()": "0f43a677",
          "validators(address,uint256)": "45aaf18c",
          "valset()": "7f54af0c"
        }
      }
    }
  }
}