{
  "contracts/BridgeBank/PauserRole.sol": {
    "PauserRole": {
      "abi": [
        {
          "constant": false,
          "inputs": [
            {
              "internalType": "address",
              "name": "account",
              "type": "address"
            }
          ],
          "name": "addPauser",
          "outputs": [],
          "payable": false,
          "stateMutability": "nonpayable",
          "type": "function"
        },
        {
          "constant": true,
          "inputs": [
            {
              "internalType": "address",
              "name": "",
              "type": "address"
            }
          ],
          "name": "pausers",
          "outputs": [
            {
              "internalType": "bool",
              "name": "",
              "type": "bool"
            }
          ],
          "payable": false,
          "stateMutability": "view",
          "type": "function"
        },
        {
          "constant": false,
          "inputs": [],
          "name": "renouncePauser",
          "outputs": [],
          "payable": false,
          "stateMutability": "nonpayable",
          "type": "function"
        }
      ],
      "evm": {
        "bytecode": {
          "linkReferences": {},
          "object": "608060405234801561001057600080fd5b506101d4806100206000396000f3fe608060405234801561001057600080fd5b50600436106100415760003560e01c80636ef8d66d1461004657806380f51c121461005057806382dc1ec41461008a575b600080fd5b61004e6100b0565b005b6100766004803603602081101561006657600080fd5b50356001600160a01b03166100bb565b604080519115158252519081900360200190f35b61004e600480360360208110156100a057600080fd5b50356001600160a01b03166100d0565b6100b93361012a565b565b60006020819052908152604090205460ff1681565b3360009081526020819052604090205460ff1661011e5760405162461bcd60e51b81526004018080602001828103825260308152602001806101706030913960400191505060405180910390fd5b6101278161014b565b50565b6001600160a01b03166000908152602081905260409020805460ff19169055565b6001600160a01b03166000908152602081905260409020805460ff1916600117905556fe506175736572526f6c653a2063616c6c657220646f6573206e6f742068617665207468652050617573657220726f6c65a265627a7a723158203e5a7b2416cd318a4024c54314b3af86d9b821b33c0cc6c9b7f6ec7cdd28cf5e64736f6c63430005100032",
          "opcodes": "PUSH1 0x80 PUSH1 0x40 MSTORE CALLVALUE DUP1 ISZERO PUSH2 0x10 JUMPI PUSH1 0x0 DUP1 REVERT JUMPDEST POP PUSH2 0x1D4 DUP1 PUSH2 0x20 PUSH1 0x0 CODECOPY PUSH1 0x0 RETURN INVALID PUSH1 0x80 PUSH1 0x40 MSTORE CALLVALUE DUP1 ISZERO PUSH2 0x10 JUMPI PUSH1 0x0 DUP1 REVERT JUMPDEST POP PUSH1 0x4 CALLDATASIZE LT PUSH2 0x41 JUMPI PUSH1 0x0 CALLDATALOAD PUSH1 0xE0 SHR DUP1 PUSH4 0x6EF8D66D EQ PUSH2 0x46 JUMPI DUP1 PUSH4 0x80F51C12 EQ PUSH2 0x50 JUMPI DUP1 PUSH4 0x82DC1EC4 EQ PUSH2 0x8A JUMPI JUMPDEST PUSH1 0x0 DUP1 REVERT JUMPDEST PUSH2 0x4E PUSH2 0xB0 JUMP JUMPDEST STOP JUMPDEST PUSH2 0x76 PUSH1 0x4 DUP1 CALLDATASIZE SUB PUSH1 0x20 DUP2 LT ISZERO PUSH2 0x66 JUMPI PUSH1 0x0 DUP1 REVERT JUMPDEST POP CALLDATALOAD PUSH1 0x1 PUSH1 0x1 PUSH1 0xA0 SHL SUB AND PUSH2 0xBB JUMP JUMPDEST PUSH1 0x40 DUP1 MLOAD SWAP2 ISZERO ISZERO DUP3 MSTORE MLOAD SWAP1 DUP2 SWAP1 SUB PUSH1 0x20 ADD SWAP1 RETURN JUMPDEST PUSH2 0x4E PUSH1 0x4 DUP1 CALLDATASIZE SUB PUSH1 0x20 DUP2 LT ISZERO PUSH2 0xA0 JUMPI PUSH1 0x0 DUP1 REVERT JUMPDEST POP CALLDATALOAD PUSH1 0x1 PUSH1 0x1 PUSH1 0xA0 SHL SUB AND PUSH2 0xD0 JUMP JUMPDEST PUSH2 0xB9 CALLER PUSH2 0x12A JUMP JUMPDEST JUMP JUMPDEST PUSH1 0x0 PUSH1 0x20 DUP2 SWAP1 MSTORE SWAP1 DUP2 MSTORE PUSH1 0x40 SWAP1 KECCAK256 SLOAD PUSH1 0xFF AND DUP2 JUMP JUMPDEST CALLER PUSH1 0x0 SWAP1 DUP2 MSTORE PUSH1 0x20 DUP2 SWAP1 MSTORE PUSH1 0x40 SWAP1 KECCAK256 SLOAD PUSH1 0xFF AND PUSH2 0x11E JUMPI PUSH1 0x40 MLOAD PUSH3 0x461BCD PUSH1 0xE5 SHL DUP2 MSTORE PUSH1 0x4 ADD DUP1 DUP1 PUSH1 0x20 ADD DUP3 DUP2 SUB DUP3 MSTORE PUSH1 0x30 DUP2 MSTORE PUSH1 0x20 ADD DUP1 PUSH2 0x170 PUSH1 0x30 SWAP2 CODECOPY PUSH1 0x40 ADD SWAP2 POP POP PUSH1 0x40 MLOAD DUP1 SWAP2 SUB SWAP1 REVERT JUMPDEST PUSH2 0x127 DUP2 PUSH2 0x14B JUMP JUMPDEST POP JUMP JUMPDEST PUSH1 0x1 PUSH1 0x1 PUSH1 0xA0 SHL SUB AND PUSH1 0x0 SWAP1 DUP2 MSTORE PUSH1 0x20 DUP2 SWAP1 MSTORE PUSH1 0x40 SWAP1 KECCAK256 DUP1 SLOAD PUSH1 0xFF NOT AND SWAP1 SSTORE JUMP JUMPDEST PUSH1 0x1 PUSH1 0x1 PUSH1 0xA0 SHL SUB AND PUSH1 0x0 SWAP1 DUP2 MSTORE PUSH1 0x20 DUP2 SWAP1 MSTORE PUSH1 0x40 SWAP1 KECCAK256 DUP1 SLOAD PUSH1 0xFF NOT AND PUSH1 0x1 OR SWAP1 SSTORE JUMP INVALID POP PUSH2 0x7573 PUSH6 0x72526F6C653A KECCAK256 PUSH4 0x616C6C65 PUSH19 0x20646F6573206E6F7420686176652074686520 POP PUSH2 0x7573 PUSH6 0x7220726F6C65 LOG2 PUSH6 0x627A7A723158 KECCAK256 RETURNDATACOPY GAS PUSH28 0x2416CD318A4024C54314B3AF86D9B821B33C0CC6C9B7F6EC7CDD28CF 0x5E PUSH5 0x736F6C6343 STOP SDIV LT STOP ORIGIN "
        },
        "methodIdentifiers": {
          "addPauser(address)": "82dc1ec4",
          "pausers(address)": "80f51c12",
          "renouncePauser()": "6ef8d66d"
        }
      }
    }
  }
}