{
  "contractName": "Valset",
  "abi": [
    {
      "anonymous": false,
      "inputs": [
        {
          "indexed": false,
          "internalType": "address",
          "name": "_validator",
          "type": "address"
        },
        {
          "indexed": false,
          "internalType": "uint256",
          "name": "_power",
          "type": "uint256"
        },
        {
          "indexed": false,
          "internalType": "uint256",
          "name": "_currentValsetVersion",
          "type": "uint256"
        },
        {
          "indexed": false,
          "internalType": "uint256",
          "name": "_validatorCount",
          "type": "uint256"
        },
        {
          "indexed": false,
          "internalType": "uint256",
          "name": "_totalPower",
          "type": "uint256"
        }
      ],
      "name": "LogValidatorAdded",
      "type": "event"
    },
    {
      "anonymous": false,
      "inputs": [
        {
          "indexed": false,
          "internalType": "address",
          "name": "_validator",
          "type": "address"
        },
        {
          "indexed": false,
          "internalType": "uint256",
          "name": "_power",
          "type": "uint256"
        },
        {
          "indexed": false,
          "internalType": "uint256",
          "name": "_currentValsetVersion",
          "type": "uint256"
        },
        {
          "indexed": false,
          "internalType": "uint256",
          "name": "_validatorCount",
          "type": "uint256"
        },
        {
          "indexed": false,
          "internalType": "uint256",
          "name": "_totalPower",
          "type": "uint256"
        }
      ],
      "name": "LogValidatorPowerUpdated",
      "type": "event"
    },
    {
      "anonymous": false,
      "inputs": [
        {
          "indexed": false,
          "internalType": "address",
          "name": "_validator",
          "type": "address"
        },
        {
          "indexed": false,
          "internalType": "uint256",
          "name": "_power",
          "type": "uint256"
        },
        {
          "indexed": false,
          "internalType": "uint256",
          "name": "_currentValsetVersion",
          "type": "uint256"
        },
        {
          "indexed": false,
          "internalType": "uint256",
          "name": "_validatorCount",
          "type": "uint256"
        },
        {
          "indexed": false,
          "internalType": "uint256",
          "name": "_totalPower",
          "type": "uint256"
        }
      ],
      "name": "LogValidatorRemoved",
      "type": "event"
    },
    {
      "anonymous": false,
      "inputs": [
        {
          "indexed": false,
          "internalType": "uint256",
          "name": "_newValsetVersion",
          "type": "uint256"
        },
        {
          "indexed": false,
          "internalType": "uint256",
          "name": "_validatorCount",
          "type": "uint256"
        },
        {
          "indexed": false,
          "internalType": "uint256",
          "name": "_totalPower",
          "type": "uint256"
        }
      ],
      "name": "LogValsetReset",
      "type": "event"
    },
    {
      "anonymous": false,
      "inputs": [
        {
          "indexed": false,
          "internalType": "uint256",
          "name": "_newValsetVersion",
          "type": "uint256"
        },
        {
          "indexed": false,
          "internalType": "uint256",
          "name": "_validatorCount",
          "type": "uint256"
        },
        {
          "indexed": false,
          "internalType": "uint256",
          "name": "_totalPower",
          "type": "uint256"
        }
      ],
      "name": "LogValsetUpdated",
      "type": "event"
    },
    {
      "constant": true,
      "inputs": [],
      "name": "currentValsetVersion",
      "outputs": [
        {
          "internalType": "uint256",
          "name": "",
          "type": "uint256"
        }
      ],
      "payable": false,
      "stateMutability": "view",
      "type": "function"
    },
    {
      "constant": true,
      "inputs": [],
      "name": "operator",
      "outputs": [
        {
          "internalType": "address",
          "name": "",
          "type": "address"
        }
      ],
      "payable": false,
      "stateMutability": "view",
      "type": "function"
    },
    {
      "constant": true,
      "inputs": [
        {
          "internalType": "address",
          "name": "",
          "type": "address"
        },
        {
          "internalType": "uint256",
          "name": "",
          "type": "uint256"
        }
      ],
      "name": "powers",
      "outputs": [
        {
          "internalType": "uint256",
          "name": "",
          "type": "uint256"
        }
      ],
      "payable": false,
      "stateMutability": "view",
      "type": "function"
    },
    {
      "constant": true,
      "inputs": [],
      "name": "totalPower",
      "outputs": [
        {
          "internalType": "uint256",
          "name": "",
          "type": "uint256"
        }
      ],
      "payable": false,
      "stateMutability": "view",
      "type": "function"
    },
    {
      "constant": true,
      "inputs": [],
      "name": "validatorCount",
      "outputs": [
        {
          "internalType": "uint256",
          "name": "",
          "type": "uint256"
        }
      ],
      "payable": false,
      "stateMutability": "view",
      "type": "function"
    },
    {
      "constant": true,
      "inputs": [
        {
          "internalType": "address",
          "name": "",
          "type": "address"
        },
        {
          "internalType": "uint256",
          "name": "",
          "type": "uint256"
        }
      ],
      "name": "validators",
      "outputs": [
        {
          "internalType": "bool",
          "name": "",
          "type": "bool"
        }
      ],
      "payable": false,
      "stateMutability": "view",
      "type": "function"
    },
    {
      "constant": false,
      "inputs": [
        {
          "internalType": "address",
          "name": "_validatorAddress",
          "type": "address"
        },
        {
          "internalType": "uint256",
          "name": "_validatorPower",
          "type": "uint256"
        }
      ],
      "name": "addValidator",
      "outputs": [],
      "payable": false,
      "stateMutability": "nonpayable",
      "type": "function"
    },
    {
      "constant": false,
      "inputs": [
        {
          "internalType": "address",
          "name": "_validatorAddress",
          "type": "address"
        },
        {
          "internalType": "uint256",
          "name": "_newValidatorPower",
          "type": "uint256"
        }
      ],
      "name": "updateValidatorPower",
      "outputs": [],
      "payable": false,
      "stateMutability": "nonpayable",
      "type": "function"
    },
    {
      "constant": false,
      "inputs": [
        {
          "internalType": "address",
          "name": "_validatorAddress",
          "type": "address"
        }
      ],
      "name": "removeValidator",
      "outputs": [],
      "payable": false,
      "stateMutability": "nonpayable",
      "type": "function"
    },
    {
      "constant": false,
      "inputs": [
        {
          "internalType": "address[]",
          "name": "_validators",
          "type": "address[]"
        },
        {
          "internalType": "uint256[]",
          "name": "_powers",
          "type": "uint256[]"
        }
      ],
      "name": "updateValset",
      "outputs": [],
      "payable": false,
      "stateMutability": "nonpayable",
      "type": "function"
    },
    {
      "constant": true,
      "inputs": [
        {
          "internalType": "address",
          "name": "_validatorAddress",
          "type": "address"
        }
      ],
      "name": "isActiveValidator",
      "outputs": [
        {
          "internalType": "bool",
          "name": "",
          "type": "bool"
        }
      ],
      "payable": false,
      "stateMutability": "view",
      "type": "function"
    },
    {
      "constant": true,
      "inputs": [
        {
          "internalType": "address",
          "name": "_validatorAddress",
          "type": "address"
        }
      ],
      "name": "getValidatorPower",
      "outputs": [
        {
          "internalType": "uint256",
          "name": "",
          "type": "uint256"
        }
      ],
      "payable": false,
      "stateMutability": "view",
      "type": "function"
    },
    {
      "constant": false,
      "inputs": [
        {
          "internalType": "uint256",
          "name": "_valsetVersion",
          "type": "uint256"
        },
        {
          "internalType": "address",
          "name": "_validatorAddress",
          "type": "address"
        }
      ],
      "name": "recoverGas",
      "outputs": [],
      "payable": false,
      "stateMutability": "nonpayable",
      "type": "function"
    }
  ],
  "bytecode": "0x608060405234801561001057600080fd5b50610d66806100206000396000f3fe608060405234801561001057600080fd5b50600436106100df5760003560e01c8063570ca7351161008c5780638d56c37d116100665780638d56c37d14610355578063b5672be31461035d578063db3ad22c14610389578063fc6c1f0214610391576100df565b8063570ca735146101de578063788cf92f14610202578063850f43dd14610329576100df565b806340a141ff116100bd57806340a141ff1461016657806345aaf18c1461018c578063473691a4146101b8576100df565b80630f43a677146100e45780632e75293b146100fe57806340550a1c1461012c575b600080fd5b6100ec6103bd565b60408051918252519081900360200190f35b61012a6004803603604081101561011457600080fd5b506001600160a01b0381351690602001356103c3565b005b6101526004803603602081101561014257600080fd5b50356001600160a01b031661054b565b604080519115158252519081900360200190f35b61012a6004803603602081101561017c57600080fd5b50356001600160a01b0316610576565b610152600480360360408110156101a257600080fd5b506001600160a01b038135169060200135610719565b6100ec600480360360208110156101ce57600080fd5b50356001600160a01b0316610739565b6101e6610761565b604080516001600160a01b039092168252519081900360200190f35b61012a6004803603604081101561021857600080fd5b81019060208101813564010000000081111561023357600080fd5b82018360208201111561024557600080fd5b8035906020019184602083028401116401000000008311171561026757600080fd5b91908080602002602001604051908101604052809392919081815260200183836020028082843760009201919091525092959493602081019350359150506401000000008111156102b757600080fd5b8201836020820111156102c957600080fd5b803590602001918460208302840111640100000000831117156102eb57600080fd5b919080806020026020016040519081016040528093929190818152602001838360200280828437600092019190915250929550610770945050505050565b6100ec6004803603604081101561033f57600080fd5b506001600160a01b0381351690602001356108af565b6100ec6108cc565b61012a6004803603604081101561037357600080fd5b50803590602001356001600160a01b03166108d2565b6100ec6109af565b61012a600480360360408110156103a757600080fd5b506001600160a01b0381351690602001356109b5565b60025481565b6004546001600160a01b0316331461041a576040805162461bcd60e51b815260206004820152601560248201527426bab9ba103132903a34329037b832b930ba37b91760591b604482015290519081900360640190fd5b6001600160a01b0382166000908152600360209081526040808320600154845290915290205460ff1661047e5760405162461bcd60e51b815260040180806020018281038252602e815260200180610cd5602e913960400191505060405180910390fd5b6001600160a01b0382166000908152600560209081526040808320600154845290915281205490546104b6908263ffffffff610a1a16565b60008190556104cb908363ffffffff610a6316565b60009081556001600160a01b0384168082526005602090815260408084206001805486529083528185208790555460025494548251948552928401879052838201526060830193909352608082015290517f335940ce4119f8aae891d73dba74510a3d51f6210134d058237f26e6a31d53409181900360a00190a1505050565b6001600160a01b03166000908152600360209081526040808320600154845290915290205460ff1690565b6004546001600160a01b031633146105cd576040805162461bcd60e51b815260206004820152601560248201527426bab9ba103132903a34329037b832b930ba37b91760591b604482015290519081900360640190fd5b6001600160a01b0381166000908152600360209081526040808320600154845290915290205460ff166106315760405162461bcd60e51b8152600401808060200182810382526021815260200180610c7f6021913960400191505060405180910390fd5b60025461064590600163ffffffff610a1a16565b6002556001600160a01b03811660009081526005602090815260408083206001548452909152812054905461067f9163ffffffff610a1a16565b60009081556001600160a01b038216808252600360209081526040808420600180548652908352818520805460ff1916905583855260058352818520815486528352818520859055546002548554835195865293850195909552838201526060830193909352608082015290517f1241fb43a101ff98ab819a1882097d4ccada51ba60f326c1981cc48840f55b8c9181900360a00190a150565b600360209081526000928352604080842090915290825290205460ff1681565b6001600160a01b03166000908152600560209081526040808320600154845290915290205490565b6004546001600160a01b031681565b6004546001600160a01b031633146107c7576040805162461bcd60e51b815260206004820152601560248201527426bab9ba103132903a34329037b832b930ba37b91760591b604482015290519081900360640190fd5b80518251146108075760405162461bcd60e51b815260040180806020018281038252602f815260200180610d03602f913960400191505060405180910390fd5b61080f610abd565b60005b82518110156108635761084b83828151811061082a57fe5b602002602001015183838151811061083e57fe5b6020026020010151610b21565b61085c81600163ffffffff610a6316565b9050610812565b5060015460025460005460408051938452602084019290925282820152517f3a7ef0da3179668af8114719645585b5a37092ef2d66f187dcf63d83a221eaa69181900360600190a15050565b600560209081526000928352604080842090915290825290205481565b60015481565b6004546001600160a01b03163314610929576040805162461bcd60e51b815260206004820152601560248201527426bab9ba103132903a34329037b832b930ba37b91760591b604482015290519081900360640190fd5b60015482106109695760405162461bcd60e51b8152600401808060200182810382526035815260200180610ca06035913960400191505060405180910390fd5b6001600160a01b03166000818152600360209081526040808320600180548552908352818420805460ff1916905593835260058252808320935483529290529081205550565b60005481565b6004546001600160a01b03163314610a0c576040805162461bcd60e51b815260206004820152601560248201527426bab9ba103132903a34329037b832b930ba37b91760591b604482015290519081900360640190fd5b610a168282610b21565b5050565b6000610a5c83836040518060400160405280601e81526020017f536166654d6174683a207375627472616374696f6e206f766572666c6f770000815250610be7565b9392505050565b600082820183811015610a5c576040805162461bcd60e51b815260206004820152601b60248201527f536166654d6174683a206164646974696f6e206f766572666c6f770000000000604482015290519081900360640190fd5b60018054610ad09163ffffffff610a6316565b600181905560006002819055808055604080519283526020830182905282810191909152517fd870653e19f161500290fd0c4ca41bf5cf2bcb1ba66448f41c66c512dabd65f29181900360600190a1565b600254610b3590600163ffffffff610a6316565b600255600054610b4b908263ffffffff610a6316565b60009081556001600160a01b038316808252600360209081526040808420600180548652908352818520805460ff191682179055838552600583528185208154865283528185208690555460025494548251948552928401869052838201526060830193909352608082015290517f1a396bcf647502e902dce665d58a0c1b25f982f193ab9a1d0f1500d8d927bf2a9181900360a00190a15050565b60008184841115610c765760405162461bcd60e51b81526004018080602001828103825283818151815260200191508051906020019080838360005b83811015610c3b578181015183820152602001610c23565b50505050905090810190601f168015610c685780820380516001836020036101000a031916815260200191505b509250505060405180910390fd5b50505090039056fe43616e206f6e6c792072656d6f7665206163746976652076616c696461746f7273476173207265636f76657279206f6e6c7920616c6c6f77656420666f722070726576696f75732076616c696461746f72207365747343616e206f6e6c79207570646174652074686520706f776572206f66206163746976652076616c646961746f727345766572792076616c696461746f72206d7573742068617665206120636f72726573706f6e64696e6720706f776572a265627a7a72315820764942fd5beb34078cff6dc94eacff42ca047567f44ab4fdc72d4d5abba9d2fe64736f6c63430005100032",
  "source": "pragma solidity 0.5.16;\n\nimport \"../node_modules/openzeppelin-solidity/contracts/math/SafeMath.sol\";\nimport \"./ValsetStorage.sol\";\n\ncontract Valset is ValsetStorage {\n    using SafeMath for uint256;\n\n    bool private _initialized;\n\n    /*\n     * @dev: Event declarations\n     */\n    event LogValidatorAdded(\n        address _validator,\n        uint256 _power,\n        uint256 _currentValsetVersion,\n        uint256 _validatorCount,\n        uint256 _totalPower\n    );\n\n    event LogValidatorPowerUpdated(\n        address _validator,\n        uint256 _power,\n        uint256 _currentValsetVersion,\n        uint256 _validatorCount,\n        uint256 _totalPower\n    );\n\n    event LogValidatorRemoved(\n        address _validator,\n        uint256 _power,\n        uint256 _currentValsetVersion,\n        uint256 _validatorCount,\n        uint256 _totalPower\n    );\n\n    event LogValsetReset(\n        uint256 _newValsetVersion,\n        uint256 _validatorCount,\n        uint256 _totalPower\n    );\n\n    event LogValsetUpdated(\n        uint256 _newValsetVersion,\n        uint256 _validatorCount,\n        uint256 _totalPower\n    );\n\n    /*\n     * @dev: Modifier which restricts access to the operator.\n     */\n    modifier onlyOperator() {\n        require(msg.sender == operator, \"Must be the operator.\");\n        _;\n    }\n\n    /*\n     * @dev: Constructor\n     */\n    function _initialize(\n        address _operator,\n        address[] memory _initValidators,\n        uint256[] memory _initPowers\n    ) internal {\n        require(!_initialized, \"Initialized\");\n\n        operator = _operator;\n        currentValsetVersion = 0;\n        _initialized = true;\n\n        updateValset(_initValidators, _initPowers);\n    }\n\n    /*\n     * @dev: addValidator\n     */\n    function addValidator(address _validatorAddress, uint256 _validatorPower)\n        public\n        onlyOperator\n    {\n        addValidatorInternal(_validatorAddress, _validatorPower);\n    }\n\n    /*\n     * @dev: updateValidatorPower\n     */\n    function updateValidatorPower(\n        address _validatorAddress,\n        uint256 _newValidatorPower\n    ) public onlyOperator {\n\n        require(\n            validators[_validatorAddress][currentValsetVersion],\n            \"Can only update the power of active valdiators\"\n        );\n\n        // Adjust total power by new validator power\n        uint256 priorPower = powers[_validatorAddress][currentValsetVersion];\n        totalPower = totalPower.sub(priorPower);\n        totalPower = totalPower.add(_newValidatorPower);\n\n        // Set validator's new power\n        powers[_validatorAddress][currentValsetVersion] = _newValidatorPower;\n\n        emit LogValidatorPowerUpdated(\n            _validatorAddress,\n            _newValidatorPower,\n            currentValsetVersion,\n            validatorCount,\n            totalPower\n        );\n    }\n\n    /*\n     * @dev: removeValidator\n     */\n    function removeValidator(address _validatorAddress) public onlyOperator {\n        require(validators[_validatorAddress][currentValsetVersion], \"Can only remove active validators\");\n\n        // Update validator count and total power\n        validatorCount = validatorCount.sub(1);\n        totalPower = totalPower.sub(powers[_validatorAddress][currentValsetVersion]);\n\n        // Delete validator and power\n        delete validators[_validatorAddress][currentValsetVersion];\n        delete powers[_validatorAddress][currentValsetVersion];\n\n        emit LogValidatorRemoved(\n            _validatorAddress,\n            0,\n            currentValsetVersion,\n            validatorCount,\n            totalPower\n        );\n    }\n\n    /*\n     * @dev: updateValset\n     */\n    function updateValset(\n        address[] memory _validators,\n        uint256[] memory _powers\n    ) public onlyOperator {\n        require(\n            _validators.length == _powers.length,\n            \"Every validator must have a corresponding power\"\n        );\n\n        resetValset();\n\n        for (uint256 i = 0; i < _validators.length; i = i.add(1)) {\n            addValidatorInternal(_validators[i], _powers[i]);\n        }\n\n        emit LogValsetUpdated(currentValsetVersion, validatorCount, totalPower);\n    }\n\n    /*\n     * @dev: isActiveValidator\n     */\n    function isActiveValidator(address _validatorAddress)\n        public\n        view\n        returns (bool)\n    {\n        // Return bool indicating if this address is an active validator\n        return validators[_validatorAddress][currentValsetVersion];\n    }\n\n    /*\n     * @dev: getValidatorPower\n     */\n    function getValidatorPower(address _validatorAddress)\n        external\n        view\n        returns (uint256)\n    {\n        return powers[_validatorAddress][currentValsetVersion];\n    }\n\n    /*\n     * @dev: recoverGas\n     */\n    function recoverGas(uint256 _valsetVersion, address _validatorAddress)\n        external\n        onlyOperator\n    {\n        require(\n            _valsetVersion < currentValsetVersion,\n            \"Gas recovery only allowed for previous validator sets\"\n        );\n        // Delete from mappings and recover gas\n        delete (validators[_validatorAddress][currentValsetVersion]);\n        delete (powers[_validatorAddress][currentValsetVersion]);\n    }\n\n    /*\n     * @dev: addValidatorInternal\n     */\n    function addValidatorInternal(\n        address _validatorAddress,\n        uint256 _validatorPower\n    ) internal {\n        validatorCount = validatorCount.add(1);\n        totalPower = totalPower.add(_validatorPower);\n\n        // Set validator as active and set their power\n        validators[_validatorAddress][currentValsetVersion] = true;\n        powers[_validatorAddress][currentValsetVersion] = _validatorPower;\n\n        emit LogValidatorAdded(\n            _validatorAddress,\n            _validatorPower,\n            currentValsetVersion,\n            validatorCount,\n            totalPower\n        );\n    }\n\n    /*\n     * @dev: resetValset\n     */\n    function resetValset() internal {\n        currentValsetVersion = currentValsetVersion.add(1);\n        validatorCount = 0;\n        totalPower = 0;\n\n        emit LogValsetReset(currentValsetVersion, validatorCount, totalPower);\n    }\n}\n",
  "sourcePath": "/Users/bjmcd/Documents/Development/Clients/sifchain/sifnode/smart-contracts/contracts/Valset.sol",
  "compiler": {
    "name": "solc",
    "version": "0.5.16+commit.9c3226ce.Emscripten.clang"
  },
  "schemaVersion": "3.3.2",
  "updatedAt": "2021-02-10T02:47:28.177Z",
  "devdoc": {
    "methods": {}
  },
  "userdoc": {
    "methods": {}
  }
}