{
  "fileName": "ConditionalEscrowMock.sol",
  "contractName": "ConditionalEscrowMock",
  "source": "pragma solidity ^0.5.0;\n\nimport \"../payment/escrow/ConditionalEscrow.sol\";\n\n// mock class using ConditionalEscrow\ncontract ConditionalEscrowMock is ConditionalEscrow {\n    mapping(address => bool) private _allowed;\n\n    function setAllowed(address payee, bool allowed) public {\n        _allowed[payee] = allowed;\n    }\n\n    function withdrawalAllowed(address payee) public view returns (bool) {\n        return _allowed[payee];\n    }\n}\n",
  "sourcePath": "contracts/mocks/ConditionalEscrowMock.sol",
  "abi": [
    {
      "anonymous": false,
      "inputs": [
        {
          "indexed": true,
          "internalType": "address",
          "name": "payee",
          "type": "address"
        },
        {
          "indexed": false,
          "internalType": "uint256",
          "name": "weiAmount",
          "type": "uint256"
        }
      ],
      "name": "Deposited",
      "type": "event"
    },
    {
      "anonymous": false,
      "inputs": [
        {
          "indexed": false,
          "internalType": "address",
          "name": "recipient",
          "type": "address"
        }
      ],
      "name": "PrimaryTransferred",
      "type": "event"
    },
    {
      "anonymous": false,
      "inputs": [
        {
          "indexed": true,
          "internalType": "address",
          "name": "payee",
          "type": "address"
        },
        {
          "indexed": false,
          "internalType": "uint256",
          "name": "weiAmount",
          "type": "uint256"
        }
      ],
      "name": "Withdrawn",
      "type": "event"
    },
    {
      "constant": false,
      "inputs": [
        {
          "internalType": "address",
          "name": "payee",
          "type": "address"
        }
      ],
      "name": "deposit",
      "outputs": [],
      "payable": true,
      "stateMutability": "payable",
      "type": "function"
    },
    {
      "constant": true,
      "inputs": [
        {
          "internalType": "address",
          "name": "payee",
          "type": "address"
        }
      ],
      "name": "depositsOf",
      "outputs": [
        {
          "internalType": "uint256",
          "name": "",
          "type": "uint256"
        }
      ],
      "payable": false,
      "stateMutability": "view",
      "type": "function"
    },
    {
      "constant": true,
      "inputs": [],
      "name": "primary",
      "outputs": [
        {
          "internalType": "address",
          "name": "",
          "type": "address"
        }
      ],
      "payable": false,
      "stateMutability": "view",
      "type": "function"
    },
    {
      "constant": false,
      "inputs": [
        {
          "internalType": "address",
          "name": "payee",
          "type": "address"
        },
        {
          "internalType": "bool",
          "name": "allowed",
          "type": "bool"
        }
      ],
      "name": "setAllowed",
      "outputs": [],
      "payable": false,
      "stateMutability": "nonpayable",
      "type": "function"
    },
    {
      "constant": false,
      "inputs": [
        {
          "internalType": "address",
          "name": "recipient",
          "type": "address"
        }
      ],
      "name": "transferPrimary",
      "outputs": [],
      "payable": false,
      "stateMutability": "nonpayable",
      "type": "function"
    },
    {
      "constant": false,
      "inputs": [
        {
          "internalType": "address payable",
          "name": "payee",
          "type": "address"
        }
      ],
      "name": "withdraw",
      "outputs": [],
      "payable": false,
      "stateMutability": "nonpayable",
      "type": "function"
    },
    {
      "constant": false,
      "inputs": [
        {
          "internalType": "address payable",
          "name": "payee",
          "type": "address"
        }
      ],
      "name": "withdrawWithGas",
      "outputs": [],
      "payable": false,
      "stateMutability": "nonpayable",
      "type": "function"
    },
    {
      "constant": true,
      "inputs": [
        {
          "internalType": "address",
          "name": "payee",
          "type": "address"
        }
      ],
      "name": "withdrawalAllowed",
      "outputs": [
        {
          "internalType": "bool",
          "name": "",
          "type": "bool"
        }
      ],
      "payable": false,
      "stateMutability": "view",
      "type": "function"
    }
  ],
  "bytecode": "0x608060405260006100146100bf60201b60201c565b9050806000806101000a81548173ffffffffffffffffffffffffffffffffffffffff021916908373ffffffffffffffffffffffffffffffffffffffff1602179055507f4101e71e974f68df5e9730cc223280b41654676bbb052cdcc735c3337e64d2d981604051808273ffffffffffffffffffffffffffffffffffffffff1673ffffffffffffffffffffffffffffffffffffffff16815260200191505060405180910390a1506100c7565b600033905090565b610e8d806100d66000396000f3fe60806040526004361061007b5760003560e01c8063685ca1941161004e578063685ca194146101d0578063c6dbdf6114610239578063e3a9db1a14610290578063f340fa01146102f55761007b565b80632348238c146100805780634697f05d146100d157806351cff8d91461012e5780636809691a1461017f575b600080fd5b34801561008c57600080fd5b506100cf600480360360208110156100a357600080fd5b81019080803573ffffffffffffffffffffffffffffffffffffffff169060200190929190505050610339565b005b3480156100dd57600080fd5b5061012c600480360360408110156100f457600080fd5b81019080803573ffffffffffffffffffffffffffffffffffffffff169060200190929190803515159060200190929190505050610511565b005b34801561013a57600080fd5b5061017d6004803603602081101561015157600080fd5b81019080803573ffffffffffffffffffffffffffffffffffffffff16906020019092919050505061056c565b005b34801561018b57600080fd5b506101ce600480360360208110156101a257600080fd5b81019080803573ffffffffffffffffffffffffffffffffffffffff1690602001909291905050506105d6565b005b3480156101dc57600080fd5b5061021f600480360360208110156101f357600080fd5b81019080803573ffffffffffffffffffffffffffffffffffffffff169060200190929190505050610786565b604051808215151515815260200191505060405180910390f35b34801561024557600080fd5b5061024e6107dc565b604051808273ffffffffffffffffffffffffffffffffffffffff1673ffffffffffffffffffffffffffffffffffffffff16815260200191505060405180910390f35b34801561029c57600080fd5b506102df600480360360208110156102b357600080fd5b81019080803573ffffffffffffffffffffffffffffffffffffffff169060200190929190505050610805565b6040518082815260200191505060405180910390f35b6103376004803603602081101561030b57600080fd5b81019080803573ffffffffffffffffffffffffffffffffffffffff16906020019092919050505061084e565b005b6000809054906101000a900473ffffffffffffffffffffffffffffffffffffffff1673ffffffffffffffffffffffffffffffffffffffff166103796109e6565b73ffffffffffffffffffffffffffffffffffffffff16146103e5576040517f08c379a000000000000000000000000000000000000000000000000000000000815260040180806020018281038252602c815260200180610e2d602c913960400191505060405180910390fd5b600073ffffffffffffffffffffffffffffffffffffffff168173ffffffffffffffffffffffffffffffffffffffff16141561046b576040517f08c379a000000000000000000000000000000000000000000000000000000000815260040180806020018281038252602a815260200180610e03602a913960400191505060405180910390fd5b806000806101000a81548173ffffffffffffffffffffffffffffffffffffffff021916908373ffffffffffffffffffffffffffffffffffffffff1602179055507f4101e71e974f68df5e9730cc223280b41654676bbb052cdcc735c3337e64d2d981604051808273ffffffffffffffffffffffffffffffffffffffff1673ffffffffffffffffffffffffffffffffffffffff16815260200191505060405180910390a150565b80600260008473ffffffffffffffffffffffffffffffffffffffff1673ffffffffffffffffffffffffffffffffffffffff16815260200190815260200160002060006101000a81548160ff0219169083151502179055505050565b61057581610786565b6105ca576040517f08c379a0000000000000000000000000000000000000000000000000000000008152600401808060200182810382526033815260200180610dd06033913960400191505060405180910390fd5b6105d3816109ee565b50565b6000809054906101000a900473ffffffffffffffffffffffffffffffffffffffff1673ffffffffffffffffffffffffffffffffffffffff166106166109e6565b73ffffffffffffffffffffffffffffffffffffffff1614610682576040517f08c379a000000000000000000000000000000000000000000000000000000000815260040180806020018281038252602c815260200180610e2d602c913960400191505060405180910390fd5b6000600160008373ffffffffffffffffffffffffffffffffffffffff1673ffffffffffffffffffffffffffffffffffffffff1681526020019081526020016000205490506000600160008473ffffffffffffffffffffffffffffffffffffffff1673ffffffffffffffffffffffffffffffffffffffff16815260200190815260200160002081905550610734818373ffffffffffffffffffffffffffffffffffffffff16610bbc90919063ffffffff16565b8173ffffffffffffffffffffffffffffffffffffffff167f7084f5476618d8e60b11ef0d7d3f06914655adb8793e28ff7f018d4c76d505d5826040518082815260200191505060405180910390a25050565b6000600260008373ffffffffffffffffffffffffffffffffffffffff1673ffffffffffffffffffffffffffffffffffffffff16815260200190815260200160002060009054906101000a900460ff169050919050565b60008060009054906101000a900473ffffffffffffffffffffffffffffffffffffffff16905090565b6000600160008373ffffffffffffffffffffffffffffffffffffffff1673ffffffffffffffffffffffffffffffffffffffff168152602001908152602001600020549050919050565b6000809054906101000a900473ffffffffffffffffffffffffffffffffffffffff1673ffffffffffffffffffffffffffffffffffffffff1661088e6109e6565b73ffffffffffffffffffffffffffffffffffffffff16146108fa576040517f08c379a000000000000000000000000000000000000000000000000000000000815260040180806020018281038252602c815260200180610e2d602c913960400191505060405180910390fd5b600034905061095181600160008573ffffffffffffffffffffffffffffffffffffffff1673ffffffffffffffffffffffffffffffffffffffff16815260200190815260200160002054610d0d90919063ffffffff16565b600160008473ffffffffffffffffffffffffffffffffffffffff1673ffffffffffffffffffffffffffffffffffffffff168152602001908152602001600020819055508173ffffffffffffffffffffffffffffffffffffffff167f2da466a7b24304f47e87fa2e1e5a81b9831ce54fec19055ce277ca2f39ba42c4826040518082815260200191505060405180910390a25050565b600033905090565b6000809054906101000a900473ffffffffffffffffffffffffffffffffffffffff1673ffffffffffffffffffffffffffffffffffffffff16610a2e6109e6565b73ffffffffffffffffffffffffffffffffffffffff1614610a9a576040517f08c379a000000000000000000000000000000000000000000000000000000000815260040180806020018281038252602c815260200180610e2d602c913960400191505060405180910390fd5b6000600160008373ffffffffffffffffffffffffffffffffffffffff1673ffffffffffffffffffffffffffffffffffffffff1681526020019081526020016000205490506000600160008473ffffffffffffffffffffffffffffffffffffffff1673ffffffffffffffffffffffffffffffffffffffff168152602001908152602001600020819055508173ffffffffffffffffffffffffffffffffffffffff166108fc829081150290604051600060405180830381858888f19350505050158015610b69573d6000803e3d6000fd5b508173ffffffffffffffffffffffffffffffffffffffff167f7084f5476618d8e60b11ef0d7d3f06914655adb8793e28ff7f018d4c76d505d5826040518082815260200191505060405180910390a25050565b803073ffffffffffffffffffffffffffffffffffffffff16311015610c49576040517f08c379a000000000000000000000000000000000000000000000000000000000815260040180806020018281038252601d8152602001807f416464726573733a20696e73756666696369656e742062616c616e636500000081525060200191505060405180910390fd5b60008273ffffffffffffffffffffffffffffffffffffffff168260405180600001905060006040518083038185875af1925050503d8060008114610ca9576040519150601f19603f3d011682016040523d82523d6000602084013e610cae565b606091505b5050905080610d08576040517f08c379a000000000000000000000000000000000000000000000000000000000815260040180806020018281038252603a815260200180610d96603a913960400191505060405180910390fd5b505050565b600080828401905083811015610d8b576040517f08c379a000000000000000000000000000000000000000000000000000000000815260040180806020018281038252601b8152602001807f536166654d6174683a206164646974696f6e206f766572666c6f77000000000081525060200191505060405180910390fd5b809150509291505056fe416464726573733a20756e61626c6520746f2073656e642076616c75652c20726563697069656e74206d61792068617665207265766572746564436f6e646974696f6e616c457363726f773a207061796565206973206e6f7420616c6c6f77656420746f2077697468647261775365636f6e646172793a206e6577207072696d61727920697320746865207a65726f20616464726573735365636f6e646172793a2063616c6c6572206973206e6f7420746865207072696d617279206163636f756e74a265627a7a7231582002cae0201e7ce80052aa29d8da377b76395d64f3d6b7486871c4b370b1a5684e64736f6c63430005110032",
  "compiler": {
    "name": "solc",
    "version": "0.5.17+commit.d19bba13.Emscripten.clang",
    "optimizer": {
      "enabled": false,
      "runs": 200
    },
    "evmVersion": "petersburg"
  }
}