{
  "fileName": "Create2Impl.sol",
  "contractName": "Create2Impl",
  "source": "pragma solidity ^0.5.0;\n\nimport \"../utils/Create2.sol\";\nimport \"../token/ERC20/ERC20.sol\";\n\ncontract Create2Impl {\n    function deploy(bytes32 salt, bytes memory code) public {\n        Create2.deploy(salt, code);\n    }\n\n    function deployERC20(bytes32 salt) public {\n        // solhint-disable-next-line indent\n        Create2.deploy(salt, type(ERC20).creationCode);\n    }\n\n    function computeAddress(bytes32 salt, bytes memory code) public view returns (address) {\n        return Create2.computeAddress(salt, code);\n    }\n\n    function computeAddress(bytes32 salt, bytes memory code, address deployer) public pure returns (address) {\n        return Create2.computeAddress(salt, code, deployer);\n    }\n}\n",
  "sourcePath": "contracts/mocks/Create2Impl.sol",
  "abi": [
    {
      "constant": true,
      "inputs": [
        {
          "internalType": "bytes32",
          "name": "salt",
          "type": "bytes32"
        },
        {
          "internalType": "bytes",
          "name": "code",
          "type": "bytes"
        },
        {
          "internalType": "address",
          "name": "deployer",
          "type": "address"
        }
      ],
      "name": "computeAddress",
      "outputs": [
        {
          "internalType": "address",
          "name": "",
          "type": "address"
        }
      ],
      "payable": false,
      "stateMutability": "pure",
      "type": "function"
    },
    {
      "constant": true,
      "inputs": [
        {
          "internalType": "bytes32",
          "name": "salt",
          "type": "bytes32"
        },
        {
          "internalType": "bytes",
          "name": "code",
          "type": "bytes"
        }
      ],
      "name": "computeAddress",
      "outputs": [
        {
          "internalType": "address",
          "name": "",
          "type": "address"
        }
      ],
      "payable": false,
      "stateMutability": "view",
      "type": "function"
    },
    {
      "constant": false,
      "inputs": [
        {
          "internalType": "bytes32",
          "name": "salt",
          "type": "bytes32"
        },
        {
          "internalType": "bytes",
          "name": "code",
          "type": "bytes"
        }
      ],
      "name": "deploy",
      "outputs": [],
      "payable": false,
      "stateMutability": "nonpayable",
      "type": "function"
    },
    {
      "constant": false,
      "inputs": [
        {
          "internalType": "bytes32",
          "name": "salt",
          "type": "bytes32"
        }
      ],
      "name": "deployERC20",
      "outputs": [],
      "payable": false,
      "stateMutability": "nonpayable",
      "type": "function"
    }
  ],
  "bytecode": "0x608060405234801561001057600080fd5b50611412806100206000396000f3fe608060405234801561001057600080fd5b506004361061004c5760003560e01c8063a318097814610051578063ca9ffe9414610176578063cdcb760a1461027b578063f48fdcd314610340575b600080fd5b6101346004803603606081101561006757600080fd5b81019080803590602001909291908035906020019064010000000081111561008e57600080fd5b8201836020820111156100a057600080fd5b803590602001918460018302840111640100000000831117156100c257600080fd5b91908080601f016020809104026020016040519081016040528093929190818152602001838380828437600081840152601f19601f820116905080830192505050505050509192919290803573ffffffffffffffffffffffffffffffffffffffff16906020019092919050505061036e565b604051808273ffffffffffffffffffffffffffffffffffffffff1673ffffffffffffffffffffffffffffffffffffffff16815260200191505060405180910390f35b6102396004803603604081101561018c57600080fd5b8101908080359060200190929190803590602001906401000000008111156101b357600080fd5b8201836020820111156101c557600080fd5b803590602001918460018302840111640100000000831117156101e757600080fd5b91908080601f016020809104026020016040519081016040528093929190818152602001838380828437600081840152601f19601f820116905080830192505050505050509192919290505050610384565b604051808273ffffffffffffffffffffffffffffffffffffffff1673ffffffffffffffffffffffffffffffffffffffff16815260200191505060405180910390f35b61033e6004803603604081101561029157600080fd5b8101908080359060200190929190803590602001906401000000008111156102b857600080fd5b8201836020820111156102ca57600080fd5b803590602001918460018302840111640100000000831117156102ec57600080fd5b91908080601f016020809104026020016040519081016040528093929190818152602001838380828437600081840152601f19601f820116905080830192505050505050509192919290505050610398565b005b61036c6004803603602081101561035657600080fd5b81019080803590602001909291905050506103a7565b005b600061037b8484846103d8565b90509392505050565b600061039083836104b2565b905092915050565b6103a282826104c7565b505050565b6103d481604051806020016103bb90610583565b6020820181038252601f19601f820116604052506104c7565b5050565b60008083805190602001209050600060ff60f81b84878460405160200180857effffffffffffffffffffffffffffffffffffffffffffffffffffffffffffff19167effffffffffffffffffffffffffffffffffffffffffffffffffffffffffffff191681526001018473ffffffffffffffffffffffffffffffffffffffff1673ffffffffffffffffffffffffffffffffffffffff1660601b8152601401838152602001828152602001945050505050604051602081830303815290604052805190602001209050606081901b60601c925050509392505050565b60006104bf8383306103d8565b905092915050565b600080838351602085016000f59050600073ffffffffffffffffffffffffffffffffffffffff168173ffffffffffffffffffffffffffffffffffffffff161415610579576040517f08c379a00000000000000000000000000000000000000000000000000000000081526004018080602001828103825260198152602001807f437265617465323a204661696c6564206f6e206465706c6f790000000000000081525060200191505060405180910390fd5b8091505092915050565b610e4d806105918339019056fe6080604052610e3a806100136000396000f3fe608060405234801561001057600080fd5b50600436106100885760003560e01c806370a082311161005b57806370a08231146101fd578063a457c2d714610255578063a9059cbb146102bb578063dd62ed3e1461032157610088565b8063095ea7b31461008d57806318160ddd146100f357806323b872dd146101115780633950935114610197575b600080fd5b6100d9600480360360408110156100a357600080fd5b81019080803573ffffffffffffffffffffffffffffffffffffffff16906020019092919080359060200190929190505050610399565b604051808215151515815260200191505060405180910390f35b6100fb6103b7565b6040518082815260200191505060405180910390f35b61017d6004803603606081101561012757600080fd5b81019080803573ffffffffffffffffffffffffffffffffffffffff169060200190929190803573ffffffffffffffffffffffffffffffffffffffff169060200190929190803590602001909291905050506103c1565b604051808215151515815260200191505060405180910390f35b6101e3600480360360408110156101ad57600080fd5b81019080803573ffffffffffffffffffffffffffffffffffffffff1690602001909291908035906020019092919050505061049a565b604051808215151515815260200191505060405180910390f35b61023f6004803603602081101561021357600080fd5b81019080803573ffffffffffffffffffffffffffffffffffffffff16906020019092919050505061054d565b6040518082815260200191505060405180910390f35b6102a16004803603604081101561026b57600080fd5b81019080803573ffffffffffffffffffffffffffffffffffffffff16906020019092919080359060200190929190505050610595565b604051808215151515815260200191505060405180910390f35b610307600480360360408110156102d157600080fd5b81019080803573ffffffffffffffffffffffffffffffffffffffff16906020019092919080359060200190929190505050610662565b604051808215151515815260200191505060405180910390f35b6103836004803603604081101561033757600080fd5b81019080803573ffffffffffffffffffffffffffffffffffffffff169060200190929190803573ffffffffffffffffffffffffffffffffffffffff169060200190929190505050610680565b6040518082815260200191505060405180910390f35b60006103ad6103a6610707565b848461070f565b6001905092915050565b6000600254905090565b60006103ce848484610906565b61048f846103da610707565b61048a85604051806060016040528060288152602001610d7060289139600160008b73ffffffffffffffffffffffffffffffffffffffff1673ffffffffffffffffffffffffffffffffffffffff1681526020019081526020016000206000610440610707565b73ffffffffffffffffffffffffffffffffffffffff1673ffffffffffffffffffffffffffffffffffffffff16815260200190815260200160002054610bbc9092919063ffffffff16565b61070f565b600190509392505050565b60006105436104a7610707565b8461053e85600160006104b8610707565b73ffffffffffffffffffffffffffffffffffffffff1673ffffffffffffffffffffffffffffffffffffffff16815260200190815260200160002060008973ffffffffffffffffffffffffffffffffffffffff1673ffffffffffffffffffffffffffffffffffffffff16815260200190815260200160002054610c7c90919063ffffffff16565b61070f565b6001905092915050565b60008060008373ffffffffffffffffffffffffffffffffffffffff1673ffffffffffffffffffffffffffffffffffffffff168152602001908152602001600020549050919050565b60006106586105a2610707565b8461065385604051806060016040528060258152602001610de160259139600160006105cc610707565b73ffffffffffffffffffffffffffffffffffffffff1673ffffffffffffffffffffffffffffffffffffffff16815260200190815260200160002060008a73ffffffffffffffffffffffffffffffffffffffff1673ffffffffffffffffffffffffffffffffffffffff16815260200190815260200160002054610bbc9092919063ffffffff16565b61070f565b6001905092915050565b600061067661066f610707565b8484610906565b6001905092915050565b6000600160008473ffffffffffffffffffffffffffffffffffffffff1673ffffffffffffffffffffffffffffffffffffffff16815260200190815260200160002060008373ffffffffffffffffffffffffffffffffffffffff1673ffffffffffffffffffffffffffffffffffffffff16815260200190815260200160002054905092915050565b600033905090565b600073ffffffffffffffffffffffffffffffffffffffff168373ffffffffffffffffffffffffffffffffffffffff161415610795576040517f08c379a0000000000000000000000000000000000000000000000000000000008152600401808060200182810382526024815260200180610dbd6024913960400191505060405180910390fd5b600073ffffffffffffffffffffffffffffffffffffffff168273ffffffffffffffffffffffffffffffffffffffff16141561081b576040517f08c379a0000000000000000000000000000000000000000000000000000000008152600401808060200182810382526022815260200180610d286022913960400191505060405180910390fd5b80600160008573ffffffffffffffffffffffffffffffffffffffff1673ffffffffffffffffffffffffffffffffffffffff16815260200190815260200160002060008473ffffffffffffffffffffffffffffffffffffffff1673ffffffffffffffffffffffffffffffffffffffff168152602001908152602001600020819055508173ffffffffffffffffffffffffffffffffffffffff168373ffffffffffffffffffffffffffffffffffffffff167f8c5be1e5ebec7d5bd14f71427d1e84f3dd0314c0f7b2291e5b200ac8c7c3b925836040518082815260200191505060405180910390a3505050565b600073ffffffffffffffffffffffffffffffffffffffff168373ffffffffffffffffffffffffffffffffffffffff16141561098c576040517f08c379a0000000000000000000000000000000000000000000000000000000008152600401808060200182810382526025815260200180610d986025913960400191505060405180910390fd5b600073ffffffffffffffffffffffffffffffffffffffff168273ffffffffffffffffffffffffffffffffffffffff161415610a12576040517f08c379a0000000000000000000000000000000000000000000000000000000008152600401808060200182810382526023815260200180610d056023913960400191505060405180910390fd5b610a7d81604051806060016040528060268152602001610d4a602691396000808773ffffffffffffffffffffffffffffffffffffffff1673ffffffffffffffffffffffffffffffffffffffff16815260200190815260200160002054610bbc9092919063ffffffff16565b6000808573ffffffffffffffffffffffffffffffffffffffff1673ffffffffffffffffffffffffffffffffffffffff16815260200190815260200160002081905550610b10816000808573ffffffffffffffffffffffffffffffffffffffff1673ffffffffffffffffffffffffffffffffffffffff16815260200190815260200160002054610c7c90919063ffffffff16565b6000808473ffffffffffffffffffffffffffffffffffffffff1673ffffffffffffffffffffffffffffffffffffffff168152602001908152602001600020819055508173ffffffffffffffffffffffffffffffffffffffff168373ffffffffffffffffffffffffffffffffffffffff167fddf252ad1be2c89b69c2b068fc378daa952ba7f163c4a11628f55a4df523b3ef836040518082815260200191505060405180910390a3505050565b6000838311158290610c69576040517f08c379a00000000000000000000000000000000000000000000000000000000081526004018080602001828103825283818151815260200191508051906020019080838360005b83811015610c2e578082015181840152602081019050610c13565b50505050905090810190601f168015610c5b5780820380516001836020036101000a031916815260200191505b509250505060405180910390fd5b5060008385039050809150509392505050565b600080828401905083811015610cfa576040517f08c379a000000000000000000000000000000000000000000000000000000000815260040180806020018281038252601b8152602001807f536166654d6174683a206164646974696f6e206f766572666c6f77000000000081525060200191505060405180910390fd5b809150509291505056fe45524332303a207472616e7366657220746f20746865207a65726f206164647265737345524332303a20617070726f766520746f20746865207a65726f206164647265737345524332303a207472616e7366657220616d6f756e7420657863656564732062616c616e636545524332303a207472616e7366657220616d6f756e74206578636565647320616c6c6f77616e636545524332303a207472616e736665722066726f6d20746865207a65726f206164647265737345524332303a20617070726f76652066726f6d20746865207a65726f206164647265737345524332303a2064656372656173656420616c6c6f77616e63652062656c6f77207a65726fa265627a7a723158206cc6bdd768f40c12ad2a9a57b8c49e2e197daea71d2a76c2c64f2675d1680a2564736f6c63430005110032a265627a7a723158201a23f8f47a61b0f5f06041a304b5eacdfa3c895df7e1013bb91a049bdd0b626a64736f6c63430005110032",
  "compiler": {
    "name": "solc",
    "version": "0.5.17+commit.d19bba13.Emscripten.clang",
    "optimizer": {
      "enabled": false,
      "runs": 200
    },
    "evmVersion": "petersburg"
  }
}