{
  "fileName": "ERC721GSNRecipientMock.sol",
  "contractName": "ERC721GSNRecipientMock",
  "source": "pragma solidity ^0.5.0;\n\nimport \"../token/ERC721/ERC721.sol\";\nimport \"../GSN/GSNRecipient.sol\";\nimport \"../GSN/GSNRecipientSignature.sol\";\n\n/**\n * @title ERC721GSNRecipientMock\n * A simple ERC721 mock that has GSN support enabled\n */\ncontract ERC721GSNRecipientMock is ERC721, GSNRecipient, GSNRecipientSignature {\n    constructor(address trustedSigner) public GSNRecipientSignature(trustedSigner) { }\n    // solhint-disable-previous-line no-empty-blocks\n\n    function mint(uint256 tokenId) public {\n        _mint(_msgSender(), tokenId);\n    }\n}\n",
  "sourcePath": "contracts/mocks/ERC721GSNRecipientMock.sol",
  "abi": [
    {
      "inputs": [
        {
          "internalType": "address",
          "name": "trustedSigner",
          "type": "address"
        }
      ],
      "payable": false,
      "stateMutability": "nonpayable",
      "type": "constructor"
    },
    {
      "anonymous": false,
      "inputs": [
        {
          "indexed": true,
          "internalType": "address",
          "name": "owner",
          "type": "address"
        },
        {
          "indexed": true,
          "internalType": "address",
          "name": "approved",
          "type": "address"
        },
        {
          "indexed": true,
          "internalType": "uint256",
          "name": "tokenId",
          "type": "uint256"
        }
      ],
      "name": "Approval",
      "type": "event"
    },
    {
      "anonymous": false,
      "inputs": [
        {
          "indexed": true,
          "internalType": "address",
          "name": "owner",
          "type": "address"
        },
        {
          "indexed": true,
          "internalType": "address",
          "name": "operator",
          "type": "address"
        },
        {
          "indexed": false,
          "internalType": "bool",
          "name": "approved",
          "type": "bool"
        }
      ],
      "name": "ApprovalForAll",
      "type": "event"
    },
    {
      "anonymous": false,
      "inputs": [
        {
          "indexed": true,
          "internalType": "address",
          "name": "oldRelayHub",
          "type": "address"
        },
        {
          "indexed": true,
          "internalType": "address",
          "name": "newRelayHub",
          "type": "address"
        }
      ],
      "name": "RelayHubChanged",
      "type": "event"
    },
    {
      "anonymous": false,
      "inputs": [
        {
          "indexed": true,
          "internalType": "address",
          "name": "from",
          "type": "address"
        },
        {
          "indexed": true,
          "internalType": "address",
          "name": "to",
          "type": "address"
        },
        {
          "indexed": true,
          "internalType": "uint256",
          "name": "tokenId",
          "type": "uint256"
        }
      ],
      "name": "Transfer",
      "type": "event"
    },
    {
      "constant": true,
      "inputs": [
        {
          "internalType": "address",
          "name": "relay",
          "type": "address"
        },
        {
          "internalType": "address",
          "name": "from",
          "type": "address"
        },
        {
          "internalType": "bytes",
          "name": "encodedFunction",
          "type": "bytes"
        },
        {
          "internalType": "uint256",
          "name": "transactionFee",
          "type": "uint256"
        },
        {
          "internalType": "uint256",
          "name": "gasPrice",
          "type": "uint256"
        },
        {
          "internalType": "uint256",
          "name": "gasLimit",
          "type": "uint256"
        },
        {
          "internalType": "uint256",
          "name": "nonce",
          "type": "uint256"
        },
        {
          "internalType": "bytes",
          "name": "approvalData",
          "type": "bytes"
        },
        {
          "internalType": "uint256",
          "name": "",
          "type": "uint256"
        }
      ],
      "name": "acceptRelayedCall",
      "outputs": [
        {
          "internalType": "uint256",
          "name": "",
          "type": "uint256"
        },
        {
          "internalType": "bytes",
          "name": "",
          "type": "bytes"
        }
      ],
      "payable": false,
      "stateMutability": "view",
      "type": "function"
    },
    {
      "constant": false,
      "inputs": [
        {
          "internalType": "address",
          "name": "to",
          "type": "address"
        },
        {
          "internalType": "uint256",
          "name": "tokenId",
          "type": "uint256"
        }
      ],
      "name": "approve",
      "outputs": [],
      "payable": false,
      "stateMutability": "nonpayable",
      "type": "function"
    },
    {
      "constant": true,
      "inputs": [
        {
          "internalType": "address",
          "name": "owner",
          "type": "address"
        }
      ],
      "name": "balanceOf",
      "outputs": [
        {
          "internalType": "uint256",
          "name": "",
          "type": "uint256"
        }
      ],
      "payable": false,
      "stateMutability": "view",
      "type": "function"
    },
    {
      "constant": true,
      "inputs": [
        {
          "internalType": "uint256",
          "name": "tokenId",
          "type": "uint256"
        }
      ],
      "name": "getApproved",
      "outputs": [
        {
          "internalType": "address",
          "name": "",
          "type": "address"
        }
      ],
      "payable": false,
      "stateMutability": "view",
      "type": "function"
    },
    {
      "constant": true,
      "inputs": [],
      "name": "getHubAddr",
      "outputs": [
        {
          "internalType": "address",
          "name": "",
          "type": "address"
        }
      ],
      "payable": false,
      "stateMutability": "view",
      "type": "function"
    },
    {
      "constant": true,
      "inputs": [
        {
          "internalType": "address",
          "name": "owner",
          "type": "address"
        },
        {
          "internalType": "address",
          "name": "operator",
          "type": "address"
        }
      ],
      "name": "isApprovedForAll",
      "outputs": [
        {
          "internalType": "bool",
          "name": "",
          "type": "bool"
        }
      ],
      "payable": false,
      "stateMutability": "view",
      "type": "function"
    },
    {
      "constant": false,
      "inputs": [
        {
          "internalType": "uint256",
          "name": "tokenId",
          "type": "uint256"
        }
      ],
      "name": "mint",
      "outputs": [],
      "payable": false,
      "stateMutability": "nonpayable",
      "type": "function"
    },
    {
      "constant": true,
      "inputs": [
        {
          "internalType": "uint256",
          "name": "tokenId",
          "type": "uint256"
        }
      ],
      "name": "ownerOf",
      "outputs": [
        {
          "internalType": "address",
          "name": "",
          "type": "address"
        }
      ],
      "payable": false,
      "stateMutability": "view",
      "type": "function"
    },
    {
      "constant": false,
      "inputs": [
        {
          "internalType": "bytes",
          "name": "context",
          "type": "bytes"
        },
        {
          "internalType": "bool",
          "name": "success",
          "type": "bool"
        },
        {
          "internalType": "uint256",
          "name": "actualCharge",
          "type": "uint256"
        },
        {
          "internalType": "bytes32",
          "name": "preRetVal",
          "type": "bytes32"
        }
      ],
      "name": "postRelayedCall",
      "outputs": [],
      "payable": false,
      "stateMutability": "nonpayable",
      "type": "function"
    },
    {
      "constant": false,
      "inputs": [
        {
          "internalType": "bytes",
          "name": "context",
          "type": "bytes"
        }
      ],
      "name": "preRelayedCall",
      "outputs": [
        {
          "internalType": "bytes32",
          "name": "",
          "type": "bytes32"
        }
      ],
      "payable": false,
      "stateMutability": "nonpayable",
      "type": "function"
    },
    {
      "constant": true,
      "inputs": [],
      "name": "relayHubVersion",
      "outputs": [
        {
          "internalType": "string",
          "name": "",
          "type": "string"
        }
      ],
      "payable": false,
      "stateMutability": "view",
      "type": "function"
    },
    {
      "constant": false,
      "inputs": [
        {
          "internalType": "address",
          "name": "from",
          "type": "address"
        },
        {
          "internalType": "address",
          "name": "to",
          "type": "address"
        },
        {
          "internalType": "uint256",
          "name": "tokenId",
          "type": "uint256"
        }
      ],
      "name": "safeTransferFrom",
      "outputs": [],
      "payable": false,
      "stateMutability": "nonpayable",
      "type": "function"
    },
    {
      "constant": false,
      "inputs": [
        {
          "internalType": "address",
          "name": "from",
          "type": "address"
        },
        {
          "internalType": "address",
          "name": "to",
          "type": "address"
        },
        {
          "internalType": "uint256",
          "name": "tokenId",
          "type": "uint256"
        },
        {
          "internalType": "bytes",
          "name": "_data",
          "type": "bytes"
        }
      ],
      "name": "safeTransferFrom",
      "outputs": [],
      "payable": false,
      "stateMutability": "nonpayable",
      "type": "function"
    },
    {
      "constant": false,
      "inputs": [
        {
          "internalType": "address",
          "name": "to",
          "type": "address"
        },
        {
          "internalType": "bool",
          "name": "approved",
          "type": "bool"
        }
      ],
      "name": "setApprovalForAll",
      "outputs": [],
      "payable": false,
      "stateMutability": "nonpayable",
      "type": "function"
    },
    {
      "constant": true,
      "inputs": [
        {
          "internalType": "bytes4",
          "name": "interfaceId",
          "type": "bytes4"
        }
      ],
      "name": "supportsInterface",
      "outputs": [
        {
          "internalType": "bool",
          "name": "",
          "type": "bool"
        }
      ],
      "payable": false,
      "stateMutability": "view",
      "type": "function"
    },
    {
      "constant": false,
      "inputs": [
        {
          "internalType": "address",
          "name": "from",
          "type": "address"
        },
        {
          "internalType": "address",
          "name": "to",
          "type": "address"
        },
        {
          "internalType": "uint256",
          "name": "tokenId",
          "type": "uint256"
        }
      ],
      "name": "transferFrom",
      "outputs": [],
      "payable": false,
      "stateMutability": "nonpayable",
      "type": "function"
    }
  ],
  "bytecode": "0x608060405273d216153c06e857cd7f72665e0af1d7d82172f494600560006101000a81548173ffffffffffffffffffffffffffffffffffffffff021916908373ffffffffffffffffffffffffffffffffffffffff1602179055503480156200006657600080fd5b506040516200294638038062002946833981810160405260208110156200008c57600080fd5b810190808051906020019092919050505080620000b66301ffc9a760e01b6200019f60201b60201c565b620000ce6380ac58cd60e01b6200019f60201b60201c565b600073ffffffffffffffffffffffffffffffffffffffff168173ffffffffffffffffffffffffffffffffffffffff16141562000156576040517f08c379a00000000000000000000000000000000000000000000000000000000081526004018080602001828103825260398152602001806200290d6039913960400191505060405180910390fd5b80600660006101000a81548173ffffffffffffffffffffffffffffffffffffffff021916908373ffffffffffffffffffffffffffffffffffffffff1602179055505050620002a8565b63ffffffff60e01b817bffffffffffffffffffffffffffffffffffffffffffffffffffffffff191614156200023c576040517f08c379a000000000000000000000000000000000000000000000000000000000815260040180806020018281038252601c8152602001807f4552433136353a20696e76616c696420696e746572666163652069640000000081525060200191505060405180910390fd5b6001600080837bffffffffffffffffffffffffffffffffffffffffffffffffffffffff19167bffffffffffffffffffffffffffffffffffffffffffffffffffffffff1916815260200190815260200160002060006101000a81548160ff02191690831515021790555050565b61265580620002b86000396000f3fe608060405234801561001057600080fd5b50600436106101005760003560e01c806380274db711610097578063ad61ccd511610066578063ad61ccd5146106de578063b88d4fde14610761578063e06e0e2214610866578063e985e9c5146108ff57610100565b806380274db71461041257806383947ea01461049f578063a0712d6814610660578063a22cb4651461068e57610100565b806342842e0e116100d357806342842e0e146102945780636352211e1461030257806370a082311461037057806374e861d6146103c857610100565b806301ffc9a714610105578063081812fc1461016a578063095ea7b3146101d857806323b872dd14610226575b600080fd5b6101506004803603602081101561011b57600080fd5b8101908080357bffffffffffffffffffffffffffffffffffffffffffffffffffffffff1916906020019092919050505061097b565b604051808215151515815260200191505060405180910390f35b6101966004803603602081101561018057600080fd5b81019080803590602001909291905050506109e2565b604051808273ffffffffffffffffffffffffffffffffffffffff1673ffffffffffffffffffffffffffffffffffffffff16815260200191505060405180910390f35b610224600480360360408110156101ee57600080fd5b81019080803573ffffffffffffffffffffffffffffffffffffffff16906020019092919080359060200190929190505050610a7d565b005b6102926004803603606081101561023c57600080fd5b81019080803573ffffffffffffffffffffffffffffffffffffffff169060200190929190803573ffffffffffffffffffffffffffffffffffffffff16906020019092919080359060200190929190505050610c64565b005b610300600480360360608110156102aa57600080fd5b81019080803573ffffffffffffffffffffffffffffffffffffffff169060200190929190803573ffffffffffffffffffffffffffffffffffffffff16906020019092919080359060200190929190505050610cda565b005b61032e6004803603602081101561031857600080fd5b8101908080359060200190929190505050610cfa565b604051808273ffffffffffffffffffffffffffffffffffffffff1673ffffffffffffffffffffffffffffffffffffffff16815260200191505060405180910390f35b6103b26004803603602081101561038657600080fd5b81019080803573ffffffffffffffffffffffffffffffffffffffff169060200190929190505050610dc2565b6040518082815260200191505060405180910390f35b6103d0610e97565b604051808273ffffffffffffffffffffffffffffffffffffffff1673ffffffffffffffffffffffffffffffffffffffff16815260200191505060405180910390f35b6104896004803603602081101561042857600080fd5b810190808035906020019064010000000081111561044557600080fd5b82018360208201111561045757600080fd5b8035906020019184600183028401116401000000008311171561047957600080fd5b9091929391929390505050610ec1565b6040518082815260200191505060405180910390f35b6105de60048036036101208110156104b657600080fd5b81019080803573ffffffffffffffffffffffffffffffffffffffff169060200190929190803573ffffffffffffffffffffffffffffffffffffffff1690602001909291908035906020019064010000000081111561051357600080fd5b82018360208201111561052557600080fd5b8035906020019184600183028401116401000000008311171561054757600080fd5b9091929391929390803590602001909291908035906020019092919080359060200190929190803590602001909291908035906020019064010000000081111561059057600080fd5b8201836020820111156105a257600080fd5b803590602001918460018302840111640100000000831117156105c457600080fd5b909192939192939080359060200190929190505050610fa3565b6040518083815260200180602001828103825283818151815260200191508051906020019080838360005b83811015610624578082015181840152602081019050610609565b50505050905090810190601f1680156106515780820380516001836020036101000a031916815260200191505b50935050505060405180910390f35b61068c6004803603602081101561067657600080fd5b81019080803590602001909291905050506111cd565b005b6106dc600480360360408110156106a457600080fd5b81019080803573ffffffffffffffffffffffffffffffffffffffff1690602001909291908035151590602001909291905050506111e1565b005b6106e6611399565b6040518080602001828103825283818151815260200191508051906020019080838360005b8381101561072657808201518184015260208101905061070b565b50505050905090810190601f1680156107535780820380516001836020036101000a031916815260200191505b509250505060405180910390f35b6108646004803603608081101561077757600080fd5b81019080803573ffffffffffffffffffffffffffffffffffffffff169060200190929190803573ffffffffffffffffffffffffffffffffffffffff16906020019092919080359060200190929190803590602001906401000000008111156107de57600080fd5b8201836020820111156107f057600080fd5b8035906020019184600183028401116401000000008311171561081257600080fd5b91908080601f016020809104026020016040519081016040528093929190818152602001838380828437600081840152601f19601f8201169050808301925050505050505091929192905050506113d6565b005b6108fd6004803603608081101561087c57600080fd5b810190808035906020019064010000000081111561089957600080fd5b8201836020820111156108ab57600080fd5b803590602001918460018302840111640100000000831117156108cd57600080fd5b9091929391929390803515159060200190929190803590602001909291908035906020019092919050505061144e565b005b6109616004803603604081101561091557600080fd5b81019080803573ffffffffffffffffffffffffffffffffffffffff169060200190929190803573ffffffffffffffffffffffffffffffffffffffff169060200190929190505050611530565b604051808215151515815260200191505060405180910390f35b6000806000837bffffffffffffffffffffffffffffffffffffffffffffffffffffffff19167bffffffffffffffffffffffffffffffffffffffffffffffffffffffff1916815260200190815260200160002060009054906101000a900460ff169050919050565b60006109ed826115c4565b610a42576040517f08c379a000000000000000000000000000000000000000000000000000000000815260040180806020018281038252602c815260200180612556602c913960400191505060405180910390fd5b6002600083815260200190815260200160002060009054906101000a900473ffffffffffffffffffffffffffffffffffffffff169050919050565b6000610a8882610cfa565b90508073ffffffffffffffffffffffffffffffffffffffff168373ffffffffffffffffffffffffffffffffffffffff161415610b0f576040517f08c379a00000000000000000000000000000000000000000000000000000000081526004018080602001828103825260218152602001806125ab6021913960400191505060405180910390fd5b8073ffffffffffffffffffffffffffffffffffffffff16610b2e611636565b73ffffffffffffffffffffffffffffffffffffffff161480610b5d5750610b5c81610b57611636565b611530565b5b610bb2576040517f08c379a00000000000000000000000000000000000000000000000000000000081526004018080602001828103825260388152602001806124cb6038913960400191505060405180910390fd5b826002600084815260200190815260200160002060006101000a81548173ffffffffffffffffffffffffffffffffffffffff021916908373ffffffffffffffffffffffffffffffffffffffff160217905550818373ffffffffffffffffffffffffffffffffffffffff168273ffffffffffffffffffffffffffffffffffffffff167f8c5be1e5ebec7d5bd14f71427d1e84f3dd0314c0f7b2291e5b200ac8c7c3b92560405160405180910390a4505050565b610c75610c6f611636565b826116a3565b610cca576040517f08c379a00000000000000000000000000000000000000000000000000000000081526004018080602001828103825260318152602001806125f06031913960400191505060405180910390fd5b610cd5838383611797565b505050565b610cf5838383604051806020016040528060008152506113d6565b505050565b6000806001600084815260200190815260200160002060009054906101000a900473ffffffffffffffffffffffffffffffffffffffff169050600073ffffffffffffffffffffffffffffffffffffffff168173ffffffffffffffffffffffffffffffffffffffff161415610db9576040517f08c379a000000000000000000000000000000000000000000000000000000000815260040180806020018281038252602981526020018061252d6029913960400191505060405180910390fd5b80915050919050565b60008073ffffffffffffffffffffffffffffffffffffffff168273ffffffffffffffffffffffffffffffffffffffff161415610e49576040517f08c379a000000000000000000000000000000000000000000000000000000000815260040180806020018281038252602a815260200180612503602a913960400191505060405180910390fd5b610e90600360008473ffffffffffffffffffffffffffffffffffffffff1673ffffffffffffffffffffffffffffffffffffffff1681526020019081526020016000206119f2565b9050919050565b6000600560009054906101000a900473ffffffffffffffffffffffffffffffffffffffff16905090565b6000610ecb610e97565b73ffffffffffffffffffffffffffffffffffffffff163373ffffffffffffffffffffffffffffffffffffffff1614610f4e576040517f08c379a00000000000000000000000000000000000000000000000000000000081526004018080602001828103825260248152602001806125cc6024913960400191505060405180910390fd5b610f9b83838080601f016020809104026020016040519081016040528093929190818152602001838380828437600081840152601f19601f82011690508083019250505050505050611a00565b905092915050565b60006060808d8d8d8d8d8d8d8d610fb8610e97565b30604051602001808b73ffffffffffffffffffffffffffffffffffffffff1673ffffffffffffffffffffffffffffffffffffffff1660601b81526014018a73ffffffffffffffffffffffffffffffffffffffff1673ffffffffffffffffffffffffffffffffffffffff1660601b8152601401898980828437808301925050508781526020018681526020018581526020018481526020018373ffffffffffffffffffffffffffffffffffffffff1673ffffffffffffffffffffffffffffffffffffffff1660601b81526014018273ffffffffffffffffffffffffffffffffffffffff1673ffffffffffffffffffffffffffffffffffffffff1660601b81526014019a50505050505050505050506040516020818303038152906040529050600660009054906101000a900473ffffffffffffffffffffffffffffffffffffffff1673ffffffffffffffffffffffffffffffffffffffff1661117587878080601f016020809104026020016040519081016040528093929190818152602001838380828437600081840152601f19601f820116905080830192505050505050506111678480519060200120611a07565b611a5f90919063ffffffff16565b73ffffffffffffffffffffffffffffffffffffffff1614156111a357611199611b63565b92509250506111bd565b6111b76000808111156111b257fe5b611b87565b92509250505b9b509b9950505050505050505050565b6111de6111d8611636565b82611ba8565b50565b6111e9611636565b73ffffffffffffffffffffffffffffffffffffffff168273ffffffffffffffffffffffffffffffffffffffff16141561128a576040517f08c379a00000000000000000000000000000000000000000000000000000000081526004018080602001828103825260198152602001807f4552433732313a20617070726f766520746f2063616c6c65720000000000000081525060200191505060405180910390fd5b8060046000611297611636565b73ffffffffffffffffffffffffffffffffffffffff1673ffffffffffffffffffffffffffffffffffffffff16815260200190815260200160002060008473ffffffffffffffffffffffffffffffffffffffff1673ffffffffffffffffffffffffffffffffffffffff16815260200190815260200160002060006101000a81548160ff0219169083151502179055508173ffffffffffffffffffffffffffffffffffffffff16611344611636565b73ffffffffffffffffffffffffffffffffffffffff167f17307eab39ab6107e8899845ad3d59bd9653f200f220920489ca2b5937696c3183604051808215151515815260200191505060405180910390a35050565b60606040518060400160405280600581526020017f312e302e30000000000000000000000000000000000000000000000000000000815250905090565b6113e76113e1611636565b836116a3565b61143c576040517f08c379a00000000000000000000000000000000000000000000000000000000081526004018080602001828103825260318152602001806125f06031913960400191505060405180910390fd5b61144884848484611dc0565b50505050565b611456610e97565b73ffffffffffffffffffffffffffffffffffffffff163373ffffffffffffffffffffffffffffffffffffffff16146114d9576040517f08c379a00000000000000000000000000000000000000000000000000000000081526004018080602001828103825260248152602001806125cc6024913960400191505060405180910390fd5b61152985858080601f016020809104026020016040519081016040528093929190818152602001838380828437600081840152601f19601f82011690508083019250505050505050848484611e32565b5050505050565b6000600460008473ffffffffffffffffffffffffffffffffffffffff1673ffffffffffffffffffffffffffffffffffffffff16815260200190815260200160002060008373ffffffffffffffffffffffffffffffffffffffff1673ffffffffffffffffffffffffffffffffffffffff16815260200190815260200160002060009054906101000a900460ff16905092915050565b6000806001600084815260200190815260200160002060009054906101000a900473ffffffffffffffffffffffffffffffffffffffff169050600073ffffffffffffffffffffffffffffffffffffffff168173ffffffffffffffffffffffffffffffffffffffff161415915050919050565b6000600560009054906101000a900473ffffffffffffffffffffffffffffffffffffffff1673ffffffffffffffffffffffffffffffffffffffff163373ffffffffffffffffffffffffffffffffffffffff1614611695573390506116a0565b61169d611e38565b90505b90565b60006116ae826115c4565b611703576040517f08c379a000000000000000000000000000000000000000000000000000000000815260040180806020018281038252602c81526020018061249f602c913960400191505060405180910390fd5b600061170e83610cfa565b90508073ffffffffffffffffffffffffffffffffffffffff168473ffffffffffffffffffffffffffffffffffffffff16148061177d57508373ffffffffffffffffffffffffffffffffffffffff16611765846109e2565b73ffffffffffffffffffffffffffffffffffffffff16145b8061178e575061178d8185611530565b5b91505092915050565b8273ffffffffffffffffffffffffffffffffffffffff166117b782610cfa565b73ffffffffffffffffffffffffffffffffffffffff1614611823576040517f08c379a00000000000000000000000000000000000000000000000000000000081526004018080602001828103825260298152602001806125826029913960400191505060405180910390fd5b600073ffffffffffffffffffffffffffffffffffffffff168273ffffffffffffffffffffffffffffffffffffffff1614156118a9576040517f08c379a000000000000000000000000000000000000000000000000000000000815260040180806020018281038252602481526020018061247b6024913960400191505060405180910390fd5b6118b281611eb0565b6118f9600360008573ffffffffffffffffffffffffffffffffffffffff1673ffffffffffffffffffffffffffffffffffffffff168152602001908152602001600020611f6e565b611940600360008473ffffffffffffffffffffffffffffffffffffffff1673ffffffffffffffffffffffffffffffffffffffff168152602001908152602001600020611f91565b816001600083815260200190815260200160002060006101000a81548173ffffffffffffffffffffffffffffffffffffffff021916908373ffffffffffffffffffffffffffffffffffffffff160217905550808273ffffffffffffffffffffffffffffffffffffffff168473ffffffffffffffffffffffffffffffffffffffff167fddf252ad1be2c89b69c2b068fc378daa952ba7f163c4a11628f55a4df523b3ef60405160405180910390a4505050565b600081600001549050919050565b6000919050565b60008160405160200180807f19457468657265756d205369676e6564204d6573736167653a0a333200000000815250601c01828152602001915050604051602081830303815290604052805190602001209050919050565b60006041825114611a735760009050611b5d565b60008060006020850151925060408501519150606085015160001a90507f7fffffffffffffffffffffffffffffff5d576e7357a4501ddfe92f46681b20a08260001c1115611ac75760009350505050611b5d565b601b8160ff1614158015611adf5750601c8160ff1614155b15611af05760009350505050611b5d565b60018682858560405160008152602001604052604051808581526020018460ff1660ff1681526020018381526020018281526020019450505050506020604051602081039080840390855afa158015611b4d573d6000803e3d6000fd5b5050506020604051035193505050505b92915050565b60006060611b7f60405180602001604052806000815250611fa7565b915091509091565b6000606082600b016040518060200160405280600081525091509150915091565b600073ffffffffffffffffffffffffffffffffffffffff168273ffffffffffffffffffffffffffffffffffffffff161415611c4b576040517f08c379a00000000000000000000000000000000000000000000000000000000081526004018080602001828103825260208152602001807f4552433732313a206d696e7420746f20746865207a65726f206164647265737381525060200191505060405180910390fd5b611c54816115c4565b15611cc7576040517f08c379a000000000000000000000000000000000000000000000000000000000815260040180806020018281038252601c8152602001807f4552433732313a20746f6b656e20616c7265616479206d696e7465640000000081525060200191505060405180910390fd5b816001600083815260200190815260200160002060006101000a81548173ffffffffffffffffffffffffffffffffffffffff021916908373ffffffffffffffffffffffffffffffffffffffff160217905550611d60600360008473ffffffffffffffffffffffffffffffffffffffff1673ffffffffffffffffffffffffffffffffffffffff168152602001908152602001600020611f91565b808273ffffffffffffffffffffffffffffffffffffffff16600073ffffffffffffffffffffffffffffffffffffffff167fddf252ad1be2c89b69c2b068fc378daa952ba7f163c4a11628f55a4df523b3ef60405160405180910390a45050565b611dcb848484611797565b611dd784848484611fb7565b611e2c576040517f08c379a00000000000000000000000000000000000000000000000000000000081526004018080602001828103825260328152602001806124496032913960400191505060405180910390fd5b50505050565b50505050565b600060606000368080601f016020809104026020016040519081016040528093929190818152602001838380828437600081840152601f19601f820116905080830192505050505050509050600080369050905073ffffffffffffffffffffffffffffffffffffffff81830151169250829250505090565b600073ffffffffffffffffffffffffffffffffffffffff166002600083815260200190815260200160002060009054906101000a900473ffffffffffffffffffffffffffffffffffffffff1673ffffffffffffffffffffffffffffffffffffffff1614611f6b5760006002600083815260200190815260200160002060006101000a81548173ffffffffffffffffffffffffffffffffffffffff021916908373ffffffffffffffffffffffffffffffffffffffff1602179055505b50565b611f86600182600001546122f390919063ffffffff16565b816000018190555050565b6001816000016000828254019250508190555050565b6000606060008391509150915091565b6000611fd88473ffffffffffffffffffffffffffffffffffffffff1661233d565b611fe557600190506122eb565b600060608573ffffffffffffffffffffffffffffffffffffffff168673ffffffffffffffffffffffffffffffffffffffff1663150b7a02905060e01b612029611636565b898888604051602401808573ffffffffffffffffffffffffffffffffffffffff1673ffffffffffffffffffffffffffffffffffffffff1681526020018473ffffffffffffffffffffffffffffffffffffffff1673ffffffffffffffffffffffffffffffffffffffff16815260200183815260200180602001828103825283818151815260200191508051906020019080838360005b838110156120d95780820151818401526020810190506120be565b50505050905090810190601f1680156121065780820380516001836020036101000a031916815260200191505b5095505050505050604051602081830303815290604052907bffffffffffffffffffffffffffffffffffffffffffffffffffffffff19166020820180517bffffffffffffffffffffffffffffffffffffffffffffffffffffffff83818316178352505050506040518082805190602001908083835b6020831061219e578051825260208201915060208101905060208303925061217b565b6001836020036101000a0380198251168184511680821785525050505050509050019150506000604051808303816000865af19150503d8060008114612200576040519150601f19603f3d011682016040523d82523d6000602084013e612205565b606091505b509150915081612273576000815111156122225780518082602001fd5b6040517f08c379a00000000000000000000000000000000000000000000000000000000081526004018080602001828103825260328152602001806124496032913960400191505060405180910390fd5b600081806020019051602081101561228a57600080fd5b8101908080519060200190929190505050905063150b7a0260e01b7bffffffffffffffffffffffffffffffffffffffffffffffffffffffff1916817bffffffffffffffffffffffffffffffffffffffffffffffffffffffff19161493505050505b949350505050565b600061233583836040518060400160405280601e81526020017f536166654d6174683a207375627472616374696f6e206f766572666c6f770000815250612388565b905092915050565b60008060007fc5d2460186f7233c927e7db2dcc703c0e500b653ca82273b7bfad8045d85a47060001b9050833f915080821415801561237f57506000801b8214155b92505050919050565b6000838311158290612435576040517f08c379a00000000000000000000000000000000000000000000000000000000081526004018080602001828103825283818151815260200191508051906020019080838360005b838110156123fa5780820151818401526020810190506123df565b50505050905090810190601f1680156124275780820380516001836020036101000a031916815260200191505b509250505060405180910390fd5b506000838503905080915050939250505056fe4552433732313a207472616e7366657220746f206e6f6e20455243373231526563656976657220696d706c656d656e7465724552433732313a207472616e7366657220746f20746865207a65726f20616464726573734552433732313a206f70657261746f7220717565727920666f72206e6f6e6578697374656e7420746f6b656e4552433732313a20617070726f76652063616c6c6572206973206e6f74206f776e6572206e6f7220617070726f76656420666f7220616c6c4552433732313a2062616c616e636520717565727920666f7220746865207a65726f20616464726573734552433732313a206f776e657220717565727920666f72206e6f6e6578697374656e7420746f6b656e4552433732313a20617070726f76656420717565727920666f72206e6f6e6578697374656e7420746f6b656e4552433732313a207472616e73666572206f6620746f6b656e2074686174206973206e6f74206f776e4552433732313a20617070726f76616c20746f2063757272656e74206f776e657247534e526563697069656e743a2063616c6c6572206973206e6f742052656c61794875624552433732313a207472616e736665722063616c6c6572206973206e6f74206f776e6572206e6f7220617070726f766564a265627a7a72315820a6557bbeceb3805de9619500ff490735ebfea5afac596f268e11064fece74d0e64736f6c6343000511003247534e526563697069656e745369676e61747572653a2074727573746564207369676e657220697320746865207a65726f2061646472657373",
  "compiler": {
    "name": "solc",
    "version": "0.5.17+commit.d19bba13.Emscripten.clang",
    "optimizer": {
      "enabled": false,
      "runs": 200
    },
    "evmVersion": "petersburg"
  }
}