{
  "fileName": "ERC721Mock.sol",
  "contractName": "ERC721Mock",
  "source": "pragma solidity ^0.5.0;\n\nimport \"../token/ERC721/ERC721.sol\";\n\n/**\n * @title ERC721Mock\n * This mock just provides a public safeMint, mint, and burn functions for testing purposes\n */\ncontract ERC721Mock is ERC721 {\n    function safeMint(address to, uint256 tokenId) public {\n        _safeMint(to, tokenId);\n    }\n\n    function safeMint(address to, uint256 tokenId, bytes memory _data) public {\n        _safeMint(to, tokenId, _data);\n    }\n\n    function mint(address to, uint256 tokenId) public {\n        _mint(to, tokenId);\n    }\n\n    function burn(address owner, uint256 tokenId) public {\n        _burn(owner, tokenId);\n    }\n\n    function burn(uint256 tokenId) public {\n        _burn(tokenId);\n    }\n}\n",
  "sourcePath": "contracts/mocks/ERC721Mock.sol",
  "abi": [
    {
      "anonymous": false,
      "inputs": [
        {
          "indexed": true,
          "internalType": "address",
          "name": "owner",
          "type": "address"
        },
        {
          "indexed": true,
          "internalType": "address",
          "name": "approved",
          "type": "address"
        },
        {
          "indexed": true,
          "internalType": "uint256",
          "name": "tokenId",
          "type": "uint256"
        }
      ],
      "name": "Approval",
      "type": "event"
    },
    {
      "anonymous": false,
      "inputs": [
        {
          "indexed": true,
          "internalType": "address",
          "name": "owner",
          "type": "address"
        },
        {
          "indexed": true,
          "internalType": "address",
          "name": "operator",
          "type": "address"
        },
        {
          "indexed": false,
          "internalType": "bool",
          "name": "approved",
          "type": "bool"
        }
      ],
      "name": "ApprovalForAll",
      "type": "event"
    },
    {
      "anonymous": false,
      "inputs": [
        {
          "indexed": true,
          "internalType": "address",
          "name": "from",
          "type": "address"
        },
        {
          "indexed": true,
          "internalType": "address",
          "name": "to",
          "type": "address"
        },
        {
          "indexed": true,
          "internalType": "uint256",
          "name": "tokenId",
          "type": "uint256"
        }
      ],
      "name": "Transfer",
      "type": "event"
    },
    {
      "constant": false,
      "inputs": [
        {
          "internalType": "address",
          "name": "to",
          "type": "address"
        },
        {
          "internalType": "uint256",
          "name": "tokenId",
          "type": "uint256"
        }
      ],
      "name": "approve",
      "outputs": [],
      "payable": false,
      "stateMutability": "nonpayable",
      "type": "function"
    },
    {
      "constant": true,
      "inputs": [
        {
          "internalType": "address",
          "name": "owner",
          "type": "address"
        }
      ],
      "name": "balanceOf",
      "outputs": [
        {
          "internalType": "uint256",
          "name": "",
          "type": "uint256"
        }
      ],
      "payable": false,
      "stateMutability": "view",
      "type": "function"
    },
    {
      "constant": false,
      "inputs": [
        {
          "internalType": "uint256",
          "name": "tokenId",
          "type": "uint256"
        }
      ],
      "name": "burn",
      "outputs": [],
      "payable": false,
      "stateMutability": "nonpayable",
      "type": "function"
    },
    {
      "constant": false,
      "inputs": [
        {
          "internalType": "address",
          "name": "owner",
          "type": "address"
        },
        {
          "internalType": "uint256",
          "name": "tokenId",
          "type": "uint256"
        }
      ],
      "name": "burn",
      "outputs": [],
      "payable": false,
      "stateMutability": "nonpayable",
      "type": "function"
    },
    {
      "constant": true,
      "inputs": [
        {
          "internalType": "uint256",
          "name": "tokenId",
          "type": "uint256"
        }
      ],
      "name": "getApproved",
      "outputs": [
        {
          "internalType": "address",
          "name": "",
          "type": "address"
        }
      ],
      "payable": false,
      "stateMutability": "view",
      "type": "function"
    },
    {
      "constant": true,
      "inputs": [
        {
          "internalType": "address",
          "name": "owner",
          "type": "address"
        },
        {
          "internalType": "address",
          "name": "operator",
          "type": "address"
        }
      ],
      "name": "isApprovedForAll",
      "outputs": [
        {
          "internalType": "bool",
          "name": "",
          "type": "bool"
        }
      ],
      "payable": false,
      "stateMutability": "view",
      "type": "function"
    },
    {
      "constant": false,
      "inputs": [
        {
          "internalType": "address",
          "name": "to",
          "type": "address"
        },
        {
          "internalType": "uint256",
          "name": "tokenId",
          "type": "uint256"
        }
      ],
      "name": "mint",
      "outputs": [],
      "payable": false,
      "stateMutability": "nonpayable",
      "type": "function"
    },
    {
      "constant": true,
      "inputs": [
        {
          "internalType": "uint256",
          "name": "tokenId",
          "type": "uint256"
        }
      ],
      "name": "ownerOf",
      "outputs": [
        {
          "internalType": "address",
          "name": "",
          "type": "address"
        }
      ],
      "payable": false,
      "stateMutability": "view",
      "type": "function"
    },
    {
      "constant": false,
      "inputs": [
        {
          "internalType": "address",
          "name": "to",
          "type": "address"
        },
        {
          "internalType": "uint256",
          "name": "tokenId",
          "type": "uint256"
        },
        {
          "internalType": "bytes",
          "name": "_data",
          "type": "bytes"
        }
      ],
      "name": "safeMint",
      "outputs": [],
      "payable": false,
      "stateMutability": "nonpayable",
      "type": "function"
    },
    {
      "constant": false,
      "inputs": [
        {
          "internalType": "address",
          "name": "to",
          "type": "address"
        },
        {
          "internalType": "uint256",
          "name": "tokenId",
          "type": "uint256"
        }
      ],
      "name": "safeMint",
      "outputs": [],
      "payable": false,
      "stateMutability": "nonpayable",
      "type": "function"
    },
    {
      "constant": false,
      "inputs": [
        {
          "internalType": "address",
          "name": "from",
          "type": "address"
        },
        {
          "internalType": "address",
          "name": "to",
          "type": "address"
        },
        {
          "internalType": "uint256",
          "name": "tokenId",
          "type": "uint256"
        }
      ],
      "name": "safeTransferFrom",
      "outputs": [],
      "payable": false,
      "stateMutability": "nonpayable",
      "type": "function"
    },
    {
      "constant": false,
      "inputs": [
        {
          "internalType": "address",
          "name": "from",
          "type": "address"
        },
        {
          "internalType": "address",
          "name": "to",
          "type": "address"
        },
        {
          "internalType": "uint256",
          "name": "tokenId",
          "type": "uint256"
        },
        {
          "internalType": "bytes",
          "name": "_data",
          "type": "bytes"
        }
      ],
      "name": "safeTransferFrom",
      "outputs": [],
      "payable": false,
      "stateMutability": "nonpayable",
      "type": "function"
    },
    {
      "constant": false,
      "inputs": [
        {
          "internalType": "address",
          "name": "to",
          "type": "address"
        },
        {
          "internalType": "bool",
          "name": "approved",
          "type": "bool"
        }
      ],
      "name": "setApprovalForAll",
      "outputs": [],
      "payable": false,
      "stateMutability": "nonpayable",
      "type": "function"
    },
    {
      "constant": true,
      "inputs": [
        {
          "internalType": "bytes4",
          "name": "interfaceId",
          "type": "bytes4"
        }
      ],
      "name": "supportsInterface",
      "outputs": [
        {
          "internalType": "bool",
          "name": "",
          "type": "bool"
        }
      ],
      "payable": false,
      "stateMutability": "view",
      "type": "function"
    },
    {
      "constant": false,
      "inputs": [
        {
          "internalType": "address",
          "name": "from",
          "type": "address"
        },
        {
          "internalType": "address",
          "name": "to",
          "type": "address"
        },
        {
          "internalType": "uint256",
          "name": "tokenId",
          "type": "uint256"
        }
      ],
      "name": "transferFrom",
      "outputs": [],
      "payable": false,
      "stateMutability": "nonpayable",
      "type": "function"
    }
  ],
  "bytecode": "0x608060405261001a6301ffc9a760e01b61003560201b60201c565b6100306380ac58cd60e01b61003560201b60201c565b61013d565b63ffffffff60e01b817bffffffffffffffffffffffffffffffffffffffffffffffffffffffff191614156100d1576040517f08c379a000000000000000000000000000000000000000000000000000000000815260040180806020018281038252601c8152602001807f4552433136353a20696e76616c696420696e746572666163652069640000000081525060200191505060405180910390fd5b6001600080837bffffffffffffffffffffffffffffffffffffffffffffffffffffffff19167bffffffffffffffffffffffffffffffffffffffffffffffffffffffff1916815260200190815260200160002060006101000a81548160ff02191690831515021790555050565b611fdb8061014c6000396000f3fe608060405234801561001057600080fd5b50600436106100f55760003560e01c80636352211e11610097578063a144819411610066578063a14481941461056c578063a22cb465146105ba578063b88d4fde1461060a578063e985e9c51461070f576100f5565b80636352211e1461037357806370a08231146103e15780638832e6e3146104395780639dc29fac1461051e576100f5565b806323b872dd116100d357806323b872dd1461021b57806340c10f191461028957806342842e0e146102d757806342966c6814610345576100f5565b806301ffc9a7146100fa578063081812fc1461015f578063095ea7b3146101cd575b600080fd5b6101456004803603602081101561011057600080fd5b8101908080357bffffffffffffffffffffffffffffffffffffffffffffffffffffffff1916906020019092919050505061078b565b604051808215151515815260200191505060405180910390f35b61018b6004803603602081101561017557600080fd5b81019080803590602001909291905050506107f2565b604051808273ffffffffffffffffffffffffffffffffffffffff1673ffffffffffffffffffffffffffffffffffffffff16815260200191505060405180910390f35b610219600480360360408110156101e357600080fd5b81019080803573ffffffffffffffffffffffffffffffffffffffff1690602001909291908035906020019092919050505061088d565b005b6102876004803603606081101561023157600080fd5b81019080803573ffffffffffffffffffffffffffffffffffffffff169060200190929190803573ffffffffffffffffffffffffffffffffffffffff16906020019092919080359060200190929190505050610a74565b005b6102d56004803603604081101561029f57600080fd5b81019080803573ffffffffffffffffffffffffffffffffffffffff16906020019092919080359060200190929190505050610aea565b005b610343600480360360608110156102ed57600080fd5b81019080803573ffffffffffffffffffffffffffffffffffffffff169060200190929190803573ffffffffffffffffffffffffffffffffffffffff16906020019092919080359060200190929190505050610af8565b005b6103716004803603602081101561035b57600080fd5b8101908080359060200190929190505050610b18565b005b61039f6004803603602081101561038957600080fd5b8101908080359060200190929190505050610b24565b604051808273ffffffffffffffffffffffffffffffffffffffff1673ffffffffffffffffffffffffffffffffffffffff16815260200191505060405180910390f35b610423600480360360208110156103f757600080fd5b81019080803573ffffffffffffffffffffffffffffffffffffffff169060200190929190505050610bec565b6040518082815260200191505060405180910390f35b61051c6004803603606081101561044f57600080fd5b81019080803573ffffffffffffffffffffffffffffffffffffffff169060200190929190803590602001909291908035906020019064010000000081111561049657600080fd5b8201836020820111156104a857600080fd5b803590602001918460018302840111640100000000831117156104ca57600080fd5b91908080601f016020809104026020016040519081016040528093929190818152602001838380828437600081840152601f19601f820116905080830192505050505050509192919290505050610cc1565b005b61056a6004803603604081101561053457600080fd5b81019080803573ffffffffffffffffffffffffffffffffffffffff16906020019092919080359060200190929190505050610cd1565b005b6105b86004803603604081101561058257600080fd5b81019080803573ffffffffffffffffffffffffffffffffffffffff16906020019092919080359060200190929190505050610cdf565b005b610608600480360360408110156105d057600080fd5b81019080803573ffffffffffffffffffffffffffffffffffffffff169060200190929190803515159060200190929190505050610ced565b005b61070d6004803603608081101561062057600080fd5b81019080803573ffffffffffffffffffffffffffffffffffffffff169060200190929190803573ffffffffffffffffffffffffffffffffffffffff169060200190929190803590602001909291908035906020019064010000000081111561068757600080fd5b82018360208201111561069957600080fd5b803590602001918460018302840111640100000000831117156106bb57600080fd5b91908080601f016020809104026020016040519081016040528093929190818152602001838380828437600081840152601f19601f820116905080830192505050505050509192919290505050610ea5565b005b6107716004803603604081101561072557600080fd5b81019080803573ffffffffffffffffffffffffffffffffffffffff169060200190929190803573ffffffffffffffffffffffffffffffffffffffff169060200190929190505050610f1d565b604051808215151515815260200191505060405180910390f35b6000806000837bffffffffffffffffffffffffffffffffffffffffffffffffffffffff19167bffffffffffffffffffffffffffffffffffffffffffffffffffffffff1916815260200190815260200160002060009054906101000a900460ff169050919050565b60006107fd82610fb1565b610852576040517f08c379a000000000000000000000000000000000000000000000000000000000815260040180806020018281038252602c815260200180611edb602c913960400191505060405180910390fd5b6002600083815260200190815260200160002060009054906101000a900473ffffffffffffffffffffffffffffffffffffffff169050919050565b600061089882610b24565b90508073ffffffffffffffffffffffffffffffffffffffff168373ffffffffffffffffffffffffffffffffffffffff16141561091f576040517f08c379a0000000000000000000000000000000000000000000000000000000008152600401808060200182810382526021815260200180611f306021913960400191505060405180910390fd5b8073ffffffffffffffffffffffffffffffffffffffff1661093e611023565b73ffffffffffffffffffffffffffffffffffffffff16148061096d575061096c81610967611023565b610f1d565b5b6109c2576040517f08c379a0000000000000000000000000000000000000000000000000000000008152600401808060200182810382526038815260200180611e506038913960400191505060405180910390fd5b826002600084815260200190815260200160002060006101000a81548173ffffffffffffffffffffffffffffffffffffffff021916908373ffffffffffffffffffffffffffffffffffffffff160217905550818373ffffffffffffffffffffffffffffffffffffffff168273ffffffffffffffffffffffffffffffffffffffff167f8c5be1e5ebec7d5bd14f71427d1e84f3dd0314c0f7b2291e5b200ac8c7c3b92560405160405180910390a4505050565b610a85610a7f611023565b8261102b565b610ada576040517f08c379a0000000000000000000000000000000000000000000000000000000008152600401808060200182810382526031815260200180611f516031913960400191505060405180910390fd5b610ae583838361111f565b505050565b610af4828261137a565b5050565b610b1383838360405180602001604052806000815250610ea5565b505050565b610b2181611592565b50565b6000806001600084815260200190815260200160002060009054906101000a900473ffffffffffffffffffffffffffffffffffffffff169050600073ffffffffffffffffffffffffffffffffffffffff168173ffffffffffffffffffffffffffffffffffffffff161415610be3576040517f08c379a0000000000000000000000000000000000000000000000000000000008152600401808060200182810382526029815260200180611eb26029913960400191505060405180910390fd5b80915050919050565b60008073ffffffffffffffffffffffffffffffffffffffff168273ffffffffffffffffffffffffffffffffffffffff161415610c73576040517f08c379a000000000000000000000000000000000000000000000000000000000815260040180806020018281038252602a815260200180611e88602a913960400191505060405180910390fd5b610cba600360008473ffffffffffffffffffffffffffffffffffffffff1673ffffffffffffffffffffffffffffffffffffffff1681526020019081526020016000206115a7565b9050919050565b610ccc8383836115b5565b505050565b610cdb8282611626565b5050565b610ce982826117b5565b5050565b610cf5611023565b73ffffffffffffffffffffffffffffffffffffffff168273ffffffffffffffffffffffffffffffffffffffff161415610d96576040517f08c379a00000000000000000000000000000000000000000000000000000000081526004018080602001828103825260198152602001807f4552433732313a20617070726f766520746f2063616c6c65720000000000000081525060200191505060405180910390fd5b8060046000610da3611023565b73ffffffffffffffffffffffffffffffffffffffff1673ffffffffffffffffffffffffffffffffffffffff16815260200190815260200160002060008473ffffffffffffffffffffffffffffffffffffffff1673ffffffffffffffffffffffffffffffffffffffff16815260200190815260200160002060006101000a81548160ff0219169083151502179055508173ffffffffffffffffffffffffffffffffffffffff16610e50611023565b73ffffffffffffffffffffffffffffffffffffffff167f17307eab39ab6107e8899845ad3d59bd9653f200f220920489ca2b5937696c3183604051808215151515815260200191505060405180910390a35050565b610eb6610eb0611023565b8361102b565b610f0b576040517f08c379a0000000000000000000000000000000000000000000000000000000008152600401808060200182810382526031815260200180611f516031913960400191505060405180910390fd5b610f17848484846117d3565b50505050565b6000600460008473ffffffffffffffffffffffffffffffffffffffff1673ffffffffffffffffffffffffffffffffffffffff16815260200190815260200160002060008373ffffffffffffffffffffffffffffffffffffffff1673ffffffffffffffffffffffffffffffffffffffff16815260200190815260200160002060009054906101000a900460ff16905092915050565b6000806001600084815260200190815260200160002060009054906101000a900473ffffffffffffffffffffffffffffffffffffffff169050600073ffffffffffffffffffffffffffffffffffffffff168173ffffffffffffffffffffffffffffffffffffffff161415915050919050565b600033905090565b600061103682610fb1565b61108b576040517f08c379a000000000000000000000000000000000000000000000000000000000815260040180806020018281038252602c815260200180611e24602c913960400191505060405180910390fd5b600061109683610b24565b90508073ffffffffffffffffffffffffffffffffffffffff168473ffffffffffffffffffffffffffffffffffffffff16148061110557508373ffffffffffffffffffffffffffffffffffffffff166110ed846107f2565b73ffffffffffffffffffffffffffffffffffffffff16145b8061111657506111158185610f1d565b5b91505092915050565b8273ffffffffffffffffffffffffffffffffffffffff1661113f82610b24565b73ffffffffffffffffffffffffffffffffffffffff16146111ab576040517f08c379a0000000000000000000000000000000000000000000000000000000008152600401808060200182810382526029815260200180611f076029913960400191505060405180910390fd5b600073ffffffffffffffffffffffffffffffffffffffff168273ffffffffffffffffffffffffffffffffffffffff161415611231576040517f08c379a0000000000000000000000000000000000000000000000000000000008152600401808060200182810382526024815260200180611e006024913960400191505060405180910390fd5b61123a81611845565b611281600360008573ffffffffffffffffffffffffffffffffffffffff1673ffffffffffffffffffffffffffffffffffffffff168152602001908152602001600020611903565b6112c8600360008473ffffffffffffffffffffffffffffffffffffffff1673ffffffffffffffffffffffffffffffffffffffff168152602001908152602001600020611926565b816001600083815260200190815260200160002060006101000a81548173ffffffffffffffffffffffffffffffffffffffff021916908373ffffffffffffffffffffffffffffffffffffffff160217905550808273ffffffffffffffffffffffffffffffffffffffff168473ffffffffffffffffffffffffffffffffffffffff167fddf252ad1be2c89b69c2b068fc378daa952ba7f163c4a11628f55a4df523b3ef60405160405180910390a4505050565b600073ffffffffffffffffffffffffffffffffffffffff168273ffffffffffffffffffffffffffffffffffffffff16141561141d576040517f08c379a00000000000000000000000000000000000000000000000000000000081526004018080602001828103825260208152602001807f4552433732313a206d696e7420746f20746865207a65726f206164647265737381525060200191505060405180910390fd5b61142681610fb1565b15611499576040517f08c379a000000000000000000000000000000000000000000000000000000000815260040180806020018281038252601c8152602001807f4552433732313a20746f6b656e20616c7265616479206d696e7465640000000081525060200191505060405180910390fd5b816001600083815260200190815260200160002060006101000a81548173ffffffffffffffffffffffffffffffffffffffff021916908373ffffffffffffffffffffffffffffffffffffffff160217905550611532600360008473ffffffffffffffffffffffffffffffffffffffff1673ffffffffffffffffffffffffffffffffffffffff168152602001908152602001600020611926565b808273ffffffffffffffffffffffffffffffffffffffff16600073ffffffffffffffffffffffffffffffffffffffff167fddf252ad1be2c89b69c2b068fc378daa952ba7f163c4a11628f55a4df523b3ef60405160405180910390a45050565b6115a461159e82610b24565b82611626565b50565b600081600001549050919050565b6115bf838361137a565b6115cc600084848461193c565b611621576040517f08c379a0000000000000000000000000000000000000000000000000000000008152600401808060200182810382526032815260200180611dce6032913960400191505060405180910390fd5b505050565b8173ffffffffffffffffffffffffffffffffffffffff1661164682610b24565b73ffffffffffffffffffffffffffffffffffffffff16146116b2576040517f08c379a0000000000000000000000000000000000000000000000000000000008152600401808060200182810382526025815260200180611f826025913960400191505060405180910390fd5b6116bb81611845565b611702600360008473ffffffffffffffffffffffffffffffffffffffff1673ffffffffffffffffffffffffffffffffffffffff168152602001908152602001600020611903565b60006001600083815260200190815260200160002060006101000a81548173ffffffffffffffffffffffffffffffffffffffff021916908373ffffffffffffffffffffffffffffffffffffffff16021790555080600073ffffffffffffffffffffffffffffffffffffffff168373ffffffffffffffffffffffffffffffffffffffff167fddf252ad1be2c89b69c2b068fc378daa952ba7f163c4a11628f55a4df523b3ef60405160405180910390a45050565b6117cf8282604051806020016040528060008152506115b5565b5050565b6117de84848461111f565b6117ea8484848461193c565b61183f576040517f08c379a0000000000000000000000000000000000000000000000000000000008152600401808060200182810382526032815260200180611dce6032913960400191505060405180910390fd5b50505050565b600073ffffffffffffffffffffffffffffffffffffffff166002600083815260200190815260200160002060009054906101000a900473ffffffffffffffffffffffffffffffffffffffff1673ffffffffffffffffffffffffffffffffffffffff16146119005760006002600083815260200190815260200160002060006101000a81548173ffffffffffffffffffffffffffffffffffffffff021916908373ffffffffffffffffffffffffffffffffffffffff1602179055505b50565b61191b60018260000154611c7890919063ffffffff16565b816000018190555050565b6001816000016000828254019250508190555050565b600061195d8473ffffffffffffffffffffffffffffffffffffffff16611cc2565b61196a5760019050611c70565b600060608573ffffffffffffffffffffffffffffffffffffffff168673ffffffffffffffffffffffffffffffffffffffff1663150b7a02905060e01b6119ae611023565b898888604051602401808573ffffffffffffffffffffffffffffffffffffffff1673ffffffffffffffffffffffffffffffffffffffff1681526020018473ffffffffffffffffffffffffffffffffffffffff1673ffffffffffffffffffffffffffffffffffffffff16815260200183815260200180602001828103825283818151815260200191508051906020019080838360005b83811015611a5e578082015181840152602081019050611a43565b50505050905090810190601f168015611a8b5780820380516001836020036101000a031916815260200191505b5095505050505050604051602081830303815290604052907bffffffffffffffffffffffffffffffffffffffffffffffffffffffff19166020820180517bffffffffffffffffffffffffffffffffffffffffffffffffffffffff83818316178352505050506040518082805190602001908083835b60208310611b235780518252602082019150602081019050602083039250611b00565b6001836020036101000a0380198251168184511680821785525050505050509050019150506000604051808303816000865af19150503d8060008114611b85576040519150601f19603f3d011682016040523d82523d6000602084013e611b8a565b606091505b509150915081611bf857600081511115611ba75780518082602001fd5b6040517f08c379a0000000000000000000000000000000000000000000000000000000008152600401808060200182810382526032815260200180611dce6032913960400191505060405180910390fd5b6000818060200190516020811015611c0f57600080fd5b8101908080519060200190929190505050905063150b7a0260e01b7bffffffffffffffffffffffffffffffffffffffffffffffffffffffff1916817bffffffffffffffffffffffffffffffffffffffffffffffffffffffff19161493505050505b949350505050565b6000611cba83836040518060400160405280601e81526020017f536166654d6174683a207375627472616374696f6e206f766572666c6f770000815250611d0d565b905092915050565b60008060007fc5d2460186f7233c927e7db2dcc703c0e500b653ca82273b7bfad8045d85a47060001b9050833f9150808214158015611d0457506000801b8214155b92505050919050565b6000838311158290611dba576040517f08c379a00000000000000000000000000000000000000000000000000000000081526004018080602001828103825283818151815260200191508051906020019080838360005b83811015611d7f578082015181840152602081019050611d64565b50505050905090810190601f168015611dac5780820380516001836020036101000a031916815260200191505b509250505060405180910390fd5b506000838503905080915050939250505056fe4552433732313a207472616e7366657220746f206e6f6e20455243373231526563656976657220696d706c656d656e7465724552433732313a207472616e7366657220746f20746865207a65726f20616464726573734552433732313a206f70657261746f7220717565727920666f72206e6f6e6578697374656e7420746f6b656e4552433732313a20617070726f76652063616c6c6572206973206e6f74206f776e6572206e6f7220617070726f76656420666f7220616c6c4552433732313a2062616c616e636520717565727920666f7220746865207a65726f20616464726573734552433732313a206f776e657220717565727920666f72206e6f6e6578697374656e7420746f6b656e4552433732313a20617070726f76656420717565727920666f72206e6f6e6578697374656e7420746f6b656e4552433732313a207472616e73666572206f6620746f6b656e2074686174206973206e6f74206f776e4552433732313a20617070726f76616c20746f2063757272656e74206f776e65724552433732313a207472616e736665722063616c6c6572206973206e6f74206f776e6572206e6f7220617070726f7665644552433732313a206275726e206f6620746f6b656e2074686174206973206e6f74206f776ea265627a7a72315820bc8b9e8d1ddb7346f967293257b05ae9d5a4eea38cca9165fe690ec97f34f41d64736f6c63430005110032",
  "compiler": {
    "name": "solc",
    "version": "0.5.17+commit.d19bba13.Emscripten.clang",
    "optimizer": {
      "enabled": false,
      "runs": 200
    },
    "evmVersion": "petersburg"
  }
}