{
  "fileName": "MathMock.sol",
  "contractName": "MathMock",
  "source": "pragma solidity ^0.5.0;\n\nimport \"../math/Math.sol\";\n\ncontract MathMock {\n    function max(uint256 a, uint256 b) public pure returns (uint256) {\n        return Math.max(a, b);\n    }\n\n    function min(uint256 a, uint256 b) public pure returns (uint256) {\n        return Math.min(a, b);\n    }\n\n    function average(uint256 a, uint256 b) public pure returns (uint256) {\n        return Math.average(a, b);\n    }\n}\n",
  "sourcePath": "contracts/mocks/MathMock.sol",
  "abi": [
    {
      "constant": true,
      "inputs": [
        {
          "internalType": "uint256",
          "name": "a",
          "type": "uint256"
        },
        {
          "internalType": "uint256",
          "name": "b",
          "type": "uint256"
        }
      ],
      "name": "average",
      "outputs": [
        {
          "internalType": "uint256",
          "name": "",
          "type": "uint256"
        }
      ],
      "payable": false,
      "stateMutability": "pure",
      "type": "function"
    },
    {
      "constant": true,
      "inputs": [
        {
          "internalType": "uint256",
          "name": "a",
          "type": "uint256"
        },
        {
          "internalType": "uint256",
          "name": "b",
          "type": "uint256"
        }
      ],
      "name": "max",
      "outputs": [
        {
          "internalType": "uint256",
          "name": "",
          "type": "uint256"
        }
      ],
      "payable": false,
      "stateMutability": "pure",
      "type": "function"
    },
    {
      "constant": true,
      "inputs": [
        {
          "internalType": "uint256",
          "name": "a",
          "type": "uint256"
        },
        {
          "internalType": "uint256",
          "name": "b",
          "type": "uint256"
        }
      ],
      "name": "min",
      "outputs": [
        {
          "internalType": "uint256",
          "name": "",
          "type": "uint256"
        }
      ],
      "payable": false,
      "stateMutability": "pure",
      "type": "function"
    }
  ],
  "bytecode": "0x608060405234801561001057600080fd5b50610210806100206000396000f3fe608060405234801561001057600080fd5b50600436106100415760003560e01c80632b7423ab146100465780636d5433e6146100925780637ae2b5c7146100de575b600080fd5b61007c6004803603604081101561005c57600080fd5b81019080803590602001909291908035906020019092919050505061012a565b6040518082815260200191505060405180910390f35b6100c8600480360360408110156100a857600080fd5b81019080803590602001909291908035906020019092919050505061013e565b6040518082815260200191505060405180910390f35b610114600480360360408110156100f457600080fd5b810190808035906020019092919080359060200190929190505050610152565b6040518082815260200191505060405180910390f35b60006101368383610166565b905092915050565b600061014a83836101a8565b905092915050565b600061015e83836101c2565b905092915050565b6000600280838161017357fe5b066002858161017e57fe5b06018161018757fe5b046002838161019257fe5b046002858161019d57fe5b040101905092915050565b6000818310156101b857816101ba565b825b905092915050565b60008183106101d157816101d3565b825b90509291505056fea265627a7a723158200fabefa8ab1e0947a7c811966d08d573801f41b970ae7beccf4e42907a4d2a3c64736f6c63430005110032",
  "compiler": {
    "name": "solc",
    "version": "0.5.17+commit.d19bba13.Emscripten.clang",
    "optimizer": {
      "enabled": false,
      "runs": 200
    },
    "evmVersion": "petersburg"
  }
}