{
  "fileName": "RefundEscrow.sol",
  "contractName": "RefundEscrow",
  "source": "pragma solidity ^0.5.0;\n\nimport \"./ConditionalEscrow.sol\";\n\n/**\n * @title RefundEscrow\n * @dev Escrow that holds funds for a beneficiary, deposited from multiple\n * parties.\n * @dev Intended usage: See {Escrow}. Same usage guidelines apply here.\n * @dev The primary account (that is, the contract that instantiates this\n * contract) may deposit, close the deposit period, and allow for either\n * withdrawal by the beneficiary, or refunds to the depositors. All interactions\n * with `RefundEscrow` will be made through the primary contract. See the\n * `RefundableCrowdsale` contract for an example of `RefundEscrow`’s use.\n */\ncontract RefundEscrow is ConditionalEscrow {\n    enum State { Active, Refunding, Closed }\n\n    event RefundsClosed();\n    event RefundsEnabled();\n\n    State private _state;\n    address payable private _beneficiary;\n\n    /**\n     * @dev Constructor.\n     * @param beneficiary The beneficiary of the deposits.\n     */\n    constructor (address payable beneficiary) public {\n        require(beneficiary != address(0), \"RefundEscrow: beneficiary is the zero address\");\n        _beneficiary = beneficiary;\n        _state = State.Active;\n    }\n\n    /**\n     * @return The current state of the escrow.\n     */\n    function state() public view returns (State) {\n        return _state;\n    }\n\n    /**\n     * @return The beneficiary of the escrow.\n     */\n    function beneficiary() public view returns (address) {\n        return _beneficiary;\n    }\n\n    /**\n     * @dev Stores funds that may later be refunded.\n     * @param refundee The address funds will be sent to if a refund occurs.\n     */\n    function deposit(address refundee) public payable {\n        require(_state == State.Active, \"RefundEscrow: can only deposit while active\");\n        super.deposit(refundee);\n    }\n\n    /**\n     * @dev Allows for the beneficiary to withdraw their funds, rejecting\n     * further deposits.\n     */\n    function close() public onlyPrimary {\n        require(_state == State.Active, \"RefundEscrow: can only close while active\");\n        _state = State.Closed;\n        emit RefundsClosed();\n    }\n\n    /**\n     * @dev Allows for refunds to take place, rejecting further deposits.\n     */\n    function enableRefunds() public onlyPrimary {\n        require(_state == State.Active, \"RefundEscrow: can only enable refunds while active\");\n        _state = State.Refunding;\n        emit RefundsEnabled();\n    }\n\n    /**\n     * @dev Withdraws the beneficiary's funds.\n     */\n    function beneficiaryWithdraw() public {\n        require(_state == State.Closed, \"RefundEscrow: beneficiary can only withdraw while closed\");\n        _beneficiary.transfer(address(this).balance);\n    }\n\n    /**\n     * @dev Returns whether refundees can withdraw their deposits (be refunded). The overridden function receives a\n     * 'payee' argument, but we ignore it here since the condition is global, not per-payee.\n     */\n    function withdrawalAllowed(address) public view returns (bool) {\n        return _state == State.Refunding;\n    }\n}\n",
  "sourcePath": "contracts/payment/escrow/RefundEscrow.sol",
  "abi": [
    {
      "inputs": [
        {
          "internalType": "address payable",
          "name": "beneficiary",
          "type": "address"
        }
      ],
      "payable": false,
      "stateMutability": "nonpayable",
      "type": "constructor"
    },
    {
      "anonymous": false,
      "inputs": [
        {
          "indexed": true,
          "internalType": "address",
          "name": "payee",
          "type": "address"
        },
        {
          "indexed": false,
          "internalType": "uint256",
          "name": "weiAmount",
          "type": "uint256"
        }
      ],
      "name": "Deposited",
      "type": "event"
    },
    {
      "anonymous": false,
      "inputs": [
        {
          "indexed": false,
          "internalType": "address",
          "name": "recipient",
          "type": "address"
        }
      ],
      "name": "PrimaryTransferred",
      "type": "event"
    },
    {
      "anonymous": false,
      "inputs": [],
      "name": "RefundsClosed",
      "type": "event"
    },
    {
      "anonymous": false,
      "inputs": [],
      "name": "RefundsEnabled",
      "type": "event"
    },
    {
      "anonymous": false,
      "inputs": [
        {
          "indexed": true,
          "internalType": "address",
          "name": "payee",
          "type": "address"
        },
        {
          "indexed": false,
          "internalType": "uint256",
          "name": "weiAmount",
          "type": "uint256"
        }
      ],
      "name": "Withdrawn",
      "type": "event"
    },
    {
      "constant": true,
      "inputs": [],
      "name": "beneficiary",
      "outputs": [
        {
          "internalType": "address",
          "name": "",
          "type": "address"
        }
      ],
      "payable": false,
      "stateMutability": "view",
      "type": "function"
    },
    {
      "constant": false,
      "inputs": [],
      "name": "beneficiaryWithdraw",
      "outputs": [],
      "payable": false,
      "stateMutability": "nonpayable",
      "type": "function"
    },
    {
      "constant": false,
      "inputs": [],
      "name": "close",
      "outputs": [],
      "payable": false,
      "stateMutability": "nonpayable",
      "type": "function"
    },
    {
      "constant": false,
      "inputs": [
        {
          "internalType": "address",
          "name": "refundee",
          "type": "address"
        }
      ],
      "name": "deposit",
      "outputs": [],
      "payable": true,
      "stateMutability": "payable",
      "type": "function"
    },
    {
      "constant": true,
      "inputs": [
        {
          "internalType": "address",
          "name": "payee",
          "type": "address"
        }
      ],
      "name": "depositsOf",
      "outputs": [
        {
          "internalType": "uint256",
          "name": "",
          "type": "uint256"
        }
      ],
      "payable": false,
      "stateMutability": "view",
      "type": "function"
    },
    {
      "constant": false,
      "inputs": [],
      "name": "enableRefunds",
      "outputs": [],
      "payable": false,
      "stateMutability": "nonpayable",
      "type": "function"
    },
    {
      "constant": true,
      "inputs": [],
      "name": "primary",
      "outputs": [
        {
          "internalType": "address",
          "name": "",
          "type": "address"
        }
      ],
      "payable": false,
      "stateMutability": "view",
      "type": "function"
    },
    {
      "constant": true,
      "inputs": [],
      "name": "state",
      "outputs": [
        {
          "internalType": "enum RefundEscrow.State",
          "name": "",
          "type": "uint8"
        }
      ],
      "payable": false,
      "stateMutability": "view",
      "type": "function"
    },
    {
      "constant": false,
      "inputs": [
        {
          "internalType": "address",
          "name": "recipient",
          "type": "address"
        }
      ],
      "name": "transferPrimary",
      "outputs": [],
      "payable": false,
      "stateMutability": "nonpayable",
      "type": "function"
    },
    {
      "constant": false,
      "inputs": [
        {
          "internalType": "address payable",
          "name": "payee",
          "type": "address"
        }
      ],
      "name": "withdraw",
      "outputs": [],
      "payable": false,
      "stateMutability": "nonpayable",
      "type": "function"
    },
    {
      "constant": false,
      "inputs": [
        {
          "internalType": "address payable",
          "name": "payee",
          "type": "address"
        }
      ],
      "name": "withdrawWithGas",
      "outputs": [],
      "payable": false,
      "stateMutability": "nonpayable",
      "type": "function"
    },
    {
      "constant": true,
      "inputs": [
        {
          "internalType": "address",
          "name": "",
          "type": "address"
        }
      ],
      "name": "withdrawalAllowed",
      "outputs": [
        {
          "internalType": "bool",
          "name": "",
          "type": "bool"
        }
      ],
      "payable": false,
      "stateMutability": "view",
      "type": "function"
    }
  ],
  "bytecode": "0x608060405234801561001057600080fd5b506040516116603803806116608339818101604052602081101561003357600080fd5b810190808051906020019092919050505060006100546101eb60201b60201c565b9050806000806101000a81548173ffffffffffffffffffffffffffffffffffffffff021916908373ffffffffffffffffffffffffffffffffffffffff1602179055507f4101e71e974f68df5e9730cc223280b41654676bbb052cdcc735c3337e64d2d981604051808273ffffffffffffffffffffffffffffffffffffffff1673ffffffffffffffffffffffffffffffffffffffff16815260200191505060405180910390a150600073ffffffffffffffffffffffffffffffffffffffff168173ffffffffffffffffffffffffffffffffffffffff161415610180576040517f08c379a000000000000000000000000000000000000000000000000000000000815260040180806020018281038252602d815260200180611633602d913960400191505060405180910390fd5b80600260016101000a81548173ffffffffffffffffffffffffffffffffffffffff021916908373ffffffffffffffffffffffffffffffffffffffff1602179055506000600260006101000a81548160ff021916908360028111156101e057fe5b0217905550506101f3565b600033905090565b611431806102026000396000f3fe6080604052600436106100a75760003560e01c80638c52dc41116100645780638c52dc41146102765780639af6549a1461028d578063c19d93fb146102a4578063c6dbdf61146102dd578063e3a9db1a14610334578063f340fa0114610399576100a7565b80632348238c146100ac57806338af3eed146100fd57806343d726d61461015457806351cff8d91461016b5780636809691a146101bc578063685ca1941461020d575b600080fd5b3480156100b857600080fd5b506100fb600480360360208110156100cf57600080fd5b81019080803573ffffffffffffffffffffffffffffffffffffffff1690602001909291905050506103dd565b005b34801561010957600080fd5b506101126105b5565b604051808273ffffffffffffffffffffffffffffffffffffffff1673ffffffffffffffffffffffffffffffffffffffff16815260200191505060405180910390f35b34801561016057600080fd5b506101696105df565b005b34801561017757600080fd5b506101ba6004803603602081101561018e57600080fd5b81019080803573ffffffffffffffffffffffffffffffffffffffff16906020019092919050505061075a565b005b3480156101c857600080fd5b5061020b600480360360208110156101df57600080fd5b81019080803573ffffffffffffffffffffffffffffffffffffffff1690602001909291905050506107c4565b005b34801561021957600080fd5b5061025c6004803603602081101561023057600080fd5b81019080803573ffffffffffffffffffffffffffffffffffffffff169060200190929190505050610974565b604051808215151515815260200191505060405180910390f35b34801561028257600080fd5b5061028b6109a6565b005b34801561029957600080fd5b506102a2610b22565b005b3480156102b057600080fd5b506102b9610c21565b604051808260028111156102c957fe5b60ff16815260200191505060405180910390f35b3480156102e957600080fd5b506102f2610c38565b604051808273ffffffffffffffffffffffffffffffffffffffff1673ffffffffffffffffffffffffffffffffffffffff16815260200191505060405180910390f35b34801561034057600080fd5b506103836004803603602081101561035757600080fd5b81019080803573ffffffffffffffffffffffffffffffffffffffff169060200190929190505050610c61565b6040518082815260200191505060405180910390f35b6103db600480360360208110156103af57600080fd5b81019080803573ffffffffffffffffffffffffffffffffffffffff169060200190929190505050610caa565b005b6000809054906101000a900473ffffffffffffffffffffffffffffffffffffffff1673ffffffffffffffffffffffffffffffffffffffff1661041d610d34565b73ffffffffffffffffffffffffffffffffffffffff1614610489576040517f08c379a000000000000000000000000000000000000000000000000000000000815260040180806020018281038252602c81526020018061139f602c913960400191505060405180910390fd5b600073ffffffffffffffffffffffffffffffffffffffff168173ffffffffffffffffffffffffffffffffffffffff16141561050f576040517f08c379a000000000000000000000000000000000000000000000000000000000815260040180806020018281038252602a815260200180611375602a913960400191505060405180910390fd5b806000806101000a81548173ffffffffffffffffffffffffffffffffffffffff021916908373ffffffffffffffffffffffffffffffffffffffff1602179055507f4101e71e974f68df5e9730cc223280b41654676bbb052cdcc735c3337e64d2d981604051808273ffffffffffffffffffffffffffffffffffffffff1673ffffffffffffffffffffffffffffffffffffffff16815260200191505060405180910390a150565b6000600260019054906101000a900473ffffffffffffffffffffffffffffffffffffffff16905090565b6000809054906101000a900473ffffffffffffffffffffffffffffffffffffffff1673ffffffffffffffffffffffffffffffffffffffff1661061f610d34565b73ffffffffffffffffffffffffffffffffffffffff161461068b576040517f08c379a000000000000000000000000000000000000000000000000000000000815260040180806020018281038252602c81526020018061139f602c913960400191505060405180910390fd5b6000600281111561069857fe5b600260009054906101000a900460ff1660028111156106b357fe5b14610709576040517f08c379a000000000000000000000000000000000000000000000000000000000815260040180806020018281038252602981526020018061134c6029913960400191505060405180910390fd5b60028060006101000a81548160ff0219169083600281111561072757fe5b02179055507f088672c3a6e342f7cd94a65ba63b79df24a8973927b4d05d803c44bbf787d12f60405160405180910390a1565b61076381610974565b6107b8576040517f08c379a00000000000000000000000000000000000000000000000000000000081526004018080602001828103825260338152602001806113196033913960400191505060405180910390fd5b6107c181610d3c565b50565b6000809054906101000a900473ffffffffffffffffffffffffffffffffffffffff1673ffffffffffffffffffffffffffffffffffffffff16610804610d34565b73ffffffffffffffffffffffffffffffffffffffff1614610870576040517f08c379a000000000000000000000000000000000000000000000000000000000815260040180806020018281038252602c81526020018061139f602c913960400191505060405180910390fd5b6000600160008373ffffffffffffffffffffffffffffffffffffffff1673ffffffffffffffffffffffffffffffffffffffff1681526020019081526020016000205490506000600160008473ffffffffffffffffffffffffffffffffffffffff1673ffffffffffffffffffffffffffffffffffffffff16815260200190815260200160002081905550610922818373ffffffffffffffffffffffffffffffffffffffff16610f0a90919063ffffffff16565b8173ffffffffffffffffffffffffffffffffffffffff167f7084f5476618d8e60b11ef0d7d3f06914655adb8793e28ff7f018d4c76d505d5826040518082815260200191505060405180910390a25050565b60006001600281111561098357fe5b600260009054906101000a900460ff16600281111561099e57fe5b149050919050565b6000809054906101000a900473ffffffffffffffffffffffffffffffffffffffff1673ffffffffffffffffffffffffffffffffffffffff166109e6610d34565b73ffffffffffffffffffffffffffffffffffffffff1614610a52576040517f08c379a000000000000000000000000000000000000000000000000000000000815260040180806020018281038252602c81526020018061139f602c913960400191505060405180910390fd5b60006002811115610a5f57fe5b600260009054906101000a900460ff166002811115610a7a57fe5b14610ad0576040517f08c379a00000000000000000000000000000000000000000000000000000000081526004018080602001828103825260328152602001806113cb6032913960400191505060405180910390fd5b6001600260006101000a81548160ff02191690836002811115610aef57fe5b02179055507f599d8e5a83cffb867d051598c4d70e805d59802d8081c1c7d6dffc5b6aca2b8960405160405180910390a1565b600280811115610b2e57fe5b600260009054906101000a900460ff166002811115610b4957fe5b14610b9f576040517f08c379a000000000000000000000000000000000000000000000000000000000815260040180806020018281038252603881526020018061127c6038913960400191505060405180910390fd5b600260019054906101000a900473ffffffffffffffffffffffffffffffffffffffff1673ffffffffffffffffffffffffffffffffffffffff166108fc3073ffffffffffffffffffffffffffffffffffffffff16319081150290604051600060405180830381858888f19350505050158015610c1e573d6000803e3d6000fd5b50565b6000600260009054906101000a900460ff16905090565b60008060009054906101000a900473ffffffffffffffffffffffffffffffffffffffff16905090565b6000600160008373ffffffffffffffffffffffffffffffffffffffff1673ffffffffffffffffffffffffffffffffffffffff168152602001908152602001600020549050919050565b60006002811115610cb757fe5b600260009054906101000a900460ff166002811115610cd257fe5b14610d28576040517f08c379a000000000000000000000000000000000000000000000000000000000815260040180806020018281038252602b8152602001806112ee602b913960400191505060405180910390fd5b610d318161105b565b50565b600033905090565b6000809054906101000a900473ffffffffffffffffffffffffffffffffffffffff1673ffffffffffffffffffffffffffffffffffffffff16610d7c610d34565b73ffffffffffffffffffffffffffffffffffffffff1614610de8576040517f08c379a000000000000000000000000000000000000000000000000000000000815260040180806020018281038252602c81526020018061139f602c913960400191505060405180910390fd5b6000600160008373ffffffffffffffffffffffffffffffffffffffff1673ffffffffffffffffffffffffffffffffffffffff1681526020019081526020016000205490506000600160008473ffffffffffffffffffffffffffffffffffffffff1673ffffffffffffffffffffffffffffffffffffffff168152602001908152602001600020819055508173ffffffffffffffffffffffffffffffffffffffff166108fc829081150290604051600060405180830381858888f19350505050158015610eb7573d6000803e3d6000fd5b508173ffffffffffffffffffffffffffffffffffffffff167f7084f5476618d8e60b11ef0d7d3f06914655adb8793e28ff7f018d4c76d505d5826040518082815260200191505060405180910390a25050565b803073ffffffffffffffffffffffffffffffffffffffff16311015610f97576040517f08c379a000000000000000000000000000000000000000000000000000000000815260040180806020018281038252601d8152602001807f416464726573733a20696e73756666696369656e742062616c616e636500000081525060200191505060405180910390fd5b60008273ffffffffffffffffffffffffffffffffffffffff168260405180600001905060006040518083038185875af1925050503d8060008114610ff7576040519150601f19603f3d011682016040523d82523d6000602084013e610ffc565b606091505b5050905080611056576040517f08c379a000000000000000000000000000000000000000000000000000000000815260040180806020018281038252603a8152602001806112b4603a913960400191505060405180910390fd5b505050565b6000809054906101000a900473ffffffffffffffffffffffffffffffffffffffff1673ffffffffffffffffffffffffffffffffffffffff1661109b610d34565b73ffffffffffffffffffffffffffffffffffffffff1614611107576040517f08c379a000000000000000000000000000000000000000000000000000000000815260040180806020018281038252602c81526020018061139f602c913960400191505060405180910390fd5b600034905061115e81600160008573ffffffffffffffffffffffffffffffffffffffff1673ffffffffffffffffffffffffffffffffffffffff168152602001908152602001600020546111f390919063ffffffff16565b600160008473ffffffffffffffffffffffffffffffffffffffff1673ffffffffffffffffffffffffffffffffffffffff168152602001908152602001600020819055508173ffffffffffffffffffffffffffffffffffffffff167f2da466a7b24304f47e87fa2e1e5a81b9831ce54fec19055ce277ca2f39ba42c4826040518082815260200191505060405180910390a25050565b600080828401905083811015611271576040517f08c379a000000000000000000000000000000000000000000000000000000000815260040180806020018281038252601b8152602001807f536166654d6174683a206164646974696f6e206f766572666c6f77000000000081525060200191505060405180910390fd5b809150509291505056fe526566756e64457363726f773a2062656e65666963696172792063616e206f6e6c79207769746864726177207768696c6520636c6f736564416464726573733a20756e61626c6520746f2073656e642076616c75652c20726563697069656e74206d61792068617665207265766572746564526566756e64457363726f773a2063616e206f6e6c79206465706f736974207768696c6520616374697665436f6e646974696f6e616c457363726f773a207061796565206973206e6f7420616c6c6f77656420746f207769746864726177526566756e64457363726f773a2063616e206f6e6c7920636c6f7365207768696c65206163746976655365636f6e646172793a206e6577207072696d61727920697320746865207a65726f20616464726573735365636f6e646172793a2063616c6c6572206973206e6f7420746865207072696d617279206163636f756e74526566756e64457363726f773a2063616e206f6e6c7920656e61626c6520726566756e6473207768696c6520616374697665a265627a7a723158207e90e52044eac4bae591559c12753cb1a3c276178e36e8ce56440d66bf7a959f64736f6c63430005110032526566756e64457363726f773a2062656e656669636961727920697320746865207a65726f2061646472657373",
  "compiler": {
    "name": "solc",
    "version": "0.5.17+commit.d19bba13.Emscripten.clang",
    "optimizer": {
      "enabled": false,
      "runs": 200
    },
    "evmVersion": "petersburg"
  }
}