{
  "contractName": "CosmosBank",
  "abi": [
    {
      "anonymous": false,
      "inputs": [
        {
          "indexed": false,
          "internalType": "address",
          "name": "_token",
          "type": "address"
        },
        {
          "indexed": false,
          "internalType": "string",
          "name": "_symbol",
          "type": "string"
        },
        {
          "indexed": false,
          "internalType": "uint256",
          "name": "_amount",
          "type": "uint256"
        },
        {
          "indexed": false,
          "internalType": "address",
          "name": "_beneficiary",
          "type": "address"
        }
      ],
      "name": "LogBridgeTokenMint",
      "type": "event"
    },
    {
      "anonymous": false,
      "inputs": [
        {
          "indexed": false,
          "internalType": "address",
          "name": "_token",
          "type": "address"
        },
        {
          "indexed": false,
          "internalType": "string",
          "name": "_symbol",
          "type": "string"
        }
      ],
      "name": "LogNewBridgeToken",
      "type": "event"
    },
    {
      "constant": true,
      "inputs": [],
      "name": "bridgeTokenCount",
      "outputs": [
        {
          "internalType": "uint256",
          "name": "",
          "type": "uint256"
        }
      ],
      "payable": false,
      "stateMutability": "view",
      "type": "function"
    },
    {
      "constant": true,
      "inputs": [],
      "name": "cosmosDepositNonce",
      "outputs": [
        {
          "internalType": "uint256",
          "name": "",
          "type": "uint256"
        }
      ],
      "payable": false,
      "stateMutability": "view",
      "type": "function"
    },
    {
      "constant": true,
      "inputs": [
        {
          "internalType": "string",
          "name": "",
          "type": "string"
        }
      ],
      "name": "lowerToUpperTokens",
      "outputs": [
        {
          "internalType": "string",
          "name": "",
          "type": "string"
        }
      ],
      "payable": false,
      "stateMutability": "view",
      "type": "function"
    },
    {
      "constant": true,
      "inputs": [
        {
          "internalType": "string",
          "name": "str",
          "type": "string"
        }
      ],
      "name": "toLower",
      "outputs": [
        {
          "internalType": "string",
          "name": "",
          "type": "string"
        }
      ],
      "payable": false,
      "stateMutability": "pure",
      "type": "function"
    },
    {
      "constant": true,
      "inputs": [
        {
          "internalType": "string",
          "name": "_symbol",
          "type": "string"
        }
      ],
      "name": "getBridgeToken",
      "outputs": [
        {
          "internalType": "address",
          "name": "",
          "type": "address"
        }
      ],
      "payable": false,
      "stateMutability": "view",
      "type": "function"
    },
    {
      "constant": true,
      "inputs": [
        {
          "internalType": "string",
          "name": "_symbol",
          "type": "string"
        }
      ],
      "name": "safeLowerToUpperTokens",
      "outputs": [
        {
          "internalType": "string",
          "name": "",
          "type": "string"
        }
      ],
      "payable": false,
      "stateMutability": "view",
      "type": "function"
    }
  ],
  "bytecode": "0x608060405234801561001057600080fd5b50610892806100206000396000f3fe608060405234801561001057600080fd5b50600436106100725760003560e01c8063867910d311610050578063867910d3146101b45780639416b4231461025a578063ebb73ca91461030057610072565b8063328470ab14610077578063416d32271461009157806373d8866514610099575b600080fd5b61007f6103cf565b60408051918252519081900360200190f35b61007f6103d5565b61013f600480360360208110156100af57600080fd5b8101906020810181356401000000008111156100ca57600080fd5b8201836020820111156100dc57600080fd5b803590602001918460018302840111640100000000831117156100fe57600080fd5b91908080601f0160208091040260200160405190810160405280939291908181526020018383808284376000920191909152509295506103db945050505050565b6040805160208082528351818301528351919283929083019185019080838360005b83811015610179578181015183820152602001610161565b50505050905090810190601f1680156101a65780820380516001836020036101000a031916815260200191505b509250505060405180910390f35b61013f600480360360208110156101ca57600080fd5b8101906020810181356401000000008111156101e557600080fd5b8201836020820111156101f757600080fd5b8035906020019184600183028401116401000000008311171561021957600080fd5b91908080601f016020809104026020016040519081016040528093929190818152602001838380828437600092019190915250929550610573945050505050565b61013f6004803603602081101561027057600080fd5b81019060208101813564010000000081111561028b57600080fd5b82018360208201111561029d57600080fd5b803590602001918460018302840111640100000000831117156102bf57600080fd5b91908080601f01602080910402602001604051908101604052809392919081815260200183838082843760009201919091525092955061061a945050505050565b6103a66004803603602081101561031657600080fd5b81019060208101813564010000000081111561033157600080fd5b82018360208201111561034357600080fd5b8035906020019184600183028401116401000000008311171561036557600080fd5b91908080601f0160208091040260200160405190810160405280939291908181526020018383808284376000920191909152509295506107df945050505050565b6040805173ffffffffffffffffffffffffffffffffffffffff9092168252519081900360200190f35b60005481565b60015481565b6060806003836040518082805190602001908083835b602083106104105780518252601f1990920191602091820191016103f1565b518151600019602094850361010090810a820192831692199390931691909117909252949092019687526040805197889003820188208054601f60026001831615909802909501169590950492830182900482028801820190528187529294509250508301828280156104c45780601f10610499576101008083540402835291602001916104c4565b820191906000526020600020905b8154815290600101906020018083116104a757829003601f168201915b505060405184519495507fc5d2460186f7233c927e7db2dcc703c0e500b653ca82273b7bfad8045d85a4709486945060209182019350839250908401908083835b602083106105245780518252601f199092019160209182019101610505565b6001836020036101000a038019825116818451168082178552505050505050905001915050604051602081830303815290604052805190602001201461056a578061056c565b825b9392505050565b805160208183018101805160038252928201938201939093209190925280546040805160026001841615610100026000190190931692909204601f810185900485028301850190915280825290928301828280156106125780601f106105e757610100808354040283529160200191610612565b820191906000526020600020905b8154815290600101906020018083116105f557829003601f168201915b505050505081565b606080829050606081516040519080825280601f01601f19166020018201604052801561064e576020820181803883390190505b50905060005b82518110156107d75782517f41000000000000000000000000000000000000000000000000000000000000009084908390811061068d57fe5b01602001517fff000000000000000000000000000000000000000000000000000000000000001610801590610717575082517f5a00000000000000000000000000000000000000000000000000000000000000908490839081106106ed57fe5b01602001517fff000000000000000000000000000000000000000000000000000000000000001611155b1561077c5782818151811061072857fe5b602001015160f81c60f81b60f81c60200160f81b82828151811061074857fe5b60200101907effffffffffffffffffffffffffffffffffffffffffffffffffffffffffffff1916908160001a9053506107cf565b82818151811061078857fe5b602001015160f81c60f81b82828151811061079f57fe5b60200101907effffffffffffffffffffffffffffffffffffffffffffffffffffffffffffff1916908160001a9053505b600101610654565b509392505050565b60006002826040518082805190602001908083835b602083106108135780518252601f1990920191602091820191016107f4565b51815160209384036101000a600019018019909216911617905292019485525060405193849003019092205473ffffffffffffffffffffffffffffffffffffffff1694935050505056fea265627a7a72315820f0769e958210fbd9975519c9b863d8a4973e2cdd4b239dad8230d0ff28535bbd64736f6c63430005100032",
  "source": "pragma solidity 0.5.16;\n\nimport \"../../node_modules/openzeppelin-solidity/contracts/math/SafeMath.sol\";\nimport \"./BridgeToken.sol\";\nimport \"./CosmosBankStorage.sol\";\nimport \"./ToLower.sol\";\n\n/**\n * @title CosmosBank\n * @dev Manages the deployment and minting of ERC20 compatible BridgeTokens\n *      which represent assets based on the Cosmos blockchain.\n **/\n\ncontract CosmosBank is CosmosBankStorage, ToLower {\n    using SafeMath for uint256;\n\n    /*\n     * @dev: Event declarations\n     */\n    event LogNewBridgeToken(address _token, string _symbol);\n\n    event LogBridgeTokenMint(\n        address _token,\n        string _symbol,\n        uint256 _amount,\n        address _beneficiary\n    );\n\n    /*\n     * @dev: Get a token symbol's corresponding bridge token address.\n     *\n     * @param _symbol: The token's symbol/denom without 'e' prefix.\n     * @return: Address associated with the given symbol. Returns address(0) if none is found.\n     */\n    function getBridgeToken(string memory _symbol)\n        public\n        view\n        returns (address)\n    {\n        return (controlledBridgeTokens[_symbol]);\n    }\n\n    function safeLowerToUpperTokens(string memory _symbol)\n        public\n        view\n        returns (string memory)\n    {\n        string memory retrievedSymbol = lowerToUpperTokens[_symbol];\n        return keccak256(abi.encodePacked(retrievedSymbol)) == keccak256(\"\") ? _symbol : retrievedSymbol;\n    }\n\n    /*\n     * @dev: Deploys a new BridgeToken contract\n     *\n     * @param _symbol: The BridgeToken's symbol\n     */\n    function deployNewBridgeToken(string memory _symbol)\n        internal\n        returns (address)\n    {\n        bridgeTokenCount = bridgeTokenCount.add(1);\n\n        // Deploy new bridge token contract\n        BridgeToken newBridgeToken = (new BridgeToken)(_symbol);\n\n        // Set address in tokens mapping\n        address newBridgeTokenAddress = address(newBridgeToken);\n        controlledBridgeTokens[_symbol] = newBridgeTokenAddress;\n        lowerToUpperTokens[toLower(_symbol)] = _symbol;\n\n        emit LogNewBridgeToken(newBridgeTokenAddress, _symbol);\n        return newBridgeTokenAddress;\n    }\n\n    /*\n     * @dev: Deploys a new BridgeToken contract\n     *\n     * @param _symbol: The BridgeToken's symbol\n     *\n     * @note the Rowan token symbol needs to be \"Rowan\" so that it integrates correctly with the cosmos bridge \n     */\n    function useExistingBridgeToken(address _contractAddress)\n        internal\n        returns (address)\n    {\n        bridgeTokenCount = bridgeTokenCount.add(1);\n\n        string memory _symbol = BridgeToken(_contractAddress).symbol();\n        // Set address in tokens mapping\n        address newBridgeTokenAddress = _contractAddress;\n        controlledBridgeTokens[_symbol] = newBridgeTokenAddress;\n        lowerToUpperTokens[toLower(_symbol)] = _symbol;\n\n        emit LogNewBridgeToken(newBridgeTokenAddress, _symbol);\n        return newBridgeTokenAddress;\n    }\n\n    /*\n     * @dev: Mints new cosmos tokens\n     *\n     * @param _cosmosSender: The sender's Cosmos address in bytes.\n     * @param _ethereumRecipient: The intended recipient's Ethereum address.\n     * @param _cosmosTokenAddress: The currency type\n     * @param _symbol: comsos token symbol\n     * @param _amount: number of comsos tokens to be minted\n     */\n    function mintNewBridgeTokens(\n        address payable _intendedRecipient,\n        address _bridgeTokenAddress,\n        string memory _symbol,\n        uint256 _amount\n    ) internal {\n        require(\n            controlledBridgeTokens[_symbol] == _bridgeTokenAddress,\n            \"Token must be a controlled bridge token\"\n        );\n\n        // Mint bridge tokens\n        require(\n            BridgeToken(_bridgeTokenAddress).mint(_intendedRecipient, _amount),\n            \"Attempted mint of bridge tokens failed\"\n        );\n\n        emit LogBridgeTokenMint(\n            _bridgeTokenAddress,\n            _symbol,\n            _amount,\n            _intendedRecipient\n        );\n    }\n}\n",
  "sourcePath": "/Users/bjmcd/Documents/Development/Clients/sifchain/sifnode/smart-contracts/contracts/BridgeBank/CosmosBank.sol",
  "compiler": {
    "name": "solc",
    "version": "0.5.16+commit.9c3226ce.Emscripten.clang"
  },
  "schemaVersion": "3.3.2",
  "updatedAt": "2021-03-24T06:48:19.906Z",
  "devdoc": {
    "details": "Manages the deployment and minting of ERC20 compatible BridgeTokens     which represent assets based on the Cosmos blockchain.*",
    "methods": {},
    "title": "CosmosBank"
  },
  "userdoc": {
    "methods": {}
  }
}