{
  "_format": "hh-sol-artifact-1",
  "contractName": "BankStorage",
  "sourceName": "contracts/BridgeBank/BankStorage.sol",
  "abi": [
    {
      "constant": true,
      "inputs": [],
      "name": "bridgeTokenCount",
      "outputs": [
        {
          "internalType": "uint256",
          "name": "",
          "type": "uint256"
        }
      ],
      "payable": false,
      "stateMutability": "view",
      "type": "function"
    },
    {
      "constant": true,
      "inputs": [],
      "name": "cosmosBridge",
      "outputs": [
        {
          "internalType": "address",
          "name": "",
          "type": "address"
        }
      ],
      "payable": false,
      "stateMutability": "view",
      "type": "function"
    },
    {
      "constant": true,
      "inputs": [],
      "name": "cosmosDepositNonce",
      "outputs": [
        {
          "internalType": "uint256",
          "name": "",
          "type": "uint256"
        }
      ],
      "payable": false,
      "stateMutability": "view",
      "type": "function"
    },
    {
      "constant": true,
      "inputs": [],
      "name": "lockBurnNonce",
      "outputs": [
        {
          "internalType": "uint256",
          "name": "",
          "type": "uint256"
        }
      ],
      "payable": false,
      "stateMutability": "view",
      "type": "function"
    },
    {
      "constant": true,
      "inputs": [
        {
          "internalType": "address",
          "name": "",
          "type": "address"
        }
      ],
      "name": "lockedFunds",
      "outputs": [
        {
          "internalType": "uint256",
          "name": "",
          "type": "uint256"
        }
      ],
      "payable": false,
      "stateMutability": "view",
      "type": "function"
    },
    {
      "constant": true,
      "inputs": [
        {
          "internalType": "string",
          "name": "",
          "type": "string"
        }
      ],
      "name": "lockedTokenList",
      "outputs": [
        {
          "internalType": "address",
          "name": "",
          "type": "address"
        }
      ],
      "payable": false,
      "stateMutability": "view",
      "type": "function"
    },
    {
      "constant": true,
      "inputs": [
        {
          "internalType": "string",
          "name": "",
          "type": "string"
        }
      ],
      "name": "lowerToUpperTokens",
      "outputs": [
        {
          "internalType": "string",
          "name": "",
          "type": "string"
        }
      ],
      "payable": false,
      "stateMutability": "view",
      "type": "function"
    },
    {
      "constant": true,
      "inputs": [
        {
          "internalType": "string",
          "name": "",
          "type": "string"
        }
      ],
      "name": "maxTokenAmount",
      "outputs": [
        {
          "internalType": "uint256",
          "name": "",
          "type": "uint256"
        }
      ],
      "payable": false,
      "stateMutability": "view",
      "type": "function"
    },
    {
      "constant": true,
      "inputs": [],
      "name": "operator",
      "outputs": [
        {
          "internalType": "address",
          "name": "",
          "type": "address"
        }
      ],
      "payable": false,
      "stateMutability": "view",
      "type": "function"
    },
    {
      "constant": true,
      "inputs": [],
      "name": "oracle",
      "outputs": [
        {
          "internalType": "address",
          "name": "",
          "type": "address"
        }
      ],
      "payable": false,
      "stateMutability": "view",
      "type": "function"
    },
    {
      "constant": true,
      "inputs": [],
      "name": "owner",
      "outputs": [
        {
          "internalType": "address",
          "name": "",
          "type": "address"
        }
      ],
      "payable": false,
      "stateMutability": "view",
      "type": "function"
    }
  ],
  "bytecode": "0x608060405234801561001057600080fd5b50610525806100206000396000f3fe608060405234801561001057600080fd5b50600436106100a95760003560e01c80637dc0d1d0116100715780637dc0d1d0146101a2578063867910d3146101aa5780638da5cb5b146102c5578063b0e9ef71146102cd578063b86247d7146102d5578063f24a590a146102fb576100a9565b806311cf03cb146100ae5780631deed3bb14610166578063328470ab1461016e578063416d322714610176578063570ca7351461017e575b600080fd5b610154600480360360208110156100c457600080fd5b8101906020810181356401000000008111156100df57600080fd5b8201836020820111156100f157600080fd5b8035906020019184600183028401116401000000008311171561011357600080fd5b91908080601f0160208091040260200160405190810160405280939291908181526020018383808284376000920191909152509295506103a1945050505050565b60408051918252519081900360200190f35b6101546103bf565b6101546103c5565b6101546103cb565b6101866103d1565b604080516001600160a01b039092168252519081900360200190f35b6101866103e1565b610250600480360360208110156101c057600080fd5b8101906020810181356401000000008111156101db57600080fd5b8201836020820111156101ed57600080fd5b8035906020019184600183028401116401000000008311171561020f57600080fd5b91908080601f0160208091040260200160405190810160405280939291908181526020018383808284376000920191909152509295506103f1945050505050565b6040805160208082528351818301528351919283929083019185019080838360005b8381101561028a578181015183820152602001610272565b50505050905090810190601f1680156102b75780820380516001836020036101000a031916815260200191505b509250505060405180910390f35b610186610498565b6101866104a8565b610154600480360360208110156102eb57600080fd5b50356001600160a01b03166104b8565b6101866004803603602081101561031157600080fd5b81019060208101813564010000000081111561032c57600080fd5b82018360208201111561033e57600080fd5b8035906020019184600183028401116401000000008311171561036057600080fd5b91908080601f0160208091040260200160405190810160405280939291908181526020018383808284376000920191909152509295506104ca945050505050565b80516020818301810180516101388252928201919093012091525481565b60685481565b60005481565b60015481565b610134546001600160a01b031681565b610135546001600160a01b031681565b805160208183018101805160038252928201938201939093209190925280546040805160026001841615610100026000190190931692909204601f810185900485028301850190915280825290928301828280156104905780601f1061046557610100808354040283529160200191610490565b820191906000526020600020905b81548152906001019060200180831161047357829003601f168201915b505050505081565b610137546001600160a01b031681565b610136546001600160a01b031681565b60696020526000908152604090205481565b8051602081830181018051606a825292820191909301209152546001600160a01b03168156fea265627a7a72315820ca4d90d3a066260d35a0e648833e91b755123d842799cd948b0ee1681c9599b964736f6c63430005100032",
  "linkReferences": {},
  "deployedLinkReferences": {}
}