{
  "contractName": "CosmosBank",
  "abi": [
    {
      "inputs": [],
      "payable": false,
      "stateMutability": "nonpayable",
      "type": "constructor"
    },
    {
      "anonymous": false,
      "inputs": [
        {
          "indexed": false,
          "internalType": "address",
          "name": "_token",
          "type": "address"
        },
        {
          "indexed": false,
          "internalType": "string",
          "name": "_symbol",
          "type": "string"
        },
        {
          "indexed": false,
          "internalType": "uint256",
          "name": "_amount",
          "type": "uint256"
        },
        {
          "indexed": false,
          "internalType": "address",
          "name": "_beneficiary",
          "type": "address"
        }
      ],
      "name": "LogBridgeTokenMint",
      "type": "event"
    },
    {
      "anonymous": false,
      "inputs": [
        {
          "indexed": false,
          "internalType": "address",
          "name": "_token",
          "type": "address"
        },
        {
          "indexed": false,
          "internalType": "string",
          "name": "_symbol",
          "type": "string"
        }
      ],
      "name": "LogNewBridgeToken",
      "type": "event"
    },
    {
      "constant": true,
      "inputs": [],
      "name": "bridgeTokenCount",
      "outputs": [
        {
          "internalType": "uint256",
          "name": "",
          "type": "uint256"
        }
      ],
      "payable": false,
      "stateMutability": "view",
      "type": "function"
    },
    {
      "constant": true,
      "inputs": [],
      "name": "cosmosDepositNonce",
      "outputs": [
        {
          "internalType": "uint256",
          "name": "",
          "type": "uint256"
        }
      ],
      "payable": false,
      "stateMutability": "view",
      "type": "function"
    },
    {
      "constant": true,
      "inputs": [
        {
          "internalType": "string",
          "name": "_symbol",
          "type": "string"
        }
      ],
      "name": "getBridgeToken",
      "outputs": [
        {
          "internalType": "address",
          "name": "",
          "type": "address"
        }
      ],
      "payable": false,
      "stateMutability": "view",
      "type": "function"
    }
  ],
  "bytecode": "0x608060405234801561001057600080fd5b506000808190555060006001819055506102518061002f6000396000f3fe608060405234801561001057600080fd5b50600436106100415760003560e01c8063328470ab14610046578063416d322714610064578063ebb73ca914610082575b600080fd5b61004e61017d565b6040518082815260200191505060405180910390f35b61006c610183565b6040518082815260200191505060405180910390f35b61013b6004803603602081101561009857600080fd5b81019080803590602001906401000000008111156100b557600080fd5b8201836020820111156100c757600080fd5b803590602001918460018302840111640100000000831117156100e957600080fd5b91908080601f016020809104026020016040519081016040528093929190818152602001838380828437600081840152601f19601f820116905080830192505050505050509192919290505050610189565b604051808273ffffffffffffffffffffffffffffffffffffffff1673ffffffffffffffffffffffffffffffffffffffff16815260200191505060405180910390f35b60005481565b60015481565b60006002826040518082805190602001908083835b602083106101c1578051825260208201915060208101905060208303925061019e565b6001836020036101000a038019825116818451168082178552505050505050905001915050908152602001604051809103902060009054906101000a900473ffffffffffffffffffffffffffffffffffffffff16905091905056fea265627a7a7231582015839c68d61ca262331622d770d4b20b495e1943a5c2e044475de0226983a68a64736f6c63430005100032",
  "source": "pragma solidity ^0.5.0;\n\nimport \"../../node_modules/openzeppelin-solidity/contracts/math/SafeMath.sol\";\nimport \"./BridgeToken.sol\";\n\n\n/**\n * @title CosmosBank\n * @dev Manages the deployment and minting of ERC20 compatible BridgeTokens\n *      which represent assets based on the Cosmos blockchain.\n **/\n\ncontract CosmosBank {\n    using SafeMath for uint256;\n\n    uint256 public bridgeTokenCount;\n    uint256 public cosmosDepositNonce;\n    mapping(string => address) controlledBridgeTokens;\n    mapping(bytes32 => CosmosDeposit) cosmosDeposits;\n\n    struct CosmosDeposit {\n        bytes cosmosSender;\n        address payable ethereumRecipient;\n        address bridgeTokenAddress;\n        uint256 amount;\n        bool locked;\n    }\n\n    /*\n     * @dev: Event declarations\n     */\n    event LogNewBridgeToken(address _token, string _symbol);\n\n    event LogBridgeTokenMint(\n        address _token,\n        string _symbol,\n        uint256 _amount,\n        address _beneficiary\n    );\n\n    /*\n     * @dev: Constructor, sets bridgeTokenCount\n     */\n    constructor() public {\n        bridgeTokenCount = 0;\n        cosmosDepositNonce = 0;\n    }\n\n    /*\n     * @dev: Modifier declarations\n     */\n    modifier availableCosmosDepositNonce() {\n        require(cosmosDepositNonce + 1 > cosmosDepositNonce, \"No available cosmos deposit nonces.\");\n        _;\n    }\n\n    /*\n     * @dev: Get a token symbol's corresponding bridge token address.\n     *\n     * @param _symbol: The token's symbol/denom without 'PEGGY' prefix.\n     * @return: Address associated with the given symbol. Returns address(0) if none is found.\n     */\n    function getBridgeToken(string memory _symbol)\n        public\n        view\n        returns (address)\n    {\n        return (controlledBridgeTokens[_symbol]);\n    }\n\n    /*\n     * @dev: Creates a new CosmosDeposit with a unique ID\n     *\n     * @param _cosmosSender: The sender's Cosmos address in bytes.\n     * @param _ethereumRecipient: The intended recipient's Ethereum address.\n     * @param _token: The currency type\n     * @param _amount: The amount in the deposit.\n     * @return: The newly created CosmosDeposit's unique id.\n     */\n    function newCosmosDeposit(\n        bytes memory _cosmosSender,\n        address payable _ethereumRecipient,\n        address _token,\n        uint256 _amount\n    ) internal returns (bytes32) {\n        cosmosDepositNonce = cosmosDepositNonce.add(1);\n        bytes32 depositID = keccak256(\n            abi.encodePacked(_cosmosSender, _ethereumRecipient, _token, _amount, cosmosDepositNonce)\n        );\n\n        cosmosDeposits[depositID] = CosmosDeposit(\n            _cosmosSender,\n            _ethereumRecipient,\n            _token,\n            _amount,\n            true\n        );\n\n        return depositID;\n    }\n\n    /*\n     * @dev: Deploys a new BridgeToken contract\n     *\n     * @param _symbol: The BridgeToken's symbol\n     */\n    function deployNewBridgeToken(string memory _symbol)\n        internal\n        returns (address)\n    {\n        bridgeTokenCount = bridgeTokenCount.add(1);\n\n        // Deploy new bridge token contract\n        BridgeToken newBridgeToken = (new BridgeToken)(_symbol);\n\n        // Set address in tokens mapping\n        address newBridgeTokenAddress = address(newBridgeToken);\n        controlledBridgeTokens[_symbol] = newBridgeTokenAddress;\n\n        emit LogNewBridgeToken(newBridgeTokenAddress, _symbol);\n        return newBridgeTokenAddress;\n    }\n\n    /*\n     * @dev: Mints new cosmos tokens\n     *\n     * @param _cosmosSender: The sender's Cosmos address in bytes.\n     * @param _ethereumRecipient: The intended recipient's Ethereum address.\n     * @param _cosmosTokenAddress: The currency type\n     * @param _symbol: comsos token symbol\n     * @param _amount: number of comsos tokens to be minted\n     */\n    function mintNewBridgeTokens(\n        bytes memory _cosmosSender,\n        address payable _intendedRecipient,\n        address _bridgeTokenAddress,\n        string memory _symbol,\n        uint256 _amount\n    ) internal {\n        require(\n            controlledBridgeTokens[_symbol] == _bridgeTokenAddress,\n            \"Token must be a controlled bridge token\"\n        );\n\n        // Mint bridge tokens\n        require(\n            BridgeToken(_bridgeTokenAddress).mint(_intendedRecipient, _amount),\n            \"Attempted mint of bridge tokens failed\"\n        );\n\n        newCosmosDeposit(\n            _cosmosSender,\n            _intendedRecipient,\n            _bridgeTokenAddress,\n            _amount\n        );\n\n        emit LogBridgeTokenMint(\n            _bridgeTokenAddress,\n            _symbol,\n            _amount,\n            _intendedRecipient\n        );\n    }\n\n    /*\n     * @dev: Checks if an individual CosmosDeposit exists.\n     *\n     * @param _id: The unique CosmosDeposit's id.\n     * @return: Boolean indicating if the CosmosDeposit exists in memory.\n     */\n    function isLockedCosmosDeposit(bytes32 _id) internal view returns (bool) {\n        return (cosmosDeposits[_id].locked);\n    }\n\n    /*\n     * @dev: Gets an item's information\n     *\n     * @param _Id: The item containing the desired information.\n     * @return: Sender's address.\n     * @return: Recipient's address in bytes.\n     * @return: Token address.\n     * @return: Amount of ethereum/erc20 in the item.\n     * @return: Unique nonce of the item.\n     */\n    function getCosmosDeposit(bytes32 _id)\n        internal\n        view\n        returns (bytes memory, address payable, address, uint256)\n    {\n        CosmosDeposit memory deposit = cosmosDeposits[_id];\n\n        return (\n            deposit.cosmosSender,\n            deposit.ethereumRecipient,\n            deposit.bridgeTokenAddress,\n            deposit.amount\n        );\n    }\n}\n",
  "sourcePath": "/Users/elliotfriedman/Desktop/sifnode/testnet-contracts/contracts/BridgeBank/CosmosBank.sol",
  "compiler": {
    "name": "solc",
    "version": "0.5.16+commit.9c3226ce.Emscripten.clang"
  },
  "schemaVersion": "3.2.5",
  "updatedAt": "2020-11-02T02:29:12.147Z",
  "devdoc": {
    "details": "Manages the deployment and minting of ERC20 compatible BridgeTokens     which represent assets based on the Cosmos blockchain.*",
    "methods": {},
    "title": "CosmosBank"
  },
  "userdoc": {
    "methods": {}
  }
}