{
  "contractName": "WhiteList",
  "abi": [
    {
      "inputs": [],
      "payable": false,
      "stateMutability": "nonpayable",
      "type": "constructor"
    },
    {
      "anonymous": false,
      "inputs": [
        {
          "indexed": false,
          "internalType": "address",
          "name": "_token",
          "type": "address"
        },
        {
          "indexed": false,
          "internalType": "bool",
          "name": "_value",
          "type": "bool"
        }
      ],
      "name": "LogWhiteListUpdate",
      "type": "event"
    },
    {
      "constant": true,
      "inputs": [
        {
          "internalType": "address",
          "name": "_token",
          "type": "address"
        }
      ],
      "name": "getTokenInWhiteList",
      "outputs": [
        {
          "internalType": "bool",
          "name": "",
          "type": "bool"
        }
      ],
      "payable": false,
      "stateMutability": "view",
      "type": "function"
    }
  ],
  "bytecode": "0x608060405234801561001057600080fd5b5060016000808073ffffffffffffffffffffffffffffffffffffffff1673ffffffffffffffffffffffffffffffffffffffff16815260200190815260200160002060006101000a81548160ff021916908315150217905550610110806100776000396000f3fe6080604052348015600f57600080fd5b506004361060285760003560e01c8063b8ce2b8c14602d575b600080fd5b606c60048036036020811015604157600080fd5b81019080803573ffffffffffffffffffffffffffffffffffffffff1690602001909291905050506086565b604051808215151515815260200191505060405180910390f35b60008060008373ffffffffffffffffffffffffffffffffffffffff1673ffffffffffffffffffffffffffffffffffffffff16815260200190815260200160002060009054906101000a900460ff16905091905056fea265627a7a72315820ae15e5256a5a01d869888e394fc9b0781a50b84134f969ad148ed5d47d7e667d64736f6c63430005100032",
  "source": "pragma solidity ^0.5.0;\n\n/**\n * @title WhiteList\n * @dev WhiteList contract records the ERC 20 list that can be locked in BridgeBank.\n **/\n\ncontract WhiteList {\n    mapping(address => bool) whiteList;\n\n    /*\n     * @dev: Event declarations\n     */\n    event LogWhiteListUpdate(address _token, bool _value);\n\n    constructor() public {\n        whiteList[address(0)] = true;\n    }\n\n    /*\n     * @dev: Modifier to restrict erc20 can be locked\n     */\n    modifier onlyWhiteList(address _token) {\n        require(\n            getTokenInWhiteList(_token),\n            \"Only token in whitelist can be transferred to cosmos\"\n        );\n        _;\n    }\n\n    /*\n     * @dev: Set the token address in whitelist\n     *\n     * @param _token: ERC 20's address\n     * @param _inList: set the _token in list or not\n     * @return: new value of if _token in whitelist\n     */\n    function setTokenInWhiteList(address _token, bool _inList)\n        internal\n        returns (bool)\n    {\n        whiteList[_token] = _inList;\n        emit LogWhiteListUpdate(_token, _inList);\n        return _inList;\n    }\n\n    /*\n     * @dev: Get if the token in whitelist\n     *\n     * @param _token: ERC 20's address\n     * @return: if _token in whitelist\n     */\n    function getTokenInWhiteList(address _token) public view returns (bool) {\n        return whiteList[_token];\n    }\n}",
  "sourcePath": "/Users/elliotfriedman/Desktop/sifnode/testnet-contracts/contracts/BridgeBank/WhiteList.sol",
  "compiler": {
    "name": "solc",
    "version": "0.5.16+commit.9c3226ce.Emscripten.clang"
  },
  "schemaVersion": "3.2.5",
  "updatedAt": "2020-11-02T02:29:12.153Z",
  "devdoc": {
    "details": "WhiteList contract records the ERC 20 list that can be locked in BridgeBank.*",
    "methods": {},
    "title": "WhiteList"
  },
  "userdoc": {
    "methods": {}
  }
}