{
  "contractName": "OracleStorage",
  "abi": [
    {
      "constant": true,
      "inputs": [],
      "name": "consensusThreshold",
      "outputs": [
        {
          "internalType": "uint256",
          "name": "",
          "type": "uint256"
        }
      ],
      "payable": false,
      "stateMutability": "view",
      "type": "function"
    },
    {
      "constant": true,
      "inputs": [],
      "name": "cosmosBridge",
      "outputs": [
        {
          "internalType": "address",
          "name": "",
          "type": "address"
        }
      ],
      "payable": false,
      "stateMutability": "view",
      "type": "function"
    },
    {
      "constant": true,
      "inputs": [
        {
          "internalType": "uint256",
          "name": "",
          "type": "uint256"
        },
        {
          "internalType": "address",
          "name": "",
          "type": "address"
        }
      ],
      "name": "hasMadeClaim",
      "outputs": [
        {
          "internalType": "bool",
          "name": "",
          "type": "bool"
        }
      ],
      "payable": false,
      "stateMutability": "view",
      "type": "function"
    },
    {
      "constant": true,
      "inputs": [],
      "name": "operator",
      "outputs": [
        {
          "internalType": "address",
          "name": "",
          "type": "address"
        }
      ],
      "payable": false,
      "stateMutability": "view",
      "type": "function"
    },
    {
      "constant": true,
      "inputs": [
        {
          "internalType": "uint256",
          "name": "",
          "type": "uint256"
        }
      ],
      "name": "oracleClaimValidators",
      "outputs": [
        {
          "internalType": "uint256",
          "name": "",
          "type": "uint256"
        }
      ],
      "payable": false,
      "stateMutability": "view",
      "type": "function"
    }
  ],
  "bytecode": "0x608060405234801561001057600080fd5b506101ce806100206000396000f3fe608060405234801561001057600080fd5b50600436106100675760003560e01c8063a219763e11610050578063a219763e146100cc578063b0e9ef7114610119578063f9b0b5b91461012157610067565b8063570ca7351461006c57806378ffb1c61461009d575b600080fd5b610074610129565b6040805173ffffffffffffffffffffffffffffffffffffffff9092168252519081900360200190f35b6100ba600480360360208110156100b357600080fd5b5035610145565b60408051918252519081900360200190f35b610105600480360360408110156100e257600080fd5b508035906020013573ffffffffffffffffffffffffffffffffffffffff16610157565b604080519115158252519081900360200190f35b610074610177565b6100ba610193565b60015473ffffffffffffffffffffffffffffffffffffffff1681565b60036020526000908152604090205481565b600460209081526000928352604080842090915290825290205460ff1681565b60005473ffffffffffffffffffffffffffffffffffffffff1681565b6002548156fea265627a7a723158206a42db8a4dfb4243e0faa0382d503d79b0d98861fa3536db8619c62a7d2be27c64736f6c63430005100032",
  "source": "pragma solidity 0.5.16;\n\ncontract OracleStorage {\n    /*\n     * @dev: Public variable declarations\n     */\n    address public cosmosBridge;\n\n    /**\n    * @notice Tracks the number of OracleClaims made on an individual BridgeClaim\n    */\n    address public operator;\n\n    /**\n    * @notice Tracks the number of OracleClaims made on an individual BridgeClaim\n    */\n    uint256 public consensusThreshold; // e.g. 75 = 75%\n\n    /**\n    * @notice Tracks the number of OracleClaims made on an individual BridgeClaim\n    */\n    mapping(uint256 => uint256) public oracleClaimValidators;\n\n    /**\n    * @notice mapping of prophecyid to validator address to boolean\n    */\n    mapping(uint256 => mapping(address => bool)) public hasMadeClaim;\n\n    /**\n    * @notice gap of storage for future upgrades\n    */\n    uint256[100] private ____gap;\n}",
  "sourcePath": "/Users/bjmcd/Documents/Development/Clients/sifchain/sifnode/smart-contracts/contracts/OracleStorage.sol",
  "compiler": {
    "name": "solc",
    "version": "0.5.16+commit.9c3226ce.Emscripten.clang"
  },
  "schemaVersion": "3.3.2",
  "updatedAt": "2021-03-31T05:06:00.663Z",
  "devdoc": {
    "methods": {}
  },
  "userdoc": {
    "methods": {}
  }
}