{
  "contractName": "Pausable",
  "abi": [
    {
      "anonymous": false,
      "inputs": [
        {
          "indexed": false,
          "internalType": "address",
          "name": "account",
          "type": "address"
        }
      ],
      "name": "Paused",
      "type": "event"
    },
    {
      "anonymous": false,
      "inputs": [
        {
          "indexed": false,
          "internalType": "address",
          "name": "account",
          "type": "address"
        }
      ],
      "name": "Unpaused",
      "type": "event"
    },
    {
      "constant": false,
      "inputs": [
        {
          "internalType": "address",
          "name": "account",
          "type": "address"
        }
      ],
      "name": "addPauser",
      "outputs": [],
      "payable": false,
      "stateMutability": "nonpayable",
      "type": "function"
    },
    {
      "constant": true,
      "inputs": [
        {
          "internalType": "address",
          "name": "",
          "type": "address"
        }
      ],
      "name": "pausers",
      "outputs": [
        {
          "internalType": "bool",
          "name": "",
          "type": "bool"
        }
      ],
      "payable": false,
      "stateMutability": "view",
      "type": "function"
    },
    {
      "constant": false,
      "inputs": [],
      "name": "renouncePauser",
      "outputs": [],
      "payable": false,
      "stateMutability": "nonpayable",
      "type": "function"
    },
    {
      "constant": true,
      "inputs": [],
      "name": "paused",
      "outputs": [
        {
          "internalType": "bool",
          "name": "",
          "type": "bool"
        }
      ],
      "payable": false,
      "stateMutability": "view",
      "type": "function"
    },
    {
      "constant": false,
      "inputs": [],
      "name": "pause",
      "outputs": [],
      "payable": false,
      "stateMutability": "nonpayable",
      "type": "function"
    },
    {
      "constant": false,
      "inputs": [],
      "name": "unpause",
      "outputs": [],
      "payable": false,
      "stateMutability": "nonpayable",
      "type": "function"
    }
  ],
  "bytecode": "0x608060405234801561001057600080fd5b50610433806100206000396000f3fe608060405234801561001057600080fd5b50600436106100725760003560e01c806380f51c121161005057806380f51c12146100a557806382dc1ec4146100d85780638456cb591461010b57610072565b80633f4ba83a146100775780635c975abb146100815780636ef8d66d1461009d575b600080fd5b61007f610113565b005b6100896101f5565b604080519115158252519081900360200190f35b61007f6101fe565b610089600480360360208110156100bb57600080fd5b503573ffffffffffffffffffffffffffffffffffffffff16610209565b61007f600480360360208110156100ee57600080fd5b503573ffffffffffffffffffffffffffffffffffffffff1661021e565b61007f610278565b3360009081526020819052604090205460ff166101615760405162461bcd60e51b81526004018080602001828103825260308152602001806103cf6030913960400191505060405180910390fd5b60015460ff166101b8576040805162461bcd60e51b815260206004820152601460248201527f5061757361626c653a206e6f7420706175736564000000000000000000000000604482015290519081900360640190fd5b6101c061035b565b6040805133815290517f5db9ee0a495bf2e6ff9c91a7834c1ba4fdd244a5e8aa4e537bd38aeae4b073aa9181900360200190a1565b60015460ff1690565b6102073361036f565b565b60006020819052908152604090205460ff1681565b3360009081526020819052604090205460ff1661026c5760405162461bcd60e51b81526004018080602001828103825260308152602001806103cf6030913960400191505060405180910390fd5b6102758161039d565b50565b3360009081526020819052604090205460ff166102c65760405162461bcd60e51b81526004018080602001828103825260308152602001806103cf6030913960400191505060405180910390fd5b60015460ff161561031e576040805162461bcd60e51b815260206004820152601060248201527f5061757361626c653a2070617573656400000000000000000000000000000000604482015290519081900360640190fd5b61032661035b565b6040805133815290517f62e78cea01bee320cd4e420270b5ea74000d11b0c9f74754ebdbfc544b05a2589181900360200190a1565b6001805460ff19811660ff90911615179055565b73ffffffffffffffffffffffffffffffffffffffff166000908152602081905260409020805460ff19169055565b73ffffffffffffffffffffffffffffffffffffffff166000908152602081905260409020805460ff1916600117905556fe506175736572526f6c653a2063616c6c657220646f6573206e6f742068617665207468652050617573657220726f6c65a265627a7a7231582066462af75aea550b56f08cd089a012582ad9cd7b22322e60263f122485cb4dc464736f6c63430005100032",
  "source": "pragma solidity 0.5.16;\n\nimport \"./PauserRole.sol\";\n\n/**\n * @dev Contract module which allows children to implement an emergency stop\n * mechanism that can be triggered by an authorized account.\n *\n * This module is used through inheritance. It will make available the\n * modifiers `whenNotPaused` and `whenPaused`, which can be applied to\n * the functions of your contract. Note that they will not be pausable by\n * simply including this module, only once the modifiers are put in place.\n */\ncontract Pausable is PauserRole {\n    /**\n     * @dev Emitted when the pause is triggered by a pauser (`account`).\n     */\n    event Paused(address account);\n\n    /**\n     * @dev Emitted when the pause is lifted by a pauser (`account`).\n     */\n    event Unpaused(address account);\n\n    bool private _paused;\n\n\n    function initialize (address _user) internal {\n        _addPauser(_user);\n        _paused = false;\n    }\n\n    /**\n     * @dev Returns true if the contract is paused, and false otherwise.\n     */\n    function paused() public view returns (bool) {\n        return _paused;\n    }\n\n    /**\n     * @dev Modifier to make a function callable only when the contract is not paused.\n     */\n    modifier whenNotPaused() {\n        require(!_paused, \"Pausable: paused\");\n        _;\n    }\n\n    /**\n     * @dev Modifier to make a function callable only when the contract is paused.\n     */\n    modifier whenPaused() {\n        require(_paused, \"Pausable: not paused\");\n        _;\n    }\n\n    /**\n     * @dev Called by a owner to toggle pause\n     */\n    function togglePause() private {\n        _paused = !_paused;\n    }\n\n    /**\n     * @dev Called by a pauser to pause contract\n     */\n    function pause() external onlyPauser whenNotPaused {\n        togglePause();\n        emit Paused(msg.sender);\n    }\n\n    /**\n     * @dev Called by a pauser to unpause contract\n     */\n    function unpause() external onlyPauser whenPaused {\n        togglePause();\n        emit Unpaused(msg.sender);\n    }\n}\n",
  "sourcePath": "/Users/bjmcd/Documents/Development/Clients/sifchain/sifnode/smart-contracts/contracts/BridgeBank/Pausable.sol",
  "compiler": {
    "name": "solc",
    "version": "0.5.16+commit.9c3226ce.Emscripten.clang"
  },
  "schemaVersion": "3.3.2",
  "updatedAt": "2021-06-22T08:15:58.367Z",
  "devdoc": {
    "details": "Contract module which allows children to implement an emergency stop mechanism that can be triggered by an authorized account. * This module is used through inheritance. It will make available the modifiers `whenNotPaused` and `whenPaused`, which can be applied to the functions of your contract. Note that they will not be pausable by simply including this module, only once the modifiers are put in place.",
    "methods": {
      "pause()": {
        "details": "Called by a pauser to pause contract"
      },
      "paused()": {
        "details": "Returns true if the contract is paused, and false otherwise."
      },
      "unpause()": {
        "details": "Called by a pauser to unpause contract"
      }
    }
  },
  "userdoc": {
    "methods": {}
  }
}