{
  "contractName": "ToLower",
  "abi": [
    {
      "constant": true,
      "inputs": [
        {
          "internalType": "string",
          "name": "str",
          "type": "string"
        }
      ],
      "name": "toLower",
      "outputs": [
        {
          "internalType": "string",
          "name": "",
          "type": "string"
        }
      ],
      "payable": false,
      "stateMutability": "pure",
      "type": "function"
    }
  ],
  "bytecode": "0x608060405234801561001057600080fd5b50610345806100206000396000f3fe608060405234801561001057600080fd5b506004361061002b5760003560e01c80639416b42314610030575b600080fd5b6100d66004803603602081101561004657600080fd5b81019060208101813564010000000081111561006157600080fd5b82018360208201111561007357600080fd5b8035906020019184600183028401116401000000008311171561009557600080fd5b91908080601f01602080910402602001604051908101604052809392919081815260200183838082843760009201919091525092955061014b945050505050565b6040805160208082528351818301528351919283929083019185019080838360005b838110156101105781810151838201526020016100f8565b50505050905090810190601f16801561013d5780820380516001836020036101000a031916815260200191505b509250505060405180910390f35b606080829050606081516040519080825280601f01601f19166020018201604052801561017f576020820181803883390190505b50905060005b82518110156103085782517f4100000000000000000000000000000000000000000000000000000000000000908490839081106101be57fe5b01602001517fff000000000000000000000000000000000000000000000000000000000000001610801590610248575082517f5a000000000000000000000000000000000000000000000000000000000000009084908390811061021e57fe5b01602001517fff000000000000000000000000000000000000000000000000000000000000001611155b156102ad5782818151811061025957fe5b602001015160f81c60f81b60f81c60200160f81b82828151811061027957fe5b60200101907effffffffffffffffffffffffffffffffffffffffffffffffffffffffffffff1916908160001a905350610300565b8281815181106102b957fe5b602001015160f81c60f81b8282815181106102d057fe5b60200101907effffffffffffffffffffffffffffffffffffffffffffffffffffffffffffff1916908160001a9053505b600101610185565b50939250505056fea265627a7a723158207491fdc1c6807ae82b47b75175c62968fe6e33af2dd292094989e48707c31c2964736f6c63430005100032",
  "source": "pragma solidity 0.5.16;\n\ncontract ToLower {\n\n    function toLower(string memory str) public pure returns (string memory) {\n\t\tbytes memory bStr = bytes(str);\n\t\tbytes memory bLower = new bytes(bStr.length);\n\t\tfor (uint i = 0; i < bStr.length; i++) {\n\t\t\t// Uppercase character...\n\t\t\tif ((bStr[i] >= bytes1(uint8(65))) && (bStr[i] <= bytes1(uint8(90)))) {\n\t\t\t\t// So we add 32 to make it lowercase\n\t\t\t\tbLower[i] = bytes1(uint8(bStr[i]) + 32);\n\t\t\t} else {\n\t\t\t\tbLower[i] = bStr[i];\n\t\t\t}\n\t\t}\n\t\treturn string(bLower);\n\t}\n}",
  "sourcePath": "/Users/bjmcd/Documents/Development/Clients/sifchain/sifnode/smart-contracts/contracts/BridgeBank/ToLower.sol",
  "compiler": {
    "name": "solc",
    "version": "0.5.16+commit.9c3226ce.Emscripten.clang"
  },
  "schemaVersion": "3.3.2",
  "updatedAt": "2021-02-10T02:47:28.161Z",
  "devdoc": {
    "methods": {}
  },
  "userdoc": {
    "methods": {}
  }
}