{
  "_format": "hh-sol-artifact-1",
  "contractName": "ERC20UNSAFE",
  "sourceName": "contracts/MockUpgrade/MockCosmsosBridgeUpgrade.sol",
  "abi": [
    {
      "constant": true,
      "inputs": [
        {
          "internalType": "address",
          "name": "account",
          "type": "address"
        }
      ],
      "name": "balanceOf",
      "outputs": [
        {
          "internalType": "uint256",
          "name": "",
          "type": "uint256"
        }
      ],
      "payable": false,
      "stateMutability": "view",
      "type": "function"
    },
    {
      "constant": false,
      "inputs": [
        {
          "internalType": "address",
          "name": "recipient",
          "type": "address"
        },
        {
          "internalType": "uint256",
          "name": "amount",
          "type": "uint256"
        }
      ],
      "name": "transfer",
      "outputs": [
        {
          "internalType": "bool",
          "name": "",
          "type": "bool"
        }
      ],
      "payable": false,
      "stateMutability": "nonpayable",
      "type": "function"
    }
  ],
  "bytecode": "0x608060405234801561001057600080fd5b5061021d806100206000396000f3fe608060405234801561001057600080fd5b50600436106100365760003560e01c806370a082311461003b578063a9059cbb14610073575b600080fd5b6100616004803603602081101561005157600080fd5b50356001600160a01b03166100b3565b60408051918252519081900360200190f35b61009f6004803603604081101561008957600080fd5b506001600160a01b0381351690602001356100ce565b604080519115158252519081900360200190f35b6001600160a01b031660009081526001602052604090205490565b60006100db3384846100e4565b50600192915050565b6001600160a01b0383166101295760405162461bcd60e51b81526004018080602001828103825260258152602001806101c46025913960400191505060405180910390fd5b6001600160a01b03821661016e5760405162461bcd60e51b81526004018080602001828103825260238152602001806101a16023913960400191505060405180910390fd5b6001600160a01b039283166000908152600160205260408082208054849003905592909316835291208054909101905556fe45524332303a207472616e7366657220746f20746865207a65726f206164647265737345524332303a207472616e736665722066726f6d20746865207a65726f2061646472657373a265627a7a723158209a0a13611d38759f3e8f9403b8d2ddcdf7d531a1af3de55269b62ad693b03c0264736f6c63430005100032",
  "linkReferences": {},
  "deployedLinkReferences": {}
}