{
  "fileName": "AddressImpl.sol",
  "contractName": "AddressImpl",
  "source": "pragma solidity ^0.6.0;\n\nimport \"../utils/Address.sol\";\n\ncontract AddressImpl {\n    function isContract(address account) external view returns (bool) {\n        return Address.isContract(account);\n    }\n\n    function sendValue(address payable receiver, uint256 amount) external {\n        Address.sendValue(receiver, amount);\n    }\n\n    // sendValue's tests require the contract to hold Ether\n    receive () external payable { }\n}\n",
  "sourcePath": "contracts/mocks/AddressImpl.sol",
  "abi": [
    {
      "inputs": [
        {
          "internalType": "address",
          "name": "account",
          "type": "address"
        }
      ],
      "name": "isContract",
      "outputs": [
        {
          "internalType": "bool",
          "name": "",
          "type": "bool"
        }
      ],
      "stateMutability": "view",
      "type": "function"
    },
    {
      "inputs": [
        {
          "internalType": "address payable",
          "name": "receiver",
          "type": "address"
        },
        {
          "internalType": "uint256",
          "name": "amount",
          "type": "uint256"
        }
      ],
      "name": "sendValue",
      "outputs": [],
      "stateMutability": "nonpayable",
      "type": "function"
    },
    {
      "stateMutability": "payable",
      "type": "receive"
    }
  ],
  "bytecode": "0x608060405234801561001057600080fd5b50610329806100206000396000f3fe60806040526004361061002d5760003560e01c8063162790551461003957806324a084df146100a257610034565b3661003457005b600080fd5b34801561004557600080fd5b506100886004803603602081101561005c57600080fd5b81019080803573ffffffffffffffffffffffffffffffffffffffff1690602001909291905050506100fd565b604051808215151515815260200191505060405180910390f35b3480156100ae57600080fd5b506100fb600480360360408110156100c557600080fd5b81019080803573ffffffffffffffffffffffffffffffffffffffff1690602001909291908035906020019092919050505061010f565b005b60006101088261011d565b9050919050565b6101198282610168565b5050565b60008060007fc5d2460186f7233c927e7db2dcc703c0e500b653ca82273b7bfad8045d85a47060001b9050833f915080821415801561015f57506000801b8214155b92505050919050565b803073ffffffffffffffffffffffffffffffffffffffff163110156101f5576040517f08c379a000000000000000000000000000000000000000000000000000000000815260040180806020018281038252601d8152602001807f416464726573733a20696e73756666696369656e742062616c616e636500000081525060200191505060405180910390fd5b60008273ffffffffffffffffffffffffffffffffffffffff168260405180600001905060006040518083038185875af1925050503d8060008114610255576040519150601f19603f3d011682016040523d82523d6000602084013e61025a565b606091505b50509050806102b4576040517f08c379a000000000000000000000000000000000000000000000000000000000815260040180806020018281038252603a8152602001806102ba603a913960400191505060405180910390fd5b50505056fe416464726573733a20756e61626c6520746f2073656e642076616c75652c20726563697069656e74206d61792068617665207265766572746564a264697066735822122038fc7faf91354c730a124038d57a8b1a9c3860d440654e094c62319a14d4090564736f6c63430006060033",
  "compiler": {
    "name": "solc",
    "version": "0.6.6+commit.6c089d02.Emscripten.clang",
    "optimizer": {
      "enabled": false,
      "runs": 200
    },
    "evmVersion": "petersburg"
  }
}