{
  "fileName": "Create2Impl.sol",
  "contractName": "Create2Impl",
  "source": "pragma solidity ^0.6.0;\n\nimport \"../utils/Create2.sol\";\nimport \"../introspection/ERC1820Implementer.sol\";\n\ncontract Create2Impl {\n    function deploy(uint256 value, bytes32 salt, bytes memory code) public {\n        Create2.deploy(value, salt, code);\n    }\n\n    function deployERC1820Implementer(uint256 value, bytes32 salt) public {\n        // solhint-disable-next-line indent\n        Create2.deploy(value, salt, type(ERC1820Implementer).creationCode);\n    }\n\n    function computeAddress(bytes32 salt, bytes32 codeHash) public view returns (address) {\n        return Create2.computeAddress(salt, codeHash);\n    }\n\n    function computeAddressWithDeployer(bytes32 salt, bytes32 codeHash, address deployer) public pure returns (address) {\n        return Create2.computeAddress(salt, codeHash, deployer);\n    }\n\n    receive() payable external {}\n}\n",
  "sourcePath": "contracts/mocks/Create2Impl.sol",
  "abi": [
    {
      "inputs": [
        {
          "internalType": "bytes32",
          "name": "salt",
          "type": "bytes32"
        },
        {
          "internalType": "bytes32",
          "name": "codeHash",
          "type": "bytes32"
        }
      ],
      "name": "computeAddress",
      "outputs": [
        {
          "internalType": "address",
          "name": "",
          "type": "address"
        }
      ],
      "stateMutability": "view",
      "type": "function"
    },
    {
      "inputs": [
        {
          "internalType": "bytes32",
          "name": "salt",
          "type": "bytes32"
        },
        {
          "internalType": "bytes32",
          "name": "codeHash",
          "type": "bytes32"
        },
        {
          "internalType": "address",
          "name": "deployer",
          "type": "address"
        }
      ],
      "name": "computeAddressWithDeployer",
      "outputs": [
        {
          "internalType": "address",
          "name": "",
          "type": "address"
        }
      ],
      "stateMutability": "pure",
      "type": "function"
    },
    {
      "inputs": [
        {
          "internalType": "uint256",
          "name": "value",
          "type": "uint256"
        },
        {
          "internalType": "bytes32",
          "name": "salt",
          "type": "bytes32"
        },
        {
          "internalType": "bytes",
          "name": "code",
          "type": "bytes"
        }
      ],
      "name": "deploy",
      "outputs": [],
      "stateMutability": "nonpayable",
      "type": "function"
    },
    {
      "inputs": [
        {
          "internalType": "uint256",
          "name": "value",
          "type": "uint256"
        },
        {
          "internalType": "bytes32",
          "name": "salt",
          "type": "bytes32"
        }
      ],
      "name": "deployERC1820Implementer",
      "outputs": [],
      "stateMutability": "nonpayable",
      "type": "function"
    },
    {
      "stateMutability": "payable",
      "type": "receive"
    }
  ],
  "bytecode": "0x608060405234801561001057600080fd5b50610792806100206000396000f3fe6080604052600436106100435760003560e01c8063076c37b21461004f578063481286e614610094578063562994811461011957806366cfa057146101be5761004a565b3661004a57005b600080fd5b34801561005b57600080fd5b506100926004803603604081101561007257600080fd5b81019080803590602001909291908035906020019092919050505061029a565b005b3480156100a057600080fd5b506100d7600480360360408110156100b757600080fd5b8101908080359060200190929190803590602001909291905050506102cd565b604051808273ffffffffffffffffffffffffffffffffffffffff1673ffffffffffffffffffffffffffffffffffffffff16815260200191505060405180910390f35b34801561012557600080fd5b5061017c6004803603606081101561013c57600080fd5b810190808035906020019092919080359060200190929190803573ffffffffffffffffffffffffffffffffffffffff1690602001909291905050506102e1565b604051808273ffffffffffffffffffffffffffffffffffffffff1673ffffffffffffffffffffffffffffffffffffffff16815260200191505060405180910390f35b3480156101ca57600080fd5b50610298600480360360608110156101e157600080fd5b8101908080359060200190929190803590602001909291908035906020019064010000000081111561021257600080fd5b82018360208201111561022457600080fd5b8035906020019184600183028401116401000000008311171561024657600080fd5b91908080601f016020809104026020016040519081016040528093929190818152602001838380828437600081840152601f19601f8201169050808301925050505050505091929192905050506102f7565b005b6102c88282604051806020016102af906105ab565b6020820181038252601f19601f82011660405250610308565b505050565b60006102d983836104c9565b905092915050565b60006102ee8484846104de565b90509392505050565b610302838383610308565b50505050565b600080843073ffffffffffffffffffffffffffffffffffffffff16311015610398576040517f08c379a000000000000000000000000000000000000000000000000000000000815260040180806020018281038252601d8152602001807f437265617465323a20696e73756666696369656e742062616c616e636500000081525060200191505060405180910390fd5b600083511415610410576040517f08c379a00000000000000000000000000000000000000000000000000000000081526004018080602001828103825260208152602001807f437265617465323a2062797465636f6465206c656e677468206973207a65726f81525060200191505060405180910390fd5b8383516020850187f59050600073ffffffffffffffffffffffffffffffffffffffff168173ffffffffffffffffffffffffffffffffffffffff1614156104be576040517f08c379a00000000000000000000000000000000000000000000000000000000081526004018080602001828103825260198152602001807f437265617465323a204661696c6564206f6e206465706c6f790000000000000081525060200191505060405180910390fd5b809150509392505050565b60006104d68383306104de565b905092915050565b60008060ff60f81b83868660405160200180857effffffffffffffffffffffffffffffffffffffffffffffffffffffffffffff19167effffffffffffffffffffffffffffffffffffffffffffffffffffffffffffff191681526001018473ffffffffffffffffffffffffffffffffffffffff1673ffffffffffffffffffffffffffffffffffffffff1660601b8152601401838152602001828152602001945050505050604051602081830303815290604052805190602001209050606081901b60601c9150509392505050565b6101a4806105b98339019056fe608060405234801561001057600080fd5b50610184806100206000396000f3fe608060405234801561001057600080fd5b506004361061002b5760003560e01c8063249cb3fa14610030575b600080fd5b61007c6004803603604081101561004657600080fd5b8101908080359060200190929190803573ffffffffffffffffffffffffffffffffffffffff169060200190929190505050610092565b6040518082815260200191505060405180910390f35b600080600084815260200190815260200160002060008373ffffffffffffffffffffffffffffffffffffffff1673ffffffffffffffffffffffffffffffffffffffff16815260200190815260200160002060009054906101000a900460ff166100fe576000801b610146565b60405160200180807f455243313832305f4143434550545f4d414749430000000000000000000000008152506014019050604051602081830303815290604052805190602001205b90509291505056fea264697066735822122022dfde7aa6cd1e4e8ec63239e95424e31f30ad13af1d9dc8eb3e56b193504afb64736f6c63430006060033a26469706673582212204c55910b595f6eac34f7d4c6d9515824447ea103169f5df68490f38546f03baa64736f6c63430006060033",
  "compiler": {
    "name": "solc",
    "version": "0.6.6+commit.6c089d02.Emscripten.clang",
    "optimizer": {
      "enabled": false,
      "runs": 200
    },
    "evmVersion": "petersburg"
  }
}