{
  "fileName": "ERC721Mock.sol",
  "contractName": "ERC721Mock",
  "source": "pragma solidity ^0.6.0;\n\nimport \"../token/ERC721/ERC721.sol\";\n\n/**\n * @title ERC721Mock\n * This mock just provides a public safeMint, mint, and burn functions for testing purposes\n */\ncontract ERC721Mock is ERC721 {\n    constructor (string memory name, string memory symbol) public ERC721(name, symbol) { }\n\n    function exists(uint256 tokenId) public view returns (bool) {\n        return _exists(tokenId);\n    }\n\n    function setTokenURI(uint256 tokenId, string memory uri) public {\n        _setTokenURI(tokenId, uri);\n    }\n\n    function setBaseURI(string memory baseURI) public {\n        _setBaseURI(baseURI);\n    }\n\n    function mint(address to, uint256 tokenId) public {\n        _mint(to, tokenId);\n    }\n\n    function safeMint(address to, uint256 tokenId) public {\n        _safeMint(to, tokenId);\n    }\n\n    function safeMint(address to, uint256 tokenId, bytes memory _data) public {\n        _safeMint(to, tokenId, _data);\n    }\n\n    function burn(uint256 tokenId) public {\n        _burn(tokenId);\n    }\n}\n",
  "sourcePath": "contracts/mocks/ERC721Mock.sol",
  "abi": [
    {
      "inputs": [
        {
          "internalType": "string",
          "name": "name",
          "type": "string"
        },
        {
          "internalType": "string",
          "name": "symbol",
          "type": "string"
        }
      ],
      "stateMutability": "nonpayable",
      "type": "constructor"
    },
    {
      "anonymous": false,
      "inputs": [
        {
          "indexed": true,
          "internalType": "address",
          "name": "owner",
          "type": "address"
        },
        {
          "indexed": true,
          "internalType": "address",
          "name": "approved",
          "type": "address"
        },
        {
          "indexed": true,
          "internalType": "uint256",
          "name": "tokenId",
          "type": "uint256"
        }
      ],
      "name": "Approval",
      "type": "event"
    },
    {
      "anonymous": false,
      "inputs": [
        {
          "indexed": true,
          "internalType": "address",
          "name": "owner",
          "type": "address"
        },
        {
          "indexed": true,
          "internalType": "address",
          "name": "operator",
          "type": "address"
        },
        {
          "indexed": false,
          "internalType": "bool",
          "name": "approved",
          "type": "bool"
        }
      ],
      "name": "ApprovalForAll",
      "type": "event"
    },
    {
      "anonymous": false,
      "inputs": [
        {
          "indexed": true,
          "internalType": "address",
          "name": "from",
          "type": "address"
        },
        {
          "indexed": true,
          "internalType": "address",
          "name": "to",
          "type": "address"
        },
        {
          "indexed": true,
          "internalType": "uint256",
          "name": "tokenId",
          "type": "uint256"
        }
      ],
      "name": "Transfer",
      "type": "event"
    },
    {
      "inputs": [
        {
          "internalType": "address",
          "name": "to",
          "type": "address"
        },
        {
          "internalType": "uint256",
          "name": "tokenId",
          "type": "uint256"
        }
      ],
      "name": "approve",
      "outputs": [],
      "stateMutability": "nonpayable",
      "type": "function"
    },
    {
      "inputs": [
        {
          "internalType": "address",
          "name": "owner",
          "type": "address"
        }
      ],
      "name": "balanceOf",
      "outputs": [
        {
          "internalType": "uint256",
          "name": "",
          "type": "uint256"
        }
      ],
      "stateMutability": "view",
      "type": "function"
    },
    {
      "inputs": [],
      "name": "baseURI",
      "outputs": [
        {
          "internalType": "string",
          "name": "",
          "type": "string"
        }
      ],
      "stateMutability": "view",
      "type": "function"
    },
    {
      "inputs": [
        {
          "internalType": "uint256",
          "name": "tokenId",
          "type": "uint256"
        }
      ],
      "name": "burn",
      "outputs": [],
      "stateMutability": "nonpayable",
      "type": "function"
    },
    {
      "inputs": [
        {
          "internalType": "uint256",
          "name": "tokenId",
          "type": "uint256"
        }
      ],
      "name": "exists",
      "outputs": [
        {
          "internalType": "bool",
          "name": "",
          "type": "bool"
        }
      ],
      "stateMutability": "view",
      "type": "function"
    },
    {
      "inputs": [
        {
          "internalType": "uint256",
          "name": "tokenId",
          "type": "uint256"
        }
      ],
      "name": "getApproved",
      "outputs": [
        {
          "internalType": "address",
          "name": "",
          "type": "address"
        }
      ],
      "stateMutability": "view",
      "type": "function"
    },
    {
      "inputs": [
        {
          "internalType": "address",
          "name": "owner",
          "type": "address"
        },
        {
          "internalType": "address",
          "name": "operator",
          "type": "address"
        }
      ],
      "name": "isApprovedForAll",
      "outputs": [
        {
          "internalType": "bool",
          "name": "",
          "type": "bool"
        }
      ],
      "stateMutability": "view",
      "type": "function"
    },
    {
      "inputs": [
        {
          "internalType": "address",
          "name": "to",
          "type": "address"
        },
        {
          "internalType": "uint256",
          "name": "tokenId",
          "type": "uint256"
        }
      ],
      "name": "mint",
      "outputs": [],
      "stateMutability": "nonpayable",
      "type": "function"
    },
    {
      "inputs": [],
      "name": "name",
      "outputs": [
        {
          "internalType": "string",
          "name": "",
          "type": "string"
        }
      ],
      "stateMutability": "view",
      "type": "function"
    },
    {
      "inputs": [
        {
          "internalType": "uint256",
          "name": "tokenId",
          "type": "uint256"
        }
      ],
      "name": "ownerOf",
      "outputs": [
        {
          "internalType": "address",
          "name": "",
          "type": "address"
        }
      ],
      "stateMutability": "view",
      "type": "function"
    },
    {
      "inputs": [
        {
          "internalType": "address",
          "name": "to",
          "type": "address"
        },
        {
          "internalType": "uint256",
          "name": "tokenId",
          "type": "uint256"
        },
        {
          "internalType": "bytes",
          "name": "_data",
          "type": "bytes"
        }
      ],
      "name": "safeMint",
      "outputs": [],
      "stateMutability": "nonpayable",
      "type": "function"
    },
    {
      "inputs": [
        {
          "internalType": "address",
          "name": "to",
          "type": "address"
        },
        {
          "internalType": "uint256",
          "name": "tokenId",
          "type": "uint256"
        }
      ],
      "name": "safeMint",
      "outputs": [],
      "stateMutability": "nonpayable",
      "type": "function"
    },
    {
      "inputs": [
        {
          "internalType": "address",
          "name": "from",
          "type": "address"
        },
        {
          "internalType": "address",
          "name": "to",
          "type": "address"
        },
        {
          "internalType": "uint256",
          "name": "tokenId",
          "type": "uint256"
        }
      ],
      "name": "safeTransferFrom",
      "outputs": [],
      "stateMutability": "nonpayable",
      "type": "function"
    },
    {
      "inputs": [
        {
          "internalType": "address",
          "name": "from",
          "type": "address"
        },
        {
          "internalType": "address",
          "name": "to",
          "type": "address"
        },
        {
          "internalType": "uint256",
          "name": "tokenId",
          "type": "uint256"
        },
        {
          "internalType": "bytes",
          "name": "_data",
          "type": "bytes"
        }
      ],
      "name": "safeTransferFrom",
      "outputs": [],
      "stateMutability": "nonpayable",
      "type": "function"
    },
    {
      "inputs": [
        {
          "internalType": "address",
          "name": "operator",
          "type": "address"
        },
        {
          "internalType": "bool",
          "name": "approved",
          "type": "bool"
        }
      ],
      "name": "setApprovalForAll",
      "outputs": [],
      "stateMutability": "nonpayable",
      "type": "function"
    },
    {
      "inputs": [
        {
          "internalType": "string",
          "name": "baseURI",
          "type": "string"
        }
      ],
      "name": "setBaseURI",
      "outputs": [],
      "stateMutability": "nonpayable",
      "type": "function"
    },
    {
      "inputs": [
        {
          "internalType": "uint256",
          "name": "tokenId",
          "type": "uint256"
        },
        {
          "internalType": "string",
          "name": "uri",
          "type": "string"
        }
      ],
      "name": "setTokenURI",
      "outputs": [],
      "stateMutability": "nonpayable",
      "type": "function"
    },
    {
      "inputs": [
        {
          "internalType": "bytes4",
          "name": "interfaceId",
          "type": "bytes4"
        }
      ],
      "name": "supportsInterface",
      "outputs": [
        {
          "internalType": "bool",
          "name": "",
          "type": "bool"
        }
      ],
      "stateMutability": "view",
      "type": "function"
    },
    {
      "inputs": [],
      "name": "symbol",
      "outputs": [
        {
          "internalType": "string",
          "name": "",
          "type": "string"
        }
      ],
      "stateMutability": "view",
      "type": "function"
    },
    {
      "inputs": [
        {
          "internalType": "uint256",
          "name": "index",
          "type": "uint256"
        }
      ],
      "name": "tokenByIndex",
      "outputs": [
        {
          "internalType": "uint256",
          "name": "",
          "type": "uint256"
        }
      ],
      "stateMutability": "view",
      "type": "function"
    },
    {
      "inputs": [
        {
          "internalType": "address",
          "name": "owner",
          "type": "address"
        },
        {
          "internalType": "uint256",
          "name": "index",
          "type": "uint256"
        }
      ],
      "name": "tokenOfOwnerByIndex",
      "outputs": [
        {
          "internalType": "uint256",
          "name": "",
          "type": "uint256"
        }
      ],
      "stateMutability": "view",
      "type": "function"
    },
    {
      "inputs": [
        {
          "internalType": "uint256",
          "name": "tokenId",
          "type": "uint256"
        }
      ],
      "name": "tokenURI",
      "outputs": [
        {
          "internalType": "string",
          "name": "",
          "type": "string"
        }
      ],
      "stateMutability": "view",
      "type": "function"
    },
    {
      "inputs": [],
      "name": "totalSupply",
      "outputs": [
        {
          "internalType": "uint256",
          "name": "",
          "type": "uint256"
        }
      ],
      "stateMutability": "view",
      "type": "function"
    },
    {
      "inputs": [
        {
          "internalType": "address",
          "name": "from",
          "type": "address"
        },
        {
          "internalType": "address",
          "name": "to",
          "type": "address"
        },
        {
          "internalType": "uint256",
          "name": "tokenId",
          "type": "uint256"
        }
      ],
      "name": "transferFrom",
      "outputs": [],
      "stateMutability": "nonpayable",
      "type": "function"
    }
  ],
  "bytecode": "0x60806040523480156200001157600080fd5b50604051620034ef380380620034ef833981810160405260408110156200003757600080fd5b81019080805160405193929190846401000000008211156200005857600080fd5b838201915060208201858111156200006f57600080fd5b82518660018202830111640100000000821117156200008d57600080fd5b8083526020830192505050908051906020019080838360005b83811015620000c3578082015181840152602081019050620000a6565b50505050905090810190601f168015620000f15780820380516001836020036101000a031916815260200191505b50604052602001805160405193929190846401000000008211156200011557600080fd5b838201915060208201858111156200012c57600080fd5b82518660018202830111640100000000821117156200014a57600080fd5b8083526020830192505050908051906020019080838360005b838110156200018057808201518184015260208101905062000163565b50505050905090810190601f168015620001ae5780820380516001836020036101000a031916815260200191505b506040525050508181620001cf6301ffc9a760e01b6200025360201b60201c565b8160069080519060200190620001e79291906200035c565b508060079080519060200190620002009291906200035c565b50620002196380ac58cd60e01b6200025360201b60201c565b62000231635b5e139f60e01b6200025360201b60201c565b6200024963780e9d6360e01b6200025360201b60201c565b505050506200040b565b63ffffffff60e01b817bffffffffffffffffffffffffffffffffffffffffffffffffffffffff19161415620002f0576040517f08c379a000000000000000000000000000000000000000000000000000000000815260040180806020018281038252601c8152602001807f4552433136353a20696e76616c696420696e746572666163652069640000000081525060200191505060405180910390fd5b6001600080837bffffffffffffffffffffffffffffffffffffffffffffffffffffffff19167bffffffffffffffffffffffffffffffffffffffffffffffffffffffff1916815260200190815260200160002060006101000a81548160ff02191690831515021790555050565b828054600181600116156101000203166002900490600052602060002090601f016020900481019282601f106200039f57805160ff1916838001178555620003d0565b82800160010185558215620003d0579182015b82811115620003cf578251825591602001919060010190620003b2565b5b509050620003df9190620003e3565b5090565b6200040891905b8082111562000404576000816000905550600101620003ea565b5090565b90565b6130d4806200041b6000396000f3fe608060405234801561001057600080fd5b50600436106101585760003560e01c80634f6ccce7116100c357806395d89b411161007c57806395d89b411461090f578063a144819414610992578063a22cb465146109e0578063b88d4fde14610a30578063c87b56dd14610b35578063e985e9c514610bdc57610158565b80634f6ccce7146105e457806355f804b3146106265780636352211e146106e15780636c0360eb1461074f57806370a08231146107d25780638832e6e31461082a57610158565b806323b872dd1161011557806323b872dd146103e45780632f745c591461045257806340c10f19146104b457806342842e0e1461050257806342966c68146105705780634f558e791461059e57610158565b806301ffc9a71461015d57806306fdde03146101c2578063081812fc14610245578063095ea7b3146102b3578063162094c41461030157806318160ddd146103c6575b600080fd5b6101a86004803603602081101561017357600080fd5b8101908080357bffffffffffffffffffffffffffffffffffffffffffffffffffffffff19169060200190929190505050610c58565b604051808215151515815260200191505060405180910390f35b6101ca610cbf565b6040518080602001828103825283818151815260200191508051906020019080838360005b8381101561020a5780820151818401526020810190506101ef565b50505050905090810190601f1680156102375780820380516001836020036101000a031916815260200191505b509250505060405180910390f35b6102716004803603602081101561025b57600080fd5b8101908080359060200190929190505050610d61565b604051808273ffffffffffffffffffffffffffffffffffffffff1673ffffffffffffffffffffffffffffffffffffffff16815260200191505060405180910390f35b6102ff600480360360408110156102c957600080fd5b81019080803573ffffffffffffffffffffffffffffffffffffffff16906020019092919080359060200190929190505050610dfc565b005b6103c46004803603604081101561031757600080fd5b81019080803590602001909291908035906020019064010000000081111561033e57600080fd5b82018360208201111561035057600080fd5b8035906020019184600183028401116401000000008311171561037257600080fd5b91908080601f016020809104026020016040519081016040528093929190818152602001838380828437600081840152601f19601f820116905080830192505050505050509192919290505050610f40565b005b6103ce610f4e565b6040518082815260200191505060405180910390f35b610450600480360360608110156103fa57600080fd5b81019080803573ffffffffffffffffffffffffffffffffffffffff169060200190929190803573ffffffffffffffffffffffffffffffffffffffff16906020019092919080359060200190929190505050610f5f565b005b61049e6004803603604081101561046857600080fd5b81019080803573ffffffffffffffffffffffffffffffffffffffff16906020019092919080359060200190929190505050610fd5565b6040518082815260200191505060405180910390f35b610500600480360360408110156104ca57600080fd5b81019080803573ffffffffffffffffffffffffffffffffffffffff16906020019092919080359060200190929190505050611030565b005b61056e6004803603606081101561051857600080fd5b81019080803573ffffffffffffffffffffffffffffffffffffffff169060200190929190803573ffffffffffffffffffffffffffffffffffffffff1690602001909291908035906020019092919050505061103e565b005b61059c6004803603602081101561058657600080fd5b810190808035906020019092919050505061105e565b005b6105ca600480360360208110156105b457600080fd5b810190808035906020019092919050505061106a565b604051808215151515815260200191505060405180910390f35b610610600480360360208110156105fa57600080fd5b810190808035906020019092919050505061107c565b6040518082815260200191505060405180910390f35b6106df6004803603602081101561063c57600080fd5b810190808035906020019064010000000081111561065957600080fd5b82018360208201111561066b57600080fd5b8035906020019184600183028401116401000000008311171561068d57600080fd5b91908080601f016020809104026020016040519081016040528093929190818152602001838380828437600081840152601f19601f82011690508083019250505050505050919291929050505061109f565b005b61070d600480360360208110156106f757600080fd5b81019080803590602001909291905050506110ab565b604051808273ffffffffffffffffffffffffffffffffffffffff1673ffffffffffffffffffffffffffffffffffffffff16815260200191505060405180910390f35b6107576110e2565b6040518080602001828103825283818151815260200191508051906020019080838360005b8381101561079757808201518184015260208101905061077c565b50505050905090810190601f1680156107c45780820380516001836020036101000a031916815260200191505b509250505060405180910390f35b610814600480360360208110156107e857600080fd5b81019080803573ffffffffffffffffffffffffffffffffffffffff169060200190929190505050611184565b6040518082815260200191505060405180910390f35b61090d6004803603606081101561084057600080fd5b81019080803573ffffffffffffffffffffffffffffffffffffffff169060200190929190803590602001909291908035906020019064010000000081111561088757600080fd5b82018360208201111561089957600080fd5b803590602001918460018302840111640100000000831117156108bb57600080fd5b91908080601f016020809104026020016040519081016040528093929190818152602001838380828437600081840152601f19601f820116905080830192505050505050509192919290505050611259565b005b610917611269565b6040518080602001828103825283818151815260200191508051906020019080838360005b8381101561095757808201518184015260208101905061093c565b50505050905090810190601f1680156109845780820380516001836020036101000a031916815260200191505b509250505060405180910390f35b6109de600480360360408110156109a857600080fd5b81019080803573ffffffffffffffffffffffffffffffffffffffff1690602001909291908035906020019092919050505061130b565b005b610a2e600480360360408110156109f657600080fd5b81019080803573ffffffffffffffffffffffffffffffffffffffff169060200190929190803515159060200190929190505050611319565b005b610b3360048036036080811015610a4657600080fd5b81019080803573ffffffffffffffffffffffffffffffffffffffff169060200190929190803573ffffffffffffffffffffffffffffffffffffffff1690602001909291908035906020019092919080359060200190640100000000811115610aad57600080fd5b820183602082011115610abf57600080fd5b80359060200191846001830284011164010000000083111715610ae157600080fd5b91908080601f016020809104026020016040519081016040528093929190818152602001838380828437600081840152601f19601f8201169050808301925050505050505091929192905050506114d1565b005b610b6160048036036020811015610b4b57600080fd5b8101908080359060200190929190505050611549565b6040518080602001828103825283818151815260200191508051906020019080838360005b83811015610ba1578082015181840152602081019050610b86565b50505050905090810190601f168015610bce5780820380516001836020036101000a031916815260200191505b509250505060405180910390f35b610c3e60048036036040811015610bf257600080fd5b81019080803573ffffffffffffffffffffffffffffffffffffffff169060200190929190803573ffffffffffffffffffffffffffffffffffffffff169060200190929190505050611832565b604051808215151515815260200191505060405180910390f35b6000806000837bffffffffffffffffffffffffffffffffffffffffffffffffffffffff19167bffffffffffffffffffffffffffffffffffffffffffffffffffffffff1916815260200190815260200160002060009054906101000a900460ff169050919050565b606060068054600181600116156101000203166002900480601f016020809104026020016040519081016040528092919081815260200182805460018160011615610100020316600290048015610d575780601f10610d2c57610100808354040283529160200191610d57565b820191906000526020600020905b815481529060010190602001808311610d3a57829003601f168201915b5050505050905090565b6000610d6c826118c6565b610dc1576040517f08c379a000000000000000000000000000000000000000000000000000000000815260040180806020018281038252602c815260200180612f9d602c913960400191505060405180910390fd5b6004600083815260200190815260200160002060009054906101000a900473ffffffffffffffffffffffffffffffffffffffff169050919050565b6000610e07826110ab565b90508073ffffffffffffffffffffffffffffffffffffffff168373ffffffffffffffffffffffffffffffffffffffff161415610e8e576040517f08c379a000000000000000000000000000000000000000000000000000000000815260040180806020018281038252602181526020018061304d6021913960400191505060405180910390fd5b8073ffffffffffffffffffffffffffffffffffffffff16610ead6118e3565b73ffffffffffffffffffffffffffffffffffffffff161480610edc5750610edb81610ed66118e3565b611832565b5b610f31576040517f08c379a0000000000000000000000000000000000000000000000000000000008152600401808060200182810382526038815260200180612ef06038913960400191505060405180910390fd5b610f3b83836118eb565b505050565b610f4a82826119a4565b5050565b6000610f5a6002611a2e565b905090565b610f70610f6a6118e3565b82611a43565b610fc5576040517f08c379a000000000000000000000000000000000000000000000000000000000815260040180806020018281038252603181526020018061306e6031913960400191505060405180910390fd5b610fd0838383611b37565b505050565b600061102882600160008673ffffffffffffffffffffffffffffffffffffffff1673ffffffffffffffffffffffffffffffffffffffff168152602001908152602001600020611d7a90919063ffffffff16565b905092915050565b61103a8282611d94565b5050565b611059838383604051806020016040528060008152506114d1565b505050565b61106781611f88565b50565b6000611075826118c6565b9050919050565b6000806110938360026120c290919063ffffffff16565b50905080915050919050565b6110a8816120f1565b50565b60006110db82604051806060016040528060298152602001612f5260299139600261210b9092919063ffffffff16565b9050919050565b606060098054600181600116156101000203166002900480601f01602080910402602001604051908101604052809291908181526020018280546001816001161561010002031660029004801561117a5780601f1061114f5761010080835404028352916020019161117a565b820191906000526020600020905b81548152906001019060200180831161115d57829003601f168201915b5050505050905090565b60008073ffffffffffffffffffffffffffffffffffffffff168273ffffffffffffffffffffffffffffffffffffffff16141561120b576040517f08c379a000000000000000000000000000000000000000000000000000000000815260040180806020018281038252602a815260200180612f28602a913960400191505060405180910390fd5b611252600160008473ffffffffffffffffffffffffffffffffffffffff1673ffffffffffffffffffffffffffffffffffffffff16815260200190815260200160002061212a565b9050919050565b61126483838361213f565b505050565b606060078054600181600116156101000203166002900480601f0160208091040260200160405190810160405280929190818152602001828054600181600116156101000203166002900480156113015780601f106112d657610100808354040283529160200191611301565b820191906000526020600020905b8154815290600101906020018083116112e457829003601f168201915b5050505050905090565b61131582826121b0565b5050565b6113216118e3565b73ffffffffffffffffffffffffffffffffffffffff168273ffffffffffffffffffffffffffffffffffffffff1614156113c2576040517f08c379a00000000000000000000000000000000000000000000000000000000081526004018080602001828103825260198152602001807f4552433732313a20617070726f766520746f2063616c6c65720000000000000081525060200191505060405180910390fd5b80600560006113cf6118e3565b73ffffffffffffffffffffffffffffffffffffffff1673ffffffffffffffffffffffffffffffffffffffff16815260200190815260200160002060008473ffffffffffffffffffffffffffffffffffffffff1673ffffffffffffffffffffffffffffffffffffffff16815260200190815260200160002060006101000a81548160ff0219169083151502179055508173ffffffffffffffffffffffffffffffffffffffff1661147c6118e3565b73ffffffffffffffffffffffffffffffffffffffff167f17307eab39ab6107e8899845ad3d59bd9653f200f220920489ca2b5937696c3183604051808215151515815260200191505060405180910390a35050565b6114e26114dc6118e3565b83611a43565b611537576040517f08c379a000000000000000000000000000000000000000000000000000000000815260040180806020018281038252603181526020018061306e6031913960400191505060405180910390fd5b611543848484846121ce565b50505050565b6060611554826118c6565b6115a9576040517f08c379a000000000000000000000000000000000000000000000000000000000815260040180806020018281038252602f81526020018061301e602f913960400191505060405180910390fd5b6060600860008481526020019081526020016000208054600181600116156101000203166002900480601f0160208091040260200160405190810160405280929190818152602001828054600181600116156101000203166002900480156116525780601f1061162757610100808354040283529160200191611652565b820191906000526020600020905b81548152906001019060200180831161163557829003601f168201915b50505050509050600060098054600181600116156101000203166002900490501415611681578091505061182d565b60008151111561175a5760098160405160200180838054600181600116156101000203166002900480156116ec5780601f106116ca5761010080835404028352918201916116ec565b820191906000526020600020905b8154815290600101906020018083116116d8575b505082805190602001908083835b6020831061171d57805182526020820191506020810190506020830392506116fa565b6001836020036101000a0380198251168184511680821785525050505050509050019250505060405160208183030381529060405291505061182d565b600961176584612240565b60405160200180838054600181600116156101000203166002900480156117c35780601f106117a15761010080835404028352918201916117c3565b820191906000526020600020905b8154815290600101906020018083116117af575b505082805190602001908083835b602083106117f457805182526020820191506020810190506020830392506117d1565b6001836020036101000a038019825116818451168082178552505050505050905001925050506040516020818303038152906040529150505b919050565b6000600560008473ffffffffffffffffffffffffffffffffffffffff1673ffffffffffffffffffffffffffffffffffffffff16815260200190815260200160002060008373ffffffffffffffffffffffffffffffffffffffff1673ffffffffffffffffffffffffffffffffffffffff16815260200190815260200160002060009054906101000a900460ff16905092915050565b60006118dc82600261238790919063ffffffff16565b9050919050565b600033905090565b816004600083815260200190815260200160002060006101000a81548173ffffffffffffffffffffffffffffffffffffffff021916908373ffffffffffffffffffffffffffffffffffffffff160217905550808273ffffffffffffffffffffffffffffffffffffffff1661195e836110ab565b73ffffffffffffffffffffffffffffffffffffffff167f8c5be1e5ebec7d5bd14f71427d1e84f3dd0314c0f7b2291e5b200ac8c7c3b92560405160405180910390a45050565b6119ad826118c6565b611a02576040517f08c379a000000000000000000000000000000000000000000000000000000000815260040180806020018281038252602c815260200180612fc9602c913960400191505060405180910390fd5b80600860008481526020019081526020016000209080519060200190611a29929190612d5e565b505050565b6000611a3c826000016123a1565b9050919050565b6000611a4e826118c6565b611aa3576040517f08c379a000000000000000000000000000000000000000000000000000000000815260040180806020018281038252602c815260200180612ec4602c913960400191505060405180910390fd5b6000611aae836110ab565b90508073ffffffffffffffffffffffffffffffffffffffff168473ffffffffffffffffffffffffffffffffffffffff161480611b1d57508373ffffffffffffffffffffffffffffffffffffffff16611b0584610d61565b73ffffffffffffffffffffffffffffffffffffffff16145b80611b2e5750611b2d8185611832565b5b91505092915050565b8273ffffffffffffffffffffffffffffffffffffffff16611b57826110ab565b73ffffffffffffffffffffffffffffffffffffffff1614611bc3576040517f08c379a0000000000000000000000000000000000000000000000000000000008152600401808060200182810382526029815260200180612ff56029913960400191505060405180910390fd5b600073ffffffffffffffffffffffffffffffffffffffff168273ffffffffffffffffffffffffffffffffffffffff161415611c49576040517f08c379a0000000000000000000000000000000000000000000000000000000008152600401808060200182810382526024815260200180612ea06024913960400191505060405180910390fd5b611c548383836123b2565b611c5f6000826118eb565b611cb081600160008673ffffffffffffffffffffffffffffffffffffffff1673ffffffffffffffffffffffffffffffffffffffff1681526020019081526020016000206123b790919063ffffffff16565b50611d0281600160008573ffffffffffffffffffffffffffffffffffffffff1673ffffffffffffffffffffffffffffffffffffffff1681526020019081526020016000206123d190919063ffffffff16565b50611d19818360026123eb9092919063ffffffff16565b50808273ffffffffffffffffffffffffffffffffffffffff168473ffffffffffffffffffffffffffffffffffffffff167fddf252ad1be2c89b69c2b068fc378daa952ba7f163c4a11628f55a4df523b3ef60405160405180910390a4505050565b6000611d898360000183612420565b60001c905092915050565b600073ffffffffffffffffffffffffffffffffffffffff168273ffffffffffffffffffffffffffffffffffffffff161415611e37576040517f08c379a00000000000000000000000000000000000000000000000000000000081526004018080602001828103825260208152602001807f4552433732313a206d696e7420746f20746865207a65726f206164647265737381525060200191505060405180910390fd5b611e40816118c6565b15611eb3576040517f08c379a000000000000000000000000000000000000000000000000000000000815260040180806020018281038252601c8152602001807f4552433732313a20746f6b656e20616c7265616479206d696e7465640000000081525060200191505060405180910390fd5b611ebf600083836123b2565b611f1081600160008573ffffffffffffffffffffffffffffffffffffffff1673ffffffffffffffffffffffffffffffffffffffff1681526020019081526020016000206123d190919063ffffffff16565b50611f27818360026123eb9092919063ffffffff16565b50808273ffffffffffffffffffffffffffffffffffffffff16600073ffffffffffffffffffffffffffffffffffffffff167fddf252ad1be2c89b69c2b068fc378daa952ba7f163c4a11628f55a4df523b3ef60405160405180910390a45050565b6000611f93826110ab565b9050611fa1816000846123b2565b611fac6000836118eb565b60006008600084815260200190815260200160002080546001816001161561010002031660029004905014611ffb57600860008381526020019081526020016000206000611ffa9190612dde565b5b61204c82600160008473ffffffffffffffffffffffffffffffffffffffff1673ffffffffffffffffffffffffffffffffffffffff1681526020019081526020016000206123b790919063ffffffff16565b506120618260026124a390919063ffffffff16565b5081600073ffffffffffffffffffffffffffffffffffffffff168273ffffffffffffffffffffffffffffffffffffffff167fddf252ad1be2c89b69c2b068fc378daa952ba7f163c4a11628f55a4df523b3ef60405160405180910390a45050565b6000806000806120d586600001866124bd565b915091508160001c8160001c8090509350935050509250929050565b8060099080519060200190612107929190612d5e565b5050565b600061211e846000018460001b84612556565b60001c90509392505050565b60006121388260000161264c565b9050919050565b6121498383611d94565b612156600084848461265d565b6121ab576040517f08c379a0000000000000000000000000000000000000000000000000000000008152600401808060200182810382526032815260200180612e6e6032913960400191505060405180910390fd5b505050565b6121ca82826040518060200160405280600081525061213f565b5050565b6121d9848484611b37565b6121e58484848461265d565b61223a576040517f08c379a0000000000000000000000000000000000000000000000000000000008152600401808060200182810382526032815260200180612e6e6032913960400191505060405180910390fd5b50505050565b60606000821415612288576040518060400160405280600181526020017f30000000000000000000000000000000000000000000000000000000000000008152509050612382565b600082905060005b600082146122b2578080600101915050600a82816122aa57fe5b049150612290565b60608167ffffffffffffffff811180156122cb57600080fd5b506040519080825280601f01601f1916602001820160405280156122fe5781602001600182028036833780820191505090505b50905060006001830390508593505b6000841461237a57600a848161231f57fe5b0660300160f81b8282806001900393508151811061233957fe5b60200101907effffffffffffffffffffffffffffffffffffffffffffffffffffffffffffff1916908160001a905350600a848161237257fe5b04935061230d565b819450505050505b919050565b6000612399836000018360001b612980565b905092915050565b600081600001805490509050919050565b505050565b60006123c9836000018360001b6129a3565b905092915050565b60006123e3836000018360001b612a8b565b905092915050565b6000612417846000018460001b8473ffffffffffffffffffffffffffffffffffffffff1660001b612afb565b90509392505050565b600081836000018054905011612481576040517f08c379a0000000000000000000000000000000000000000000000000000000008152600401808060200182810382526022815260200180612e4c6022913960400191505060405180910390fd5b82600001828154811061249057fe5b9060005260206000200154905092915050565b60006124b5836000018360001b612bd7565b905092915050565b6000808284600001805490501161251f576040517f08c379a0000000000000000000000000000000000000000000000000000000008152600401808060200182810382526022815260200180612f7b6022913960400191505060405180910390fd5b600084600001848154811061253057fe5b906000526020600020906002020190508060000154816001015492509250509250929050565b6000808460010160008581526020019081526020016000205490506000811415839061261d576040517f08c379a00000000000000000000000000000000000000000000000000000000081526004018080602001828103825283818151815260200191508051906020019080838360005b838110156125e25780820151818401526020810190506125c7565b50505050905090810190601f16801561260f5780820380516001836020036101000a031916815260200191505b509250505060405180910390fd5b5084600001600182038154811061263057fe5b9060005260206000209060020201600101549150509392505050565b600081600001805490509050919050565b600061267e8473ffffffffffffffffffffffffffffffffffffffff16612cf0565b61268b5760019050612978565b600060608573ffffffffffffffffffffffffffffffffffffffff1663150b7a0260e01b6126b66118e3565b898888604051602401808573ffffffffffffffffffffffffffffffffffffffff1673ffffffffffffffffffffffffffffffffffffffff1681526020018473ffffffffffffffffffffffffffffffffffffffff1673ffffffffffffffffffffffffffffffffffffffff16815260200183815260200180602001828103825283818151815260200191508051906020019080838360005b8381101561276657808201518184015260208101905061274b565b50505050905090810190601f1680156127935780820380516001836020036101000a031916815260200191505b5095505050505050604051602081830303815290604052907bffffffffffffffffffffffffffffffffffffffffffffffffffffffff19166020820180517bffffffffffffffffffffffffffffffffffffffffffffffffffffffff83818316178352505050506040518082805190602001908083835b6020831061282b5780518252602082019150602081019050602083039250612808565b6001836020036101000a0380198251168184511680821785525050505050509050019150506000604051808303816000865af19150503d806000811461288d576040519150601f19603f3d011682016040523d82523d6000602084013e612892565b606091505b509150915081612900576000815111156128af5780518082602001fd5b6040517f08c379a0000000000000000000000000000000000000000000000000000000008152600401808060200182810382526032815260200180612e6e6032913960400191505060405180910390fd5b600081806020019051602081101561291757600080fd5b8101908080519060200190929190505050905063150b7a0260e01b7bffffffffffffffffffffffffffffffffffffffffffffffffffffffff1916817bffffffffffffffffffffffffffffffffffffffffffffffffffffffff19161493505050505b949350505050565b600080836001016000848152602001908152602001600020541415905092915050565b60008083600101600084815260200190815260200160002054905060008114612a7f57600060018203905060006001866000018054905003905060008660000182815481106129ee57fe5b9060005260206000200154905080876000018481548110612a0b57fe5b9060005260206000200181905550600183018760010160008381526020019081526020016000208190555086600001805480612a4357fe5b60019003818190600052602060002001600090559055866001016000878152602001908152602001600020600090556001945050505050612a85565b60009150505b92915050565b6000612a978383612d3b565b612af0578260000182908060018154018082558091505060019003906000526020600020016000909190919091505582600001805490508360010160008481526020019081526020016000208190555060019050612af5565b600090505b92915050565b6000808460010160008581526020019081526020016000205490506000811415612ba257846000016040518060400160405280868152602001858152509080600181540180825580915050600190039060005260206000209060020201600090919091909150600082015181600001556020820151816001015550508460000180549050856001016000868152602001908152602001600020819055506001915050612bd0565b82856000016001830381548110612bb557fe5b90600052602060002090600202016001018190555060009150505b9392505050565b60008083600101600084815260200190815260200160002054905060008114612ce45760006001820390506000600186600001805490500390506000866000018281548110612c2257fe5b9060005260206000209060020201905080876000018481548110612c4257fe5b9060005260206000209060020201600082015481600001556001820154816001015590505060018301876001016000836000015481526020019081526020016000208190555086600001805480612c9557fe5b6001900381819060005260206000209060020201600080820160009055600182016000905550509055866001016000878152602001908152602001600020600090556001945050505050612cea565b60009150505b92915050565b60008060007fc5d2460186f7233c927e7db2dcc703c0e500b653ca82273b7bfad8045d85a47060001b9050833f9150808214158015612d3257506000801b8214155b92505050919050565b600080836001016000848152602001908152602001600020541415905092915050565b828054600181600116156101000203166002900490600052602060002090601f016020900481019282601f10612d9f57805160ff1916838001178555612dcd565b82800160010185558215612dcd579182015b82811115612dcc578251825591602001919060010190612db1565b5b509050612dda9190612e26565b5090565b50805460018160011615610100020316600290046000825580601f10612e045750612e23565b601f016020900490600052602060002090810190612e229190612e26565b5b50565b612e4891905b80821115612e44576000816000905550600101612e2c565b5090565b9056fe456e756d657261626c655365743a20696e646578206f7574206f6620626f756e64734552433732313a207472616e7366657220746f206e6f6e20455243373231526563656976657220696d706c656d656e7465724552433732313a207472616e7366657220746f20746865207a65726f20616464726573734552433732313a206f70657261746f7220717565727920666f72206e6f6e6578697374656e7420746f6b656e4552433732313a20617070726f76652063616c6c6572206973206e6f74206f776e6572206e6f7220617070726f76656420666f7220616c6c4552433732313a2062616c616e636520717565727920666f7220746865207a65726f20616464726573734552433732313a206f776e657220717565727920666f72206e6f6e6578697374656e7420746f6b656e456e756d657261626c654d61703a20696e646578206f7574206f6620626f756e64734552433732313a20617070726f76656420717565727920666f72206e6f6e6578697374656e7420746f6b656e4552433732314d657461646174613a2055524920736574206f66206e6f6e6578697374656e7420746f6b656e4552433732313a207472616e73666572206f6620746f6b656e2074686174206973206e6f74206f776e4552433732314d657461646174613a2055524920717565727920666f72206e6f6e6578697374656e7420746f6b656e4552433732313a20617070726f76616c20746f2063757272656e74206f776e65724552433732313a207472616e736665722063616c6c6572206973206e6f74206f776e6572206e6f7220617070726f766564a2646970667358221220c665f7ef3f03ec7f701f054edec83b666455395095d237222343e81e817df33964736f6c63430006060033",
  "compiler": {
    "name": "solc",
    "version": "0.6.6+commit.6c089d02.Emscripten.clang",
    "optimizer": {
      "enabled": false,
      "runs": 200
    },
    "evmVersion": "petersburg"
  }
}