{
  "fileName": "EtherReceiverMock.sol",
  "contractName": "EtherReceiverMock",
  "source": "pragma solidity ^0.6.0;\n\ncontract EtherReceiverMock {\n    bool private _acceptEther;\n\n    function setAcceptEther(bool acceptEther) public {\n        _acceptEther = acceptEther;\n    }\n\n    receive () external payable {\n        if (!_acceptEther) {\n            revert();\n        }\n    }\n}\n",
  "sourcePath": "contracts/mocks/EtherReceiverMock.sol",
  "abi": [
    {
      "inputs": [
        {
          "internalType": "bool",
          "name": "acceptEther",
          "type": "bool"
        }
      ],
      "name": "setAcceptEther",
      "outputs": [],
      "stateMutability": "nonpayable",
      "type": "function"
    },
    {
      "stateMutability": "payable",
      "type": "receive"
    }
  ],
  "bytecode": "0x608060405234801561001057600080fd5b5060cc8061001f6000396000f3fe608060405260043610601f5760003560e01c80634fea120c14604157603c565b36603c576000809054906101000a900460ff16603a57600080fd5b005b600080fd5b348015604c57600080fd5b50607860048036036020811015606157600080fd5b81019080803515159060200190929190505050607a565b005b806000806101000a81548160ff0219169083151502179055505056fea26469706673582212204e40e98deeea62b5e2ffee8f5645efc247d8aface3c7e022479ba72ec799183064736f6c63430006060033",
  "compiler": {
    "name": "solc",
    "version": "0.6.6+commit.6c089d02.Emscripten.clang",
    "optimizer": {
      "enabled": false,
      "runs": 200
    },
    "evmVersion": "petersburg"
  }
}