{
  "fileName": "ReentrancyMock.sol",
  "contractName": "ReentrancyMock",
  "source": "pragma solidity ^0.6.0;\n\nimport \"../utils/ReentrancyGuard.sol\";\nimport \"./ReentrancyAttack.sol\";\n\ncontract ReentrancyMock is ReentrancyGuard {\n    uint256 public counter;\n\n    constructor () public {\n        counter = 0;\n    }\n\n    function callback() external nonReentrant {\n        _count();\n    }\n\n    function countLocalRecursive(uint256 n) public nonReentrant {\n        if (n > 0) {\n            _count();\n            countLocalRecursive(n - 1);\n        }\n    }\n\n    function countThisRecursive(uint256 n) public nonReentrant {\n        if (n > 0) {\n            _count();\n            // solhint-disable-next-line avoid-low-level-calls\n            (bool success,) = address(this).call(abi.encodeWithSignature(\"countThisRecursive(uint256)\", n - 1));\n            require(success, \"ReentrancyMock: failed call\");\n        }\n    }\n\n    function countAndCall(ReentrancyAttack attacker) public nonReentrant {\n        _count();\n        bytes4 func = bytes4(keccak256(\"callback()\"));\n        attacker.callSender(func);\n    }\n\n    function _count() private {\n        counter += 1;\n    }\n}\n",
  "sourcePath": "contracts/mocks/ReentrancyMock.sol",
  "abi": [
    {
      "inputs": [],
      "stateMutability": "nonpayable",
      "type": "constructor"
    },
    {
      "inputs": [],
      "name": "callback",
      "outputs": [],
      "stateMutability": "nonpayable",
      "type": "function"
    },
    {
      "inputs": [
        {
          "internalType": "contract ReentrancyAttack",
          "name": "attacker",
          "type": "address"
        }
      ],
      "name": "countAndCall",
      "outputs": [],
      "stateMutability": "nonpayable",
      "type": "function"
    },
    {
      "inputs": [
        {
          "internalType": "uint256",
          "name": "n",
          "type": "uint256"
        }
      ],
      "name": "countLocalRecursive",
      "outputs": [],
      "stateMutability": "nonpayable",
      "type": "function"
    },
    {
      "inputs": [
        {
          "internalType": "uint256",
          "name": "n",
          "type": "uint256"
        }
      ],
      "name": "countThisRecursive",
      "outputs": [],
      "stateMutability": "nonpayable",
      "type": "function"
    },
    {
      "inputs": [],
      "name": "counter",
      "outputs": [
        {
          "internalType": "uint256",
          "name": "",
          "type": "uint256"
        }
      ],
      "stateMutability": "view",
      "type": "function"
    }
  ],
  "bytecode": "0x608060405234801561001057600080fd5b5060016000806101000a81548160ff0219169083151502179055506000600181905550610731806100426000396000f3fe608060405234801561001057600080fd5b50600436106100575760003560e01c8063083b27321461005c57806361bc221a146100665780638c5344fa1461008457806396ffa690146100b2578063b672ad8b146100e0575b600080fd5b610064610124565b005b61006e6101e3565b6040518082815260200191505060405180910390f35b6100b06004803603602081101561009a57600080fd5b81019080803590602001909291905050506101e9565b005b6100de600480360360208110156100c857600080fd5b810190808035906020019092919050505061046f565b005b610122600480360360208110156100f657600080fd5b81019080803573ffffffffffffffffffffffffffffffffffffffff169060200190929190505050610545565b005b6000809054906101000a900460ff166101a5576040517f08c379a000000000000000000000000000000000000000000000000000000000815260040180806020018281038252601f8152602001807f5265656e7472616e637947756172643a207265656e7472616e742063616c6c0081525060200191505060405180910390fd5b60008060006101000a81548160ff0219169083151502179055506101c76106e9565b60016000806101000a81548160ff021916908315150217905550565b60015481565b6000809054906101000a900460ff1661026a576040517f08c379a000000000000000000000000000000000000000000000000000000000815260040180806020018281038252601f8152602001807f5265656e7472616e637947756172643a207265656e7472616e742063616c6c0081525060200191505060405180910390fd5b60008060006101000a81548160ff0219169083151502179055506000811115610452576102956106e9565b60003073ffffffffffffffffffffffffffffffffffffffff1660018303604051602401808281526020019150506040516020818303038152906040527f8c5344fa000000000000000000000000000000000000000000000000000000007bffffffffffffffffffffffffffffffffffffffffffffffffffffffff19166020820180517bffffffffffffffffffffffffffffffffffffffffffffffffffffffff83818316178352505050506040518082805190602001908083835b60208310610372578051825260208201915060208101905060208303925061034f565b6001836020036101000a0380198251168184511680821785525050505050509050019150506000604051808303816000865af19150503d80600081146103d4576040519150601f19603f3d011682016040523d82523d6000602084013e6103d9565b606091505b5050905080610450576040517f08c379a000000000000000000000000000000000000000000000000000000000815260040180806020018281038252601b8152602001807f5265656e7472616e63794d6f636b3a206661696c65642063616c6c000000000081525060200191505060405180910390fd5b505b60016000806101000a81548160ff02191690831515021790555050565b6000809054906101000a900460ff166104f0576040517f08c379a000000000000000000000000000000000000000000000000000000000815260040180806020018281038252601f8152602001807f5265656e7472616e637947756172643a207265656e7472616e742063616c6c0081525060200191505060405180910390fd5b60008060006101000a81548160ff02191690831515021790555060008111156105285761051b6106e9565b6105276001820361046f565b5b60016000806101000a81548160ff02191690831515021790555050565b6000809054906101000a900460ff166105c6576040517f08c379a000000000000000000000000000000000000000000000000000000000815260040180806020018281038252601f8152602001807f5265656e7472616e637947756172643a207265656e7472616e742063616c6c0081525060200191505060405180910390fd5b60008060006101000a81548160ff0219169083151502179055506105e86106e9565b600060405180807f63616c6c6261636b282900000000000000000000000000000000000000000000815250600a019050604051809103902090508173ffffffffffffffffffffffffffffffffffffffff16630a2df1ed826040518263ffffffff1660e01b815260040180827bffffffffffffffffffffffffffffffffffffffffffffffffffffffff19167bffffffffffffffffffffffffffffffffffffffffffffffffffffffff19168152602001915050600060405180830381600087803b1580156106b357600080fd5b505af11580156106c7573d6000803e3d6000fd5b505050505060016000806101000a81548160ff02191690831515021790555050565b6001806000828254019250508190555056fea26469706673582212202fc8d682ac3a80174c953f0a0130f43332f074d0f461c032fd1001f8d13c2f3d64736f6c63430006060033",
  "compiler": {
    "name": "solc",
    "version": "0.6.6+commit.6c089d02.Emscripten.clang",
    "optimizer": {
      "enabled": false,
      "runs": 200
    },
    "evmVersion": "petersburg"
  }
}