{
  "contractName": "BankStorage",
  "abi": [
    {
      "constant": true,
      "inputs": [],
      "name": "bridgeTokenCount",
      "outputs": [
        {
          "internalType": "uint256",
          "name": "",
          "type": "uint256"
        }
      ],
      "payable": false,
      "stateMutability": "view",
      "type": "function"
    },
    {
      "constant": true,
      "inputs": [],
      "name": "cosmosBridge",
      "outputs": [
        {
          "internalType": "address",
          "name": "",
          "type": "address"
        }
      ],
      "payable": false,
      "stateMutability": "view",
      "type": "function"
    },
    {
      "constant": true,
      "inputs": [],
      "name": "cosmosDepositNonce",
      "outputs": [
        {
          "internalType": "uint256",
          "name": "",
          "type": "uint256"
        }
      ],
      "payable": false,
      "stateMutability": "view",
      "type": "function"
    },
    {
      "constant": true,
      "inputs": [],
      "name": "lockBurnNonce",
      "outputs": [
        {
          "internalType": "uint256",
          "name": "",
          "type": "uint256"
        }
      ],
      "payable": false,
      "stateMutability": "view",
      "type": "function"
    },
    {
      "constant": true,
      "inputs": [
        {
          "internalType": "address",
          "name": "",
          "type": "address"
        }
      ],
      "name": "lockedFunds",
      "outputs": [
        {
          "internalType": "uint256",
          "name": "",
          "type": "uint256"
        }
      ],
      "payable": false,
      "stateMutability": "view",
      "type": "function"
    },
    {
      "constant": true,
      "inputs": [
        {
          "internalType": "string",
          "name": "",
          "type": "string"
        }
      ],
      "name": "lockedTokenList",
      "outputs": [
        {
          "internalType": "address",
          "name": "",
          "type": "address"
        }
      ],
      "payable": false,
      "stateMutability": "view",
      "type": "function"
    },
    {
      "constant": true,
      "inputs": [],
      "name": "operator",
      "outputs": [
        {
          "internalType": "address",
          "name": "",
          "type": "address"
        }
      ],
      "payable": false,
      "stateMutability": "view",
      "type": "function"
    },
    {
      "constant": true,
      "inputs": [],
      "name": "oracle",
      "outputs": [
        {
          "internalType": "address",
          "name": "",
          "type": "address"
        }
      ],
      "payable": false,
      "stateMutability": "view",
      "type": "function"
    },
    {
      "constant": true,
      "inputs": [],
      "name": "owner",
      "outputs": [
        {
          "internalType": "address",
          "name": "",
          "type": "address"
        }
      ],
      "payable": false,
      "stateMutability": "view",
      "type": "function"
    }
  ],
  "bytecode": "0x608060405234801561001057600080fd5b50610289806100206000396000f3fe608060405234801561001057600080fd5b50600436106100935760003560e01c80637dc0d1d0116100665780637dc0d1d0146100e65780638da5cb5b146100ee578063b0e9ef71146100f6578063b86247d7146100fe578063f24a590a1461012457610093565b80631deed3bb14610098578063328470ab146100b2578063416d3227146100ba578063570ca735146100c2575b600080fd5b6100a06101ca565b60408051918252519081900360200190f35b6100a06101d0565b6100a06101d6565b6100ca6101dc565b604080516001600160a01b039092168252519081900360200190f35b6100ca6101ec565b6100ca6101fc565b6100ca61020c565b6100a06004803603602081101561011457600080fd5b50356001600160a01b031661021c565b6100ca6004803603602081101561013a57600080fd5b81019060208101813564010000000081111561015557600080fd5b82018360208201111561016757600080fd5b8035906020019184600183028401116401000000008311171561018957600080fd5b91908080601f01602080910402602001604051908101604052809392919081815260200183838082843760009201919091525092955061022e945050505050565b60685481565b60005481565b60015481565b610134546001600160a01b031681565b610135546001600160a01b031681565b610137546001600160a01b031681565b610136546001600160a01b031681565b60696020526000908152604090205481565b8051602081830181018051606a825292820191909301209152546001600160a01b03168156fea265627a7a72315820ec4b4f1d7dfb5a3a3c024362862fe8482019648d29c54bcf642798589be7e4a764736f6c63430005100032",
  "source": "pragma solidity ^0.5.0;\n\nimport \"./CosmosBankStorage.sol\";\nimport \"./EthereumBankStorage.sol\";\nimport \"./CosmosWhiteListStorage.sol\";\n\ncontract BankStorage is \n    CosmosBankStorage,\n    EthereumBankStorage,\n    CosmosWhiteListStorage {\n\n    /**\n    * @notice operator address that can update the smart contract\n    */\n    address public operator;\n\n    /**\n    * @notice address of the Oracle smart contract\n    */\n    address public oracle;\n\n    /**\n    * @notice address of the Cosmos Bridge smart contract\n    */\n    address public cosmosBridge;\n\n    /**\n    * @notice owner address that can use the admin API\n    */\n    address public owner;\n\n    /**\n    * @notice gap of storage for future upgrades\n    */\n    uint256[100] private ____gap;\n}",
  "sourcePath": "/Users/utx0/Code/sifchain/sifnode/smart-contracts/contracts/BridgeBank/BankStorage.sol",
  "compiler": {
    "name": "solc",
    "version": "0.5.16+commit.9c3226ce.Emscripten.clang"
  },
  "schemaVersion": "3.3.2",
  "updatedAt": "2020-11-19T01:51:10.827Z",
  "devdoc": {
    "methods": {}
  },
  "userdoc": {
    "methods": {}
  }
}