{
  "contractName": "BridgeRegistry",
  "abi": [
    {
      "anonymous": false,
      "inputs": [
        {
          "indexed": false,
          "internalType": "address",
          "name": "_cosmosBridge",
          "type": "address"
        },
        {
          "indexed": false,
          "internalType": "address",
          "name": "_bridgeBank",
          "type": "address"
        },
        {
          "indexed": false,
          "internalType": "address",
          "name": "_oracle",
          "type": "address"
        },
        {
          "indexed": false,
          "internalType": "address",
          "name": "_valset",
          "type": "address"
        }
      ],
      "name": "LogContractsRegistered",
      "type": "event"
    },
    {
      "constant": true,
      "inputs": [],
      "name": "bridgeBank",
      "outputs": [
        {
          "internalType": "address",
          "name": "",
          "type": "address"
        }
      ],
      "payable": false,
      "stateMutability": "view",
      "type": "function"
    },
    {
      "constant": true,
      "inputs": [],
      "name": "cosmosBridge",
      "outputs": [
        {
          "internalType": "address",
          "name": "",
          "type": "address"
        }
      ],
      "payable": false,
      "stateMutability": "view",
      "type": "function"
    },
    {
      "constant": true,
      "inputs": [],
      "name": "oracle",
      "outputs": [
        {
          "internalType": "address",
          "name": "",
          "type": "address"
        }
      ],
      "payable": false,
      "stateMutability": "view",
      "type": "function"
    },
    {
      "constant": true,
      "inputs": [],
      "name": "valset",
      "outputs": [
        {
          "internalType": "address",
          "name": "",
          "type": "address"
        }
      ],
      "payable": false,
      "stateMutability": "view",
      "type": "function"
    },
    {
      "constant": false,
      "inputs": [
        {
          "internalType": "address",
          "name": "_cosmosBridge",
          "type": "address"
        },
        {
          "internalType": "address",
          "name": "_bridgeBank",
          "type": "address"
        },
        {
          "internalType": "address",
          "name": "_oracle",
          "type": "address"
        },
        {
          "internalType": "address",
          "name": "_valset",
          "type": "address"
        }
      ],
      "name": "initialize",
      "outputs": [],
      "payable": false,
      "stateMutability": "nonpayable",
      "type": "function"
    }
  ],
  "bytecode": "0x608060405234801561001057600080fd5b50610243806100206000396000f3fe608060405234801561001057600080fd5b50600436106100575760003560e01c80630e41f3731461005c5780637dc0d1d0146100805780637f54af0c14610088578063b0e9ef7114610090578063f8c8765e14610098575b600080fd5b6100646100d8565b604080516001600160a01b039092168252519081900360200190f35b6100646100e7565b6100646100f6565b610064610105565b6100d6600480360360808110156100ae57600080fd5b506001600160a01b038135811691602081013582169160408201358116916060013516610114565b005b6001546001600160a01b031681565b6002546001600160a01b031681565b6003546001600160a01b031681565b6000546001600160a01b031681565b600354600160a01b900460ff1615610161576040805162461bcd60e51b815260206004820152600b60248201526a125b9a5d1a585b1a5e995960aa1b604482015290519081900360640190fd5b600080546001600160a01b038087166001600160a01b031992831617928390556001805487831690841617908190556002805487841690851617908190556003805460ff60a01b19888616919096161794909416600160a01b1793849055604080519584168652918316602086015282168482015291166060830152517f039b733f31259b106f1d278c726870d5b28c7db22957d63df8dbaa70bd3a032a9181900360800190a15050505056fea265627a7a72315820b27e17a2cae9743717aec3e36966f28e103b9e02896b146710b8c3bc33d89e5964736f6c63430005100032",
  "source": "pragma solidity ^0.5.0;\n\n\ncontract BridgeRegistry {\n    address public cosmosBridge;\n    address public bridgeBank;\n    address public oracle;\n    address public valset;\n\n    bool private _initialized;\n\n    uint256[100] private ____gap;\n\n    event LogContractsRegistered(\n        address _cosmosBridge,\n        address _bridgeBank,\n        address _oracle,\n        address _valset\n    );\n\n    function initialize(\n        address _cosmosBridge,\n        address _bridgeBank,\n        address _oracle,\n        address _valset\n    ) public {\n        require(!_initialized, \"Initialized\");\n\n        cosmosBridge = _cosmosBridge;\n        bridgeBank = _bridgeBank;\n        oracle = _oracle;\n        valset = _valset;\n        _initialized = true;\n\n        emit LogContractsRegistered(cosmosBridge, bridgeBank, oracle, valset);\n    }\n}\n",
  "sourcePath": "/Users/utx0/Code/sifchain/sifnode/smart-contracts/contracts/BridgeRegistry.sol",
  "compiler": {
    "name": "solc",
    "version": "0.5.16+commit.9c3226ce.Emscripten.clang"
  },
  "schemaVersion": "3.3.2",
  "updatedAt": "2020-11-19T02:14:42.937Z",
  "networkType": "ethereum",
  "devdoc": {
    "methods": {}
  },
  "userdoc": {
    "methods": {}
  }
}