{
  "contractName": "BridgeBank",
  "abi": [
    {
      "anonymous": false,
      "inputs": [
        {
          "indexed": false,
          "internalType": "address",
          "name": "_token",
          "type": "address"
        },
        {
          "indexed": false,
          "internalType": "string",
          "name": "_symbol",
          "type": "string"
        },
        {
          "indexed": false,
          "internalType": "uint256",
          "name": "_amount",
          "type": "uint256"
        },
        {
          "indexed": false,
          "internalType": "address",
          "name": "_beneficiary",
          "type": "address"
        }
      ],
      "name": "LogBridgeTokenMint",
      "type": "event"
    },
    {
      "anonymous": false,
      "inputs": [
        {
          "indexed": false,
          "internalType": "address",
          "name": "_from",
          "type": "address"
        },
        {
          "indexed": false,
          "internalType": "bytes",
          "name": "_to",
          "type": "bytes"
        },
        {
          "indexed": false,
          "internalType": "address",
          "name": "_token",
          "type": "address"
        },
        {
          "indexed": false,
          "internalType": "string",
          "name": "_symbol",
          "type": "string"
        },
        {
          "indexed": false,
          "internalType": "uint256",
          "name": "_value",
          "type": "uint256"
        },
        {
          "indexed": false,
          "internalType": "uint256",
          "name": "_nonce",
          "type": "uint256"
        }
      ],
      "name": "LogBurn",
      "type": "event"
    },
    {
      "anonymous": false,
      "inputs": [
        {
          "indexed": false,
          "internalType": "address",
          "name": "_from",
          "type": "address"
        },
        {
          "indexed": false,
          "internalType": "bytes",
          "name": "_to",
          "type": "bytes"
        },
        {
          "indexed": false,
          "internalType": "address",
          "name": "_token",
          "type": "address"
        },
        {
          "indexed": false,
          "internalType": "string",
          "name": "_symbol",
          "type": "string"
        },
        {
          "indexed": false,
          "internalType": "uint256",
          "name": "_value",
          "type": "uint256"
        },
        {
          "indexed": false,
          "internalType": "uint256",
          "name": "_nonce",
          "type": "uint256"
        }
      ],
      "name": "LogLock",
      "type": "event"
    },
    {
      "anonymous": false,
      "inputs": [
        {
          "indexed": false,
          "internalType": "address",
          "name": "_token",
          "type": "address"
        },
        {
          "indexed": false,
          "internalType": "string",
          "name": "_symbol",
          "type": "string"
        }
      ],
      "name": "LogNewBridgeToken",
      "type": "event"
    },
    {
      "anonymous": false,
      "inputs": [
        {
          "indexed": false,
          "internalType": "address",
          "name": "_to",
          "type": "address"
        },
        {
          "indexed": false,
          "internalType": "address",
          "name": "_token",
          "type": "address"
        },
        {
          "indexed": false,
          "internalType": "string",
          "name": "_symbol",
          "type": "string"
        },
        {
          "indexed": false,
          "internalType": "uint256",
          "name": "_value",
          "type": "uint256"
        }
      ],
      "name": "LogUnlock",
      "type": "event"
    },
    {
      "anonymous": false,
      "inputs": [
        {
          "indexed": false,
          "internalType": "address",
          "name": "_token",
          "type": "address"
        },
        {
          "indexed": false,
          "internalType": "bool",
          "name": "_value",
          "type": "bool"
        }
      ],
      "name": "LogWhiteListUpdate",
      "type": "event"
    },
    {
      "payable": true,
      "stateMutability": "payable",
      "type": "fallback"
    },
    {
      "constant": true,
      "inputs": [],
      "name": "bridgeTokenCount",
      "outputs": [
        {
          "internalType": "uint256",
          "name": "",
          "type": "uint256"
        }
      ],
      "payable": false,
      "stateMutability": "view",
      "type": "function"
    },
    {
      "constant": true,
      "inputs": [],
      "name": "cosmosBridge",
      "outputs": [
        {
          "internalType": "address",
          "name": "",
          "type": "address"
        }
      ],
      "payable": false,
      "stateMutability": "view",
      "type": "function"
    },
    {
      "constant": true,
      "inputs": [],
      "name": "cosmosDepositNonce",
      "outputs": [
        {
          "internalType": "uint256",
          "name": "",
          "type": "uint256"
        }
      ],
      "payable": false,
      "stateMutability": "view",
      "type": "function"
    },
    {
      "constant": true,
      "inputs": [
        {
          "internalType": "string",
          "name": "_symbol",
          "type": "string"
        }
      ],
      "name": "getBridgeToken",
      "outputs": [
        {
          "internalType": "address",
          "name": "",
          "type": "address"
        }
      ],
      "payable": false,
      "stateMutability": "view",
      "type": "function"
    },
    {
      "constant": true,
      "inputs": [
        {
          "internalType": "address",
          "name": "_token",
          "type": "address"
        }
      ],
      "name": "getCosmosTokenInWhiteList",
      "outputs": [
        {
          "internalType": "bool",
          "name": "",
          "type": "bool"
        }
      ],
      "payable": false,
      "stateMutability": "view",
      "type": "function"
    },
    {
      "constant": true,
      "inputs": [
        {
          "internalType": "string",
          "name": "_symbol",
          "type": "string"
        }
      ],
      "name": "getLockedFunds",
      "outputs": [
        {
          "internalType": "uint256",
          "name": "",
          "type": "uint256"
        }
      ],
      "payable": false,
      "stateMutability": "view",
      "type": "function"
    },
    {
      "constant": true,
      "inputs": [
        {
          "internalType": "string",
          "name": "_symbol",
          "type": "string"
        }
      ],
      "name": "getLockedTokenAddress",
      "outputs": [
        {
          "internalType": "address",
          "name": "",
          "type": "address"
        }
      ],
      "payable": false,
      "stateMutability": "view",
      "type": "function"
    },
    {
      "constant": true,
      "inputs": [
        {
          "internalType": "address",
          "name": "_token",
          "type": "address"
        }
      ],
      "name": "getTokenInEthWhiteList",
      "outputs": [
        {
          "internalType": "bool",
          "name": "",
          "type": "bool"
        }
      ],
      "payable": false,
      "stateMutability": "view",
      "type": "function"
    },
    {
      "constant": true,
      "inputs": [],
      "name": "lockBurnNonce",
      "outputs": [
        {
          "internalType": "uint256",
          "name": "",
          "type": "uint256"
        }
      ],
      "payable": false,
      "stateMutability": "view",
      "type": "function"
    },
    {
      "constant": true,
      "inputs": [
        {
          "internalType": "address",
          "name": "",
          "type": "address"
        }
      ],
      "name": "lockedFunds",
      "outputs": [
        {
          "internalType": "uint256",
          "name": "",
          "type": "uint256"
        }
      ],
      "payable": false,
      "stateMutability": "view",
      "type": "function"
    },
    {
      "constant": true,
      "inputs": [
        {
          "internalType": "string",
          "name": "",
          "type": "string"
        }
      ],
      "name": "lockedTokenList",
      "outputs": [
        {
          "internalType": "address",
          "name": "",
          "type": "address"
        }
      ],
      "payable": false,
      "stateMutability": "view",
      "type": "function"
    },
    {
      "constant": true,
      "inputs": [],
      "name": "operator",
      "outputs": [
        {
          "internalType": "address",
          "name": "",
          "type": "address"
        }
      ],
      "payable": false,
      "stateMutability": "view",
      "type": "function"
    },
    {
      "constant": true,
      "inputs": [],
      "name": "oracle",
      "outputs": [
        {
          "internalType": "address",
          "name": "",
          "type": "address"
        }
      ],
      "payable": false,
      "stateMutability": "view",
      "type": "function"
    },
    {
      "constant": true,
      "inputs": [],
      "name": "owner",
      "outputs": [
        {
          "internalType": "address",
          "name": "",
          "type": "address"
        }
      ],
      "payable": false,
      "stateMutability": "view",
      "type": "function"
    },
    {
      "constant": false,
      "inputs": [],
      "name": "initialize",
      "outputs": [],
      "payable": false,
      "stateMutability": "nonpayable",
      "type": "function"
    },
    {
      "constant": false,
      "inputs": [
        {
          "internalType": "address",
          "name": "_operatorAddress",
          "type": "address"
        },
        {
          "internalType": "address",
          "name": "_oracleAddress",
          "type": "address"
        },
        {
          "internalType": "address",
          "name": "_cosmosBridgeAddress",
          "type": "address"
        },
        {
          "internalType": "address",
          "name": "_owner",
          "type": "address"
        }
      ],
      "name": "initialize",
      "outputs": [],
      "payable": false,
      "stateMutability": "nonpayable",
      "type": "function"
    },
    {
      "constant": true,
      "inputs": [
        {
          "internalType": "bytes",
          "name": "_sifAddress",
          "type": "bytes"
        }
      ],
      "name": "verifySifPrefix",
      "outputs": [
        {
          "internalType": "bool",
          "name": "",
          "type": "bool"
        }
      ],
      "payable": false,
      "stateMutability": "pure",
      "type": "function"
    },
    {
      "constant": false,
      "inputs": [
        {
          "internalType": "string",
          "name": "_symbol",
          "type": "string"
        }
      ],
      "name": "createNewBridgeToken",
      "outputs": [
        {
          "internalType": "address",
          "name": "",
          "type": "address"
        }
      ],
      "payable": false,
      "stateMutability": "nonpayable",
      "type": "function"
    },
    {
      "constant": false,
      "inputs": [
        {
          "internalType": "address",
          "name": "_contractAddress",
          "type": "address"
        }
      ],
      "name": "addExistingBridgeToken",
      "outputs": [
        {
          "internalType": "address",
          "name": "",
          "type": "address"
        }
      ],
      "payable": false,
      "stateMutability": "nonpayable",
      "type": "function"
    },
    {
      "constant": false,
      "inputs": [
        {
          "internalType": "address",
          "name": "_token",
          "type": "address"
        },
        {
          "internalType": "bool",
          "name": "_inList",
          "type": "bool"
        }
      ],
      "name": "updateEthWhiteList",
      "outputs": [
        {
          "internalType": "bool",
          "name": "",
          "type": "bool"
        }
      ],
      "payable": false,
      "stateMutability": "nonpayable",
      "type": "function"
    },
    {
      "constant": false,
      "inputs": [
        {
          "internalType": "bytes",
          "name": "_cosmosSender",
          "type": "bytes"
        },
        {
          "internalType": "address payable",
          "name": "_intendedRecipient",
          "type": "address"
        },
        {
          "internalType": "address",
          "name": "_bridgeTokenAddress",
          "type": "address"
        },
        {
          "internalType": "string",
          "name": "_symbol",
          "type": "string"
        },
        {
          "internalType": "uint256",
          "name": "_amount",
          "type": "uint256"
        }
      ],
      "name": "mintBridgeTokens",
      "outputs": [],
      "payable": false,
      "stateMutability": "nonpayable",
      "type": "function"
    },
    {
      "constant": false,
      "inputs": [
        {
          "internalType": "bytes",
          "name": "_recipient",
          "type": "bytes"
        },
        {
          "internalType": "address",
          "name": "_token",
          "type": "address"
        },
        {
          "internalType": "uint256",
          "name": "_amount",
          "type": "uint256"
        }
      ],
      "name": "burn",
      "outputs": [],
      "payable": false,
      "stateMutability": "nonpayable",
      "type": "function"
    },
    {
      "constant": false,
      "inputs": [
        {
          "internalType": "bytes",
          "name": "_recipient",
          "type": "bytes"
        },
        {
          "internalType": "address",
          "name": "_token",
          "type": "address"
        },
        {
          "internalType": "uint256",
          "name": "_amount",
          "type": "uint256"
        }
      ],
      "name": "lock",
      "outputs": [],
      "payable": true,
      "stateMutability": "payable",
      "type": "function"
    },
    {
      "constant": false,
      "inputs": [
        {
          "internalType": "address payable",
          "name": "_recipient",
          "type": "address"
        },
        {
          "internalType": "string",
          "name": "_symbol",
          "type": "string"
        },
        {
          "internalType": "uint256",
          "name": "_amount",
          "type": "uint256"
        }
      ],
      "name": "unlock",
      "outputs": [],
      "payable": false,
      "stateMutability": "nonpayable",
      "type": "function"
    },
    {
      "constant": true,
      "inputs": [
        {
          "internalType": "bytes32",
          "name": "_id",
          "type": "bytes32"
        }
      ],
      "name": "getCosmosDepositStatus",
      "outputs": [
        {
          "internalType": "bool",
          "name": "",
          "type": "bool"
        }
      ],
      "payable": false,
      "stateMutability": "view",
      "type": "function"
    },
    {
      "constant": true,
      "inputs": [
        {
          "internalType": "bytes32",
          "name": "_id",
          "type": "bytes32"
        }
      ],
      "name": "viewCosmosDeposit",
      "outputs": [
        {
          "internalType": "bytes",
          "name": "",
          "type": "bytes"
        },
        {
          "internalType": "address payable",
          "name": "",
          "type": "address"
        },
        {
          "internalType": "address",
          "name": "",
          "type": "address"
        },
        {
          "internalType": "uint256",
          "name": "",
          "type": "uint256"
        }
      ],
      "payable": false,
      "stateMutability": "view",
      "type": "function"
    }
  ],
  "bytecode": "0x608060405234801561001057600080fd5b5061473a806100206000396000f3fe608060405260043610620001a65760003560e01c80639df2a38511620000e5578063dc9ae17d1162000097578063ebb73ca9116200006d578063ebb73ca91462000b82578063f24a590a1462000c3a578063f8c8765e1462000cf2578063fcf9cf6e1462000d4157620001a6565b8063dc9ae17d14620009c4578063e05988a41462000a8a578063e06064f41462000b5457620001a6565b80639df2a385146200066b578063b0e9ef711462000723578063b86247d7146200073b578063be6b721e1462000772578063cdf68c41146200082a578063d185e1bb146200098557620001a6565b8063570ca735116200015d5780637dc0d1d011620001335780637dc0d1d014620005ec5780638129fc1c14620006045780638da5cb5b146200061c57806396e5c356146200063457620001a6565b8063570ca73514620004d15780635acba65514620004e95780637b38c6d414620005a157620001a6565b80630a1f9b6614620002095780631deed3bb14620002dd5780632852a4141462000307578063328470ab14620003e9578063416d3227146200040157806350b06e4d1462000419575b610134546001600160a01b0316331462000207576040805162461bcd60e51b815260206004820152601c60248201527f4d7573742062652042726964676542616e6b206f70657261746f722e00000000604482015290519081900360640190fd5b005b3480156200021657600080fd5b50620002c1600480360360208110156200022f57600080fd5b810190602081018135600160201b8111156200024a57600080fd5b8201836020820111156200025d57600080fd5b803590602001918460018302840111600160201b831117156200027f57600080fd5b91908080601f01602080910402602001604051908101604052809392919081815260200183838082843760009201919091525092955062000d78945050505050565b604080516001600160a01b039092168252519081900360200190f35b348015620002ea57600080fd5b50620002f562000ded565b60408051918252519081900360200190f35b3480156200031457600080fd5b5062000335600480360360208110156200032d57600080fd5b503562000df3565b6040518080602001856001600160a01b03166001600160a01b03168152602001846001600160a01b03166001600160a01b03168152602001838152602001828103825286818151815260200191508051906020019080838360005b83811015620003aa57818101518382015260200162000390565b50505050905090810190601f168015620003d85780820380516001836020036101000a031916815260200191505b509550505050505060405180910390f35b348015620003f657600080fd5b50620002f562000e14565b3480156200040e57600080fd5b50620002f562000e1a565b3480156200042657600080fd5b50620002c1600480360360208110156200043f57600080fd5b810190602081018135600160201b8111156200045a57600080fd5b8201836020820111156200046d57600080fd5b803590602001918460018302840111600160201b831117156200048f57600080fd5b91908080601f01602080910402602001604051908101604052809392919081815260200183838082843760009201919091525092955062000e20945050505050565b348015620004de57600080fd5b50620002c162000e92565b348015620004f657600080fd5b50620002f5600480360360208110156200050f57600080fd5b810190602081018135600160201b8111156200052a57600080fd5b8201836020820111156200053d57600080fd5b803590602001918460018302840111600160201b831117156200055f57600080fd5b91908080601f01602080910402602001604051908101604052809392919081815260200183838082843760009201919091525092955062000ea2945050505050565b348015620005ae57600080fd5b50620005d860048036036020811015620005c757600080fd5b50356001600160a01b031662000f28565b604080519115158252519081900360200190f35b348015620005f957600080fd5b50620002c162000f47565b3480156200061157600080fd5b506200020762000f57565b3480156200062957600080fd5b50620002c162000fe7565b3480156200064157600080fd5b50620005d8600480360360208110156200065a57600080fd5b50356001600160a01b031662000ff7565b62000207600480360360608110156200068357600080fd5b810190602081018135600160201b8111156200069e57600080fd5b820183602082011115620006b157600080fd5b803590602001918460018302840111600160201b83111715620006d357600080fd5b91908080601f016020809104026020016040519081016040528093929190818152602001838380828437600092019190915250929550506001600160a01b03833516935050506020013562001015565b3480156200073057600080fd5b50620002c1620013d2565b3480156200074857600080fd5b50620002f5600480360360208110156200076157600080fd5b50356001600160a01b0316620013e2565b3480156200077f57600080fd5b50620005d8600480360360208110156200079857600080fd5b810190602081018135600160201b811115620007b357600080fd5b820183602082011115620007c657600080fd5b803590602001918460018302840111600160201b83111715620007e857600080fd5b91908080601f016020809104026020016040519081016040528093929190818152602001838380828437600092019190915250929550620013f4945050505050565b3480156200083757600080fd5b5062000207600480360360a08110156200085057600080fd5b810190602081018135600160201b8111156200086b57600080fd5b8201836020820111156200087e57600080fd5b803590602001918460018302840111600160201b83111715620008a057600080fd5b91908080601f01602080910402602001604051908101604052809392919081815260200183838082843760009201919091525092956001600160a01b038535811696602087013590911695919450925060608101915060400135600160201b8111156200090c57600080fd5b8201836020820111156200091f57600080fd5b803590602001918460018302840111600160201b831117156200094157600080fd5b91908080601f016020809104026020016040519081016040528093929190818152602001838380828437600092019190915250929550509135925062001465915050565b3480156200099257600080fd5b50620005d860048036036040811015620009ab57600080fd5b506001600160a01b0381351690602001351515620014c7565b348015620009d157600080fd5b506200020760048036036060811015620009ea57600080fd5b810190602081018135600160201b81111562000a0557600080fd5b82018360208201111562000a1857600080fd5b803590602001918460018302840111600160201b8311171562000a3a57600080fd5b91908080601f016020809104026020016040519081016040528093929190818152602001838380828437600092019190915250929550506001600160a01b038335169350505060200135620017a2565b34801562000a9757600080fd5b50620002076004803603606081101562000ab057600080fd5b6001600160a01b038235169190810190604081016020820135600160201b81111562000adb57600080fd5b82018360208201111562000aee57600080fd5b803590602001918460018302840111600160201b8311171562000b1057600080fd5b91908080601f016020809104026020016040519081016040528093929190818152602001838380828437600092019190915250929550509135925062001a4d915050565b34801562000b6157600080fd5b50620005d86004803603602081101562000b7a57600080fd5b503562001c6d565b34801562000b8f57600080fd5b50620002c16004803603602081101562000ba857600080fd5b810190602081018135600160201b81111562000bc357600080fd5b82018360208201111562000bd657600080fd5b803590602001918460018302840111600160201b8311171562000bf857600080fd5b91908080601f01602080910402602001604051908101604052809392919081815260200183838082843760009201919091525092955062001c80945050505050565b34801562000c4757600080fd5b50620002c16004803603602081101562000c6057600080fd5b810190602081018135600160201b81111562000c7b57600080fd5b82018360208201111562000c8e57600080fd5b803590602001918460018302840111600160201b8311171562000cb057600080fd5b91908080601f01602080910402602001604051908101604052809392919081815260200183838082843760009201919091525092955062001cb5945050505050565b34801562000cff57600080fd5b50620002076004803603608081101562000d1857600080fd5b506001600160a01b03813581169160208101358216916040820135811691606001351662001cdb565b34801562000d4e57600080fd5b50620002c16004803603602081101562000d6757600080fd5b50356001600160a01b031662001da0565b6000606a826040518082805190602001908083835b6020831062000dae5780518252601f19909201916020918201910162000d8d565b51815160209384036101000a60001901801990921691161790529201948552506040519384900301909220546001600160a01b0316925050505b919050565b60685481565b6060600080600062000e058562001e0e565b93509350935093509193509193565b60005481565b60015481565b610136546000906001600160a01b0316331462000e6f5760405162461bcd60e51b81526004018080602001828103825260268152602001806200453c6026913960400191505060405180910390fd5b600062000e7c8362001f34565b905062000e8b81600162002117565b5092915050565b610134546001600160a01b031681565b600060696000606a846040518082805190602001908083835b6020831062000edc5780518252601f19909201916020918201910162000ebb565b51815160209384036101000a600019018019909216911617905292019485525060408051948590038201909420546001600160a01b031685528401949094525001600020549392505050565b6001600160a01b0316600090815261019d602052604090205460ff1690565b610135546001600160a01b031681565b6102025460ff161562000f9f576040805162461bcd60e51b815260206004820152600b60248201526a125b9a5d1a585b1a5e995960aa1b604482015290519081900360640190fd5b6000805260cf6020527fe02c59459e6ae69bba35526a32783b104c6119df0d640a9ac4990ec2f8d493a98054600160ff19918216811790925561020280549091169091179055565b610137546001600160a01b031681565b6001600160a01b0316600090815260cf602052604090205460ff1690565b81620010218162000f28565b6200105e5760405162461bcd60e51b8152600401808060200182810382526034815260200180620046d26034913960400191505060405180910390fd5b838051602a14620010b6576040805162461bcd60e51b815260206004820152601a60248201527f496e76616c6964207369662061646472657373206c656e677468000000000000604482015290519081900360640190fd5b620010c181620013f4565b151560011462001118576040805162461bcd60e51b815260206004820152601a60248201527f496e76616c696420736966206164647265737320707265666978000000000000604482015290519081900360640190fd5b60603415620011ca576001600160a01b03851615620011695760405162461bcd60e51b8152600401808060200182810382526044815260200180620045cf6044913960600191505060405180910390fd5b833414620011a95760405162461bcd60e51b81526004018080602001828103825260428152602001806200458d6042913960600191505060405180910390fd5b5060408051808201909152600381526208aa8960eb1b6020820152620013bb565b604080516323b872dd60e01b81523360048201523060248201526044810186905290516001600160a01b038716916323b872dd9160648083019260209291908290030181600087803b1580156200122057600080fd5b505af115801562001235573d6000803e3d6000fd5b505050506040513d60208110156200124c57600080fd5b50516200128b5760405162461bcd60e51b81526004018080602001828103825260448152602001806200468e6044913960600191505060405180910390fd5b846001600160a01b03166395d89b416040518163ffffffff1660e01b815260040160006040518083038186803b158015620012c557600080fd5b505afa158015620012da573d6000803e3d6000fd5b505050506040513d6000823e601f3d908101601f1916820160405260208110156200130457600080fd5b8101908080516040519392919084600160201b8211156200132457600080fd5b9083019060208201858111156200133a57600080fd5b8251600160201b8111828201881017156200135457600080fd5b82525081516020918201929091019080838360005b838110156200138357818101518382015260200162001369565b50505050905090810190601f168015620013b15780820380516001836020036101000a031916815260200191505b5060405250505090505b620013ca338787848862002182565b505050505050565b610136546001600160a01b031681565b60696020526000908152604090205481565b60006239b4b360e91b815b60038110156200145b578381815181106200141657fe5b01602001516001600160f81b0319168282600381106200143257fe5b1a60f81b6001600160f81b03191614620014525760009250505062000de8565b600101620013ff565b5060019392505050565b610136546001600160a01b03163314620014b15760405162461bcd60e51b81526004018080602001828103825260268152602001806200453c6026913960400191505060405180910390fd5b620014c08585858585620023b4565b5050505050565b610134546000906001600160a01b031633146200152b576040805162461bcd60e51b815260206004820152601c60248201527f4d7573742062652042726964676542616e6b206f70657261746f722e00000000604482015290519081900360640190fd5b6060836001600160a01b03166395d89b416040518163ffffffff1660e01b815260040160006040518083038186803b1580156200156757600080fd5b505afa1580156200157c573d6000803e3d6000fd5b505050506040513d6000823e601f3d908101601f191682016040526020811015620015a657600080fd5b8101908080516040519392919084600160201b821115620015c657600080fd5b908301906020820185811115620015dc57600080fd5b8251600160201b811182820188101715620015f657600080fd5b82525081516020918201929091019080838360005b83811015620016255781810151838201526020016200160b565b50505050905090810190601f168015620016535780820380516001836020036101000a031916815260200191505b5060405250505090506000606a826040518082805190602001908083835b60208310620016925780518252601f19909201916020918201910162001671565b51815160209384036101000a60001901801990921691161790529201948552506040519384900301909220546001600160a01b03169250508415905062001736576001600160a01b0381161562001730576040805162461bcd60e51b815260206004820152601960248201527f546f6b656e20616c72656164792077686974656c697374656400000000000000604482015290519081900360640190fd5b6200178d565b6000816001600160a01b0316116200178d576040805162461bcd60e51b8152602060048201526015602482015274151bdad95b881b9bdd081dda1a5d195b1a5cdd1959605a1b604482015290519081900360640190fd5b62001799858562002626565b95945050505050565b828051602a14620017fa576040805162461bcd60e51b815260206004820152601a60248201527f496e76616c6964207369662061646472657373206c656e677468000000000000604482015290519081900360640190fd5b6200180581620013f4565b15156001146200185c576040805162461bcd60e51b815260206004820152601a60248201527f496e76616c696420736966206164647265737320707265666978000000000000604482015290519081900360640190fd5b82620018688162000ff7565b620018a55760405162461bcd60e51b8152600401808060200182810382526034815260200180620046d26034913960400191505060405180910390fd5b6040805163079cc67960e41b81523360048201526024810185905290516001600160a01b038616916379cc679091604480830192600092919082900301818387803b158015620018f457600080fd5b505af115801562001909573d6000803e3d6000fd5b505050506060846001600160a01b03166395d89b416040518163ffffffff1660e01b815260040160006040518083038186803b1580156200194957600080fd5b505afa1580156200195e573d6000803e3d6000fd5b505050506040513d6000823e601f3d908101601f1916820160405260208110156200198857600080fd5b8101908080516040519392919084600160201b821115620019a857600080fd5b908301906020820185811115620019be57600080fd5b8251600160201b811182820188101715620019d857600080fd5b82525081516020918201929091019080838360005b8381101562001a07578181015183820152602001620019ed565b50505050905090810190601f16801562001a355780820380516001836020036101000a031916815260200191505b506040525050509050620013ca338787848862002692565b610136546001600160a01b0316331462001a995760405162461bcd60e51b81526004018080602001828103825260268152602001806200453c6026913960400191505060405180910390fd5b8062001aa58362000ea2565b101562001ae45760405162461bcd60e51b8152600401808060200182810382526044815260200180620044f86044913960600191505060405180910390fd5b6000606a836040518082805190602001908083835b6020831062001b1a5780518252601f19909201916020918201910162001af9565b51815160001960209485036101000a019081169019919091161790529201948552506040519384900301909220546001600160a01b0316925050508062001ba2578147101562001b9c5760405162461bcd60e51b815260040180806020018281038252602b81526020018062004562602b913960400191505060405180910390fd5b62001c59565b604080516370a0823160e01b8152306004820152905183916001600160a01b038416916370a0823191602480820192602092909190829003018186803b15801562001bec57600080fd5b505afa15801562001c01573d6000803e3d6000fd5b505050506040513d602081101562001c1857600080fd5b5051101562001c595760405162461bcd60e51b815260040180806020018281038252602e81526020018062004639602e913960400191505060405180910390fd5b62001c678482858562002755565b50505050565b600062001c7a8262002996565b92915050565b60006002826040518082805190602001908083836020831062000dae5780518252601f19909201916020918201910162000d8d565b8051602081830181018051606a825292820191909301209152546001600160a01b031681565b61020254610100900460ff161562001d28576040805162461bcd60e51b815260206004820152600b60248201526a125b9a5d1a585b1a5e995960aa1b604482015290519081900360640190fd5b62001d32620029ae565b62001d3c62000f57565b61013480546001600160a01b039586166001600160a01b0319918216179091556101358054948616948216949094179093556101368054928516928416929092179091556101378054919093169116179055610202805461ff001916610100179055565b610137546000906001600160a01b0316331462001df5576040805162461bcd60e51b815260206004820152600e60248201526d26bab9ba1031329027bbb732b91760911b604482015290519081900360640190fd5b62001e0282600162002117565b5062001c7a8262002a3f565b6060600080600062001e1f62002f3d565b6000868152600360209081526040918290208251815460026001821615610100026000190190911604601f8101849004909302810160c090810190945260a0810183815290939192849284919084018282801562001ec15780601f1062001e955761010080835404028352916020019162001ec1565b820191906000526020600020905b81548152906001019060200180831162001ea357829003601f168201915b505050918352505060018201546001600160a01b039081166020808401919091526002840154909116604080840191909152600384015460608085019190915260049094015460ff1615156080909301929092528351908401519184015193909201519199909850919650945092505050565b6000805462001f4b90600163ffffffff62002c7316565b6000908155604051839062001f609062002f6b565b60208082528251818301528251829160408301919085019080838360005b8381101562001f9857818101518382015260200162001f7e565b50505050905090810190601f16801562001fc65780820380516001836020036101000a031916815260200191505b5092505050604051809103906000f08015801562001fe8573d6000803e3d6000fd5b5090506000819050806002856040518082805190602001908083835b60208310620020255780518252601f19909201916020918201910162002004565b51815160209384036101000a600019018019909216911617905292019485525060408051948590038201852080546001600160a01b0319166001600160a01b03978816179055948616845283810185815289519585019590955288517f0ec4ab372af15f8db6003eb14d91402a44b20dff79fbac33b4ee0df68fafe9c09587958b955093509160608401919085019080838360005b83811015620020d4578181015183820152602001620020ba565b50505050905090810190601f168015620021025780820380516001836020036101000a031916815260200191505b50935050505060405180910390a19392505050565b6001600160a01b038216600081815260cf60209081526040808320805460ff1916861515908117909155815194855291840191909152805191927fbabeec6613676f4972214f70ddf47c77eb8360e09b54278f21d6f999faf7c15c929081900390910190a150919050565b6068546200219890600163ffffffff62002c7316565b60688190555082606a836040518082805190602001908083835b60208310620021d35780518252601f199092019160209182019101620021b2565b51815160209384036101000a60001901801990921691161790529201948552506040805194859003820190942080546001600160a01b0319166001600160a01b0396871617905593871660009081526069909452505090205462002238908262002c73565b60696000856001600160a01b03166001600160a01b03168152602001908152602001600020819055507f374449c83a37309524754bbdfc5b8306d3694b5d14609b8fbb1b50cc5c0319a7858585858560685460405180876001600160a01b03166001600160a01b0316815260200180602001866001600160a01b03166001600160a01b0316815260200180602001858152602001848152602001838103835288818151815260200191508051906020019080838360005b8381101562002309578181015183820152602001620022ef565b50505050905090810190601f168015620023375780820380516001836020036101000a031916815260200191505b50838103825286518152865160209182019188019080838360005b838110156200236c57818101518382015260200162002352565b50505050905090810190601f1680156200239a5780820380516001836020036101000a031916815260200191505b509850505050505050505060405180910390a15050505050565b826001600160a01b03166002836040518082805190602001908083835b60208310620023f25780518252601f199092019160209182019101620023d1565b51815160209384036101000a60001901801990921691161790529201948552506040519384900301909220546001600160a01b03169290921491506200246c90505760405162461bcd60e51b8152600401808060200182810382526027815260200180620046676027913960400191505060405180910390fd5b826001600160a01b03166340c10f1985836040518363ffffffff1660e01b815260040180836001600160a01b03166001600160a01b0316815260200182815260200192505050602060405180830381600087803b158015620024cd57600080fd5b505af1158015620024e2573d6000803e3d6000fd5b505050506040513d6020811015620024f957600080fd5b5051620025385760405162461bcd60e51b8152600401808060200182810382526026815260200180620046136026913960400191505060405180910390fd5b620025468585858462002cd5565b507f262f97360779b7c2bb05fd24ef49f22d51435f78d3abd1ab35c323b22064cd4d8383838760405180856001600160a01b03166001600160a01b0316815260200180602001848152602001836001600160a01b03166001600160a01b03168152602001828103825285818151815260200191508051906020019080838360005b83811015620025e1578181015183820152602001620025c7565b50505050905090810190601f1680156200260f5780820380516001836020036101000a031916815260200191505b509550505050505060405180910390a15050505050565b6001600160a01b038216600081815261019d60209081526040808320805460ff1916861515908117909155815194855291840191909152805191927fbabeec6613676f4972214f70ddf47c77eb8360e09b54278f21d6f999faf7c15c929081900390910190a150919050565b606854620026a890600163ffffffff62002c7316565b6068819055507fcff57df3b42f67919a9300d211bb7fe56104ca34949da91116a8f82ff51bb777858585858560685460405180876001600160a01b03166001600160a01b0316815260200180602001866001600160a01b03166001600160a01b0316815260200180602001858152602001848152602001838103835288818151815260200191508051906020019080838360008381101562002309578181015183820152602001620022ef565b6001600160a01b03831660009081526069602052604090205462002780908263ffffffff62002e6416565b6001600160a01b038416600081815260696020526040902091909155620027df576040516001600160a01b0385169082156108fc029083906000818181858888f19350505050158015620027d8573d6000803e3d6000fd5b50620028b8565b826001600160a01b031663a9059cbb85836040518363ffffffff1660e01b815260040180836001600160a01b03166001600160a01b0316815260200182815260200192505050602060405180830381600087803b1580156200284057600080fd5b505af115801562002855573d6000803e3d6000fd5b505050506040513d60208110156200286c57600080fd5b5051620028b8576040805162461bcd60e51b8152602060048201526015602482015274151bdad95b881d1c985b9cd9995c8819985a5b1959605a1b604482015290519081900360640190fd5b7f802cd873de701272ec903860b690986bd460b5bcd57e30ac1fdfdeece10528ac8484848460405180856001600160a01b03166001600160a01b03168152602001846001600160a01b03166001600160a01b0316815260200180602001838152602001828103825284818151815260200191508051906020019080838360005b838110156200295257818101518382015260200162002938565b50505050905090810190601f168015620029805780820380516001836020036101000a031916815260200191505b509550505050505060405180910390a150505050565b60009081526003602052604090206004015460ff1690565b61019c5460ff1615620029f6576040805162461bcd60e51b815260206004820152600b60248201526a125b9a5d1a585b1a5e995960aa1b604482015290519081900360640190fd5b6000805261019d6020527f13dcb3c6205eccc5df5a4a7821d488c75d9d361908855b59d022fe13c7bb4f1d8054600160ff19918216811790925561019c80549091169091179055565b6000805462002a5690600163ffffffff62002c7316565b6000819055506060826001600160a01b03166395d89b416040518163ffffffff1660e01b815260040160006040518083038186803b15801562002a9857600080fd5b505afa15801562002aad573d6000803e3d6000fd5b505050506040513d6000823e601f3d908101601f19168201604052602081101562002ad757600080fd5b8101908080516040519392919084600160201b82111562002af757600080fd5b90830190602082018581111562002b0d57600080fd5b8251600160201b81118282018810171562002b2757600080fd5b82525081516020918201929091019080838360005b8381101562002b5657818101518382015260200162002b3c565b50505050905090810190601f16801562002b845780820380516001836020036101000a031916815260200191505b5060405250505090506000839050806002836040518082805190602001908083835b6020831062002bc75780518252601f19909201916020918201910162002ba6565b51815160209384036101000a600019018019909216911617905292019485525060408051948590038201852080546001600160a01b0319166001600160a01b03978816179055948616845283810185815287519585019590955286517f0ec4ab372af15f8db6003eb14d91402a44b20dff79fbac33b4ee0df68fafe9c095879589955093509160608401919085019080838360008315620020d4578181015183820152602001620020ba565b60008282018381101562002cce576040805162461bcd60e51b815260206004820152601b60248201527f536166654d6174683a206164646974696f6e206f766572666c6f770000000000604482015290519081900360640190fd5b9392505050565b600062002cee6001805462002c7390919063ffffffff16565b6001819055506000858585856001546040516020018086805190602001908083835b6020831062002d315780518252601f19909201916020918201910162002d10565b51815160209384036101000a6000190180199092169116179052606098891b6bffffffffffffffffffffffff19908116929094019182529690971b90911660148701525050602884019190915260488084019190915260408051808503909201825260688401808252825192840192909220610108850182528b83526001600160a01b038b811660888701528a1660a886015260c88501899052600160e89095019490945260008481526003845220815180519496509194509262002dfa928492019062002f79565b5060208201516001820180546001600160a01b03199081166001600160a01b039384161790915560408401516002840180549092169216919091179055606082015160038201556080909101516004909101805460ff191691151591909117905595945050505050565b600062002cce83836040518060400160405280601e81526020017f536166654d6174683a207375627472616374696f6e206f766572666c6f7700008152506000818484111562002f355760405162461bcd60e51b81526004018080602001828103825283818151815260200191508051906020019080838360005b8381101562002ef957818101518382015260200162002edf565b50505050905090810190601f16801562002f275780820380516001836020036101000a031916815260200191505b509250505060405180910390fd5b505050900390565b6040805160a08101825260608082526000602083018190529282018390528101829052608081019190915290565b6114d9806200301f83390190565b828054600181600116156101000203166002900490600052602060002090601f016020900481019282601f1062002fbc57805160ff191683800117855562002fec565b8280016001018555821562002fec579182015b8281111562002fec57825182559160200191906001019062002fcf565b5062002ffa92915062002ffe565b5090565b6200301b91905b8082111562002ffa576000815560010162003005565b9056fe60806040523480156200001157600080fd5b50604051620014d9380380620014d9833981810160405260208110156200003757600080fd5b81019080805160405193929190846401000000008211156200005857600080fd5b9083019060208201858111156200006e57600080fd5b82516401000000008111828201881017156200008957600080fd5b82525081516020918201929091019080838360005b83811015620000b85781810151838201526020016200009e565b50505050905090810190601f168015620000e65780820380516001836020036101000a031916815260200191505b506040525050508081601262000114620001056200015e60201b60201c565b6001600160e01b036200016316565b825162000129906004906020860190620002ab565b5081516200013f906005906020850190620002ab565b506006805460ff191660ff92909216919091179055506200034d915050565b335b90565b6200017e816003620001b560201b62000e621790919060201c565b6040516001600160a01b038216907f6ae172837ea30b801fbfcdd4108aa1d5bf8ff775444fd70256b44e6bf3dfc3f690600090a250565b620001ca82826001600160e01b036200024216565b156200021d576040805162461bcd60e51b815260206004820152601f60248201527f526f6c65733a206163636f756e7420616c72656164792068617320726f6c6500604482015290519081900360640190fd5b6001600160a01b0316600090815260209190915260409020805460ff19166001179055565b60006001600160a01b0382166200028b5760405162461bcd60e51b8152600401808060200182810382526022815260200180620014b76022913960400191505060405180910390fd5b506001600160a01b03166000908152602091909152604090205460ff1690565b828054600181600116156101000203166002900490600052602060002090601f016020900481019282601f10620002ee57805160ff19168380011785556200031e565b828001600101855582156200031e579182015b828111156200031e57825182559160200191906001019062000301565b506200032c92915062000330565b5090565b6200016091905b808211156200032c576000815560010162000337565b61115a806200035d6000396000f3fe608060405234801561001057600080fd5b506004361061010b5760003560e01c806370a08231116100a257806398650275116100715780639865027514610332578063a457c2d71461033a578063a9059cbb14610366578063aa271e1a14610392578063dd62ed3e146103b85761010b565b806370a08231146102b257806379cc6790146102d857806395d89b4114610304578063983b2d561461030c5761010b565b8063313ce567116100de578063313ce5671461021d578063395093511461023b57806340c10f191461026757806342966c68146102935761010b565b806306fdde0314610110578063095ea7b31461018d57806318160ddd146101cd57806323b872dd146101e7575b600080fd5b6101186103e6565b6040805160208082528351818301528351919283929083019185019080838360005b8381101561015257818101518382015260200161013a565b50505050905090810190601f16801561017f5780820380516001836020036101000a031916815260200191505b509250505060405180910390f35b6101b9600480360360408110156101a357600080fd5b506001600160a01b03813516906020013561047c565b604080519115158252519081900360200190f35b6101d5610499565b60408051918252519081900360200190f35b6101b9600480360360608110156101fd57600080fd5b506001600160a01b0381358116916020810135909116906040013561049f565b61022561052c565b6040805160ff9092168252519081900360200190f35b6101b96004803603604081101561025157600080fd5b506001600160a01b038135169060200135610535565b6101b96004803603604081101561027d57600080fd5b506001600160a01b038135169060200135610589565b6102b0600480360360208110156102a957600080fd5b50356105e0565b005b6101d5600480360360208110156102c857600080fd5b50356001600160a01b03166105f4565b6102b0600480360360408110156102ee57600080fd5b506001600160a01b03813516906020013561060f565b61011861061d565b6102b06004803603602081101561032257600080fd5b50356001600160a01b031661067e565b6102b06106cd565b6101b96004803603604081101561035057600080fd5b506001600160a01b0381351690602001356106df565b6101b96004803603604081101561037c57600080fd5b506001600160a01b03813516906020013561074d565b6101b9600480360360208110156103a857600080fd5b50356001600160a01b0316610761565b6101d5600480360360408110156103ce57600080fd5b506001600160a01b038135811691602001351661077a565b60048054604080516020601f60026000196101006001881615020190951694909404938401819004810282018101909252828152606093909290918301828280156104725780601f1061044757610100808354040283529160200191610472565b820191906000526020600020905b81548152906001019060200180831161045557829003601f168201915b5050505050905090565b60006104906104896107a5565b84846107a9565b50600192915050565b60025490565b60006104ac848484610895565b610522846104b86107a5565b61051d85604051806060016040528060288152602001611029602891396001600160a01b038a166000908152600160205260408120906104f66107a5565b6001600160a01b03168152602081019190915260400160002054919063ffffffff6109f116565b6107a9565b5060019392505050565b60065460ff1690565b60006104906105426107a5565b8461051d85600160006105536107a5565b6001600160a01b03908116825260208083019390935260409182016000908120918c16815292529020549063ffffffff610a8816565b600061059b6105966107a5565b610761565b6105d65760405162461bcd60e51b8152600401808060200182810382526030815260200180610fd86030913960400191505060405180910390fd5b6104908383610ae9565b6105f16105eb6107a5565b82610bd9565b50565b6001600160a01b031660009081526020819052604090205490565b6106198282610cd5565b5050565b60058054604080516020601f60026000196101006001881615020190951694909404938401819004810282018101909252828152606093909290918301828280156104725780601f1061044757610100808354040283529160200191610472565b6106896105966107a5565b6106c45760405162461bcd60e51b8152600401808060200182810382526030815260200180610fd86030913960400191505060405180910390fd5b6105f181610d29565b6106dd6106d86107a5565b610d71565b565b60006104906106ec6107a5565b8461051d8560405180606001604052806025815260200161110160259139600160006107166107a5565b6001600160a01b03908116825260208083019390935260409182016000908120918d1681529252902054919063ffffffff6109f116565b600061049061075a6107a5565b8484610895565b600061077460038363ffffffff610db916565b92915050565b6001600160a01b03918216600090815260016020908152604080832093909416825291909152205490565b3390565b6001600160a01b0383166107ee5760405162461bcd60e51b81526004018080602001828103825260248152602001806110dd6024913960400191505060405180910390fd5b6001600160a01b0382166108335760405162461bcd60e51b8152600401808060200182810382526022815260200180610f906022913960400191505060405180910390fd5b6001600160a01b03808416600081815260016020908152604080832094871680845294825291829020859055815185815291517f8c5be1e5ebec7d5bd14f71427d1e84f3dd0314c0f7b2291e5b200ac8c7c3b9259281900390910190a3505050565b6001600160a01b0383166108da5760405162461bcd60e51b81526004018080602001828103825260258152602001806110b86025913960400191505060405180910390fd5b6001600160a01b03821661091f5760405162461bcd60e51b8152600401808060200182810382526023815260200180610f4b6023913960400191505060405180910390fd5b61096281604051806060016040528060268152602001610fb2602691396001600160a01b038616600090815260208190526040902054919063ffffffff6109f116565b6001600160a01b038085166000908152602081905260408082209390935590841681522054610997908263ffffffff610a8816565b6001600160a01b038084166000818152602081815260409182902094909455805185815290519193928716927fddf252ad1be2c89b69c2b068fc378daa952ba7f163c4a11628f55a4df523b3ef92918290030190a3505050565b60008184841115610a805760405162461bcd60e51b81526004018080602001828103825283818151815260200191508051906020019080838360005b83811015610a45578181015183820152602001610a2d565b50505050905090810190601f168015610a725780820380516001836020036101000a031916815260200191505b509250505060405180910390fd5b505050900390565b600082820183811015610ae2576040805162461bcd60e51b815260206004820152601b60248201527f536166654d6174683a206164646974696f6e206f766572666c6f770000000000604482015290519081900360640190fd5b9392505050565b6001600160a01b038216610b44576040805162461bcd60e51b815260206004820152601f60248201527f45524332303a206d696e7420746f20746865207a65726f206164647265737300604482015290519081900360640190fd5b600254610b57908263ffffffff610a8816565b6002556001600160a01b038216600090815260208190526040902054610b83908263ffffffff610a8816565b6001600160a01b0383166000818152602081815260408083209490945583518581529351929391927fddf252ad1be2c89b69c2b068fc378daa952ba7f163c4a11628f55a4df523b3ef9281900390910190a35050565b6001600160a01b038216610c1e5760405162461bcd60e51b81526004018080602001828103825260218152602001806110976021913960400191505060405180910390fd5b610c6181604051806060016040528060228152602001610f6e602291396001600160a01b038516600090815260208190526040902054919063ffffffff6109f116565b6001600160a01b038316600090815260208190526040902055600254610c8d908263ffffffff610e2016565b6002556040805182815290516000916001600160a01b038516917fddf252ad1be2c89b69c2b068fc378daa952ba7f163c4a11628f55a4df523b3ef9181900360200190a35050565b610cdf8282610bd9565b61061982610ceb6107a5565b61051d84604051806060016040528060248152602001611073602491396001600160a01b0388166000908152600160205260408120906104f66107a5565b610d3a60038263ffffffff610e6216565b6040516001600160a01b038216907f6ae172837ea30b801fbfcdd4108aa1d5bf8ff775444fd70256b44e6bf3dfc3f690600090a250565b610d8260038263ffffffff610ee316565b6040516001600160a01b038216907fe94479a9f7e1952cc78f2d6baab678adc1b772d936c6583def489e524cb6669290600090a250565b60006001600160a01b038216610e005760405162461bcd60e51b81526004018080602001828103825260228152602001806110516022913960400191505060405180910390fd5b506001600160a01b03166000908152602091909152604090205460ff1690565b6000610ae283836040518060400160405280601e81526020017f536166654d6174683a207375627472616374696f6e206f766572666c6f7700008152506109f1565b610e6c8282610db9565b15610ebe576040805162461bcd60e51b815260206004820152601f60248201527f526f6c65733a206163636f756e7420616c72656164792068617320726f6c6500604482015290519081900360640190fd5b6001600160a01b0316600090815260209190915260409020805460ff19166001179055565b610eed8282610db9565b610f285760405162461bcd60e51b81526004018080602001828103825260218152602001806110086021913960400191505060405180910390fd5b6001600160a01b0316600090815260209190915260409020805460ff1916905556fe45524332303a207472616e7366657220746f20746865207a65726f206164647265737345524332303a206275726e20616d6f756e7420657863656564732062616c616e636545524332303a20617070726f766520746f20746865207a65726f206164647265737345524332303a207472616e7366657220616d6f756e7420657863656564732062616c616e63654d696e746572526f6c653a2063616c6c657220646f6573206e6f74206861766520746865204d696e74657220726f6c65526f6c65733a206163636f756e7420646f6573206e6f74206861766520726f6c6545524332303a207472616e7366657220616d6f756e74206578636565647320616c6c6f77616e6365526f6c65733a206163636f756e7420697320746865207a65726f206164647265737345524332303a206275726e20616d6f756e74206578636565647320616c6c6f77616e636545524332303a206275726e2066726f6d20746865207a65726f206164647265737345524332303a207472616e736665722066726f6d20746865207a65726f206164647265737345524332303a20617070726f76652066726f6d20746865207a65726f206164647265737345524332303a2064656372656173656420616c6c6f77616e63652062656c6f77207a65726fa265627a7a72315820d2278b682179e1f7683b5ea03e54610a21793e3257bbb2c60511d2f599841da864736f6c63430005100032526f6c65733a206163636f756e7420697320746865207a65726f20616464726573735468652042616e6b20646f6573206e6f7420686f6c6420656e6f756768206c6f636b656420746f6b656e7320746f2066756c66696c6c207468697320726571756573742e416363657373207265737472696374656420746f2074686520636f736d6f7320627269646765496e73756666696369656e7420657468657265756d2062616c616e636520666f722064656c69766572792e546865207472616e73616374696f6e732076616c7565206d75737420626520657175616c207468652073706563696669656420616d6f756e742028696e2077656929457468657265756d206465706f736974732072657175697265207468652027746f6b656e27206164647265737320746f20626520746865206e756c6c2061646472657373417474656d70746564206d696e74206f662062726964676520746f6b656e73206661696c6564496e73756666696369656e7420455243323020746f6b656e2062616c616e636520666f722064656c69766572792e546f6b656e206d757374206265206120636f6e74726f6c6c65642062726964676520746f6b656e436f6e747261637420746f6b656e20616c6c6f77616e63657320696e73756666696369656e7420746f20636f6d706c6574652074686973206c6f636b20726571756573744f6e6c7920746f6b656e20696e2077686974656c6973742063616e206265207472616e7366657272656420746f20636f736d6f73a265627a7a72315820f90b0c61922a0fed8deb6facc66857a1c6ac3fcd924cb925184a1b131866546964736f6c63430005100032",
  "source": "pragma solidity ^0.5.0;\n\nimport \"./CosmosBank.sol\";\nimport \"./EthereumBank.sol\";\nimport \"./EthereumWhitelist.sol\";\nimport \"./CosmosWhiteList.sol\";\nimport \"../Oracle.sol\";\nimport \"../CosmosBridge.sol\";\nimport \"./BankStorage.sol\";\n\n/**\n * @title BridgeBank\n * @dev Bank contract which coordinates asset-related functionality.\n *      CosmosBank manages the minting and burning of tokens which\n *      represent Cosmos based assets, while EthereumBank manages\n *      the locking and unlocking of Ethereum and ERC20 token assets\n *      based on Ethereum. WhiteList records the ERC20 token address \n *      list that can be locked.\n **/\n\ncontract BridgeBank is BankStorage,\n    CosmosBank,\n    EthereumBank,\n    EthereumWhiteList,\n    CosmosWhiteList {\n\n    bool private _initialized;\n\n    using SafeMath for uint256;\n\n    /*\n     * @dev: Initializer, sets operator\n     */\n    function initialize(\n        address _operatorAddress,\n        address _oracleAddress,\n        address _cosmosBridgeAddress,\n        address _owner\n    ) public {\n        require(!_initialized, \"Initialized\");\n\n        EthereumWhiteList.initialize();\n        CosmosWhiteList.initialize();\n\n        operator = _operatorAddress;\n        oracle = _oracleAddress;\n        cosmosBridge = _cosmosBridgeAddress;\n        owner = _owner;\n        _initialized = true;\n    }\n\n    /*\n     * @dev: Modifier to restrict access to operator\n     */\n    modifier onlyOperator() {\n        require(msg.sender == operator, \"Must be BridgeBank operator.\");\n        _;\n    }\n\n    /*\n     * @dev: Modifier to restrict access to the oracle\n     */\n    modifier onlyOracle() {\n        require(\n            msg.sender == oracle,\n            \"Access restricted to the oracle\"\n        );\n        _;\n    }\n\n    /*\n     * @dev: Modifier to restrict access to operator\n     */\n    modifier onlyOwner() {\n        require(msg.sender == owner, \"Must be Owner.\");\n        _;\n    }\n\n\n\n    /*\n     * @dev: Modifier to restrict access to the cosmos bridge\n     */\n    modifier onlyCosmosBridge() {\n        require(\n            msg.sender == cosmosBridge,\n            \"Access restricted to the cosmos bridge\"\n        );\n        _;\n    }\n\n    /*\n     * @dev: Modifier to only allow valid sif addresses\n     */\n    modifier validSifAddress(bytes memory _sifAddress) {\n        require(_sifAddress.length == 42, \"Invalid sif address length\");\n        require(verifySifPrefix(_sifAddress) == true, \"Invalid sif address prefix\");\n        _;\n    }\n\n    /*\n     * @dev: Fallback function allows operator to send funds to the bank directly\n     *       This feature is used for testing and is available at the operator's own risk.\n     */\n    function() external payable onlyOperator {}\n\n    /*\n     * @dev: function to validate if a sif address has a correct prefix\n     */\n    function verifySifPrefix(bytes memory _sifAddress) public pure returns (bool) {\n        bytes3 sifInHex = 0x736966;\n\n        for (uint256 i = 0; i < sifInHex.length; i++) {\n            if (sifInHex[i] != _sifAddress[i]) {\n                return false;\n            }\n        }\n        return true;\n    }\n\n\n    /*\n     * @dev: Creates a new BridgeToken\n     *\n     * @param _symbol: The new BridgeToken's symbol\n     * @return: The new BridgeToken contract's address\n     */\n    function createNewBridgeToken(string memory _symbol)\n        public\n        onlyCosmosBridge\n        returns (address)\n    {\n        address newTokenAddress = deployNewBridgeToken(_symbol);\n        setTokenInCosmosWhiteList(newTokenAddress, true);\n\n        return newTokenAddress;\n    }\n\n    /*\n     * @dev: Creates a new BridgeToken\n     *\n     * @param _symbol: The new BridgeToken's symbol\n     * @return: The new BridgeToken contract's address\n     */\n    function addExistingBridgeToken(\n        address _contractAddress\n    ) public onlyOwner returns (address) {\n        setTokenInCosmosWhiteList(_contractAddress, true);\n        return useExistingBridgeToken(_contractAddress);\n    }\n\n    /*\n     * @dev: Set the token address in whitelist\n     *\n     * @param _token: ERC 20's address\n     * @param _inList: set the _token in list or not\n     * @return: new value of if _token in whitelist\n     */\n    function updateEthWhiteList(address _token, bool _inList)\n        public\n        onlyOperator\n        returns (bool)\n    {\n        string memory symbol = BridgeToken(_token).symbol();\n        address listAddress = lockedTokenList[symbol];\n        \n        // Do not allow a token with the same symbol to be whitelisted\n        if (_inList) {\n            // if we want to add it to the whitelist, make sure that the address\n            // is 0, meaning we have not seen that symbol in the whitelist before\n            require(listAddress == address(0), \"Token already whitelisted\");\n        } else {\n            // if we want to de-whitelist it, make sure that the symbol is \n            // in fact stored in our locked token list before we set to false\n            require(uint256(listAddress) > 0, \"Token not whitelisted\");\n        }\n        return setTokenInEthWhiteList(_token, _inList);\n    }\n\n    /*\n     * @dev: Mints new BankTokens\n     *\n     * @param _cosmosSender: The sender's Cosmos address in bytes.\n     * @param _ethereumRecipient: The intended recipient's Ethereum address.\n     * @param _cosmosTokenAddress: The currency type\n     * @param _symbol: comsos token symbol\n     * @param _amount: number of comsos tokens to be minted\n     */\n    function mintBridgeTokens(\n        bytes memory _cosmosSender,\n        address payable _intendedRecipient,\n        address _bridgeTokenAddress,\n        string memory _symbol,\n        uint256 _amount\n    ) public onlyCosmosBridge {\n        return\n            mintNewBridgeTokens(\n                _cosmosSender,\n                _intendedRecipient,\n                _bridgeTokenAddress,\n                _symbol,\n                _amount\n            );\n    }\n\n    /*\n     * @dev: Burns BridgeTokens representing native Cosmos assets.\n     *\n     * @param _recipient: bytes representation of destination address.\n     * @param _token: token address in origin chain (0x0 if ethereum)\n     * @param _amount: value of deposit\n     */\n    function burn(\n        bytes memory _recipient,\n        address _token,\n        uint256 _amount\n    ) public validSifAddress(_recipient) onlyCosmosTokenWhiteList(_token) {\n        BridgeToken(_token).burnFrom(msg.sender, _amount);\n        string memory symbol = BridgeToken(_token).symbol();\n        burnFunds(msg.sender, _recipient, _token, symbol, _amount);\n    }\n\n    /*\n     * @dev: Locks received Ethereum/ERC20 funds.\n     *\n     * @param _recipient: bytes representation of destination address.\n     * @param _token: token address in origin chain (0x0 if ethereum)\n     * @param _amount: value of deposit\n     */\n    function lock(\n        bytes memory _recipient,\n        address _token,\n        uint256 _amount\n    ) public payable onlyEthTokenWhiteList(_token) validSifAddress(_recipient) {\n        string memory symbol;\n\n        // Ethereum deposit\n        if (msg.value > 0) {\n            require(\n                _token == address(0),\n                \"Ethereum deposits require the 'token' address to be the null address\"\n            );\n            require(\n                msg.value == _amount,\n                \"The transactions value must be equal the specified amount (in wei)\"\n            );\n            symbol = \"ETH\";\n            // ERC20 deposit\n        } else {\n            require(\n                BridgeToken(_token).transferFrom(\n                    msg.sender,\n                    address(this),\n                    _amount\n                ),\n                \"Contract token allowances insufficient to complete this lock request\"\n            );\n            // Set symbol to the ERC20 token's symbol\n            symbol = BridgeToken(_token).symbol();\n        }\n\n        lockFunds(msg.sender, _recipient, _token, symbol, _amount);\n    }\n\n    /*\n     * @dev: Unlocks Ethereum and ERC20 tokens held on the contract.\n     *\n     * @param _recipient: recipient's Ethereum address\n     * @param _token: token contract address\n     * @param _symbol: token symbol\n     * @param _amount: wei amount or ERC20 token count\n     */\n    function unlock(\n        address payable _recipient,\n        string memory _symbol,\n        uint256 _amount\n    ) public onlyCosmosBridge {\n        // Confirm that the bank has sufficient locked balances of this token type\n        require(\n            getLockedFunds(_symbol) >= _amount,\n            \"The Bank does not hold enough locked tokens to fulfill this request.\"\n        );\n\n        // Confirm that the bank holds sufficient balances to complete the unlock\n        address tokenAddress = lockedTokenList[_symbol];\n        if (tokenAddress == address(0)) {\n            require(\n                address(this).balance >= _amount,\n                \"Insufficient ethereum balance for delivery.\"\n            );\n        } else {\n            require(\n                BridgeToken(tokenAddress).balanceOf(address(this)) >= _amount,\n                \"Insufficient ERC20 token balance for delivery.\"\n            );\n        }\n        unlockFunds(_recipient, tokenAddress, _symbol, _amount);\n    }\n\n    /*\n     * @dev: Exposes an item's current status.\n     *\n     * @param _id: The item in question.\n     * @return: Boolean indicating the lock status.\n     */\n    function getCosmosDepositStatus(bytes32 _id) public view returns (bool) {\n        return isLockedCosmosDeposit(_id);\n    }\n\n    /*\n     * @dev: Allows access to a Cosmos deposit's information via its unique identifier.\n     *\n     * @param _id: The deposit to be viewed.\n     * @return: Original sender's Ethereum address.\n     * @return: Intended Cosmos recipient's address in bytes.\n     * @return: The lock deposit's currency, denoted by a token address.\n     * @return: The amount locked in the deposit.\n     * @return: The deposit's unique nonce.\n     */\n    function viewCosmosDeposit(bytes32 _id)\n        public\n        view\n        returns (\n            bytes memory,\n            address payable,\n            address,\n            uint256\n        )\n    {\n        return getCosmosDeposit(_id);\n    }\n}\n",
  "sourcePath": "/Users/utx0/Code/sifchain/sifnode/smart-contracts/contracts/BridgeBank/BridgeBank.sol",
  "compiler": {
    "name": "solc",
    "version": "0.5.16+commit.9c3226ce.Emscripten.clang"
  },
  "schemaVersion": "3.3.2",
  "updatedAt": "2020-11-19T02:14:42.888Z",
  "networkType": "ethereum",
  "devdoc": {
    "details": "Bank contract which coordinates asset-related functionality.     CosmosBank manages the minting and burning of tokens which     represent Cosmos based assets, while EthereumBank manages     the locking and unlocking of Ethereum and ERC20 token assets     based on Ethereum. WhiteList records the ERC20 token address      list that can be locked.*",
    "methods": {},
    "title": "BridgeBank"
  },
  "userdoc": {
    "methods": {}
  }
}