{
  "contractName": "CosmosWhiteList",
  "abi": [
    {
      "anonymous": false,
      "inputs": [
        {
          "indexed": false,
          "internalType": "address",
          "name": "_token",
          "type": "address"
        },
        {
          "indexed": false,
          "internalType": "bool",
          "name": "_value",
          "type": "bool"
        }
      ],
      "name": "LogWhiteListUpdate",
      "type": "event"
    },
    {
      "constant": false,
      "inputs": [],
      "name": "initialize",
      "outputs": [],
      "payable": false,
      "stateMutability": "nonpayable",
      "type": "function"
    },
    {
      "constant": true,
      "inputs": [
        {
          "internalType": "address",
          "name": "_token",
          "type": "address"
        }
      ],
      "name": "getCosmosTokenInWhiteList",
      "outputs": [
        {
          "internalType": "bool",
          "name": "",
          "type": "bool"
        }
      ],
      "payable": false,
      "stateMutability": "view",
      "type": "function"
    }
  ],
  "bytecode": "0x608060405234801561001057600080fd5b5061015e806100206000396000f3fe608060405234801561001057600080fd5b50600436106100365760003560e01c80638129fc1c1461003b57806396e5c35614610045575b600080fd5b61004361007f565b005b61006b6004803603602081101561005b57600080fd5b50356001600160a01b031661010b565b604080519115158252519081900360200190f35b60655460ff16156100c5576040805162461bcd60e51b815260206004820152600b60248201526a125b9a5d1a585b1a5e995960aa1b604482015290519081900360640190fd5b60008080526020527fad3228b676f7d3cd4284a5443f17f1962b36e491b30a40b2405849e597ba5fb58054600160ff199182168117909255606580549091169091179055565b6001600160a01b031660009081526020819052604090205460ff169056fea265627a7a72315820f89608b33457ea533048e0b4d3db1413f78f8e62f6ec9257bc9d2bfee1d0a44f64736f6c63430005100032",
  "source": "pragma solidity ^0.5.0;\n\nimport \"./CosmosWhiteListStorage.sol\";\n\n/**\n * @title WhiteList\n * @dev WhiteList contract records the ERC 20 list that can be locked in BridgeBank.\n **/\n\ncontract CosmosWhiteList is CosmosWhiteListStorage {\n    bool private _initialized;\n\n    /*\n     * @dev: Event declarations\n     */\n    event LogWhiteListUpdate(address _token, bool _value);\n\n    function initialize() public {\n        require(!_initialized, \"Initialized\");\n        _cosmosTokenWhiteList[address(0)] = true;\n        _initialized = true;\n    }\n\n    /*\n     * @dev: Modifier to restrict erc20 can be locked\n     */\n    modifier onlyCosmosTokenWhiteList(address _token) {\n        require(\n            getCosmosTokenInWhiteList(_token),\n            \"Only token in whitelist can be transferred to cosmos\"\n        );\n        _;\n    }\n\n    /*\n     * @dev: Set the token address in whitelist\n     *\n     * @param _token: ERC 20's address\n     * @param _inList: set the _token in list or not\n     * @return: new value of if _token in whitelist\n     */\n    function setTokenInCosmosWhiteList(address _token, bool _inList)\n        internal\n        returns (bool)\n    {\n        _cosmosTokenWhiteList[_token] = _inList;\n        emit LogWhiteListUpdate(_token, _inList);\n        return _inList;\n    }\n\n    /*\n     * @dev: Get if the token in whitelist\n     *\n     * @param _token: ERC 20's address\n     * @return: if _token in whitelist\n     */\n    function getCosmosTokenInWhiteList(address _token) public view returns (bool) {\n        return _cosmosTokenWhiteList[_token];\n    }\n}",
  "sourcePath": "/Users/utx0/Code/sifchain/sifnode/smart-contracts/contracts/BridgeBank/CosmosWhiteList.sol",
  "compiler": {
    "name": "solc",
    "version": "0.5.16+commit.9c3226ce.Emscripten.clang"
  },
  "schemaVersion": "3.3.2",
  "updatedAt": "2020-11-19T01:51:10.850Z",
  "devdoc": {
    "details": "WhiteList contract records the ERC 20 list that can be locked in BridgeBank.*",
    "methods": {},
    "title": "WhiteList"
  },
  "userdoc": {
    "methods": {}
  }
}