{
  "contractName": "CosmosBankStorage",
  "abi": [
    {
      "constant": true,
      "inputs": [],
      "name": "bridgeTokenCount",
      "outputs": [
        {
          "internalType": "uint256",
          "name": "",
          "type": "uint256"
        }
      ],
      "payable": false,
      "stateMutability": "view",
      "type": "function"
    },
    {
      "constant": true,
      "inputs": [],
      "name": "cosmosDepositNonce",
      "outputs": [
        {
          "internalType": "uint256",
          "name": "",
          "type": "uint256"
        }
      ],
      "payable": false,
      "stateMutability": "view",
      "type": "function"
    }
  ],
  "bytecode": "0x6080604052348015600f57600080fd5b5060968061001e6000396000f3fe6080604052348015600f57600080fd5b506004361060325760003560e01c8063328470ab146037578063416d322714604f575b600080fd5b603d6055565b60408051918252519081900360200190f35b603d605b565b60005481565b6001548156fea265627a7a723158208df366bee6b3b28deb18bddfb15e56c4ec88d5590a9099785b79f389dd6e8d6564736f6c63430005100032",
  "source": "pragma solidity ^0.5.0;\n\ncontract CosmosBankStorage {\n\n    /**\n    * @notice Cosmos deposit struct\n    */\n    struct CosmosDeposit {\n        bytes cosmosSender;\n        address payable ethereumRecipient;\n        address bridgeTokenAddress;\n        uint256 amount;\n        bool locked;\n    }\n\n    /**\n    * @notice number of bridge tokens\n    */\n    uint256 public bridgeTokenCount;\n\n    /**\n    * @notice cosmos deposit nonce\n    */\n    uint256 public cosmosDepositNonce;\n    \n    /**\n    * @notice mapping of symbols to token addresses\n    */\n    mapping(string => address) controlledBridgeTokens;\n\n    /**\n    * @notice mapping of cosmos deposit id's to deposit receipts\n    */\n    mapping(bytes32 => CosmosDeposit) cosmosDeposits;\n\n    /**\n    * @notice gap of storage for future upgrades\n    */\n    uint256[100] private ____gap;\n}",
  "sourcePath": "/Users/utx0/Code/sifchain/sifnode/smart-contracts/contracts/BridgeBank/CosmosBankStorage.sol",
  "compiler": {
    "name": "solc",
    "version": "0.5.16+commit.9c3226ce.Emscripten.clang"
  },
  "schemaVersion": "3.3.2",
  "updatedAt": "2020-11-19T01:51:10.849Z",
  "devdoc": {
    "methods": {}
  },
  "userdoc": {
    "methods": {}
  }
}