{
  "contractName": "CosmosBridge",
  "abi": [
    {
      "anonymous": false,
      "inputs": [
        {
          "indexed": false,
          "internalType": "address",
          "name": "_bridgeBank",
          "type": "address"
        }
      ],
      "name": "LogBridgeBankSet",
      "type": "event"
    },
    {
      "anonymous": false,
      "inputs": [
        {
          "indexed": false,
          "internalType": "uint256",
          "name": "_prophecyID",
          "type": "uint256"
        },
        {
          "indexed": false,
          "internalType": "enum CosmosBridgeStorage.ClaimType",
          "name": "_claimType",
          "type": "uint8"
        },
        {
          "indexed": false,
          "internalType": "bytes",
          "name": "_cosmosSender",
          "type": "bytes"
        },
        {
          "indexed": false,
          "internalType": "address payable",
          "name": "_ethereumReceiver",
          "type": "address"
        },
        {
          "indexed": false,
          "internalType": "address",
          "name": "_validatorAddress",
          "type": "address"
        },
        {
          "indexed": false,
          "internalType": "address",
          "name": "_tokenAddress",
          "type": "address"
        },
        {
          "indexed": false,
          "internalType": "string",
          "name": "_symbol",
          "type": "string"
        },
        {
          "indexed": false,
          "internalType": "uint256",
          "name": "_amount",
          "type": "uint256"
        }
      ],
      "name": "LogNewProphecyClaim",
      "type": "event"
    },
    {
      "anonymous": false,
      "inputs": [
        {
          "indexed": false,
          "internalType": "address",
          "name": "_oracle",
          "type": "address"
        }
      ],
      "name": "LogOracleSet",
      "type": "event"
    },
    {
      "anonymous": false,
      "inputs": [
        {
          "indexed": false,
          "internalType": "uint256",
          "name": "_prophecyID",
          "type": "uint256"
        },
        {
          "indexed": false,
          "internalType": "enum CosmosBridgeStorage.ClaimType",
          "name": "_claimType",
          "type": "uint8"
        }
      ],
      "name": "LogProphecyCompleted",
      "type": "event"
    },
    {
      "constant": true,
      "inputs": [],
      "name": "bridgeBank",
      "outputs": [
        {
          "internalType": "address payable",
          "name": "",
          "type": "address"
        }
      ],
      "payable": false,
      "stateMutability": "view",
      "type": "function"
    },
    {
      "constant": true,
      "inputs": [],
      "name": "hasBridgeBank",
      "outputs": [
        {
          "internalType": "bool",
          "name": "",
          "type": "bool"
        }
      ],
      "payable": false,
      "stateMutability": "view",
      "type": "function"
    },
    {
      "constant": true,
      "inputs": [],
      "name": "hasOracle",
      "outputs": [
        {
          "internalType": "bool",
          "name": "",
          "type": "bool"
        }
      ],
      "payable": false,
      "stateMutability": "view",
      "type": "function"
    },
    {
      "constant": true,
      "inputs": [],
      "name": "operator",
      "outputs": [
        {
          "internalType": "address",
          "name": "",
          "type": "address"
        }
      ],
      "payable": false,
      "stateMutability": "view",
      "type": "function"
    },
    {
      "constant": true,
      "inputs": [],
      "name": "oracle",
      "outputs": [
        {
          "internalType": "address payable",
          "name": "",
          "type": "address"
        }
      ],
      "payable": false,
      "stateMutability": "view",
      "type": "function"
    },
    {
      "constant": true,
      "inputs": [],
      "name": "prophecyClaimCount",
      "outputs": [
        {
          "internalType": "uint256",
          "name": "",
          "type": "uint256"
        }
      ],
      "payable": false,
      "stateMutability": "view",
      "type": "function"
    },
    {
      "constant": true,
      "inputs": [
        {
          "internalType": "uint256",
          "name": "",
          "type": "uint256"
        }
      ],
      "name": "prophecyClaims",
      "outputs": [
        {
          "internalType": "enum CosmosBridgeStorage.ClaimType",
          "name": "claimType",
          "type": "uint8"
        },
        {
          "internalType": "bytes",
          "name": "cosmosSender",
          "type": "bytes"
        },
        {
          "internalType": "address payable",
          "name": "ethereumReceiver",
          "type": "address"
        },
        {
          "internalType": "address",
          "name": "originalValidator",
          "type": "address"
        },
        {
          "internalType": "address",
          "name": "tokenAddress",
          "type": "address"
        },
        {
          "internalType": "string",
          "name": "symbol",
          "type": "string"
        },
        {
          "internalType": "uint256",
          "name": "amount",
          "type": "uint256"
        },
        {
          "internalType": "enum CosmosBridgeStorage.Status",
          "name": "status",
          "type": "uint8"
        }
      ],
      "payable": false,
      "stateMutability": "view",
      "type": "function"
    },
    {
      "constant": true,
      "inputs": [],
      "name": "valset",
      "outputs": [
        {
          "internalType": "address payable",
          "name": "",
          "type": "address"
        }
      ],
      "payable": false,
      "stateMutability": "view",
      "type": "function"
    },
    {
      "constant": false,
      "inputs": [
        {
          "internalType": "address",
          "name": "_operator",
          "type": "address"
        },
        {
          "internalType": "address payable",
          "name": "_valset",
          "type": "address"
        }
      ],
      "name": "initialize",
      "outputs": [],
      "payable": false,
      "stateMutability": "nonpayable",
      "type": "function"
    },
    {
      "constant": false,
      "inputs": [
        {
          "internalType": "address payable",
          "name": "_oracle",
          "type": "address"
        }
      ],
      "name": "setOracle",
      "outputs": [],
      "payable": false,
      "stateMutability": "nonpayable",
      "type": "function"
    },
    {
      "constant": false,
      "inputs": [
        {
          "internalType": "address payable",
          "name": "_bridgeBank",
          "type": "address"
        }
      ],
      "name": "setBridgeBank",
      "outputs": [],
      "payable": false,
      "stateMutability": "nonpayable",
      "type": "function"
    },
    {
      "constant": false,
      "inputs": [
        {
          "internalType": "enum CosmosBridgeStorage.ClaimType",
          "name": "_claimType",
          "type": "uint8"
        },
        {
          "internalType": "bytes",
          "name": "_cosmosSender",
          "type": "bytes"
        },
        {
          "internalType": "address payable",
          "name": "_ethereumReceiver",
          "type": "address"
        },
        {
          "internalType": "string",
          "name": "_symbol",
          "type": "string"
        },
        {
          "internalType": "uint256",
          "name": "_amount",
          "type": "uint256"
        }
      ],
      "name": "newProphecyClaim",
      "outputs": [],
      "payable": false,
      "stateMutability": "nonpayable",
      "type": "function"
    },
    {
      "constant": false,
      "inputs": [
        {
          "internalType": "uint256",
          "name": "_prophecyID",
          "type": "uint256"
        }
      ],
      "name": "completeProphecyClaim",
      "outputs": [],
      "payable": false,
      "stateMutability": "nonpayable",
      "type": "function"
    },
    {
      "constant": true,
      "inputs": [
        {
          "internalType": "uint256",
          "name": "_prophecyID",
          "type": "uint256"
        }
      ],
      "name": "isProphecyClaimActive",
      "outputs": [
        {
          "internalType": "bool",
          "name": "",
          "type": "bool"
        }
      ],
      "payable": false,
      "stateMutability": "view",
      "type": "function"
    },
    {
      "constant": true,
      "inputs": [
        {
          "internalType": "uint256",
          "name": "_prophecyID",
          "type": "uint256"
        }
      ],
      "name": "isProphecyClaimValidatorActive",
      "outputs": [
        {
          "internalType": "bool",
          "name": "",
          "type": "bool"
        }
      ],
      "payable": false,
      "stateMutability": "view",
      "type": "function"
    }
  ],
  "bytecode": "0x608060405234801561001057600080fd5b50611df1806100206000396000f3fe608060405234801561001057600080fd5b50600436106100f55760003560e01c80637dc0d1d0116100975780639d396d03116100665780639d396d0314610222578063d8da69ea1461036c578063db4237af14610389578063fb7831f2146104da576100f5565b80637dc0d1d0146101d25780637f54af0c146101da578063814c92c3146101e25780638ea5352d14610208576100f5565b8063570ca735116100d3578063570ca7351461017f57806369294a4e146101875780636b3ce98c1461018f5780637adbf973146101ac576100f5565b80630e41f373146100fa578063485cc9551461011e578063529f3dd21461014e575b600080fd5b6101026104e2565b604080516001600160a01b039092168252519081900360200190f35b61014c6004803603604081101561013457600080fd5b506001600160a01b03813581169160200135166104f1565b005b61016b6004803603602081101561016457600080fd5b50356105bc565b604080519115158252519081900360200190f35b61010261064b565b61016b61065a565b61014c600480360360208110156101a557600080fd5b503561066a565b61014c600480360360208110156101c257600080fd5b50356001600160a01b03166107b1565b6101026108ba565b6101026108c9565b61014c600480360360208110156101f857600080fd5b50356001600160a01b03166108d8565b6102106109e1565b60408051918252519081900360200190f35b61014c600480360360a081101561023857600080fd5b60ff823516919081019060408101602082013564010000000081111561025d57600080fd5b82018360208201111561026f57600080fd5b8035906020019184600183028401116401000000008311171561029157600080fd5b91908080601f01602080910402602001604051908101604052809392919081815260200183838082843760009201919091525092956001600160a01b038535169590949093506040810192506020013590506401000000008111156102f557600080fd5b82018360208201111561030757600080fd5b8035906020019184600183028401116401000000008311171561032957600080fd5b91908080601f01602080910402602001604051908101604052809392919081815260200183838082843760009201919091525092955050913592506109e7915050565b61016b6004803603602081101561038257600080fd5b50356112b5565b6103a66004803603602081101561039f57600080fd5b50356112e0565b604051808960028111156103b657fe5b60ff1681526001600160a01b03808916604083015287811660608301528616608082015260c08101849052602081019060a081019060e0018460038111156103fa57fe5b60ff16815260200183810383528a818151815260200191508051906020019080838360005b8381101561043757818101518382015260200161041f565b50505050905090810190601f1680156104645780820380516001836020036101000a031916815260200191505b50838103825286518152865160209182019188019080838360005b8381101561049757818101518382015260200161047f565b50505050905090810190601f1680156104c45780820380516001836020036101000a031916815260200191505b509a505050505050505050505060405180910390f35b61016b611451565b6004546001600160a01b031681565b606b5460ff1615610537576040805162461bcd60e51b815260206004820152600b60248201526a125b9a5d1a585b1a5e995960aa1b604482015290519081900360640190fd5b604080518082019091526001808252606560f81b602090920191825261055f91600091611b9a565b506000600555600180546001600160a01b039384166001600160a01b031991821617825560028054939094169216919091179091556003805460ff60a01b19908116909155600480549091169055606b805460ff19169091179055565b6002546000828152600660209081526040808320600301548151631015428760e21b81526001600160a01b0391821660048201529151939416926340550a1c92602480840193919291829003018186803b15801561061957600080fd5b505afa15801561062d573d6000803e3d6000fd5b505050506040513d602081101561064357600080fd5b505192915050565b6001546001600160a01b031681565b600454600160a01b900460ff1681565b80610674816112b5565b6106c5576040805162461bcd60e51b815260206004820152601c60248201527f50726f706865637920636c61696d206973206e6f742061637469766500000000604482015290519081900360640190fd5b6003546001600160a01b0316331461070e5760405162461bcd60e51b8152600401808060200182810382526027815260200180611d966027913960400191505060405180910390fd5b600082815260066020526040902060078101805460ff19166002908117909155905460ff1690600190829081111561074257fe5b14156107565761075183611461565b61075f565b61075f8361172b565b7f79e7c1c0bd54f11809c3bf6023c242783602d61ceff272c6bba6f8559c24ad0d83826040518083815260200182600281111561079857fe5b60ff1681526020019250505060405180910390a1505050565b6001546001600160a01b03163314610808576040805162461bcd60e51b815260206004820152601560248201527426bab9ba103132903a34329037b832b930ba37b91760591b604482015290519081900360640190fd5b600354600160a01b900460ff16156108515760405162461bcd60e51b8152600401808060200182810382526031815260200180611cf66031913960400191505060405180910390fd5b60038054600160a01b60ff60a01b19909116176001600160a01b0319166001600160a01b03838116919091179182905560408051929091168252517f6efb0434342713e2e9b1501dbebf76b4ed18406ea77ab5d56535cc26dec3adc0916020908290030190a150565b6003546001600160a01b031681565b6002546001600160a01b031681565b6001546001600160a01b0316331461092f576040805162461bcd60e51b815260206004820152601560248201527426bab9ba103132903a34329037b832b930ba37b91760591b604482015290519081900360640190fd5b600454600160a01b900460ff16156109785760405162461bcd60e51b8152600401808060200182810382526036815260200180611cc06036913960400191505060405180910390fd5b60048054600160a01b60ff60a01b19909116176001600160a01b0319166001600160a01b03838116919091179182905560408051929091168252517fc8b65043fb196ac032b79a435397d1d14a96b4e9d12e366c3b1f550cb01d2dfa916020908290030190a150565b60055481565b600354600160a01b900460ff1615156001148015610a135750600454600160a01b900460ff1615156001145b610a4e5760405162461bcd60e51b8152600401808060200182810382526046815260200180611c7a6046913960600191505060405180910390fd5b60025460408051631015428760e21b815233600482015290516001600160a01b03909216916340550a1c91602480820192602092909190829003018186803b158015610a9957600080fd5b505afa158015610aad573d6000803e3d6000fd5b505050506040513d6020811015610ac357600080fd5b5051610b16576040805162461bcd60e51b815260206004820152601b60248201527f4d75737420626520616e206163746976652076616c696461746f720000000000604482015290519081900360640190fd5b600060606001876002811115610b2857fe5b1415610d235760048054604051635acba65560e01b8152602092810183815287516024830152875187946001600160a01b0390941693635acba655938a9392839260449092019185019080838360005b83811015610b90578181015183820152602001610b78565b50505050905090810190601f168015610bbd5780820380516001836020036101000a031916815260200191505b509250505060206040518083038186803b158015610bda57600080fd5b505afa158015610bee573d6000803e3d6000fd5b505050506040513d6020811015610c0457600080fd5b50511015610c435760405162461bcd60e51b815260040180806020018281038252603a815260200180611d5c603a913960400191505060405180910390fd5b506004805460405163050fcdb360e11b8152602092810183815286516024830152865187946001600160a01b0390941693630a1f9b6693869392839260449092019185019080838360005b83811015610ca6578181015183820152602001610c8e565b50505050905090810190601f168015610cd35780820380516001836020036101000a031916815260200191505b509250505060206040518083038186803b158015610cf057600080fd5b505afa158015610d04573d6000803e3d6000fd5b505050506040513d6020811015610d1a57600080fd5b50519150610fda565b6002876002811115610d3157fe5b1415610fa35760008054604080516020601f60026000196101006001881615020190951694909404938401819004810282018101909252828152610dcf9390929091830182828015610dc45780601f10610d9957610100808354040283529160200191610dc4565b820191906000526020600020905b815481529060010190602001808311610da757829003601f168201915b505050505085611a7e565b6004805460405163ebb73ca960e01b815260209281018381528451602483015284519495506000946001600160a01b039093169363ebb73ca99387938392604490910191908501908083838b5b83811015610e34578181015183820152602001610e1c565b50505050905090810190601f168015610e615780820380516001836020036101000a031916815260200191505b509250505060206040518083038186803b158015610e7e57600080fd5b505afa158015610e92573d6000803e3d6000fd5b505050506040513d6020811015610ea857600080fd5b505190506001600160a01b038116610f9957600480546040516350b06e4d60e01b815260209281018381528551602483015285516001600160a01b03909316936350b06e4d93879383926044909101919085019080838360005b83811015610f1a578181015183820152602001610f02565b50505050905090810190601f168015610f475780820380516001836020036101000a031916815260200191505b5092505050602060405180830381600087803b158015610f6657600080fd5b505af1158015610f7a573d6000803e3d6000fd5b505050506040513d6020811015610f9057600080fd5b50519250610f9d565b8092505b50610fda565b60405162461bcd60e51b8152600401808060200182810382526035815260200180611d276035913960400191505060405180910390fd5b610fe2611c18565b604051806101000160405280896002811115610ffa57fe5b8152602081018990526001600160a01b0380891660408301523360608301528516608082015260a0810184905260c0810186905260e0016001905260055490915061104c90600163ffffffff611b3916565b600581905560009081526006602052604090208151815483929190829060ff1916600183600281111561107b57fe5b021790555060208281015180516110989260018501920190611b9a565b5060408201516002820180546001600160a01b039283166001600160a01b0319918216179091556060840151600384018054918416918316919091179055608084015160048401805491909316911617905560a08201518051611105916005840191602090910190611b9a565b5060c0820151600682015560e082015160078201805460ff1916600183600381111561112d57fe5b02179055509050507f4c4b04a2b190e6bb01b6243f150fc76174861acd19cf98841801baaff5262dd86005548989893388888b6040518089815260200188600281111561117657fe5b60ff16815260200180602001876001600160a01b03166001600160a01b03168152602001866001600160a01b03166001600160a01b03168152602001856001600160a01b03166001600160a01b0316815260200180602001848152602001838103835289818151815260200191508051906020019080838360005b838110156112095781810151838201526020016111f1565b50505050905090810190601f1680156112365780820380516001836020036101000a031916815260200191505b50838103825285518152855160209182019187019080838360005b83811015611269578181015183820152602001611251565b50505050905090810190601f1680156112965780820380516001836020036101000a031916815260200191505b509a505050505050505050505060405180910390a15050505050505050565b6000600160008381526006602052604090206007015460ff1660038111156112d957fe5b1492915050565b6006602090815260009182526040918290208054600180830180548651600261010094831615949094026000190190911692909204601f810186900486028301860190965285825260ff9092169492939092908301828280156113845780601f1061135957610100808354040283529160200191611384565b820191906000526020600020905b81548152906001019060200180831161136757829003601f168201915b50505050600283810154600385015460048601546005870180546040805160206101006001851615026000190190931697909704601f810183900483028801830190915280875297986001600160a01b0395861698948616975094909216949290918301828280156114375780601f1061140c57610100808354040283529160200191611437565b820191906000526020600020905b81548152906001019060200180831161141a57829003601f168201915b50505050600683015460079093015491929160ff16905088565b600354600160a01b900460ff1681565b611469611c18565b60008281526006602052604090819020815161010081019092528054829060ff16600281111561149557fe5b60028111156114a057fe5b8152602001600182018054600181600116156101000203166002900480601f01602080910402602001604051908101604052809291908181526020018280546001816001161561010002031660029004801561153d5780601f106115125761010080835404028352916020019161153d565b820191906000526020600020905b81548152906001019060200180831161152057829003601f168201915b50505091835250506002828101546001600160a01b03908116602080850191909152600385015482166040808601919091526004860154909216606085015260058501805483516101006001831615026000190190911694909404601f810183900483028501830190935282845260809094019391908301828280156116045780601f106115d957610100808354040283529160200191611604565b820191906000526020600020905b8154815290600101906020018083116115e757829003601f168201915b505050918352505060068201546020820152600782015460409091019060ff16600381111561162f57fe5b600381111561163a57fe5b9052506004805460408084015160a085015160c08601519251633816622960e21b81526001600160a01b038381169682019687526044820185905260606024830190815283516064840152835198995095169663e05988a4969395929493929160840190602086019080838360005b838110156116c15781810151838201526020016116a9565b50505050905090810190601f1680156116ee5780820380516001836020036101000a031916815260200191505b50945050505050600060405180830381600087803b15801561170f57600080fd5b505af1158015611723573d6000803e3d6000fd5b505050505050565b611733611c18565b60008281526006602052604090819020815161010081019092528054829060ff16600281111561175f57fe5b600281111561176a57fe5b8152602001600182018054600181600116156101000203166002900480601f0160208091040260200160405190810160405280929190818152602001828054600181600116156101000203166002900480156118075780601f106117dc57610100808354040283529160200191611807565b820191906000526020600020905b8154815290600101906020018083116117ea57829003601f168201915b50505091835250506002828101546001600160a01b03908116602080850191909152600385015482166040808601919091526004860154909216606085015260058501805483516101006001831615026000190190911694909404601f810183900483028501830190935282845260809094019391908301828280156118ce5780601f106118a3576101008083540402835291602001916118ce565b820191906000526020600020905b8154815290600101906020018083116118b157829003601f168201915b505050918352505060068201546020820152600782015460409091019060ff1660038111156118f957fe5b600381111561190457fe5b815250509050600460009054906101000a90046001600160a01b03166001600160a01b031663cdf68c418260200151836040015184608001518560a001518660c001516040518663ffffffff1660e01b81526004018080602001866001600160a01b03166001600160a01b03168152602001856001600160a01b03166001600160a01b0316815260200180602001848152602001838103835288818151815260200191508051906020019080838360005b838110156119cd5781810151838201526020016119b5565b50505050905090810190601f1680156119fa5780820380516001836020036101000a031916815260200191505b50838103825285518152855160209182019187019080838360005b83811015611a2d578181015183820152602001611a15565b50505050905090810190601f168015611a5a5780820380516001836020036101000a031916815260200191505b50975050505050505050600060405180830381600087803b15801561170f57600080fd5b606082826040516020018083805190602001908083835b60208310611ab45780518252601f199092019160209182019101611a95565b51815160209384036101000a600019018019909216911617905285519190930192850191508083835b60208310611afc5780518252601f199092019160209182019101611add565b6001836020036101000a03801982511681845116808217855250505050505090500192505050604051602081830303815290604052905092915050565b600082820183811015611b93576040805162461bcd60e51b815260206004820152601b60248201527f536166654d6174683a206164646974696f6e206f766572666c6f770000000000604482015290519081900360640190fd5b9392505050565b828054600181600116156101000203166002900490600052602060002090601f016020900481019282601f10611bdb57805160ff1916838001178555611c08565b82800160010185558215611c08579182015b82811115611c08578251825591602001919060010190611bed565b50611c14929150611c5c565b5090565b604080516101008101825260008082526060602083018190529282018190528282018190526080820181905260a082019290925260c081018290529060e082015290565b611c7691905b80821115611c145760008155600101611c62565b9056fe546865204f70657261746f72206d7573742073657420746865206f7261636c6520616e64206272696467652062616e6b20666f72206272696467652061637469766174696f6e546865204272696467652042616e6b2063616e6e6f742062652075706461746564206f6e636520697420686173206265656e20736574546865204f7261636c652063616e6e6f742062652075706461746564206f6e636520697420686173206265656e20736574496e76616c696420636c61696d20747970652c206f6e6c79206275726e20616e64206c6f636b2061726520737570706f727465642e4e6f7420656e6f756768206c6f636b65642061737365747320746f20636f6d706c657465207468652070726f706f7365642070726f70686563794f6e6c7920746865204f7261636c65206d617920636f6d706c6574652070726f70686563696573a265627a7a72315820e50b6d522ae16722d3ae8391933e9fd07987a9f3c615b1f3ed968b7155c81d9264736f6c63430005100032",
  "source": "pragma solidity ^0.5.0;\n\nimport \"../node_modules/openzeppelin-solidity/contracts/math/SafeMath.sol\";\nimport \"./Valset.sol\";\nimport \"./BridgeBank/BridgeBank.sol\";\nimport \"./CosmosBridgeStorage.sol\";\n\n\ncontract CosmosBridge is CosmosBridgeStorage {\n    using SafeMath for uint256;\n    \n    bool private _initialized;\n    uint256[100] private ___gap;\n\n    /*\n     * @dev: Event declarations\n     */\n\n    event LogOracleSet(address _oracle);\n\n    event LogBridgeBankSet(address _bridgeBank);\n\n    event LogNewProphecyClaim(\n        uint256 _prophecyID,\n        ClaimType _claimType,\n        bytes _cosmosSender,\n        address payable _ethereumReceiver,\n        address _validatorAddress,\n        address _tokenAddress,\n        string _symbol,\n        uint256 _amount\n    );\n\n    event LogProphecyCompleted(uint256 _prophecyID, ClaimType _claimType);\n\n    /*\n     * @dev: Modifier which only allows access to currently pending prophecies\n     */\n    modifier isPending(uint256 _prophecyID) {\n        require(\n            isProphecyClaimActive(_prophecyID),\n            \"Prophecy claim is not active\"\n        );\n        _;\n    }\n\n    /*\n     * @dev: Modifier to restrict access to the operator.\n     */\n    modifier onlyOperator() {\n        require(msg.sender == operator, \"Must be the operator.\");\n        _;\n    }\n\n    /*\n     * @dev: The bridge is not active until oracle and bridge bank are set\n     */\n    modifier isActive() {\n        require(\n            hasOracle == true && hasBridgeBank == true,\n            \"The Operator must set the oracle and bridge bank for bridge activation\"\n        );\n        _;\n    }\n\n    /*\n     * @dev: Constructor\n     */\n    function initialize(address _operator, address payable _valset) public {\n        require(!_initialized, \"Initialized\");\n\n        COSMOS_NATIVE_ASSET_PREFIX = \"e\";\n        prophecyClaimCount = 0;\n        operator = _operator;\n        valset = _valset;\n        hasOracle = false;\n        hasBridgeBank = false;\n        _initialized = true;\n    }\n\n    /*\n     * @dev: setOracle\n     */\n    function setOracle(address payable _oracle) public onlyOperator {\n        require(\n            !hasOracle,\n            \"The Oracle cannot be updated once it has been set\"\n        );\n\n        hasOracle = true;\n        oracle = _oracle;\n\n        emit LogOracleSet(oracle);\n    }\n\n    /*\n     * @dev: setBridgeBank\n     */\n    function setBridgeBank(address payable _bridgeBank) public onlyOperator {\n        require(\n            !hasBridgeBank,\n            \"The Bridge Bank cannot be updated once it has been set\"\n        );\n\n        hasBridgeBank = true;\n        bridgeBank = _bridgeBank;\n\n        emit LogBridgeBankSet(bridgeBank);\n    }\n\n    /*\n     * @dev: newProphecyClaim\n     *       Creates a new burn or lock prophecy claim, adding it to the prophecyClaims mapping.\n     *       Burn claims require that there are enough locked Ethereum assets to complete the prophecy.\n     *       Lock claims have a new token contract deployed or use an existing contract based on symbol.\n     */\n    function newProphecyClaim(\n        ClaimType _claimType,\n        bytes memory _cosmosSender,\n        address payable _ethereumReceiver,\n        string memory _symbol,\n        uint256 _amount\n    ) public isActive {\n        require(\n            Valset(valset).isActiveValidator(msg.sender),\n            \"Must be an active validator\"\n        );\n\n        address tokenAddress;\n        string memory symbol;\n        if (_claimType == ClaimType.Burn) {\n            require(\n                BridgeBank(bridgeBank).getLockedFunds(_symbol) >= _amount,\n                \"Not enough locked assets to complete the proposed prophecy\"\n            );\n            symbol = _symbol;\n            tokenAddress = BridgeBank(bridgeBank).getLockedTokenAddress(_symbol);\n        } else if (_claimType == ClaimType.Lock) {\n            symbol = concat(COSMOS_NATIVE_ASSET_PREFIX, _symbol); // Add 'e' symbol prefix\n            address bridgeTokenAddress = BridgeBank(bridgeBank).getBridgeToken(symbol);\n            if (bridgeTokenAddress == address(0)) {\n                // First lock of this asset, deploy new contract and get new symbol/token address\n                tokenAddress = BridgeBank(bridgeBank).createNewBridgeToken(symbol);\n            } else {\n                // Not the first lock of this asset, get existing symbol/token address\n                tokenAddress = bridgeTokenAddress;\n            }\n        } else {\n            revert(\"Invalid claim type, only burn and lock are supported.\");\n        }\n\n        // Create the new ProphecyClaim\n        ProphecyClaim memory prophecyClaim = ProphecyClaim(\n            _claimType,\n            _cosmosSender,\n            _ethereumReceiver,\n            msg.sender,\n            tokenAddress,\n            symbol,\n            _amount,\n            Status.Pending\n        );\n\n        // Increment count and add the new ProphecyClaim to the mapping\n        prophecyClaimCount = prophecyClaimCount.add(1);\n        prophecyClaims[prophecyClaimCount] = prophecyClaim;\n\n        emit LogNewProphecyClaim(\n            prophecyClaimCount,\n            _claimType,\n            _cosmosSender,\n            _ethereumReceiver,\n            msg.sender,\n            tokenAddress,\n            symbol,\n            _amount\n        );\n    }\n\n    /*\n     * @dev: completeProphecyClaim\n     *       Allows for the completion of ProphecyClaims once processed by the Oracle.\n     *       Burn claims unlock tokens stored by BridgeBank.\n     *       Lock claims mint BridgeTokens on BridgeBank's token whitelist.\n     */\n    function completeProphecyClaim(uint256 _prophecyID)\n        public\n        isPending(_prophecyID)\n    {\n        require(\n            msg.sender == oracle,\n            \"Only the Oracle may complete prophecies\"\n        );\n\n        prophecyClaims[_prophecyID].status = Status.Success;\n\n        ClaimType claimType = prophecyClaims[_prophecyID].claimType;\n        if (claimType == ClaimType.Burn) {\n            unlockTokens(_prophecyID);\n        } else {\n            issueBridgeTokens(_prophecyID);\n        }\n\n        emit LogProphecyCompleted(_prophecyID, claimType);\n    }\n\n    /*\n     * @dev: issueBridgeTokens\n     *       Issues a request for the BridgeBank to mint new BridgeTokens\n     */\n    function issueBridgeTokens(uint256 _prophecyID) internal {\n        ProphecyClaim memory prophecyClaim = prophecyClaims[_prophecyID];\n\n        BridgeBank(bridgeBank).mintBridgeTokens(\n            prophecyClaim.cosmosSender,\n            prophecyClaim.ethereumReceiver,\n            prophecyClaim.tokenAddress,\n            prophecyClaim.symbol,\n            prophecyClaim.amount\n        );\n    }\n\n    /*\n     * @dev: unlockTokens\n     *       Issues a request for the BridgeBank to unlock funds held on contract\n     */\n    function unlockTokens(uint256 _prophecyID) internal {\n        ProphecyClaim memory prophecyClaim = prophecyClaims[_prophecyID];\n\n        BridgeBank(bridgeBank).unlock(\n            prophecyClaim.ethereumReceiver,\n            prophecyClaim.symbol,\n            prophecyClaim.amount\n        );\n    }\n\n    /*\n     * @dev: isProphecyClaimActive\n     *       Returns boolean indicating if the ProphecyClaim is active\n     */\n    function isProphecyClaimActive(uint256 _prophecyID)\n        public\n        view\n        returns (bool)\n    {\n        return prophecyClaims[_prophecyID].status == Status.Pending;\n    }\n\n    /*\n     * @dev: isProphecyValidatorActive\n     *       Returns boolean indicating if the validator that originally\n     *       submitted the ProphecyClaim is still an active validator\n     */\n    function isProphecyClaimValidatorActive(uint256 _prophecyID)\n        public\n        view\n        returns (bool)\n    {\n        return\n            Valset(valset).isActiveValidator(\n                prophecyClaims[_prophecyID].originalValidator\n            );\n    }\n\n    /*\n     * @dev: Performs low gas-comsuption string concatenation\n     *\n     * @param _prefix: start of the string\n     * @param _suffix: end of the string\n     */\n    function concat(string memory _prefix, string memory _suffix)\n        internal\n        pure\n        returns (string memory)\n    {\n        return string(abi.encodePacked(_prefix, _suffix));\n    }\n}\n",
  "sourcePath": "/Users/utx0/Code/sifchain/sifnode/smart-contracts/contracts/CosmosBridge.sol",
  "compiler": {
    "name": "solc",
    "version": "0.5.16+commit.9c3226ce.Emscripten.clang"
  },
  "schemaVersion": "3.3.2",
  "updatedAt": "2020-11-19T02:14:42.692Z",
  "networkType": "ethereum",
  "devdoc": {
    "methods": {}
  },
  "userdoc": {
    "methods": {}
  }
}