{
  "contractName": "CosmosBank",
  "abi": [
    {
      "anonymous": false,
      "inputs": [
        {
          "indexed": false,
          "internalType": "address",
          "name": "_token",
          "type": "address"
        },
        {
          "indexed": false,
          "internalType": "string",
          "name": "_symbol",
          "type": "string"
        },
        {
          "indexed": false,
          "internalType": "uint256",
          "name": "_amount",
          "type": "uint256"
        },
        {
          "indexed": false,
          "internalType": "address",
          "name": "_beneficiary",
          "type": "address"
        }
      ],
      "name": "LogBridgeTokenMint",
      "type": "event"
    },
    {
      "anonymous": false,
      "inputs": [
        {
          "indexed": false,
          "internalType": "address",
          "name": "_token",
          "type": "address"
        },
        {
          "indexed": false,
          "internalType": "string",
          "name": "_symbol",
          "type": "string"
        }
      ],
      "name": "LogNewBridgeToken",
      "type": "event"
    },
    {
      "constant": true,
      "inputs": [],
      "name": "bridgeTokenCount",
      "outputs": [
        {
          "internalType": "uint256",
          "name": "",
          "type": "uint256"
        }
      ],
      "payable": false,
      "stateMutability": "view",
      "type": "function"
    },
    {
      "constant": true,
      "inputs": [],
      "name": "cosmosDepositNonce",
      "outputs": [
        {
          "internalType": "uint256",
          "name": "",
          "type": "uint256"
        }
      ],
      "payable": false,
      "stateMutability": "view",
      "type": "function"
    },
    {
      "constant": true,
      "inputs": [
        {
          "internalType": "string",
          "name": "_symbol",
          "type": "string"
        }
      ],
      "name": "getBridgeToken",
      "outputs": [
        {
          "internalType": "address",
          "name": "",
          "type": "address"
        }
      ],
      "payable": false,
      "stateMutability": "view",
      "type": "function"
    }
  ],
  "bytecode": "0x608060405234801561001057600080fd5b506101dc806100206000396000f3fe608060405234801561001057600080fd5b50600436106100415760003560e01c8063328470ab14610046578063416d322714610060578063ebb73ca914610068575b600080fd5b61004e61012a565b60408051918252519081900360200190f35b61004e610130565b61010e6004803603602081101561007e57600080fd5b81019060208101813564010000000081111561009957600080fd5b8201836020820111156100ab57600080fd5b803590602001918460018302840111640100000000831117156100cd57600080fd5b91908080601f016020809104026020016040519081016040528093929190818152602001838380828437600092019190915250929550610136945050505050565b604080516001600160a01b039092168252519081900360200190f35b60005481565b60015481565b60006002826040518082805190602001908083835b6020831061016a5780518252601f19909201916020918201910161014b565b51815160209384036101000a60001901801990921691161790529201948552506040519384900301909220546001600160a01b031694935050505056fea265627a7a723158201eee94aee9626be7b34da9d4a74f76964149aa9a7c30278d6f8abf4f5d64ec6264736f6c63430005100032",
  "source": "pragma solidity ^0.5.0;\n\nimport \"../../node_modules/openzeppelin-solidity/contracts/math/SafeMath.sol\";\nimport \"./BridgeToken.sol\";\nimport \"./CosmosBankStorage.sol\";\n\n/**\n * @title CosmosBank\n * @dev Manages the deployment and minting of ERC20 compatible BridgeTokens\n *      which represent assets based on the Cosmos blockchain.\n **/\n\ncontract CosmosBank is CosmosBankStorage {\n    using SafeMath for uint256;\n\n    /*\n     * @dev: Event declarations\n     */\n    event LogNewBridgeToken(address _token, string _symbol);\n\n    event LogBridgeTokenMint(\n        address _token,\n        string _symbol,\n        uint256 _amount,\n        address _beneficiary\n    );\n\n    /*\n     * @dev: Get a token symbol's corresponding bridge token address.\n     *\n     * @param _symbol: The token's symbol/denom without 'e' prefix.\n     * @return: Address associated with the given symbol. Returns address(0) if none is found.\n     */\n    function getBridgeToken(string memory _symbol)\n        public\n        view\n        returns (address)\n    {\n        return (controlledBridgeTokens[_symbol]);\n    }\n\n    /*\n     * @dev: Creates a new CosmosDeposit with a unique ID\n     *\n     * @param _cosmosSender: The sender's Cosmos address in bytes.\n     * @param _ethereumRecipient: The intended recipient's Ethereum address.\n     * @param _token: The currency type\n     * @param _amount: The amount in the deposit.\n     * @return: The newly created CosmosDeposit's unique id.\n     */\n    function newCosmosDeposit(\n        bytes memory _cosmosSender,\n        address payable _ethereumRecipient,\n        address _token,\n        uint256 _amount\n    ) internal returns (bytes32) {\n        cosmosDepositNonce = cosmosDepositNonce.add(1);\n        bytes32 depositID = keccak256(\n            abi.encodePacked(_cosmosSender, _ethereumRecipient, _token, _amount, cosmosDepositNonce)\n        );\n\n        cosmosDeposits[depositID] = CosmosDeposit(\n            _cosmosSender,\n            _ethereumRecipient,\n            _token,\n            _amount,\n            true\n        );\n\n        return depositID;\n    }\n\n    /*\n     * @dev: Deploys a new BridgeToken contract\n     *\n     * @param _symbol: The BridgeToken's symbol\n     */\n    function deployNewBridgeToken(string memory _symbol)\n        internal\n        returns (address)\n    {\n        bridgeTokenCount = bridgeTokenCount.add(1);\n\n        // Deploy new bridge token contract\n        BridgeToken newBridgeToken = (new BridgeToken)(_symbol);\n\n        // Set address in tokens mapping\n        address newBridgeTokenAddress = address(newBridgeToken);\n        controlledBridgeTokens[_symbol] = newBridgeTokenAddress;\n\n        emit LogNewBridgeToken(newBridgeTokenAddress, _symbol);\n        return newBridgeTokenAddress;\n    }\n\n    /*\n     * @dev: Deploys a new BridgeToken contract\n     *\n     * @param _symbol: The BridgeToken's symbol\n     *\n     * @note the Rowan token symbol needs to be \"Rowan\" so that it integrates correctly with the cosmos bridge \n     */\n    function useExistingBridgeToken(address _contractAddress)\n        internal\n        returns (address)\n    {\n        bridgeTokenCount = bridgeTokenCount.add(1);\n\n        string memory _symbol = BridgeToken(_contractAddress).symbol();\n        // Set address in tokens mapping\n        address newBridgeTokenAddress = _contractAddress;\n        controlledBridgeTokens[_symbol] = newBridgeTokenAddress;\n\n        emit LogNewBridgeToken(newBridgeTokenAddress, _symbol);\n        return newBridgeTokenAddress;\n    }\n\n    /*\n     * @dev: Mints new cosmos tokens\n     *\n     * @param _cosmosSender: The sender's Cosmos address in bytes.\n     * @param _ethereumRecipient: The intended recipient's Ethereum address.\n     * @param _cosmosTokenAddress: The currency type\n     * @param _symbol: comsos token symbol\n     * @param _amount: number of comsos tokens to be minted\n     */\n    function mintNewBridgeTokens(\n        bytes memory _cosmosSender,\n        address payable _intendedRecipient,\n        address _bridgeTokenAddress,\n        string memory _symbol,\n        uint256 _amount\n    ) internal {\n        require(\n            controlledBridgeTokens[_symbol] == _bridgeTokenAddress,\n            \"Token must be a controlled bridge token\"\n        );\n\n        // Mint bridge tokens\n        require(\n            BridgeToken(_bridgeTokenAddress).mint(_intendedRecipient, _amount),\n            \"Attempted mint of bridge tokens failed\"\n        );\n\n        newCosmosDeposit(\n            _cosmosSender,\n            _intendedRecipient,\n            _bridgeTokenAddress,\n            _amount\n        );\n\n        emit LogBridgeTokenMint(\n            _bridgeTokenAddress,\n            _symbol,\n            _amount,\n            _intendedRecipient\n        );\n    }\n\n    /*\n     * @dev: Checks if an individual CosmosDeposit exists.\n     *\n     * @param _id: The unique CosmosDeposit's id.\n     * @return: Boolean indicating if the CosmosDeposit exists in memory.\n     */\n    function isLockedCosmosDeposit(bytes32 _id) internal view returns (bool) {\n        return (cosmosDeposits[_id].locked);\n    }\n\n    /*\n     * @dev: Gets an item's information\n     *\n     * @param _Id: The item containing the desired information.\n     * @return: Sender's address.\n     * @return: Recipient's address in bytes.\n     * @return: Token address.\n     * @return: Amount of ethereum/erc20 in the item.\n     * @return: Unique nonce of the item.\n     */\n    function getCosmosDeposit(bytes32 _id)\n        internal\n        view\n        returns (bytes memory, address payable, address, uint256)\n    {\n        CosmosDeposit memory deposit = cosmosDeposits[_id];\n\n        return (\n            deposit.cosmosSender,\n            deposit.ethereumRecipient,\n            deposit.bridgeTokenAddress,\n            deposit.amount\n        );\n    }\n}\n",
  "sourcePath": "/Users/utx0/Code/sifchain/sifnode/smart-contracts/contracts/BridgeBank/CosmosBank.sol",
  "compiler": {
    "name": "solc",
    "version": "0.5.16+commit.9c3226ce.Emscripten.clang"
  },
  "schemaVersion": "3.3.2",
  "updatedAt": "2020-11-19T01:51:10.844Z",
  "devdoc": {
    "details": "Manages the deployment and minting of ERC20 compatible BridgeTokens     which represent assets based on the Cosmos blockchain.*",
    "methods": {},
    "title": "CosmosBank"
  },
  "userdoc": {
    "methods": {}
  }
}