{
  "contractName": "CosmosBridgeStorage",
  "abi": [
    {
      "constant": true,
      "inputs": [],
      "name": "bridgeBank",
      "outputs": [
        {
          "internalType": "address payable",
          "name": "",
          "type": "address"
        }
      ],
      "payable": false,
      "stateMutability": "view",
      "type": "function"
    },
    {
      "constant": true,
      "inputs": [],
      "name": "hasBridgeBank",
      "outputs": [
        {
          "internalType": "bool",
          "name": "",
          "type": "bool"
        }
      ],
      "payable": false,
      "stateMutability": "view",
      "type": "function"
    },
    {
      "constant": true,
      "inputs": [],
      "name": "hasOracle",
      "outputs": [
        {
          "internalType": "bool",
          "name": "",
          "type": "bool"
        }
      ],
      "payable": false,
      "stateMutability": "view",
      "type": "function"
    },
    {
      "constant": true,
      "inputs": [],
      "name": "operator",
      "outputs": [
        {
          "internalType": "address",
          "name": "",
          "type": "address"
        }
      ],
      "payable": false,
      "stateMutability": "view",
      "type": "function"
    },
    {
      "constant": true,
      "inputs": [],
      "name": "oracle",
      "outputs": [
        {
          "internalType": "address payable",
          "name": "",
          "type": "address"
        }
      ],
      "payable": false,
      "stateMutability": "view",
      "type": "function"
    },
    {
      "constant": true,
      "inputs": [],
      "name": "prophecyClaimCount",
      "outputs": [
        {
          "internalType": "uint256",
          "name": "",
          "type": "uint256"
        }
      ],
      "payable": false,
      "stateMutability": "view",
      "type": "function"
    },
    {
      "constant": true,
      "inputs": [
        {
          "internalType": "uint256",
          "name": "",
          "type": "uint256"
        }
      ],
      "name": "prophecyClaims",
      "outputs": [
        {
          "internalType": "enum CosmosBridgeStorage.ClaimType",
          "name": "claimType",
          "type": "uint8"
        },
        {
          "internalType": "bytes",
          "name": "cosmosSender",
          "type": "bytes"
        },
        {
          "internalType": "address payable",
          "name": "ethereumReceiver",
          "type": "address"
        },
        {
          "internalType": "address",
          "name": "originalValidator",
          "type": "address"
        },
        {
          "internalType": "address",
          "name": "tokenAddress",
          "type": "address"
        },
        {
          "internalType": "string",
          "name": "symbol",
          "type": "string"
        },
        {
          "internalType": "uint256",
          "name": "amount",
          "type": "uint256"
        },
        {
          "internalType": "enum CosmosBridgeStorage.Status",
          "name": "status",
          "type": "uint8"
        }
      ],
      "payable": false,
      "stateMutability": "view",
      "type": "function"
    },
    {
      "constant": true,
      "inputs": [
        {
          "internalType": "uint256",
          "name": "",
          "type": "uint256"
        }
      ],
      "name": "usedNonce",
      "outputs": [
        {
          "internalType": "bool",
          "name": "",
          "type": "bool"
        }
      ],
      "payable": false,
      "stateMutability": "view",
      "type": "function"
    },
    {
      "constant": true,
      "inputs": [],
      "name": "valset",
      "outputs": [
        {
          "internalType": "address payable",
          "name": "",
          "type": "address"
        }
      ],
      "payable": false,
      "stateMutability": "view",
      "type": "function"
    }
  ],
  "bytecode": "0x608060405234801561001057600080fd5b5061049d806100206000396000f3fe608060405234801561001057600080fd5b50600436106100935760003560e01c80637f54af0c116100665780637f54af0c146100e85780638ea5352d146100f05780639723fb6d1461010a578063db4237af14610127578063fb7831f21461027857610093565b80630e41f37314610098578063570ca735146100bc57806369294a4e146100c45780637dc0d1d0146100e0575b600080fd5b6100a0610280565b604080516001600160a01b039092168252519081900360200190f35b6100a061028f565b6100cc61029e565b604080519115158252519081900360200190f35b6100a06102ae565b6100a06102bd565b6100f86102cc565b60408051918252519081900360200190f35b6100cc6004803603602081101561012057600080fd5b50356102d2565b6101446004803603602081101561013d57600080fd5b50356102e7565b6040518089600281111561015457fe5b60ff1681526001600160a01b03808916604083015287811660608301528616608082015260c08101849052602081019060a081019060e00184600381111561019857fe5b60ff16815260200183810383528a818151815260200191508051906020019080838360005b838110156101d55781810151838201526020016101bd565b50505050905090810190601f1680156102025780820380516001836020036101000a031916815260200191505b50838103825286518152865160209182019188019080838360005b8381101561023557818101518382015260200161021d565b50505050905090810190601f1680156102625780820380516001836020036101000a031916815260200191505b509a505050505050505050505060405180910390f35b6100cc610458565b6004546001600160a01b031681565b6001546001600160a01b031681565b600454600160a01b900460ff1681565b6003546001600160a01b031681565b6002546001600160a01b031681565b60055481565b60066020526000908152604090205460ff1681565b6007602090815260009182526040918290208054600180830180548651600261010094831615949094026000190190911692909204601f810186900486028301860190965285825260ff90921694929390929083018282801561038b5780601f106103605761010080835404028352916020019161038b565b820191906000526020600020905b81548152906001019060200180831161036e57829003601f168201915b50505050600283810154600385015460048601546005870180546040805160206101006001851615026000190190931697909704601f810183900483028801830190915280875297986001600160a01b03958616989486169750949092169492909183018282801561043e5780601f106104135761010080835404028352916020019161043e565b820191906000526020600020905b81548152906001019060200180831161042157829003601f168201915b50505050600683015460079093015491929160ff16905088565b600354600160a01b900460ff168156fea265627a7a72315820d2641261cee3aaf7f001eb698486f7191f5ec11e5c8c651c452ed66a1386f46f64736f6c63430005100032",
  "source": "pragma solidity ^0.5.0;\n\nimport \"./BridgeBank/CosmosBankStorage.sol\";\nimport \"./BridgeBank/EthereumBankStorage.sol\";\n\ncontract CosmosBridgeStorage {\n    /**\n    * @notice gap of storage for future upgrades\n    */\n    string COSMOS_NATIVE_ASSET_PREFIX;\n\n    /*\n     * @dev: Public variable declarations\n     */\n    address public operator;\n    \n    /**\n    * @notice gap of storage for future upgrades\n    */\n    address payable public valset;\n    \n    /**\n    * @notice gap of storage for future upgrades\n    */\n    address payable public oracle;\n    \n    /**\n    * @notice gap of storage for future upgrades\n    */\n    bool public hasOracle;\n    \n    /**\n    * @notice gap of storage for future upgrades\n    */\n    address payable public bridgeBank;\n    \n    /**\n    * @notice gap of storage for future upgrades\n    */\n    bool public hasBridgeBank;\n\n    /**\n    * @notice gap of storage for future upgrades\n    */\n    uint256 public prophecyClaimCount;\n\n    /**\n    * @notice Tracks the number of OracleClaims made on an individual BridgeClaim\n    */\n    mapping(uint256 => bool) public usedNonce;\n\n    /**\n    * @notice gap of storage for future upgrades\n    */\n    mapping(uint256 => ProphecyClaim) public prophecyClaims;\n\n    /**\n    * @notice prophecy status enum\n    */\n    enum Status {Null, Pending, Success, Failed}\n\n    /**\n    * @notice claim type enum\n    */\n    enum ClaimType {Unsupported, Burn, Lock}\n\n    /**\n    * @notice Prophecy claim struct\n    */\n    struct ProphecyClaim {\n        ClaimType claimType;\n        bytes cosmosSender;\n        address payable ethereumReceiver;\n        address originalValidator;\n        address tokenAddress;\n        string symbol;\n        uint256 amount;\n        Status status;\n    }\n\n    /**\n    * @notice gap of storage for future upgrades\n    */\n    uint256[100] private ____gap;\n}",
  "sourcePath": "/Users/junius/github/thor/sifnode/smart-contracts/contracts/CosmosBridgeStorage.sol",
  "compiler": {
    "name": "solc",
    "version": "0.5.16+commit.9c3226ce.Emscripten.clang"
  },
  "schemaVersion": "3.2.5",
  "updatedAt": "2020-11-22T12:10:18.381Z",
  "devdoc": {
    "methods": {}
  },
  "userdoc": {
    "methods": {}
  }
}