{
  "contractName": "EthereumBankStorage",
  "abi": [
    {
      "constant": true,
      "inputs": [],
      "name": "lockBurnNonce",
      "outputs": [
        {
          "internalType": "uint256",
          "name": "",
          "type": "uint256"
        }
      ],
      "payable": false,
      "stateMutability": "view",
      "type": "function"
    },
    {
      "constant": true,
      "inputs": [
        {
          "internalType": "address",
          "name": "",
          "type": "address"
        }
      ],
      "name": "lockedFunds",
      "outputs": [
        {
          "internalType": "uint256",
          "name": "",
          "type": "uint256"
        }
      ],
      "payable": false,
      "stateMutability": "view",
      "type": "function"
    },
    {
      "constant": true,
      "inputs": [
        {
          "internalType": "string",
          "name": "",
          "type": "string"
        }
      ],
      "name": "lockedTokenList",
      "outputs": [
        {
          "internalType": "address",
          "name": "",
          "type": "address"
        }
      ],
      "payable": false,
      "stateMutability": "view",
      "type": "function"
    }
  ],
  "bytecode": "0x608060405234801561001057600080fd5b506101bb806100206000396000f3fe608060405234801561001057600080fd5b50600436106100415760003560e01c80631deed3bb14610046578063b86247d714610060578063f24a590a14610086575b600080fd5b61004e610148565b60408051918252519081900360200190f35b61004e6004803603602081101561007657600080fd5b50356001600160a01b031661014e565b61012c6004803603602081101561009c57600080fd5b8101906020810181356401000000008111156100b757600080fd5b8201836020820111156100c957600080fd5b803590602001918460018302840111640100000000831117156100eb57600080fd5b91908080601f016020809104026020016040519081016040528093929190818152602001838380828437600092019190915250929550610160945050505050565b604080516001600160a01b039092168252519081900360200190f35b60005481565b60016020526000908152604090205481565b80516020818301810180516002825292820191909301209152546001600160a01b03168156fea265627a7a72315820ae64e52f658eb0e3d820f5e0ee8e7826b092b1988403902e89db47a5a34f865664736f6c63430005100032",
  "source": "pragma solidity ^0.5.0;\n\ncontract EthereumBankStorage {\n\n    /**\n    * @notice current lock and or burn nonce\n    */\n    uint256 public lockBurnNonce;\n\n    /**\n    * @notice how much funds we have stored of a certain token\n    */\n    mapping(address => uint256) public lockedFunds;\n\n    /**\n    * @notice map the token symbol to the token address\n    */\n    mapping(string => address) public lockedTokenList;\n\n    /**\n    * @notice gap of storage for future upgrades\n    */\n    uint256[100] private ____gap;\n}",
  "sourcePath": "/Users/utx0/Code/sifchain/sifnode/smart-contracts/contracts/BridgeBank/EthereumBankStorage.sol",
  "compiler": {
    "name": "solc",
    "version": "0.5.16+commit.9c3226ce.Emscripten.clang"
  },
  "schemaVersion": "3.3.2",
  "updatedAt": "2020-11-19T01:51:10.858Z",
  "devdoc": {
    "methods": {}
  },
  "userdoc": {
    "methods": {}
  }
}