{
  "contractName": "MockCosmosBridgeUpgrade",
  "abi": [
    {
      "anonymous": false,
      "inputs": [
        {
          "indexed": false,
          "internalType": "address",
          "name": "_bridgeBank",
          "type": "address"
        }
      ],
      "name": "LogBridgeBankSet",
      "type": "event"
    },
    {
      "anonymous": false,
      "inputs": [
        {
          "indexed": false,
          "internalType": "uint256",
          "name": "_prophecyID",
          "type": "uint256"
        },
        {
          "indexed": false,
          "internalType": "enum CosmosBridgeStorage.ClaimType",
          "name": "_claimType",
          "type": "uint8"
        },
        {
          "indexed": false,
          "internalType": "bytes",
          "name": "_cosmosSender",
          "type": "bytes"
        },
        {
          "indexed": false,
          "internalType": "address payable",
          "name": "_ethereumReceiver",
          "type": "address"
        },
        {
          "indexed": false,
          "internalType": "address",
          "name": "_validatorAddress",
          "type": "address"
        },
        {
          "indexed": false,
          "internalType": "address",
          "name": "_tokenAddress",
          "type": "address"
        },
        {
          "indexed": false,
          "internalType": "string",
          "name": "_symbol",
          "type": "string"
        },
        {
          "indexed": false,
          "internalType": "uint256",
          "name": "_amount",
          "type": "uint256"
        }
      ],
      "name": "LogNewProphecyClaim",
      "type": "event"
    },
    {
      "anonymous": false,
      "inputs": [
        {
          "indexed": false,
          "internalType": "address",
          "name": "_oracle",
          "type": "address"
        }
      ],
      "name": "LogOracleSet",
      "type": "event"
    },
    {
      "anonymous": false,
      "inputs": [
        {
          "indexed": false,
          "internalType": "uint256",
          "name": "_prophecyID",
          "type": "uint256"
        },
        {
          "indexed": false,
          "internalType": "enum CosmosBridgeStorage.ClaimType",
          "name": "_claimType",
          "type": "uint8"
        }
      ],
      "name": "LogProphecyCompleted",
      "type": "event"
    },
    {
      "constant": true,
      "inputs": [
        {
          "internalType": "address",
          "name": "account",
          "type": "address"
        }
      ],
      "name": "balanceOf",
      "outputs": [
        {
          "internalType": "uint256",
          "name": "",
          "type": "uint256"
        }
      ],
      "payable": false,
      "stateMutability": "view",
      "type": "function"
    },
    {
      "constant": true,
      "inputs": [],
      "name": "bridgeBank",
      "outputs": [
        {
          "internalType": "address payable",
          "name": "",
          "type": "address"
        }
      ],
      "payable": false,
      "stateMutability": "view",
      "type": "function"
    },
    {
      "constant": true,
      "inputs": [],
      "name": "hasBridgeBank",
      "outputs": [
        {
          "internalType": "bool",
          "name": "",
          "type": "bool"
        }
      ],
      "payable": false,
      "stateMutability": "view",
      "type": "function"
    },
    {
      "constant": true,
      "inputs": [],
      "name": "hasOracle",
      "outputs": [
        {
          "internalType": "bool",
          "name": "",
          "type": "bool"
        }
      ],
      "payable": false,
      "stateMutability": "view",
      "type": "function"
    },
    {
      "constant": false,
      "inputs": [
        {
          "internalType": "address",
          "name": "_operator",
          "type": "address"
        },
        {
          "internalType": "address payable",
          "name": "_valset",
          "type": "address"
        }
      ],
      "name": "initialize",
      "outputs": [],
      "payable": false,
      "stateMutability": "nonpayable",
      "type": "function"
    },
    {
      "constant": true,
      "inputs": [
        {
          "internalType": "uint256",
          "name": "_prophecyID",
          "type": "uint256"
        }
      ],
      "name": "isProphecyClaimActive",
      "outputs": [
        {
          "internalType": "bool",
          "name": "",
          "type": "bool"
        }
      ],
      "payable": false,
      "stateMutability": "view",
      "type": "function"
    },
    {
      "constant": true,
      "inputs": [
        {
          "internalType": "uint256",
          "name": "_prophecyID",
          "type": "uint256"
        }
      ],
      "name": "isProphecyClaimValidatorActive",
      "outputs": [
        {
          "internalType": "bool",
          "name": "",
          "type": "bool"
        }
      ],
      "payable": false,
      "stateMutability": "view",
      "type": "function"
    },
    {
      "constant": false,
      "inputs": [
        {
          "internalType": "enum CosmosBridgeStorage.ClaimType",
          "name": "_claimType",
          "type": "uint8"
        },
        {
          "internalType": "bytes",
          "name": "_cosmosSender",
          "type": "bytes"
        },
        {
          "internalType": "uint256",
          "name": "_cosmosSenderSequence",
          "type": "uint256"
        },
        {
          "internalType": "address payable",
          "name": "_ethereumReceiver",
          "type": "address"
        },
        {
          "internalType": "string",
          "name": "_symbol",
          "type": "string"
        },
        {
          "internalType": "uint256",
          "name": "_amount",
          "type": "uint256"
        }
      ],
      "name": "newProphecyClaim",
      "outputs": [],
      "payable": false,
      "stateMutability": "nonpayable",
      "type": "function"
    },
    {
      "constant": true,
      "inputs": [],
      "name": "operator",
      "outputs": [
        {
          "internalType": "address",
          "name": "",
          "type": "address"
        }
      ],
      "payable": false,
      "stateMutability": "view",
      "type": "function"
    },
    {
      "constant": true,
      "inputs": [],
      "name": "oracle",
      "outputs": [
        {
          "internalType": "address payable",
          "name": "",
          "type": "address"
        }
      ],
      "payable": false,
      "stateMutability": "view",
      "type": "function"
    },
    {
      "constant": true,
      "inputs": [],
      "name": "prophecyClaimCount",
      "outputs": [
        {
          "internalType": "uint256",
          "name": "",
          "type": "uint256"
        }
      ],
      "payable": false,
      "stateMutability": "view",
      "type": "function"
    },
    {
      "constant": true,
      "inputs": [
        {
          "internalType": "uint256",
          "name": "",
          "type": "uint256"
        }
      ],
      "name": "prophecyClaims",
      "outputs": [
        {
          "internalType": "enum CosmosBridgeStorage.ClaimType",
          "name": "claimType",
          "type": "uint8"
        },
        {
          "internalType": "bytes",
          "name": "cosmosSender",
          "type": "bytes"
        },
        {
          "internalType": "address payable",
          "name": "ethereumReceiver",
          "type": "address"
        },
        {
          "internalType": "address",
          "name": "originalValidator",
          "type": "address"
        },
        {
          "internalType": "address",
          "name": "tokenAddress",
          "type": "address"
        },
        {
          "internalType": "string",
          "name": "symbol",
          "type": "string"
        },
        {
          "internalType": "uint256",
          "name": "amount",
          "type": "uint256"
        },
        {
          "internalType": "enum CosmosBridgeStorage.Status",
          "name": "status",
          "type": "uint8"
        }
      ],
      "payable": false,
      "stateMutability": "view",
      "type": "function"
    },
    {
      "constant": false,
      "inputs": [
        {
          "internalType": "address payable",
          "name": "_bridgeBank",
          "type": "address"
        }
      ],
      "name": "setBridgeBank",
      "outputs": [],
      "payable": false,
      "stateMutability": "nonpayable",
      "type": "function"
    },
    {
      "constant": false,
      "inputs": [
        {
          "internalType": "address payable",
          "name": "_oracle",
          "type": "address"
        }
      ],
      "name": "setOracle",
      "outputs": [],
      "payable": false,
      "stateMutability": "nonpayable",
      "type": "function"
    },
    {
      "constant": false,
      "inputs": [
        {
          "internalType": "address",
          "name": "recipient",
          "type": "address"
        },
        {
          "internalType": "uint256",
          "name": "amount",
          "type": "uint256"
        }
      ],
      "name": "transfer",
      "outputs": [
        {
          "internalType": "bool",
          "name": "",
          "type": "bool"
        }
      ],
      "payable": false,
      "stateMutability": "nonpayable",
      "type": "function"
    },
    {
      "constant": true,
      "inputs": [
        {
          "internalType": "uint256",
          "name": "",
          "type": "uint256"
        }
      ],
      "name": "usedNonce",
      "outputs": [
        {
          "internalType": "bool",
          "name": "",
          "type": "bool"
        }
      ],
      "payable": false,
      "stateMutability": "view",
      "type": "function"
    },
    {
      "constant": true,
      "inputs": [],
      "name": "valset",
      "outputs": [
        {
          "internalType": "address payable",
          "name": "",
          "type": "address"
        }
      ],
      "payable": false,
      "stateMutability": "view",
      "type": "function"
    },
    {
      "constant": false,
      "inputs": [],
      "name": "tokenFaucet",
      "outputs": [],
      "payable": false,
      "stateMutability": "nonpayable",
      "type": "function"
    }
  ],
  "bytecode": "0x608060405234801561001057600080fd5b5061212a806100206000396000f3fe608060405234801561001057600080fd5b50600436106101165760003560e01c80637f54af0c116100a25780639723fb6d116100715780639723fb6d146103a2578063a9059cbb146103bf578063d8da69ea146103eb578063db4237af14610408578063fb7831f21461055957610116565b80637f54af0c14610364578063814c92c31461036c57806389eb068a146103925780638ea5352d1461039a57610116565b80635d4c66a3116100e95780635d4c66a3146101a857806369294a4e146102f657806370a08231146102fe5780637adbf973146103365780637dc0d1d01461035c57610116565b80630e41f3731461011b578063485cc9551461013f578063529f3dd21461016f578063570ca735146101a0575b600080fd5b610123610561565b604080516001600160a01b039092168252519081900360200190f35b61016d6004803603604081101561015557600080fd5b506001600160a01b0381358116916020013516610570565b005b61018c6004803603602081101561018557600080fd5b503561063b565b604080519115158252519081900360200190f35b6101236106ca565b61016d600480360360c08110156101be57600080fd5b60ff82351691908101906040810160208201356401000000008111156101e357600080fd5b8201836020820111156101f557600080fd5b8035906020019184600183028401116401000000008311171561021757600080fd5b91908080601f01602080910402602001604051908101604052809392919081815260200183838082843760009201919091525092958435956001600160a01b036020870135169591945092506060810191506040013564010000000081111561027f57600080fd5b82018360208201111561029157600080fd5b803590602001918460018302840111640100000000831117156102b357600080fd5b91908080601f01602080910402602001604051908101604052809392919081815260200183838082843760009201919091525092955050913592506106d9915050565b61018c6110f0565b6103246004803603602081101561031457600080fd5b50356001600160a01b0316611100565b60408051918252519081900360200190f35b61016d6004803603602081101561034c57600080fd5b50356001600160a01b031661111b565b610123611224565b610123611233565b61016d6004803603602081101561038257600080fd5b50356001600160a01b0316611242565b61016d61134b565b61032461135c565b61018c600480360360208110156103b857600080fd5b5035611362565b61018c600480360360408110156103d557600080fd5b506001600160a01b038135169060200135611377565b61018c6004803603602081101561040157600080fd5b503561138d565b6104256004803603602081101561041e57600080fd5b50356113b7565b6040518089600281111561043557fe5b60ff1681526001600160a01b03808916604083015287811660608301528616608082015260c08101849052602081019060a081019060e00184600381111561047957fe5b60ff16815260200183810383528a818151815260200191508051906020019080838360005b838110156104b657818101518382015260200161049e565b50505050905090810190601f1680156104e35780820380516001836020036101000a031916815260200191505b50838103825286518152865160209182019188019080838360005b838110156105165781810151838201526020016104fe565b50505050905090810190601f1680156105435780820380516001836020036101000a031916815260200191505b509a505050505050505050505060405180910390f35b61018c611528565b6004546001600160a01b031681565b606c5460ff16156105b6576040805162461bcd60e51b815260206004820152600b60248201526a125b9a5d1a585b1a5e995960aa1b604482015290519081900360640190fd5b604080518082019091526001808252606560f81b60209092019182526105de91600091611eb2565b506000600555600180546001600160a01b039384166001600160a01b031991821617825560028054939094169216919091179091556003805460ff60a01b19908116909155600480549091169055606c805460ff19169091179055565b6002546000828152600760209081526040808320600301548151631015428760e21b81526001600160a01b0391821660048201529151939416926340550a1c92602480840193919291829003018186803b15801561069857600080fd5b505afa1580156106ac573d6000803e3d6000fd5b505050506040513d60208110156106c257600080fd5b505192915050565b6001546001600160a01b031681565b600354600160a01b900460ff16151560011480156107055750600454600160a01b900460ff1615156001145b6107405760405162461bcd60e51b8152600401808060200182810382526046815260200180611fb56046913960600191505060405180910390fd5b60025460408051631015428760e21b815233600482015290516001600160a01b03909216916340550a1c91602480820192602092909190829003018186803b15801561078b57600080fd5b505afa15801561079f573d6000803e3d6000fd5b505050506040513d60208110156107b557600080fd5b5051610808576040805162461bcd60e51b815260206004820152601b60248201527f4d75737420626520616e206163746976652076616c696461746f720000000000604482015290519081900360640190fd5b600084815260066020526040812054859060ff16156108a857600354604080516368e9420d60e11b81526004810184905233602482015290516001600160a01b039092169163d1d2841a916044808201926020929091908290030181600087803b15801561087557600080fd5b505af1158015610889573d6000803e3d6000fd5b505050506040513d602081101561089f57600080fd5b505191506110d7565b6000606060018a60028111156108ba57fe5b1415610ab55760048054604051635acba65560e01b8152602092810183815289516024830152895189946001600160a01b0390941693635acba655938c9392839260449092019185019080838360005b8381101561092257818101518382015260200161090a565b50505050905090810190601f16801561094f5780820380516001836020036101000a031916815260200191505b509250505060206040518083038186803b15801561096c57600080fd5b505afa158015610980573d6000803e3d6000fd5b505050506040513d602081101561099657600080fd5b505110156109d55760405162461bcd60e51b815260040180806020018281038252603a815260200180612097603a913960400191505060405180910390fd5b506004805460405163050fcdb360e11b8152602092810183815288516024830152885189946001600160a01b0390941693630a1f9b6693869392839260449092019185019080838360005b83811015610a38578181015183820152602001610a20565b50505050905090810190601f168015610a655780820380516001836020036101000a031916815260200191505b509250505060206040518083038186803b158015610a8257600080fd5b505afa158015610a96573d6000803e3d6000fd5b505050506040513d6020811015610aac57600080fd5b50519150610d6c565b60028a6002811115610ac357fe5b1415610d355760008054604080516020601f60026000196101006001881615020190951694909404938401819004810282018101909252828152610b619390929091830182828015610b565780601f10610b2b57610100808354040283529160200191610b56565b820191906000526020600020905b815481529060010190602001808311610b3957829003601f168201915b505050505087611538565b6004805460405163ebb73ca960e01b815260209281018381528451602483015284519495506000946001600160a01b039093169363ebb73ca99387938392604490910191908501908083838b5b83811015610bc6578181015183820152602001610bae565b50505050905090810190601f168015610bf35780820380516001836020036101000a031916815260200191505b509250505060206040518083038186803b158015610c1057600080fd5b505afa158015610c24573d6000803e3d6000fd5b505050506040513d6020811015610c3a57600080fd5b505190506001600160a01b038116610d2b57600480546040516350b06e4d60e01b815260209281018381528551602483015285516001600160a01b03909316936350b06e4d93879383926044909101919085019080838360005b83811015610cac578181015183820152602001610c94565b50505050905090810190601f168015610cd95780820380516001836020036101000a031916815260200191505b5092505050602060405180830381600087803b158015610cf857600080fd5b505af1158015610d0c573d6000803e3d6000fd5b505050506040513d6020811015610d2257600080fd5b50519250610d2f565b8092505b50610d6c565b60405162461bcd60e51b81526004018080602001828103825260358152602001806120626035913960400191505060405180910390fd5b610d74611f30565b6040518061010001604052808c6002811115610d8c57fe5b8152602081018c90526001600160a01b03808b1660408301523360608301528516608082015260a0810184905260c0810188905260e00160019052600554909150610dde90600163ffffffff6115f316565b60055560008481526007602052604090208151815483929190829060ff19166001836002811115610e0b57fe5b02179055506020828101518051610e289260018501920190611eb2565b5060408201516002820180546001600160a01b039283166001600160a01b0319918216179091556060840151600384018054918416918316919091179055608084015160048401805491909316911617905560a08201518051610e95916005840191602090910190611eb2565b5060c0820151600682015560e082015160078201805460ff19166001836003811115610ebd57fe5b02179055509050507f4c4b04a2b190e6bb01b6243f150fc76174861acd19cf98841801baaff5262dd8848c8c8b3388888d60405180898152602001886002811115610f0457fe5b60ff16815260200180602001876001600160a01b03166001600160a01b03168152602001866001600160a01b03166001600160a01b03168152602001856001600160a01b03166001600160a01b0316815260200180602001848152602001838103835289818151815260200191508051906020019080838360005b83811015610f97578181015183820152602001610f7f565b50505050905090810190601f168015610fc45780820380516001836020036101000a031916815260200191505b50838103825285518152855160209182019187019080838360005b83811015610ff7578181015183820152602001610fdf565b50505050905090810190601f1680156110245780820380516001836020036101000a031916815260200191505b509a505050505050505050505060405180910390a16000848152600660209081526040808320805460ff1916600117905560035481516368e9420d60e11b81526004810189905233602482015291516001600160a01b039091169363d1d2841a93604480850194919392918390030190829087803b1580156110a557600080fd5b505af11580156110b9573d6000803e3d6000fd5b505050506040513d60208110156110cf57600080fd5b505194505050505b81156110e6576110e681611654565b5050505050505050565b600454600160a01b900460ff1681565b6001600160a01b0316600090815260d2602052604090205490565b6001546001600160a01b03163314611172576040805162461bcd60e51b815260206004820152601560248201527426bab9ba103132903a34329037b832b930ba37b91760591b604482015290519081900360640190fd5b600354600160a01b900460ff16156111bb5760405162461bcd60e51b81526004018080602001828103825260318152602001806120316031913960400191505060405180910390fd5b60038054600160a01b60ff60a01b19909116176001600160a01b0319166001600160a01b03838116919091179182905560408051929091168252517f6efb0434342713e2e9b1501dbebf76b4ed18406ea77ab5d56535cc26dec3adc0916020908290030190a150565b6003546001600160a01b031681565b6002546001600160a01b031681565b6001546001600160a01b03163314611299576040805162461bcd60e51b815260206004820152601560248201527426bab9ba103132903a34329037b832b930ba37b91760591b604482015290519081900360640190fd5b600454600160a01b900460ff16156112e25760405162461bcd60e51b8152600401808060200182810382526036815260200180611ffb6036913960400191505060405180910390fd5b60048054600160a01b60ff60a01b19909116176001600160a01b0319166001600160a01b03838116919091179182905560408051929091168252517fc8b65043fb196ac032b79a435397d1d14a96b4e9d12e366c3b1f550cb01d2dfa916020908290030190a150565b61135a3364174876e800611754565b565b60055481565b60066020526000908152604090205460ff1681565b60006113843384846117d9565b50600192915050565b60008181526007602081905260408220015460019060ff1660038111156113b057fe5b1492915050565b6007602090815260009182526040918290208054600180830180548651600261010094831615949094026000190190911692909204601f810186900486028301860190965285825260ff90921694929390929083018282801561145b5780601f106114305761010080835404028352916020019161145b565b820191906000526020600020905b81548152906001019060200180831161143e57829003601f168201915b50505050600283810154600385015460048601546005870180546040805160206101006001851615026000190190931697909704601f810183900483028801830190915280875297986001600160a01b03958616989486169750949092169492909183018282801561150e5780601f106114e35761010080835404028352916020019161150e565b820191906000526020600020905b8154815290600101906020018083116114f157829003601f168201915b50505050600683015460079093015491929160ff16905088565b600354600160a01b900460ff1681565b606082826040516020018083805190602001908083835b6020831061156e5780518252601f19909201916020918201910161154f565b51815160209384036101000a600019018019909216911617905285519190930192850191508083835b602083106115b65780518252601f199092019160209182019101611597565b6001836020036101000a03801982511681845116808217855250505050505090500192505050604051602081830303815290604052905092915050565b60008282018381101561164d576040805162461bcd60e51b815260206004820152601b60248201527f536166654d6174683a206164646974696f6e206f766572666c6f770000000000604482015290519081900360640190fd5b9392505050565b8061165e8161138d565b6116af576040805162461bcd60e51b815260206004820152601c60248201527f50726f706865637920636c61696d206973206e6f742061637469766500000000604482015290519081900360640190fd5b6000828152600760208190526040909120908101805460ff19166002908117909155905460ff169060019082908111156116e557fe5b14156116f9576116f483611895565b611702565b61170283611b5f565b7f79e7c1c0bd54f11809c3bf6023c242783602d61ceff272c6bba6f8559c24ad0d83826040518083815260200182600281111561173b57fe5b60ff1681526020019250505060405180910390a1505050565b6001600160a01b0382166117af576040805162461bcd60e51b815260206004820152601f60248201527f45524332303a206d696e7420746f20746865207a65726f206164647265737300604482015290519081900360640190fd5b60d18054820190556001600160a01b03909116600090815260d26020526040902080549091019055565b6001600160a01b03831661181e5760405162461bcd60e51b81526004018080602001828103825260258152602001806120d16025913960400191505060405180910390fd5b6001600160a01b0382166118635760405162461bcd60e51b8152600401808060200182810382526023815260200180611f926023913960400191505060405180910390fd5b6001600160a01b03928316600090815260d2602052604080822080548490039055929093168352912080549091019055565b61189d611f30565b60008281526007602052604090819020815161010081019092528054829060ff1660028111156118c957fe5b60028111156118d457fe5b8152602001600182018054600181600116156101000203166002900480601f0160208091040260200160405190810160405280929190818152602001828054600181600116156101000203166002900480156119715780601f1061194657610100808354040283529160200191611971565b820191906000526020600020905b81548152906001019060200180831161195457829003601f168201915b50505091835250506002828101546001600160a01b03908116602080850191909152600385015482166040808601919091526004860154909216606085015260058501805483516101006001831615026000190190911694909404601f81018390048302850183019093528284526080909401939190830182828015611a385780601f10611a0d57610100808354040283529160200191611a38565b820191906000526020600020905b815481529060010190602001808311611a1b57829003601f168201915b505050918352505060068201546020820152600782015460409091019060ff166003811115611a6357fe5b6003811115611a6e57fe5b9052506004805460408084015160a085015160c08601519251633816622960e21b81526001600160a01b038381169682019687526044820185905260606024830190815283516064840152835198995095169663e05988a4969395929493929160840190602086019080838360005b83811015611af5578181015183820152602001611add565b50505050905090810190601f168015611b225780820380516001836020036101000a031916815260200191505b50945050505050600060405180830381600087803b158015611b4357600080fd5b505af1158015611b57573d6000803e3d6000fd5b505050505050565b611b67611f30565b60008281526007602052604090819020815161010081019092528054829060ff166002811115611b9357fe5b6002811115611b9e57fe5b8152602001600182018054600181600116156101000203166002900480601f016020809104026020016040519081016040528092919081815260200182805460018160011615610100020316600290048015611c3b5780601f10611c1057610100808354040283529160200191611c3b565b820191906000526020600020905b815481529060010190602001808311611c1e57829003601f168201915b50505091835250506002828101546001600160a01b03908116602080850191909152600385015482166040808601919091526004860154909216606085015260058501805483516101006001831615026000190190911694909404601f81018390048302850183019093528284526080909401939190830182828015611d025780601f10611cd757610100808354040283529160200191611d02565b820191906000526020600020905b815481529060010190602001808311611ce557829003601f168201915b505050918352505060068201546020820152600782015460409091019060ff166003811115611d2d57fe5b6003811115611d3857fe5b815250509050600460009054906101000a90046001600160a01b03166001600160a01b031663cdf68c418260200151836040015184608001518560a001518660c001516040518663ffffffff1660e01b81526004018080602001866001600160a01b03166001600160a01b03168152602001856001600160a01b03166001600160a01b0316815260200180602001848152602001838103835288818151815260200191508051906020019080838360005b83811015611e01578181015183820152602001611de9565b50505050905090810190601f168015611e2e5780820380516001836020036101000a031916815260200191505b50838103825285518152855160209182019187019080838360005b83811015611e61578181015183820152602001611e49565b50505050905090810190601f168015611e8e5780820380516001836020036101000a031916815260200191505b50975050505050505050600060405180830381600087803b158015611b4357600080fd5b828054600181600116156101000203166002900490600052602060002090601f016020900481019282601f10611ef357805160ff1916838001178555611f20565b82800160010185558215611f20579182015b82811115611f20578251825591602001919060010190611f05565b50611f2c929150611f74565b5090565b604080516101008101825260008082526060602083018190529282018190528282018190526080820181905260a082019290925260c081018290529060e082015290565b611f8e91905b80821115611f2c5760008155600101611f7a565b9056fe45524332303a207472616e7366657220746f20746865207a65726f2061646472657373546865204f70657261746f72206d7573742073657420746865206f7261636c6520616e64206272696467652062616e6b20666f72206272696467652061637469766174696f6e546865204272696467652042616e6b2063616e6e6f742062652075706461746564206f6e636520697420686173206265656e20736574546865204f7261636c652063616e6e6f742062652075706461746564206f6e636520697420686173206265656e20736574496e76616c696420636c61696d20747970652c206f6e6c79206275726e20616e64206c6f636b2061726520737570706f727465642e4e6f7420656e6f756768206c6f636b65642061737365747320746f20636f6d706c657465207468652070726f706f7365642070726f706865637945524332303a207472616e736665722066726f6d20746865207a65726f2061646472657373a265627a7a723158208b0f2b23754e1f40e017834c7ca25e96e422b5172546a2ee819e69c41ccf44ab64736f6c63430005100032",
  "source": "pragma solidity ^0.5.0;\n\nimport \"./../CosmosBridge.sol\";\n\ncontract ERC20UNSAFE {\n    uint256 private _totalSupply;\n    mapping (address => uint256) private _balances;\n\n    /**\n     * @dev See {IERC20-balanceOf}.\n     */\n    function balanceOf(address account) public view returns (uint256) {\n        return _balances[account];\n    }\n\n    /**\n     * @dev See {IERC20-transfer}.\n     *\n     * Requirements:\n     *\n     * - `recipient` cannot be the zero address.\n     * - the caller must have a balance of at least `amount`.\n     */\n    function transfer(address recipient, uint256 amount) public returns (bool) {\n        _transfer(msg.sender, recipient, amount);\n        return true;\n    }\n\n        /**\n     * @dev Moves tokens `amount` from `sender` to `recipient`.\n     *\n     * This is internal function is equivalent to {transfer}, and can be used to\n     * e.g. implement automatic token fees, slashing mechanisms, etc.\n     *\n     * Emits a {Transfer} event.\n     *\n     * Requirements:\n     *\n     * - `sender` cannot be the zero address.\n     * - `recipient` cannot be the zero address.\n     * - `sender` must have a balance of at least `amount`.\n     */\n    function _transfer(address sender, address recipient, uint256 amount) internal {\n        require(sender != address(0), \"ERC20: transfer from the zero address\");\n        require(recipient != address(0), \"ERC20: transfer to the zero address\");\n\n        _balances[sender] = _balances[sender] - amount;\n        _balances[recipient] = _balances[recipient] + amount;\n    }\n\n    /** @dev Creates `amount` tokens and assigns them to `account`, increasing\n     * the total supply.\n     *\n     * Emits a {Transfer} event with `from` set to the zero address.\n     *\n     * Requirements\n     *\n     * - `to` cannot be the zero address.\n     */\n    function _mint(address account, uint256 amount) internal {\n        require(account != address(0), \"ERC20: mint to the zero address\");\n\n        _totalSupply = _totalSupply + amount;\n        _balances[account] = _balances[account] + amount;\n    }\n}\n\n\n/// @notice Add a token to the cosmos bridge to test that upgrades work correctly\ncontract MockCosmosBridgeUpgrade is CosmosBridge, ERC20UNSAFE {\n\n    function tokenFaucet() public {\n        _mint(msg.sender, 100000000000);\n    }\n}",
  "sourcePath": "/Users/junius/github/thor/sifnode/smart-contracts/contracts/MockUpgrade/MockCosmsosBridgeUpgrade.sol",
  "compiler": {
    "name": "solc",
    "version": "0.5.16+commit.9c3226ce.Emscripten.clang"
  },
  "schemaVersion": "3.3.1",
  "updatedAt": "2020-11-23T01:28:02.302Z",
  "devdoc": {
    "methods": {
      "balanceOf(address)": {
        "details": "See {IERC20-balanceOf}."
      },
      "transfer(address,uint256)": {
        "details": "See {IERC20-transfer}.     * Requirements:     * - `recipient` cannot be the zero address. - the caller must have a balance of at least `amount`."
      }
    }
  },
  "userdoc": {
    "methods": {},
    "notice": "Add a token to the cosmos bridge to test that upgrades work correctly"
  }
}