{
  "contractName": "MockCosmosBridgeUpgrade",
  "abi": [
    {
      "anonymous": false,
      "inputs": [
        {
          "indexed": false,
          "internalType": "address",
          "name": "_bridgeBank",
          "type": "address"
        }
      ],
      "name": "LogBridgeBankSet",
      "type": "event"
    },
    {
      "anonymous": false,
      "inputs": [
        {
          "indexed": false,
          "internalType": "uint256",
          "name": "_prophecyID",
          "type": "uint256"
        },
        {
          "indexed": false,
          "internalType": "enum CosmosBridgeStorage.ClaimType",
          "name": "_claimType",
          "type": "uint8"
        },
        {
          "indexed": false,
          "internalType": "bytes",
          "name": "_cosmosSender",
          "type": "bytes"
        },
        {
          "indexed": false,
          "internalType": "address payable",
          "name": "_ethereumReceiver",
          "type": "address"
        },
        {
          "indexed": false,
          "internalType": "address",
          "name": "_validatorAddress",
          "type": "address"
        },
        {
          "indexed": false,
          "internalType": "address",
          "name": "_tokenAddress",
          "type": "address"
        },
        {
          "indexed": false,
          "internalType": "string",
          "name": "_symbol",
          "type": "string"
        },
        {
          "indexed": false,
          "internalType": "uint256",
          "name": "_amount",
          "type": "uint256"
        }
      ],
      "name": "LogNewProphecyClaim",
      "type": "event"
    },
    {
      "anonymous": false,
      "inputs": [
        {
          "indexed": false,
          "internalType": "address",
          "name": "_oracle",
          "type": "address"
        }
      ],
      "name": "LogOracleSet",
      "type": "event"
    },
    {
      "anonymous": false,
      "inputs": [
        {
          "indexed": false,
          "internalType": "uint256",
          "name": "_prophecyID",
          "type": "uint256"
        },
        {
          "indexed": false,
          "internalType": "enum CosmosBridgeStorage.ClaimType",
          "name": "_claimType",
          "type": "uint8"
        }
      ],
      "name": "LogProphecyCompleted",
      "type": "event"
    },
    {
      "constant": true,
      "inputs": [
        {
          "internalType": "address",
          "name": "account",
          "type": "address"
        }
      ],
      "name": "balanceOf",
      "outputs": [
        {
          "internalType": "uint256",
          "name": "",
          "type": "uint256"
        }
      ],
      "payable": false,
      "stateMutability": "view",
      "type": "function"
    },
    {
      "constant": true,
      "inputs": [],
      "name": "bridgeBank",
      "outputs": [
        {
          "internalType": "address payable",
          "name": "",
          "type": "address"
        }
      ],
      "payable": false,
      "stateMutability": "view",
      "type": "function"
    },
    {
      "constant": false,
      "inputs": [
        {
          "internalType": "uint256",
          "name": "_prophecyID",
          "type": "uint256"
        }
      ],
      "name": "completeProphecyClaim",
      "outputs": [],
      "payable": false,
      "stateMutability": "nonpayable",
      "type": "function"
    },
    {
      "constant": true,
      "inputs": [],
      "name": "hasBridgeBank",
      "outputs": [
        {
          "internalType": "bool",
          "name": "",
          "type": "bool"
        }
      ],
      "payable": false,
      "stateMutability": "view",
      "type": "function"
    },
    {
      "constant": true,
      "inputs": [],
      "name": "hasOracle",
      "outputs": [
        {
          "internalType": "bool",
          "name": "",
          "type": "bool"
        }
      ],
      "payable": false,
      "stateMutability": "view",
      "type": "function"
    },
    {
      "constant": false,
      "inputs": [
        {
          "internalType": "address",
          "name": "_operator",
          "type": "address"
        },
        {
          "internalType": "address payable",
          "name": "_valset",
          "type": "address"
        }
      ],
      "name": "initialize",
      "outputs": [],
      "payable": false,
      "stateMutability": "nonpayable",
      "type": "function"
    },
    {
      "constant": true,
      "inputs": [
        {
          "internalType": "uint256",
          "name": "_prophecyID",
          "type": "uint256"
        }
      ],
      "name": "isProphecyClaimActive",
      "outputs": [
        {
          "internalType": "bool",
          "name": "",
          "type": "bool"
        }
      ],
      "payable": false,
      "stateMutability": "view",
      "type": "function"
    },
    {
      "constant": true,
      "inputs": [
        {
          "internalType": "uint256",
          "name": "_prophecyID",
          "type": "uint256"
        }
      ],
      "name": "isProphecyClaimValidatorActive",
      "outputs": [
        {
          "internalType": "bool",
          "name": "",
          "type": "bool"
        }
      ],
      "payable": false,
      "stateMutability": "view",
      "type": "function"
    },
    {
      "constant": false,
      "inputs": [
        {
          "internalType": "enum CosmosBridgeStorage.ClaimType",
          "name": "_claimType",
          "type": "uint8"
        },
        {
          "internalType": "bytes",
          "name": "_cosmosSender",
          "type": "bytes"
        },
        {
          "internalType": "address payable",
          "name": "_ethereumReceiver",
          "type": "address"
        },
        {
          "internalType": "string",
          "name": "_symbol",
          "type": "string"
        },
        {
          "internalType": "uint256",
          "name": "_amount",
          "type": "uint256"
        }
      ],
      "name": "newProphecyClaim",
      "outputs": [],
      "payable": false,
      "stateMutability": "nonpayable",
      "type": "function"
    },
    {
      "constant": true,
      "inputs": [],
      "name": "operator",
      "outputs": [
        {
          "internalType": "address",
          "name": "",
          "type": "address"
        }
      ],
      "payable": false,
      "stateMutability": "view",
      "type": "function"
    },
    {
      "constant": true,
      "inputs": [],
      "name": "oracle",
      "outputs": [
        {
          "internalType": "address payable",
          "name": "",
          "type": "address"
        }
      ],
      "payable": false,
      "stateMutability": "view",
      "type": "function"
    },
    {
      "constant": true,
      "inputs": [],
      "name": "prophecyClaimCount",
      "outputs": [
        {
          "internalType": "uint256",
          "name": "",
          "type": "uint256"
        }
      ],
      "payable": false,
      "stateMutability": "view",
      "type": "function"
    },
    {
      "constant": true,
      "inputs": [
        {
          "internalType": "uint256",
          "name": "",
          "type": "uint256"
        }
      ],
      "name": "prophecyClaims",
      "outputs": [
        {
          "internalType": "enum CosmosBridgeStorage.ClaimType",
          "name": "claimType",
          "type": "uint8"
        },
        {
          "internalType": "bytes",
          "name": "cosmosSender",
          "type": "bytes"
        },
        {
          "internalType": "address payable",
          "name": "ethereumReceiver",
          "type": "address"
        },
        {
          "internalType": "address",
          "name": "originalValidator",
          "type": "address"
        },
        {
          "internalType": "address",
          "name": "tokenAddress",
          "type": "address"
        },
        {
          "internalType": "string",
          "name": "symbol",
          "type": "string"
        },
        {
          "internalType": "uint256",
          "name": "amount",
          "type": "uint256"
        },
        {
          "internalType": "enum CosmosBridgeStorage.Status",
          "name": "status",
          "type": "uint8"
        }
      ],
      "payable": false,
      "stateMutability": "view",
      "type": "function"
    },
    {
      "constant": false,
      "inputs": [
        {
          "internalType": "address payable",
          "name": "_bridgeBank",
          "type": "address"
        }
      ],
      "name": "setBridgeBank",
      "outputs": [],
      "payable": false,
      "stateMutability": "nonpayable",
      "type": "function"
    },
    {
      "constant": false,
      "inputs": [
        {
          "internalType": "address payable",
          "name": "_oracle",
          "type": "address"
        }
      ],
      "name": "setOracle",
      "outputs": [],
      "payable": false,
      "stateMutability": "nonpayable",
      "type": "function"
    },
    {
      "constant": false,
      "inputs": [
        {
          "internalType": "address",
          "name": "recipient",
          "type": "address"
        },
        {
          "internalType": "uint256",
          "name": "amount",
          "type": "uint256"
        }
      ],
      "name": "transfer",
      "outputs": [
        {
          "internalType": "bool",
          "name": "",
          "type": "bool"
        }
      ],
      "payable": false,
      "stateMutability": "nonpayable",
      "type": "function"
    },
    {
      "constant": true,
      "inputs": [],
      "name": "valset",
      "outputs": [
        {
          "internalType": "address payable",
          "name": "",
          "type": "address"
        }
      ],
      "payable": false,
      "stateMutability": "view",
      "type": "function"
    },
    {
      "constant": false,
      "inputs": [],
      "name": "tokenFaucet",
      "outputs": [],
      "payable": false,
      "stateMutability": "nonpayable",
      "type": "function"
    }
  ],
  "bytecode": "0x608060405234801561001057600080fd5b50612037806100206000396000f3fe608060405234801561001057600080fd5b50600436106101165760003560e01c80637f54af0c116100a25780639d396d03116100715780639d396d0314610271578063a9059cbb146103bb578063d8da69ea146103e7578063db4237af14610404578063fb7831f21461055557610116565b80637f54af0c14610233578063814c92c31461023b57806389eb068a146102615780638ea5352d1461026957610116565b806369294a4e116100e957806369294a4e146101a85780636b3ce98c146101b057806370a08231146101cd5780637adbf973146102055780637dc0d1d01461022b57610116565b80630e41f3731461011b578063485cc9551461013f578063529f3dd21461016f578063570ca735146101a0575b600080fd5b61012361055d565b604080516001600160a01b039092168252519081900360200190f35b61016d6004803603604081101561015557600080fd5b506001600160a01b038135811691602001351661056c565b005b61018c6004803603602081101561018557600080fd5b5035610637565b604080519115158252519081900360200190f35b6101236106c6565b61018c6106d5565b61016d600480360360208110156101c657600080fd5b50356106e5565b6101f3600480360360208110156101e357600080fd5b50356001600160a01b031661082c565b60408051918252519081900360200190f35b61016d6004803603602081101561021b57600080fd5b50356001600160a01b0316610847565b610123610950565b61012361095f565b61016d6004803603602081101561025157600080fd5b50356001600160a01b031661096e565b61016d610a77565b6101f3610a88565b61016d600480360360a081101561028757600080fd5b60ff82351691908101906040810160208201356401000000008111156102ac57600080fd5b8201836020820111156102be57600080fd5b803590602001918460018302840111640100000000831117156102e057600080fd5b91908080601f01602080910402602001604051908101604052809392919081815260200183838082843760009201919091525092956001600160a01b0385351695909490935060408101925060200135905064010000000081111561034457600080fd5b82018360208201111561035657600080fd5b8035906020019184600183028401116401000000008311171561037857600080fd5b91908080601f0160208091040260200160405190810160405280939291908181526020018383808284376000920191909152509295505091359250610a8e915050565b61018c600480360360408110156103d157600080fd5b506001600160a01b03813516906020013561135c565b61018c600480360360208110156103fd57600080fd5b5035611372565b6104216004803603602081101561041a57600080fd5b503561139d565b6040518089600281111561043157fe5b60ff1681526001600160a01b03808916604083015287811660608301528616608082015260c08101849052602081019060a081019060e00184600381111561047557fe5b60ff16815260200183810383528a818151815260200191508051906020019080838360005b838110156104b257818101518382015260200161049a565b50505050905090810190601f1680156104df5780820380516001836020036101000a031916815260200191505b50838103825286518152865160209182019188019080838360005b838110156105125781810151838201526020016104fa565b50505050905090810190601f16801561053f5780820380516001836020036101000a031916815260200191505b509a505050505050505050505060405180910390f35b61018c61150e565b6004546001600160a01b031681565b606b5460ff16156105b2576040805162461bcd60e51b815260206004820152600b60248201526a125b9a5d1a585b1a5e995960aa1b604482015290519081900360640190fd5b604080518082019091526001808252606560f81b60209092019182526105da91600091611d98565b506000600555600180546001600160a01b039384166001600160a01b031991821617825560028054939094169216919091179091556003805460ff60a01b19908116909155600480549091169055606b805460ff19169091179055565b6002546000828152600660209081526040808320600301548151631015428760e21b81526001600160a01b0391821660048201529151939416926340550a1c92602480840193919291829003018186803b15801561069457600080fd5b505afa1580156106a8573d6000803e3d6000fd5b505050506040513d60208110156106be57600080fd5b505192915050565b6001546001600160a01b031681565b600454600160a01b900460ff1681565b806106ef81611372565b610740576040805162461bcd60e51b815260206004820152601c60248201527f50726f706865637920636c61696d206973206e6f742061637469766500000000604482015290519081900360640190fd5b6003546001600160a01b031633146107895760405162461bcd60e51b8152600401808060200182810382526027815260200180611fdc6027913960400191505060405180910390fd5b600082815260066020526040902060078101805460ff19166002908117909155905460ff169060019082908111156107bd57fe5b14156107d1576107cc8361151e565b6107da565b6107da836117e8565b7f79e7c1c0bd54f11809c3bf6023c242783602d61ceff272c6bba6f8559c24ad0d83826040518083815260200182600281111561081357fe5b60ff1681526020019250505060405180910390a1505050565b6001600160a01b0316600090815260d1602052604090205490565b6001546001600160a01b0316331461089e576040805162461bcd60e51b815260206004820152601560248201527426bab9ba103132903a34329037b832b930ba37b91760591b604482015290519081900360640190fd5b600354600160a01b900460ff16156108e75760405162461bcd60e51b8152600401808060200182810382526031815260200180611f176031913960400191505060405180910390fd5b60038054600160a01b60ff60a01b19909116176001600160a01b0319166001600160a01b03838116919091179182905560408051929091168252517f6efb0434342713e2e9b1501dbebf76b4ed18406ea77ab5d56535cc26dec3adc0916020908290030190a150565b6003546001600160a01b031681565b6002546001600160a01b031681565b6001546001600160a01b031633146109c5576040805162461bcd60e51b815260206004820152601560248201527426bab9ba103132903a34329037b832b930ba37b91760591b604482015290519081900360640190fd5b600454600160a01b900460ff1615610a0e5760405162461bcd60e51b8152600401808060200182810382526036815260200180611ee16036913960400191505060405180910390fd5b60048054600160a01b60ff60a01b19909116176001600160a01b0319166001600160a01b03838116919091179182905560408051929091168252517fc8b65043fb196ac032b79a435397d1d14a96b4e9d12e366c3b1f550cb01d2dfa916020908290030190a150565b610a863364174876e800611b3b565b565b60055481565b600354600160a01b900460ff1615156001148015610aba5750600454600160a01b900460ff1615156001145b610af55760405162461bcd60e51b8152600401808060200182810382526046815260200180611e9b6046913960600191505060405180910390fd5b60025460408051631015428760e21b815233600482015290516001600160a01b03909216916340550a1c91602480820192602092909190829003018186803b158015610b4057600080fd5b505afa158015610b54573d6000803e3d6000fd5b505050506040513d6020811015610b6a57600080fd5b5051610bbd576040805162461bcd60e51b815260206004820152601b60248201527f4d75737420626520616e206163746976652076616c696461746f720000000000604482015290519081900360640190fd5b600060606001876002811115610bcf57fe5b1415610dca5760048054604051635acba65560e01b8152602092810183815287516024830152875187946001600160a01b0390941693635acba655938a9392839260449092019185019080838360005b83811015610c37578181015183820152602001610c1f565b50505050905090810190601f168015610c645780820380516001836020036101000a031916815260200191505b509250505060206040518083038186803b158015610c8157600080fd5b505afa158015610c95573d6000803e3d6000fd5b505050506040513d6020811015610cab57600080fd5b50511015610cea5760405162461bcd60e51b815260040180806020018281038252603a815260200180611f7d603a913960400191505060405180910390fd5b506004805460405163050fcdb360e11b8152602092810183815286516024830152865187946001600160a01b0390941693630a1f9b6693869392839260449092019185019080838360005b83811015610d4d578181015183820152602001610d35565b50505050905090810190601f168015610d7a5780820380516001836020036101000a031916815260200191505b509250505060206040518083038186803b158015610d9757600080fd5b505afa158015610dab573d6000803e3d6000fd5b505050506040513d6020811015610dc157600080fd5b50519150611081565b6002876002811115610dd857fe5b141561104a5760008054604080516020601f60026000196101006001881615020190951694909404938401819004810282018101909252828152610e769390929091830182828015610e6b5780601f10610e4057610100808354040283529160200191610e6b565b820191906000526020600020905b815481529060010190602001808311610e4e57829003601f168201915b505050505085611bc0565b6004805460405163ebb73ca960e01b815260209281018381528451602483015284519495506000946001600160a01b039093169363ebb73ca99387938392604490910191908501908083838b5b83811015610edb578181015183820152602001610ec3565b50505050905090810190601f168015610f085780820380516001836020036101000a031916815260200191505b509250505060206040518083038186803b158015610f2557600080fd5b505afa158015610f39573d6000803e3d6000fd5b505050506040513d6020811015610f4f57600080fd5b505190506001600160a01b03811661104057600480546040516350b06e4d60e01b815260209281018381528551602483015285516001600160a01b03909316936350b06e4d93879383926044909101919085019080838360005b83811015610fc1578181015183820152602001610fa9565b50505050905090810190601f168015610fee5780820380516001836020036101000a031916815260200191505b5092505050602060405180830381600087803b15801561100d57600080fd5b505af1158015611021573d6000803e3d6000fd5b505050506040513d602081101561103757600080fd5b50519250611044565b8092505b50611081565b60405162461bcd60e51b8152600401808060200182810382526035815260200180611f486035913960400191505060405180910390fd5b611089611e16565b6040518061010001604052808960028111156110a157fe5b8152602081018990526001600160a01b0380891660408301523360608301528516608082015260a0810184905260c0810186905260e001600190526005549091506110f390600163ffffffff611c7b16565b600581905560009081526006602052604090208151815483929190829060ff1916600183600281111561112257fe5b0217905550602082810151805161113f9260018501920190611d98565b5060408201516002820180546001600160a01b039283166001600160a01b0319918216179091556060840151600384018054918416918316919091179055608084015160048401805491909316911617905560a082015180516111ac916005840191602090910190611d98565b5060c0820151600682015560e082015160078201805460ff191660018360038111156111d457fe5b02179055509050507f4c4b04a2b190e6bb01b6243f150fc76174861acd19cf98841801baaff5262dd86005548989893388888b6040518089815260200188600281111561121d57fe5b60ff16815260200180602001876001600160a01b03166001600160a01b03168152602001866001600160a01b03166001600160a01b03168152602001856001600160a01b03166001600160a01b0316815260200180602001848152602001838103835289818151815260200191508051906020019080838360005b838110156112b0578181015183820152602001611298565b50505050905090810190601f1680156112dd5780820380516001836020036101000a031916815260200191505b50838103825285518152855160209182019187019080838360005b838110156113105781810151838201526020016112f8565b50505050905090810190601f16801561133d5780820380516001836020036101000a031916815260200191505b509a505050505050505050505060405180910390a15050505050505050565b6000611369338484611cdc565b50600192915050565b6000600160008381526006602052604090206007015460ff16600381111561139657fe5b1492915050565b6006602090815260009182526040918290208054600180830180548651600261010094831615949094026000190190911692909204601f810186900486028301860190965285825260ff9092169492939092908301828280156114415780601f1061141657610100808354040283529160200191611441565b820191906000526020600020905b81548152906001019060200180831161142457829003601f168201915b50505050600283810154600385015460048601546005870180546040805160206101006001851615026000190190931697909704601f810183900483028801830190915280875297986001600160a01b0395861698948616975094909216949290918301828280156114f45780601f106114c9576101008083540402835291602001916114f4565b820191906000526020600020905b8154815290600101906020018083116114d757829003601f168201915b50505050600683015460079093015491929160ff16905088565b600354600160a01b900460ff1681565b611526611e16565b60008281526006602052604090819020815161010081019092528054829060ff16600281111561155257fe5b600281111561155d57fe5b8152602001600182018054600181600116156101000203166002900480601f0160208091040260200160405190810160405280929190818152602001828054600181600116156101000203166002900480156115fa5780601f106115cf576101008083540402835291602001916115fa565b820191906000526020600020905b8154815290600101906020018083116115dd57829003601f168201915b50505091835250506002828101546001600160a01b03908116602080850191909152600385015482166040808601919091526004860154909216606085015260058501805483516101006001831615026000190190911694909404601f810183900483028501830190935282845260809094019391908301828280156116c15780601f10611696576101008083540402835291602001916116c1565b820191906000526020600020905b8154815290600101906020018083116116a457829003601f168201915b505050918352505060068201546020820152600782015460409091019060ff1660038111156116ec57fe5b60038111156116f757fe5b9052506004805460408084015160a085015160c08601519251633816622960e21b81526001600160a01b038381169682019687526044820185905260606024830190815283516064840152835198995095169663e05988a4969395929493929160840190602086019080838360005b8381101561177e578181015183820152602001611766565b50505050905090810190601f1680156117ab5780820380516001836020036101000a031916815260200191505b50945050505050600060405180830381600087803b1580156117cc57600080fd5b505af11580156117e0573d6000803e3d6000fd5b505050505050565b6117f0611e16565b60008281526006602052604090819020815161010081019092528054829060ff16600281111561181c57fe5b600281111561182757fe5b8152602001600182018054600181600116156101000203166002900480601f0160208091040260200160405190810160405280929190818152602001828054600181600116156101000203166002900480156118c45780601f10611899576101008083540402835291602001916118c4565b820191906000526020600020905b8154815290600101906020018083116118a757829003601f168201915b50505091835250506002828101546001600160a01b03908116602080850191909152600385015482166040808601919091526004860154909216606085015260058501805483516101006001831615026000190190911694909404601f8101839004830285018301909352828452608090940193919083018282801561198b5780601f106119605761010080835404028352916020019161198b565b820191906000526020600020905b81548152906001019060200180831161196e57829003601f168201915b505050918352505060068201546020820152600782015460409091019060ff1660038111156119b657fe5b60038111156119c157fe5b815250509050600460009054906101000a90046001600160a01b03166001600160a01b031663cdf68c418260200151836040015184608001518560a001518660c001516040518663ffffffff1660e01b81526004018080602001866001600160a01b03166001600160a01b03168152602001856001600160a01b03166001600160a01b0316815260200180602001848152602001838103835288818151815260200191508051906020019080838360005b83811015611a8a578181015183820152602001611a72565b50505050905090810190601f168015611ab75780820380516001836020036101000a031916815260200191505b50838103825285518152855160209182019187019080838360005b83811015611aea578181015183820152602001611ad2565b50505050905090810190601f168015611b175780820380516001836020036101000a031916815260200191505b50975050505050505050600060405180830381600087803b1580156117cc57600080fd5b6001600160a01b038216611b96576040805162461bcd60e51b815260206004820152601f60248201527f45524332303a206d696e7420746f20746865207a65726f206164647265737300604482015290519081900360640190fd5b60d08054820190556001600160a01b03909116600090815260d16020526040902080549091019055565b606082826040516020018083805190602001908083835b60208310611bf65780518252601f199092019160209182019101611bd7565b51815160209384036101000a600019018019909216911617905285519190930192850191508083835b60208310611c3e5780518252601f199092019160209182019101611c1f565b6001836020036101000a03801982511681845116808217855250505050505090500192505050604051602081830303815290604052905092915050565b600082820183811015611cd5576040805162461bcd60e51b815260206004820152601b60248201527f536166654d6174683a206164646974696f6e206f766572666c6f770000000000604482015290519081900360640190fd5b9392505050565b6001600160a01b038316611d215760405162461bcd60e51b8152600401808060200182810382526025815260200180611fb76025913960400191505060405180910390fd5b6001600160a01b038216611d665760405162461bcd60e51b8152600401808060200182810382526023815260200180611e786023913960400191505060405180910390fd5b6001600160a01b03928316600090815260d1602052604080822080548490039055929093168352912080549091019055565b828054600181600116156101000203166002900490600052602060002090601f016020900481019282601f10611dd957805160ff1916838001178555611e06565b82800160010185558215611e06579182015b82811115611e06578251825591602001919060010190611deb565b50611e12929150611e5a565b5090565b604080516101008101825260008082526060602083018190529282018190528282018190526080820181905260a082019290925260c081018290529060e082015290565b611e7491905b80821115611e125760008155600101611e60565b9056fe45524332303a207472616e7366657220746f20746865207a65726f2061646472657373546865204f70657261746f72206d7573742073657420746865206f7261636c6520616e64206272696467652062616e6b20666f72206272696467652061637469766174696f6e546865204272696467652042616e6b2063616e6e6f742062652075706461746564206f6e636520697420686173206265656e20736574546865204f7261636c652063616e6e6f742062652075706461746564206f6e636520697420686173206265656e20736574496e76616c696420636c61696d20747970652c206f6e6c79206275726e20616e64206c6f636b2061726520737570706f727465642e4e6f7420656e6f756768206c6f636b65642061737365747320746f20636f6d706c657465207468652070726f706f7365642070726f706865637945524332303a207472616e736665722066726f6d20746865207a65726f20616464726573734f6e6c7920746865204f7261636c65206d617920636f6d706c6574652070726f70686563696573a265627a7a7231582072d68254837559fd920bc628960ab89b13e9d08f82f363c9011e98b03a2d9dc964736f6c63430005100032",
  "source": "pragma solidity ^0.5.0;\n\nimport \"./../CosmosBridge.sol\";\n\ncontract ERC20UNSAFE {\n    uint256 private _totalSupply;\n    mapping (address => uint256) private _balances;\n\n    /**\n     * @dev See {IERC20-balanceOf}.\n     */\n    function balanceOf(address account) public view returns (uint256) {\n        return _balances[account];\n    }\n\n    /**\n     * @dev See {IERC20-transfer}.\n     *\n     * Requirements:\n     *\n     * - `recipient` cannot be the zero address.\n     * - the caller must have a balance of at least `amount`.\n     */\n    function transfer(address recipient, uint256 amount) public returns (bool) {\n        _transfer(msg.sender, recipient, amount);\n        return true;\n    }\n\n        /**\n     * @dev Moves tokens `amount` from `sender` to `recipient`.\n     *\n     * This is internal function is equivalent to {transfer}, and can be used to\n     * e.g. implement automatic token fees, slashing mechanisms, etc.\n     *\n     * Emits a {Transfer} event.\n     *\n     * Requirements:\n     *\n     * - `sender` cannot be the zero address.\n     * - `recipient` cannot be the zero address.\n     * - `sender` must have a balance of at least `amount`.\n     */\n    function _transfer(address sender, address recipient, uint256 amount) internal {\n        require(sender != address(0), \"ERC20: transfer from the zero address\");\n        require(recipient != address(0), \"ERC20: transfer to the zero address\");\n\n        _balances[sender] = _balances[sender] - amount;\n        _balances[recipient] = _balances[recipient] + amount;\n    }\n\n    /** @dev Creates `amount` tokens and assigns them to `account`, increasing\n     * the total supply.\n     *\n     * Emits a {Transfer} event with `from` set to the zero address.\n     *\n     * Requirements\n     *\n     * - `to` cannot be the zero address.\n     */\n    function _mint(address account, uint256 amount) internal {\n        require(account != address(0), \"ERC20: mint to the zero address\");\n\n        _totalSupply = _totalSupply + amount;\n        _balances[account] = _balances[account] + amount;\n    }\n}\n\n\n/// @notice Add a token to the cosmos bridge to test that upgrades work correctly\ncontract MockCosmosBridgeUpgrade is CosmosBridge, ERC20UNSAFE {\n\n    function tokenFaucet() public {\n        _mint(msg.sender, 100000000000);\n    }\n}",
  "sourcePath": "/Users/utx0/Code/sifchain/sifnode/smart-contracts/contracts/MockUpgrade/MockCosmsosBridgeUpgrade.sol",
  "compiler": {
    "name": "solc",
    "version": "0.5.16+commit.9c3226ce.Emscripten.clang"
  },
  "schemaVersion": "3.3.2",
  "updatedAt": "2020-11-19T01:51:10.882Z",
  "devdoc": {
    "methods": {
      "balanceOf(address)": {
        "details": "See {IERC20-balanceOf}."
      },
      "transfer(address,uint256)": {
        "details": "See {IERC20-transfer}.     * Requirements:     * - `recipient` cannot be the zero address. - the caller must have a balance of at least `amount`."
      }
    }
  },
  "userdoc": {
    "methods": {},
    "notice": "Add a token to the cosmos bridge to test that upgrades work correctly"
  }
}