{
  "contractName": "OracleStorage",
  "abi": [
    {
      "constant": true,
      "inputs": [],
      "name": "consensusThreshold",
      "outputs": [
        {
          "internalType": "uint256",
          "name": "",
          "type": "uint256"
        }
      ],
      "payable": false,
      "stateMutability": "view",
      "type": "function"
    },
    {
      "constant": true,
      "inputs": [],
      "name": "cosmosBridge",
      "outputs": [
        {
          "internalType": "address",
          "name": "",
          "type": "address"
        }
      ],
      "payable": false,
      "stateMutability": "view",
      "type": "function"
    },
    {
      "constant": true,
      "inputs": [
        {
          "internalType": "uint256",
          "name": "",
          "type": "uint256"
        },
        {
          "internalType": "address",
          "name": "",
          "type": "address"
        }
      ],
      "name": "hasMadeClaim",
      "outputs": [
        {
          "internalType": "bool",
          "name": "",
          "type": "bool"
        }
      ],
      "payable": false,
      "stateMutability": "view",
      "type": "function"
    },
    {
      "constant": true,
      "inputs": [],
      "name": "operator",
      "outputs": [
        {
          "internalType": "address",
          "name": "",
          "type": "address"
        }
      ],
      "payable": false,
      "stateMutability": "view",
      "type": "function"
    },
    {
      "constant": true,
      "inputs": [
        {
          "internalType": "uint256",
          "name": "",
          "type": "uint256"
        },
        {
          "internalType": "uint256",
          "name": "",
          "type": "uint256"
        }
      ],
      "name": "oracleClaimValidators",
      "outputs": [
        {
          "internalType": "address",
          "name": "",
          "type": "address"
        }
      ],
      "payable": false,
      "stateMutability": "view",
      "type": "function"
    },
    {
      "constant": true,
      "inputs": [],
      "name": "valset",
      "outputs": [
        {
          "internalType": "address",
          "name": "",
          "type": "address"
        }
      ],
      "payable": false,
      "stateMutability": "view",
      "type": "function"
    }
  ],
  "bytecode": "0x608060405234801561001057600080fd5b506101d5806100206000396000f3fe608060405234801561001057600080fd5b50600436106100625760003560e01c806336e4134114610067578063570ca735146100a65780637f54af0c146100ae578063a219763e146100b6578063b0e9ef71146100f6578063f9b0b5b9146100fe575b600080fd5b61008a6004803603604081101561007d57600080fd5b5080359060200135610118565b604080516001600160a01b039092168252519081900360200190f35b61008a61014d565b61008a61015c565b6100e2600480360360408110156100cc57600080fd5b50803590602001356001600160a01b031661016b565b604080519115158252519081900360200190f35b61008a61018b565b61010661019a565b60408051918252519081900360200190f35b6004602052816000526040600020818154811061013157fe5b6000918252602090912001546001600160a01b03169150829050565b6002546001600160a01b031681565b6001546001600160a01b031681565b600560209081526000928352604080842090915290825290205460ff1681565b6000546001600160a01b031681565b6003548156fea265627a7a72315820a49925b647111fa96ae89d4fb6531eb3806c798f6e4eaea54c69fba4ee506fbb64736f6c63430005100032",
  "source": "pragma solidity ^0.5.0;\n\ncontract OracleStorage {\n    /*\n     * @dev: Public variable declarations\n     */\n    address public cosmosBridge;\n\n    /**\n    * @notice Tracks the number of OracleClaims made on an individual BridgeClaim\n    */\n    address public valset;\n\n    /**\n    * @notice Tracks the number of OracleClaims made on an individual BridgeClaim\n    */\n    address public operator;\n\n    /**\n    * @notice Tracks the number of OracleClaims made on an individual BridgeClaim\n    */\n    uint256 public consensusThreshold; // e.g. 75 = 75%\n\n    /**\n    * @notice Tracks the number of OracleClaims made on an individual BridgeClaim\n    */\n    mapping(uint256 => address[]) public oracleClaimValidators;\n\n    /**\n    * @notice mapping of prophecyid to validator address to boolean\n    */\n    mapping(uint256 => mapping(address => bool)) public hasMadeClaim;\n\n    /**\n    * @notice gap of storage for future upgrades\n    */\n    uint256[100] private ____gap;\n}",
  "sourcePath": "/Users/utx0/Code/sifchain/sifnode/smart-contracts/contracts/OracleStorage.sol",
  "compiler": {
    "name": "solc",
    "version": "0.5.16+commit.9c3226ce.Emscripten.clang"
  },
  "schemaVersion": "3.3.2",
  "updatedAt": "2020-11-19T01:51:10.894Z",
  "devdoc": {
    "methods": {}
  },
  "userdoc": {
    "methods": {}
  }
}