{
  "contractName": "Oracle",
  "abi": [
    {
      "anonymous": false,
      "inputs": [
        {
          "indexed": false,
          "internalType": "uint256",
          "name": "_prophecyID",
          "type": "uint256"
        },
        {
          "indexed": false,
          "internalType": "bytes32",
          "name": "_message",
          "type": "bytes32"
        },
        {
          "indexed": false,
          "internalType": "address",
          "name": "_validatorAddress",
          "type": "address"
        },
        {
          "indexed": false,
          "internalType": "bytes",
          "name": "_signature",
          "type": "bytes"
        }
      ],
      "name": "LogNewOracleClaim",
      "type": "event"
    },
    {
      "anonymous": false,
      "inputs": [
        {
          "indexed": false,
          "internalType": "uint256",
          "name": "_prophecyID",
          "type": "uint256"
        },
        {
          "indexed": false,
          "internalType": "uint256",
          "name": "_prophecyPowerCurrent",
          "type": "uint256"
        },
        {
          "indexed": false,
          "internalType": "uint256",
          "name": "_prophecyPowerThreshold",
          "type": "uint256"
        },
        {
          "indexed": false,
          "internalType": "address",
          "name": "_submitter",
          "type": "address"
        }
      ],
      "name": "LogProphecyProcessed",
      "type": "event"
    },
    {
      "constant": true,
      "inputs": [],
      "name": "consensusThreshold",
      "outputs": [
        {
          "internalType": "uint256",
          "name": "",
          "type": "uint256"
        }
      ],
      "payable": false,
      "stateMutability": "view",
      "type": "function"
    },
    {
      "constant": true,
      "inputs": [],
      "name": "cosmosBridge",
      "outputs": [
        {
          "internalType": "address",
          "name": "",
          "type": "address"
        }
      ],
      "payable": false,
      "stateMutability": "view",
      "type": "function"
    },
    {
      "constant": true,
      "inputs": [
        {
          "internalType": "uint256",
          "name": "",
          "type": "uint256"
        },
        {
          "internalType": "address",
          "name": "",
          "type": "address"
        }
      ],
      "name": "hasMadeClaim",
      "outputs": [
        {
          "internalType": "bool",
          "name": "",
          "type": "bool"
        }
      ],
      "payable": false,
      "stateMutability": "view",
      "type": "function"
    },
    {
      "constant": true,
      "inputs": [],
      "name": "operator",
      "outputs": [
        {
          "internalType": "address",
          "name": "",
          "type": "address"
        }
      ],
      "payable": false,
      "stateMutability": "view",
      "type": "function"
    },
    {
      "constant": true,
      "inputs": [
        {
          "internalType": "uint256",
          "name": "",
          "type": "uint256"
        },
        {
          "internalType": "uint256",
          "name": "",
          "type": "uint256"
        }
      ],
      "name": "oracleClaimValidators",
      "outputs": [
        {
          "internalType": "address",
          "name": "",
          "type": "address"
        }
      ],
      "payable": false,
      "stateMutability": "view",
      "type": "function"
    },
    {
      "constant": true,
      "inputs": [],
      "name": "valset",
      "outputs": [
        {
          "internalType": "address",
          "name": "",
          "type": "address"
        }
      ],
      "payable": false,
      "stateMutability": "view",
      "type": "function"
    },
    {
      "constant": false,
      "inputs": [
        {
          "internalType": "address",
          "name": "_operator",
          "type": "address"
        },
        {
          "internalType": "address",
          "name": "_valset",
          "type": "address"
        },
        {
          "internalType": "address",
          "name": "_cosmosBridge",
          "type": "address"
        },
        {
          "internalType": "uint256",
          "name": "_consensusThreshold",
          "type": "uint256"
        }
      ],
      "name": "initialize",
      "outputs": [],
      "payable": false,
      "stateMutability": "nonpayable",
      "type": "function"
    },
    {
      "constant": false,
      "inputs": [
        {
          "internalType": "uint256",
          "name": "_prophecyID",
          "type": "uint256"
        },
        {
          "internalType": "bytes32",
          "name": "_message",
          "type": "bytes32"
        },
        {
          "internalType": "bytes",
          "name": "_signature",
          "type": "bytes"
        }
      ],
      "name": "newOracleClaim",
      "outputs": [],
      "payable": false,
      "stateMutability": "nonpayable",
      "type": "function"
    },
    {
      "constant": false,
      "inputs": [
        {
          "internalType": "uint256",
          "name": "_prophecyID",
          "type": "uint256"
        }
      ],
      "name": "processBridgeProphecy",
      "outputs": [],
      "payable": false,
      "stateMutability": "nonpayable",
      "type": "function"
    },
    {
      "constant": true,
      "inputs": [
        {
          "internalType": "uint256",
          "name": "_prophecyID",
          "type": "uint256"
        }
      ],
      "name": "checkBridgeProphecy",
      "outputs": [
        {
          "internalType": "bool",
          "name": "",
          "type": "bool"
        },
        {
          "internalType": "uint256",
          "name": "",
          "type": "uint256"
        },
        {
          "internalType": "uint256",
          "name": "",
          "type": "uint256"
        }
      ],
      "payable": false,
      "stateMutability": "view",
      "type": "function"
    }
  ],
  "bytecode": "0x608060405234801561001057600080fd5b50611071806100206000396000f3fe608060405234801561001057600080fd5b506004361061009e5760003560e01c8063a219763e11610066578063a219763e146101c3578063b0e9ef7114610203578063cf756fdf1461020b578063e33a8b2a14610247578063f9b0b5b9146102845761009e565b806336e41341146100a3578063568b3c4f146100e2578063570ca735146101965780637f54af0c1461019e57806389ed70b7146101a6575b600080fd5b6100c6600480360360408110156100b957600080fd5b508035906020013561029e565b604080516001600160a01b039092168252519081900360200190f35b610194600480360360608110156100f857600080fd5b81359160208101359181019060608101604082013564010000000081111561011f57600080fd5b82018360208201111561013157600080fd5b8035906020019184600183028401116401000000008311171561015357600080fd5b91908080601f0160208091040260200160405190810160405280939291908181526020018383808284376000920191909152509295506102d3945050505050565b005b6100c6610775565b6100c6610784565b610194600480360360208110156101bc57600080fd5b5035610793565b6101ef600480360360408110156101d957600080fd5b50803590602001356001600160a01b03166108f0565b604080519115158252519081900360200190f35b6100c6610910565b6101946004803603608081101561022157600080fd5b506001600160a01b0381358116916020810135821691604082013516906060013561091f565b6102646004803603602081101561025d57600080fd5b50356109f8565b604080519315158452602084019290925282820152519081900360600190f35b61028c610bf2565b60408051918252519081900360200190f35b600460205281600052604060002081815481106102b757fe5b6000918252602090912001546001600160a01b03169150829050565b60015460408051631015428760e21b815233600482015290516001600160a01b03909216916340550a1c91602480820192602092909190829003018186803b15801561031e57600080fd5b505afa158015610332573d6000803e3d6000fd5b505050506040513d602081101561034857600080fd5b505161039b576040805162461bcd60e51b815260206004820152601b60248201527f4d75737420626520616e206163746976652076616c696461746f720000000000604482015290519081900360640190fd5b60005460408051636c6d34f560e11b815260048101869052905185926001600160a01b03169163d8da69ea916024808301926020929190829003018186803b1580156103e657600080fd5b505afa1580156103fa573d6000803e3d6000fd5b505050506040513d602081101561041057600080fd5b505115156001146104525760405162461bcd60e51b815260040180806020018281038252602f815260200180610f8e602f913960400191505060405180910390fd5b600154604080516319045a2560e01b8152600481018681526024820192835285516044830152855133946001600160a01b0316936319045a25938993899390929160640190602085019080838360005b838110156104ba5781810151838201526020016104a2565b50505050905090810190601f1680156104e75780820380516001836020036101000a031916815260200191505b50935050505060206040518083038186803b15801561050557600080fd5b505afa158015610519573d6000803e3d6000fd5b505050506040513d602081101561052f57600080fd5b50516001600160a01b03828116911614610590576040805162461bcd60e51b815260206004820152601a60248201527f496e76616c6964206d657373616765207369676e61747572652e000000000000604482015290519081900360640190fd5b60008581526005602090815260408083206001600160a01b038516845290915290205460ff16156105f25760405162461bcd60e51b815260040180806020018281038252603a815260200180610fe2603a913960400191505060405180910390fd5b60008581526005602090815260408083206001600160a01b038516808552908352818420805460ff19166001908117909155898552600484528285208054918201815585528385200180546001600160a01b0319168217905581518981528084018990529182015260806060820181815287519183019190915286517f50e466de4726c2437aa7498d554322f5599f31f0f69f9ce036ad96db77590491948a948a9488948b949193909260a0850192908601918190849084905b838110156106c45781810151838201526020016106ac565b50505050905090810190601f1680156106f15780820380516001836020036101000a031916815260200191505b509550505050505060405180910390a1600080600061070f88610bf8565b925092509250821561076b5761072488610e26565b604080518981526020810184905280820183905233606082015290517f1d8e3fbd601d9d92db7022fb97f75e132841b94db732dcecb0c93cb31852fcbc9181900360800190a15b5050505050505050565b6002546001600160a01b031681565b6001546001600160a01b031681565b60005460408051636c6d34f560e11b815260048101849052905183926001600160a01b03169163d8da69ea916024808301926020929190829003018186803b1580156107de57600080fd5b505afa1580156107f2573d6000803e3d6000fd5b505050506040513d602081101561080857600080fd5b5051151560011461084a5760405162461bcd60e51b815260040180806020018281038252602f815260200180610f8e602f913960400191505060405180910390fd5b600080600061085885610bf8565b9250925092508261089a5760405162461bcd60e51b8152600401808060200182810382526048815260200180610f466048913960600191505060405180910390fd5b6108a385610e26565b604080518681526020810184905280820183905233606082015290517f1d8e3fbd601d9d92db7022fb97f75e132841b94db732dcecb0c93cb31852fcbc9181900360800190a15050505050565b600560209081526000928352604080842090915290825290205460ff1681565b6000546001600160a01b031681565b606a5460ff1615610965576040805162461bcd60e51b815260206004820152600b60248201526a125b9a5d1a585b1a5e995960aa1b604482015290519081900360640190fd5b600081116109a45760405162461bcd60e51b8152600401808060200182810382526025815260200180610fbd6025913960400191505060405180910390fd5b600280546001600160a01b039586166001600160a01b0319918216179091556000805493861693821693909317909255600180549390941692909116919091178255600355606a805460ff19169091179055565b600254600090819081906001600160a01b03163314610a56576040805162461bcd60e51b815260206004820152601560248201527426bab9ba103132903a34329037b832b930ba37b91760591b604482015290519081900360640190fd5b60005460408051636c6d34f560e11b815260048101879052905186926001600160a01b03169163d8da69ea916024808301926020929190829003018186803b158015610aa157600080fd5b505afa158015610ab5573d6000803e3d6000fd5b505050506040513d6020811015610acb57600080fd5b50511515600114610b0d5760405162461bcd60e51b815260040180806020018281038252602f815260200180610f8e602f913960400191505060405180910390fd5b60005460408051636c6d34f560e11b81526004810188905290516001600160a01b039092169163d8da69ea91602480820192602092909190829003018186803b158015610b5957600080fd5b505afa158015610b6d573d6000803e3d6000fd5b505050506040513d6020811015610b8357600080fd5b50511515600114610bdb576040805162461bcd60e51b815260206004820181905260248201527f43616e206f6e6c7920636865636b206163746976652070726f70686563696573604482015290519081900360640190fd5b610be485610bf8565b935093509350509193909250565b60035481565b600080600080600090506000600160009054906101000a90046001600160a01b03166001600160a01b031663db3ad22c6040518163ffffffff1660e01b815260040160206040518083038186803b158015610c5257600080fd5b505afa158015610c66573d6000803e3d6000fd5b505050506040513d6020811015610c7c57600080fd5b5051905060005b600087815260046020526040902054811015610de5576000878152600460205260408120805483908110610cb357fe5b6000918252602091829020015460015460408051631015428760e21b81526001600160a01b0393841660048201819052915191955091909216926340550a1c92602480840193829003018186803b158015610d0d57600080fd5b505afa158015610d21573d6000803e3d6000fd5b505050506040513d6020811015610d3757600080fd5b505115610dcc57600154604080516311cda46960e21b81526001600160a01b0384811660048301529151610dc993929092169163473691a491602480820192602092909190829003018186803b158015610d9057600080fd5b505afa158015610da4573d6000803e3d6000fd5b505050506040513d6020811015610dba57600080fd5b5051859063ffffffff610e8916565b93505b50610dde81600163ffffffff610e8916565b9050610c83565b506000610dfd60035483610eec90919063ffffffff16565b90506000610e1284606463ffffffff610eec16565b828110159990985091965090945050505050565b6000805460408051631acf3a6360e21b81526004810185905290516001600160a01b0390921692636b3ce98c9260248084019382900301818387803b158015610e6e57600080fd5b505af1158015610e82573d6000803e3d6000fd5b5050505050565b600082820183811015610ee3576040805162461bcd60e51b815260206004820152601b60248201527f536166654d6174683a206164646974696f6e206f766572666c6f770000000000604482015290519081900360640190fd5b90505b92915050565b600082610efb57506000610ee6565b82820282848281610f0857fe5b0414610ee35760405162461bcd60e51b815260040180806020018281038252602181526020018061101c6021913960400191505060405180910390fdfe5468652063756d756c617469766520706f776572206f66207369676e61746f72792076616c696461746f727320646f6573206e6f74206d65657420746865207468726573686f6c645468652070726f7068656379206d7573742062652070656e64696e6720666f722074686973206f7065726174696f6e436f6e73656e737573207468726573686f6c64206d75737420626520706f7369746976652e43616e6e6f74206d616b65206475706c6963617465206f7261636c6520636c61696d732066726f6d207468652073616d6520616464726573732e536166654d6174683a206d756c7469706c69636174696f6e206f766572666c6f77a265627a7a72315820e5d429dcf87aa2b21ea742ed74f1ecf68d36449323db1f548329abb41d1e494364736f6c63430005100032",
  "source": "pragma solidity ^0.5.0;\n\nimport \"../node_modules/openzeppelin-solidity/contracts/math/SafeMath.sol\";\nimport \"./Valset.sol\";\nimport \"./CosmosBridge.sol\";\nimport \"./OracleStorage.sol\";\n\n\ncontract Oracle is OracleStorage {\n    using SafeMath for uint256;\n\n    bool private _initialized;\n\n    /*\n     * @dev: Event declarations\n     */\n    event LogNewOracleClaim(\n        uint256 _prophecyID,\n        bytes32 _message,\n        address _validatorAddress,\n        bytes _signature\n    );\n\n    event LogProphecyProcessed(\n        uint256 _prophecyID,\n        uint256 _prophecyPowerCurrent,\n        uint256 _prophecyPowerThreshold,\n        address _submitter\n    );\n\n    /*\n     * @dev: Modifier to restrict access to the operator.\n     */\n    modifier onlyOperator() {\n        require(msg.sender == operator, \"Must be the operator.\");\n        _;\n    }\n\n    /*\n     * @dev: Modifier to restrict access to current ValSet validators\n     */\n    modifier onlyValidator() {\n        require(\n            Valset(valset).isActiveValidator(msg.sender),\n            \"Must be an active validator\"\n        );\n        _;\n    }\n\n    /*\n     * @dev: Modifier to restrict access to current ValSet validators\n     */\n    modifier isPending(uint256 _prophecyID) {\n        require(\n            CosmosBridge(cosmosBridge).isProphecyClaimActive(_prophecyID) == true,\n            \"The prophecy must be pending for this operation\"\n        );\n        _;\n    }\n\n    /*\n     * @dev: Initialize Function\n     */\n    function initialize(\n        address _operator,\n        address _valset,\n        address _cosmosBridge,\n        uint256 _consensusThreshold\n    ) public {\n        require(!_initialized, \"Initialized\");\n        require(\n            _consensusThreshold > 0,\n            \"Consensus threshold must be positive.\"\n        );\n        operator = _operator;\n        cosmosBridge = _cosmosBridge;\n        valset = _valset;\n        consensusThreshold = _consensusThreshold;\n        _initialized = true;\n    }\n\n    /*\n     * @dev: newOracleClaim\n     *       Allows validators to make new OracleClaims on an existing Prophecy\n     */\n    function newOracleClaim(\n        uint256 _prophecyID,\n        bytes32 _message,\n        bytes memory _signature\n    ) public onlyValidator isPending(_prophecyID) {\n        address validatorAddress = msg.sender;\n\n        // Validate the msg.sender's signature\n        require(\n            validatorAddress == Valset(valset).recover(_message, _signature),\n            \"Invalid message signature.\"\n        );\n\n        // Confirm that this address has not already made an oracle claim on this prophecy\n        require(\n            !hasMadeClaim[_prophecyID][validatorAddress],\n            \"Cannot make duplicate oracle claims from the same address.\"\n        );\n\n        hasMadeClaim[_prophecyID][validatorAddress] = true;\n        oracleClaimValidators[_prophecyID].push(validatorAddress);\n\n        emit LogNewOracleClaim(\n            _prophecyID,\n            _message,\n            validatorAddress,\n            _signature\n        );\n\n        // Process the prophecy\n        (\n            bool valid,\n            uint256 prophecyPowerCurrent,\n            uint256 prophecyPowerThreshold\n        ) = getProphecyThreshold(_prophecyID);\n\n        if (valid) {\n            completeProphecy(_prophecyID);\n\n            emit LogProphecyProcessed(\n                _prophecyID,\n                prophecyPowerCurrent,\n                prophecyPowerThreshold,\n                msg.sender\n            );\n        }\n    }\n\n    /*\n     * @dev: processBridgeProphecy\n     *       Pubically available method which attempts to process a bridge prophecy\n     */\n    function processBridgeProphecy(uint256 _prophecyID)\n        public\n        isPending(_prophecyID)\n    {\n        // Process the prophecy\n        (\n            bool valid,\n            uint256 prophecyPowerCurrent,\n            uint256 prophecyPowerThreshold\n        ) = getProphecyThreshold(_prophecyID);\n\n        require(\n            valid,\n            \"The cumulative power of signatory validators does not meet the threshold\"\n        );\n\n        // Update the BridgeClaim's status\n        completeProphecy(_prophecyID);\n\n        emit LogProphecyProcessed(\n            _prophecyID,\n            prophecyPowerCurrent,\n            prophecyPowerThreshold,\n            msg.sender\n        );\n    }\n\n    /*\n     * @dev: checkBridgeProphecy\n     *       Operator accessor method which checks if a prophecy has passed\n     *       the validity threshold, without actually completing the prophecy.\n     */\n    function checkBridgeProphecy(uint256 _prophecyID)\n        public\n        view\n        onlyOperator\n        isPending(_prophecyID)\n        returns (bool, uint256, uint256)\n    {\n        require(\n            CosmosBridge(cosmosBridge).isProphecyClaimActive(_prophecyID) == true,\n            \"Can only check active prophecies\"\n        );\n        return getProphecyThreshold(_prophecyID);\n    }\n\n    /*\n     * @dev: processProphecy\n     *       Calculates the status of a prophecy. The claim is considered valid if the\n     *       combined active signatory validator powers pass the consensus threshold.\n     *       The threshold is x% of Total power, where x is the consensusThreshold param.\n     */\n    function getProphecyThreshold(uint256 _prophecyID)\n        internal\n        view\n        returns (bool, uint256, uint256)\n    {\n        uint256 signedPower = 0;\n        uint256 totalPower = Valset(valset).totalPower();\n\n        // Iterate over the signatory addresses\n        for (\n            uint256 i = 0;\n            i < oracleClaimValidators[_prophecyID].length;\n            i = i.add(1)\n        ) {\n            address signer = oracleClaimValidators[_prophecyID][i];\n\n            // Only add the power of active validators\n            if (Valset(valset).isActiveValidator(signer)) {\n                signedPower = signedPower.add(Valset(valset).getValidatorPower(signer));\n            }\n        }\n\n        // Prophecy must reach total signed power % threshold in order to pass consensus\n        uint256 prophecyPowerThreshold = totalPower.mul(consensusThreshold);\n        // consensusThreshold is a decimal multiplied by 100, so signedPower must also be multiplied by 100\n        uint256 prophecyPowerCurrent = signedPower.mul(100);\n        bool hasReachedThreshold = prophecyPowerCurrent >=\n            prophecyPowerThreshold;\n\n        return (\n            hasReachedThreshold,\n            prophecyPowerCurrent,\n            prophecyPowerThreshold\n        );\n    }\n\n    /*\n     * @dev: completeProphecy\n     *       Completes a prophecy by completing the corresponding BridgeClaim\n     *       on the CosmosBridge.\n     */\n    function completeProphecy(uint256 _prophecyID) internal {\n        CosmosBridge(cosmosBridge).completeProphecyClaim(_prophecyID);\n    }\n}\n",
  "sourcePath": "/Users/utx0/Code/sifchain/sifnode/smart-contracts/contracts/Oracle.sol",
  "compiler": {
    "name": "solc",
    "version": "0.5.16+commit.9c3226ce.Emscripten.clang"
  },
  "schemaVersion": "3.3.2",
  "updatedAt": "2020-11-19T02:14:42.781Z",
  "networkType": "ethereum",
  "devdoc": {
    "methods": {}
  },
  "userdoc": {
    "methods": {}
  }
}