{
  "contractName": "Oracle",
  "abi": [
    {
      "anonymous": false,
      "inputs": [
        {
          "indexed": false,
          "internalType": "uint256",
          "name": "_prophecyID",
          "type": "uint256"
        },
        {
          "indexed": false,
          "internalType": "address",
          "name": "_validatorAddress",
          "type": "address"
        }
      ],
      "name": "LogNewOracleClaim",
      "type": "event"
    },
    {
      "anonymous": false,
      "inputs": [
        {
          "indexed": false,
          "internalType": "uint256",
          "name": "_prophecyID",
          "type": "uint256"
        },
        {
          "indexed": false,
          "internalType": "uint256",
          "name": "_prophecyPowerCurrent",
          "type": "uint256"
        },
        {
          "indexed": false,
          "internalType": "uint256",
          "name": "_prophecyPowerThreshold",
          "type": "uint256"
        },
        {
          "indexed": false,
          "internalType": "address",
          "name": "_submitter",
          "type": "address"
        }
      ],
      "name": "LogProphecyProcessed",
      "type": "event"
    },
    {
      "constant": true,
      "inputs": [],
      "name": "consensusThreshold",
      "outputs": [
        {
          "internalType": "uint256",
          "name": "",
          "type": "uint256"
        }
      ],
      "payable": false,
      "stateMutability": "view",
      "type": "function"
    },
    {
      "constant": true,
      "inputs": [],
      "name": "cosmosBridge",
      "outputs": [
        {
          "internalType": "address",
          "name": "",
          "type": "address"
        }
      ],
      "payable": false,
      "stateMutability": "view",
      "type": "function"
    },
    {
      "constant": true,
      "inputs": [
        {
          "internalType": "uint256",
          "name": "",
          "type": "uint256"
        },
        {
          "internalType": "address",
          "name": "",
          "type": "address"
        }
      ],
      "name": "hasMadeClaim",
      "outputs": [
        {
          "internalType": "bool",
          "name": "",
          "type": "bool"
        }
      ],
      "payable": false,
      "stateMutability": "view",
      "type": "function"
    },
    {
      "constant": true,
      "inputs": [],
      "name": "operator",
      "outputs": [
        {
          "internalType": "address",
          "name": "",
          "type": "address"
        }
      ],
      "payable": false,
      "stateMutability": "view",
      "type": "function"
    },
    {
      "constant": true,
      "inputs": [
        {
          "internalType": "uint256",
          "name": "",
          "type": "uint256"
        },
        {
          "internalType": "uint256",
          "name": "",
          "type": "uint256"
        }
      ],
      "name": "oracleClaimValidators",
      "outputs": [
        {
          "internalType": "address",
          "name": "",
          "type": "address"
        }
      ],
      "payable": false,
      "stateMutability": "view",
      "type": "function"
    },
    {
      "constant": true,
      "inputs": [],
      "name": "valset",
      "outputs": [
        {
          "internalType": "address",
          "name": "",
          "type": "address"
        }
      ],
      "payable": false,
      "stateMutability": "view",
      "type": "function"
    },
    {
      "constant": false,
      "inputs": [
        {
          "internalType": "address",
          "name": "_operator",
          "type": "address"
        },
        {
          "internalType": "address",
          "name": "_valset",
          "type": "address"
        },
        {
          "internalType": "address",
          "name": "_cosmosBridge",
          "type": "address"
        },
        {
          "internalType": "uint256",
          "name": "_consensusThreshold",
          "type": "uint256"
        }
      ],
      "name": "initialize",
      "outputs": [],
      "payable": false,
      "stateMutability": "nonpayable",
      "type": "function"
    },
    {
      "constant": false,
      "inputs": [
        {
          "internalType": "uint256",
          "name": "_prophecyID",
          "type": "uint256"
        },
        {
          "internalType": "address",
          "name": "validatorAddress",
          "type": "address"
        }
      ],
      "name": "newOracleClaim",
      "outputs": [
        {
          "internalType": "bool",
          "name": "",
          "type": "bool"
        }
      ],
      "payable": false,
      "stateMutability": "nonpayable",
      "type": "function"
    },
    {
      "constant": true,
      "inputs": [
        {
          "internalType": "uint256",
          "name": "_prophecyID",
          "type": "uint256"
        }
      ],
      "name": "checkBridgeProphecy",
      "outputs": [
        {
          "internalType": "bool",
          "name": "",
          "type": "bool"
        },
        {
          "internalType": "uint256",
          "name": "",
          "type": "uint256"
        },
        {
          "internalType": "uint256",
          "name": "",
          "type": "uint256"
        }
      ],
      "payable": false,
      "stateMutability": "view",
      "type": "function"
    }
  ],
  "bytecode": "0x608060405234801561001057600080fd5b50610c04806100206000396000f3fe608060405234801561001057600080fd5b50600436106100935760003560e01c8063b0e9ef7111610066578063b0e9ef7114610127578063cf756fdf1461012f578063d1d2841a1461016d578063e33a8b2a14610199578063f9b0b5b9146101d657610093565b806336e4134114610098578063570ca735146100d75780637f54af0c146100df578063a219763e146100e7575b600080fd5b6100bb600480360360408110156100ae57600080fd5b50803590602001356101f0565b604080516001600160a01b039092168252519081900360200190f35b6100bb610225565b6100bb610234565b610113600480360360408110156100fd57600080fd5b50803590602001356001600160a01b0316610243565b604080519115158252519081900360200190f35b6100bb610263565b61016b6004803603608081101561014557600080fd5b506001600160a01b03813581169160208101358216916040820135169060600135610272565b005b6101136004803603604081101561018357600080fd5b50803590602001356001600160a01b031661034b565b6101b6600480360360208110156101af57600080fd5b5035610636565b604080519315158452602084019290925282820152519081900360600190f35b6101de610830565b60408051918252519081900360200190f35b6004602052816000526040600020818154811061020957fe5b6000918252602090912001546001600160a01b03169150829050565b6002546001600160a01b031681565b6001546001600160a01b031681565b600560209081526000928352604080842090915290825290205460ff1681565b6000546001600160a01b031681565b606a5460ff16156102b8576040805162461bcd60e51b815260206004820152600b60248201526a125b9a5d1a585b1a5e995960aa1b604482015290519081900360640190fd5b600081116102f75760405162461bcd60e51b8152600401808060200182810382526025815260200180610b506025913960400191505060405180910390fd5b600280546001600160a01b039586166001600160a01b0319918216179091556000805493861693821693909317909255600180549390941692909116919091178255600355606a805460ff19169091179055565b600080546001600160a01b031633146103a3576040805162461bcd60e51b81526020600482015260156024820152744d75737420626520436f736d6f732042726964676560581b604482015290519081900360640190fd5b60015460408051631015428760e21b81526001600160a01b0380861660048301529151859392909216916340550a1c91602480820192602092909190829003018186803b1580156103f357600080fd5b505afa158015610407573d6000803e3d6000fd5b505050506040513d602081101561041d57600080fd5b5051610470576040805162461bcd60e51b815260206004820152601b60248201527f4d75737420626520616e206163746976652076616c696461746f720000000000604482015290519081900360640190fd5b60005460408051636c6d34f560e11b815260048101879052905186926001600160a01b03169163d8da69ea916024808301926020929190829003018186803b1580156104bb57600080fd5b505afa1580156104cf573d6000803e3d6000fd5b505050506040513d60208110156104e557600080fd5b505115156001146105275760405162461bcd60e51b815260040180806020018281038252602f815260200180610b21602f913960400191505060405180910390fd5b60008581526005602090815260408083206001600160a01b038816845290915290205460ff16156105895760405162461bcd60e51b815260040180806020018281038252603a815260200180610b75603a913960400191505060405180910390fd5b60008581526005602090815260408083206001600160a01b038816808552908352818420805460ff19166001908117909155898552600484528285208054918201815585529383902090930180546001600160a01b0319168417905580518881529182019290925281517f668fce9833323940537a9000d512a6c580a1c0797d2b526db0078ee9c5a087a9929181900390910190a1600061062986610836565b5090979650505050505050565b600254600090819081906001600160a01b03163314610694576040805162461bcd60e51b815260206004820152601560248201527426bab9ba103132903a34329037b832b930ba37b91760591b604482015290519081900360640190fd5b60005460408051636c6d34f560e11b815260048101879052905186926001600160a01b03169163d8da69ea916024808301926020929190829003018186803b1580156106df57600080fd5b505afa1580156106f3573d6000803e3d6000fd5b505050506040513d602081101561070957600080fd5b5051151560011461074b5760405162461bcd60e51b815260040180806020018281038252602f815260200180610b21602f913960400191505060405180910390fd5b60005460408051636c6d34f560e11b81526004810188905290516001600160a01b039092169163d8da69ea91602480820192602092909190829003018186803b15801561079757600080fd5b505afa1580156107ab573d6000803e3d6000fd5b505050506040513d60208110156107c157600080fd5b50511515600114610819576040805162461bcd60e51b815260206004820181905260248201527f43616e206f6e6c7920636865636b206163746976652070726f70686563696573604482015290519081900360640190fd5b61082285610836565b935093509350509193909250565b60035481565b600080600080600090506000600160009054906101000a90046001600160a01b03166001600160a01b031663db3ad22c6040518163ffffffff1660e01b815260040160206040518083038186803b15801561089057600080fd5b505afa1580156108a4573d6000803e3d6000fd5b505050506040513d60208110156108ba57600080fd5b5051905060005b600087815260046020526040902054811015610a235760008781526004602052604081208054839081106108f157fe5b6000918252602091829020015460015460408051631015428760e21b81526001600160a01b0393841660048201819052915191955091909216926340550a1c92602480840193829003018186803b15801561094b57600080fd5b505afa15801561095f573d6000803e3d6000fd5b505050506040513d602081101561097557600080fd5b505115610a0a57600154604080516311cda46960e21b81526001600160a01b0384811660048301529151610a0793929092169163473691a491602480820192602092909190829003018186803b1580156109ce57600080fd5b505afa1580156109e2573d6000803e3d6000fd5b505050506040513d60208110156109f857600080fd5b5051859063ffffffff610a6416565b93505b50610a1c81600163ffffffff610a6416565b90506108c1565b506000610a3b60035483610ac790919063ffffffff16565b90506000610a5084606463ffffffff610ac716565b828110159990985091965090945050505050565b600082820183811015610abe576040805162461bcd60e51b815260206004820152601b60248201527f536166654d6174683a206164646974696f6e206f766572666c6f770000000000604482015290519081900360640190fd5b90505b92915050565b600082610ad657506000610ac1565b82820282848281610ae357fe5b0414610abe5760405162461bcd60e51b8152600401808060200182810382526021815260200180610baf6021913960400191505060405180910390fdfe5468652070726f7068656379206d7573742062652070656e64696e6720666f722074686973206f7065726174696f6e436f6e73656e737573207468726573686f6c64206d75737420626520706f7369746976652e43616e6e6f74206d616b65206475706c6963617465206f7261636c6520636c61696d732066726f6d207468652073616d6520616464726573732e536166654d6174683a206d756c7469706c69636174696f6e206f766572666c6f77a265627a7a723158209a5fab6210135e262d27f829da611aae3eb70f747764981919cb3107e105e8fc64736f6c63430005100032",
  "source": "pragma solidity ^0.5.0;\n\nimport \"../node_modules/openzeppelin-solidity/contracts/math/SafeMath.sol\";\nimport \"./Valset.sol\";\nimport \"./CosmosBridge.sol\";\nimport \"./OracleStorage.sol\";\n\n\ncontract Oracle is OracleStorage {\n    using SafeMath for uint256;\n\n    bool private _initialized;\n\n    /*\n     * @dev: Event declarations\n     */\n    event LogNewOracleClaim(\n        uint256 _prophecyID,\n        address _validatorAddress\n    );\n\n    event LogProphecyProcessed(\n        uint256 _prophecyID,\n        uint256 _prophecyPowerCurrent,\n        uint256 _prophecyPowerThreshold,\n        address _submitter\n    );\n\n    /*\n     * @dev: Modifier to restrict access to the operator.\n     */\n    modifier onlyOperator() {\n        require(msg.sender == operator, \"Must be the operator.\");\n        _;\n    }\n\n    /*\n     * @dev: Modifier to restrict access to current ValSet validators\n     */\n    modifier onlyValidator(address _user) {\n        require(\n            Valset(valset).isActiveValidator(_user),\n            \"Must be an active validator\"\n        );\n        _;\n    }\n\n    /*\n     * @dev: Modifier to restrict access to current ValSet validators\n     */\n    modifier onlyCosmosBridge() {\n        require(\n            msg.sender == cosmosBridge,\n            \"Must be Cosmos Bridge\"\n        );\n        _;\n    }\n\n    /*\n     * @dev: Modifier to restrict access to current ValSet validators\n     */\n    modifier isPending(uint256 _prophecyID) {\n        require(\n            CosmosBridge(cosmosBridge).isProphecyClaimActive(_prophecyID) == true,\n            \"The prophecy must be pending for this operation\"\n        );\n        _;\n    }\n\n    /*\n     * @dev: Initialize Function\n     */\n    function initialize(\n        address _operator,\n        address _valset,\n        address _cosmosBridge,\n        uint256 _consensusThreshold\n    ) public {\n        require(!_initialized, \"Initialized\");\n        require(\n            _consensusThreshold > 0,\n            \"Consensus threshold must be positive.\"\n        );\n        operator = _operator;\n        cosmosBridge = _cosmosBridge;\n        valset = _valset;\n        consensusThreshold = _consensusThreshold;\n        _initialized = true;\n    }\n\n    /*\n     * @dev: newOracleClaim\n     *       Allows validators to make new OracleClaims on an existing Prophecy\n     */\n    function newOracleClaim(\n        uint256 _prophecyID,\n        address validatorAddress\n    ) public\n        onlyCosmosBridge\n        onlyValidator(validatorAddress)\n        isPending(_prophecyID)\n        returns (bool)\n    {\n        // Confirm that this address has not already made an oracle claim on this prophecy\n        require(\n            !hasMadeClaim[_prophecyID][validatorAddress],\n            \"Cannot make duplicate oracle claims from the same address.\"\n        );\n\n        hasMadeClaim[_prophecyID][validatorAddress] = true;\n        oracleClaimValidators[_prophecyID].push(validatorAddress);\n\n        emit LogNewOracleClaim(\n            _prophecyID,\n            validatorAddress\n        );\n\n        // Process the prophecy\n        (bool valid, , ) = getProphecyThreshold(_prophecyID);\n\n        return valid;\n    }\n\n    /*\n     * @dev: checkBridgeProphecy\n     *       Operator accessor method which checks if a prophecy has passed\n     *       the validity threshold, without actually completing the prophecy.\n     */\n    function checkBridgeProphecy(uint256 _prophecyID)\n        public\n        view\n        onlyOperator\n        isPending(_prophecyID)\n        returns (bool, uint256, uint256)\n    {\n        require(\n            CosmosBridge(cosmosBridge).isProphecyClaimActive(_prophecyID) == true,\n            \"Can only check active prophecies\"\n        );\n        return getProphecyThreshold(_prophecyID);\n    }\n\n    /*\n     * @dev: processProphecy\n     *       Calculates the status of a prophecy. The claim is considered valid if the\n     *       combined active signatory validator powers pass the consensus threshold.\n     *       The threshold is x% of Total power, where x is the consensusThreshold param.\n     */\n    function getProphecyThreshold(uint256 _prophecyID)\n        internal\n        view\n        returns (bool, uint256, uint256)\n    {\n        uint256 signedPower = 0;\n        uint256 totalPower = Valset(valset).totalPower();\n\n        // Iterate over the signatory addresses\n        for (\n            uint256 i = 0;\n            i < oracleClaimValidators[_prophecyID].length;\n            i = i.add(1)\n        ) {\n            address signer = oracleClaimValidators[_prophecyID][i];\n\n            // Only add the power of active validators\n            if (Valset(valset).isActiveValidator(signer)) {\n                signedPower = signedPower.add(Valset(valset).getValidatorPower(signer));\n            }\n        }\n\n        // Prophecy must reach total signed power % threshold in order to pass consensus\n        uint256 prophecyPowerThreshold = totalPower.mul(consensusThreshold);\n        // consensusThreshold is a decimal multiplied by 100, so signedPower must also be multiplied by 100\n        uint256 prophecyPowerCurrent = signedPower.mul(100);\n        bool hasReachedThreshold = prophecyPowerCurrent >=\n            prophecyPowerThreshold;\n\n        return (\n            hasReachedThreshold,\n            prophecyPowerCurrent,\n            prophecyPowerThreshold\n        );\n    }\n}\n",
  "sourcePath": "/Users/junius/github/thor/sifnode/smart-contracts/contracts/Oracle.sol",
  "compiler": {
    "name": "solc",
    "version": "0.5.16+commit.9c3226ce.Emscripten.clang"
  },
  "schemaVersion": "3.3.1",
  "updatedAt": "2020-11-23T01:28:08.296Z",
  "networkType": "ethereum",
  "devdoc": {
    "methods": {}
  },
  "userdoc": {
    "methods": {}
  }
}