{
  "contractName": "Valset",
  "abi": [
    {
      "anonymous": false,
      "inputs": [
        {
          "indexed": false,
          "internalType": "address",
          "name": "_validator",
          "type": "address"
        },
        {
          "indexed": false,
          "internalType": "uint256",
          "name": "_power",
          "type": "uint256"
        },
        {
          "indexed": false,
          "internalType": "uint256",
          "name": "_currentValsetVersion",
          "type": "uint256"
        },
        {
          "indexed": false,
          "internalType": "uint256",
          "name": "_validatorCount",
          "type": "uint256"
        },
        {
          "indexed": false,
          "internalType": "uint256",
          "name": "_totalPower",
          "type": "uint256"
        }
      ],
      "name": "LogValidatorAdded",
      "type": "event"
    },
    {
      "anonymous": false,
      "inputs": [
        {
          "indexed": false,
          "internalType": "address",
          "name": "_validator",
          "type": "address"
        },
        {
          "indexed": false,
          "internalType": "uint256",
          "name": "_power",
          "type": "uint256"
        },
        {
          "indexed": false,
          "internalType": "uint256",
          "name": "_currentValsetVersion",
          "type": "uint256"
        },
        {
          "indexed": false,
          "internalType": "uint256",
          "name": "_validatorCount",
          "type": "uint256"
        },
        {
          "indexed": false,
          "internalType": "uint256",
          "name": "_totalPower",
          "type": "uint256"
        }
      ],
      "name": "LogValidatorPowerUpdated",
      "type": "event"
    },
    {
      "anonymous": false,
      "inputs": [
        {
          "indexed": false,
          "internalType": "address",
          "name": "_validator",
          "type": "address"
        },
        {
          "indexed": false,
          "internalType": "uint256",
          "name": "_power",
          "type": "uint256"
        },
        {
          "indexed": false,
          "internalType": "uint256",
          "name": "_currentValsetVersion",
          "type": "uint256"
        },
        {
          "indexed": false,
          "internalType": "uint256",
          "name": "_validatorCount",
          "type": "uint256"
        },
        {
          "indexed": false,
          "internalType": "uint256",
          "name": "_totalPower",
          "type": "uint256"
        }
      ],
      "name": "LogValidatorRemoved",
      "type": "event"
    },
    {
      "anonymous": false,
      "inputs": [
        {
          "indexed": false,
          "internalType": "uint256",
          "name": "_newValsetVersion",
          "type": "uint256"
        },
        {
          "indexed": false,
          "internalType": "uint256",
          "name": "_validatorCount",
          "type": "uint256"
        },
        {
          "indexed": false,
          "internalType": "uint256",
          "name": "_totalPower",
          "type": "uint256"
        }
      ],
      "name": "LogValsetReset",
      "type": "event"
    },
    {
      "anonymous": false,
      "inputs": [
        {
          "indexed": false,
          "internalType": "uint256",
          "name": "_newValsetVersion",
          "type": "uint256"
        },
        {
          "indexed": false,
          "internalType": "uint256",
          "name": "_validatorCount",
          "type": "uint256"
        },
        {
          "indexed": false,
          "internalType": "uint256",
          "name": "_totalPower",
          "type": "uint256"
        }
      ],
      "name": "LogValsetUpdated",
      "type": "event"
    },
    {
      "constant": true,
      "inputs": [],
      "name": "currentValsetVersion",
      "outputs": [
        {
          "internalType": "uint256",
          "name": "",
          "type": "uint256"
        }
      ],
      "payable": false,
      "stateMutability": "view",
      "type": "function"
    },
    {
      "constant": true,
      "inputs": [],
      "name": "operator",
      "outputs": [
        {
          "internalType": "address",
          "name": "",
          "type": "address"
        }
      ],
      "payable": false,
      "stateMutability": "view",
      "type": "function"
    },
    {
      "constant": true,
      "inputs": [
        {
          "internalType": "bytes32",
          "name": "",
          "type": "bytes32"
        }
      ],
      "name": "powers",
      "outputs": [
        {
          "internalType": "uint256",
          "name": "",
          "type": "uint256"
        }
      ],
      "payable": false,
      "stateMutability": "view",
      "type": "function"
    },
    {
      "constant": true,
      "inputs": [],
      "name": "totalPower",
      "outputs": [
        {
          "internalType": "uint256",
          "name": "",
          "type": "uint256"
        }
      ],
      "payable": false,
      "stateMutability": "view",
      "type": "function"
    },
    {
      "constant": true,
      "inputs": [],
      "name": "validatorCount",
      "outputs": [
        {
          "internalType": "uint256",
          "name": "",
          "type": "uint256"
        }
      ],
      "payable": false,
      "stateMutability": "view",
      "type": "function"
    },
    {
      "constant": true,
      "inputs": [
        {
          "internalType": "bytes32",
          "name": "",
          "type": "bytes32"
        }
      ],
      "name": "validators",
      "outputs": [
        {
          "internalType": "bool",
          "name": "",
          "type": "bool"
        }
      ],
      "payable": false,
      "stateMutability": "view",
      "type": "function"
    },
    {
      "constant": false,
      "inputs": [
        {
          "internalType": "address",
          "name": "_operator",
          "type": "address"
        },
        {
          "internalType": "address[]",
          "name": "_initValidators",
          "type": "address[]"
        },
        {
          "internalType": "uint256[]",
          "name": "_initPowers",
          "type": "uint256[]"
        }
      ],
      "name": "initialize",
      "outputs": [],
      "payable": false,
      "stateMutability": "nonpayable",
      "type": "function"
    },
    {
      "constant": true,
      "inputs": [
        {
          "internalType": "bytes32",
          "name": "_message",
          "type": "bytes32"
        },
        {
          "internalType": "bytes",
          "name": "_signature",
          "type": "bytes"
        }
      ],
      "name": "recover",
      "outputs": [
        {
          "internalType": "address",
          "name": "",
          "type": "address"
        }
      ],
      "payable": false,
      "stateMutability": "pure",
      "type": "function"
    },
    {
      "constant": false,
      "inputs": [
        {
          "internalType": "address",
          "name": "_validatorAddress",
          "type": "address"
        },
        {
          "internalType": "uint256",
          "name": "_validatorPower",
          "type": "uint256"
        }
      ],
      "name": "addValidator",
      "outputs": [],
      "payable": false,
      "stateMutability": "nonpayable",
      "type": "function"
    },
    {
      "constant": false,
      "inputs": [
        {
          "internalType": "address",
          "name": "_validatorAddress",
          "type": "address"
        },
        {
          "internalType": "uint256",
          "name": "_newValidatorPower",
          "type": "uint256"
        }
      ],
      "name": "updateValidatorPower",
      "outputs": [],
      "payable": false,
      "stateMutability": "nonpayable",
      "type": "function"
    },
    {
      "constant": false,
      "inputs": [
        {
          "internalType": "address",
          "name": "_validatorAddress",
          "type": "address"
        }
      ],
      "name": "removeValidator",
      "outputs": [],
      "payable": false,
      "stateMutability": "nonpayable",
      "type": "function"
    },
    {
      "constant": false,
      "inputs": [
        {
          "internalType": "address[]",
          "name": "_validators",
          "type": "address[]"
        },
        {
          "internalType": "uint256[]",
          "name": "_powers",
          "type": "uint256[]"
        }
      ],
      "name": "updateValset",
      "outputs": [],
      "payable": false,
      "stateMutability": "nonpayable",
      "type": "function"
    },
    {
      "constant": true,
      "inputs": [
        {
          "internalType": "address",
          "name": "_validatorAddress",
          "type": "address"
        }
      ],
      "name": "isActiveValidator",
      "outputs": [
        {
          "internalType": "bool",
          "name": "",
          "type": "bool"
        }
      ],
      "payable": false,
      "stateMutability": "view",
      "type": "function"
    },
    {
      "constant": true,
      "inputs": [
        {
          "internalType": "address",
          "name": "_validatorAddress",
          "type": "address"
        }
      ],
      "name": "getValidatorPower",
      "outputs": [
        {
          "internalType": "uint256",
          "name": "",
          "type": "uint256"
        }
      ],
      "payable": false,
      "stateMutability": "view",
      "type": "function"
    },
    {
      "constant": false,
      "inputs": [
        {
          "internalType": "uint256",
          "name": "_valsetVersion",
          "type": "uint256"
        },
        {
          "internalType": "address",
          "name": "_validatorAddress",
          "type": "address"
        }
      ],
      "name": "recoverGas",
      "outputs": [],
      "payable": false,
      "stateMutability": "nonpayable",
      "type": "function"
    }
  ],
  "bytecode": "0x608060405234801561001057600080fd5b50611164806100206000396000f3fe608060405234801561001057600080fd5b50600436106100f55760003560e01c8063788cf92f11610097578063b872c52311610066578063b872c5231461040b578063db3ad22c14610428578063fc6c1f0214610430578063ff1d57521461045c576100f5565b8063788cf92f146102975780638d56c37d146103ba5780639bdafcb3146103c2578063b5672be3146103df576100f5565b806340550a1c116100d357806340550a1c1461020957806340a141ff14610243578063473691a414610269578063570ca7351461028f576100f5565b80630f43a677146100fa57806319045a25146101145780632e75293b146101db575b600080fd5b61010261058f565b60408051918252519081900360200190f35b6101bf6004803603604081101561012a57600080fd5b81359190810190604081016020820135600160201b81111561014b57600080fd5b82018360208201111561015d57600080fd5b803590602001918460018302840111600160201b8311171561017e57600080fd5b91908080601f016020809104026020016040519081016040528093929190818152602001838380828437600092019190915250929550610595945050505050565b604080516001600160a01b039092168252519081900360200190f35b610207600480360360408110156101f157600080fd5b506001600160a01b0381351690602001356105b2565b005b61022f6004803603602081101561021f57600080fd5b50356001600160a01b0316610740565b604080519115158252519081900360200190f35b6102076004803603602081101561025957600080fd5b50356001600160a01b031661078f565b6101026004803603602081101561027f57600080fd5b50356001600160a01b0316610929565b6101bf610975565b610207600480360360408110156102ad57600080fd5b810190602081018135600160201b8111156102c757600080fd5b8201836020820111156102d957600080fd5b803590602001918460208302840111600160201b831117156102fa57600080fd5b9190808060200260200160405190810160405280939291908181526020018383602002808284376000920191909152509295949360208101935035915050600160201b81111561034957600080fd5b82018360208201111561035b57600080fd5b803590602001918460208302840111600160201b8311171561037c57600080fd5b919080806020026020016040519081016040528093929190818152602001838360200280828437600092019190915250929550610984945050505050565b610102610ac3565b61022f600480360360208110156103d857600080fd5b5035610ac9565b610207600480360360408110156103f557600080fd5b50803590602001356001600160a01b0316610ade565b6101026004803603602081101561042157600080fd5b5035610bce565b610102610be0565b6102076004803603604081101561044657600080fd5b506001600160a01b038135169060200135610be6565b6102076004803603606081101561047257600080fd5b6001600160a01b038235169190810190604081016020820135600160201b81111561049c57600080fd5b8201836020820111156104ae57600080fd5b803590602001918460208302840111600160201b831117156104cf57600080fd5b9190808060200260200160405190810160405280939291908181526020018383602002808284376000920191909152509295949360208101935035915050600160201b81111561051e57600080fd5b82018360208201111561053057600080fd5b803590602001918460208302840111600160201b8311171561055157600080fd5b919080806020026020016040519081016040528093929190818152602001838360200280828437600092019190915250929550610c4b945050505050565b60025481565b60006105a96105a384610ccf565b83610d20565b90505b92915050565b6004546001600160a01b03163314610609576040805162461bcd60e51b815260206004820152601560248201527426bab9ba103132903a34329037b832b930ba37b91760591b604482015290519081900360640190fd5b600154604080516020808201939093526001600160601b0319606086901b168183015281516034818303018152605490910182528051908301206000818152600390935291205460ff1661068e5760405162461bcd60e51b815260040180806020018281038252602e8152602001806110d3602e913960400191505060405180910390fd5b60008181526005602052604081205490546106af908263ffffffff610df116565b60008190556106c4908463ffffffff610e3316565b6000908155828152600560209081526040808320869055600154600254935482516001600160a01b038a168152938401889052838301919091526060830193909352608082019290925290517f335940ce4119f8aae891d73dba74510a3d51f6210134d058237f26e6a31d53409181900360a00190a150505050565b600154604080516020808201939093526001600160601b0319606085901b168183015281516034818303018152605490910182528051908301206000908152600390925290205460ff16919050565b6004546001600160a01b031633146107e6576040805162461bcd60e51b815260206004820152601560248201527426bab9ba103132903a34329037b832b930ba37b91760591b604482015290519081900360640190fd5b600154604080516020808201939093526001600160601b0319606085901b168183015281516034818303018152605490910182528051908301206000818152600390935291205460ff1661086b5760405162461bcd60e51b815260040180806020018281038252602181526020018061107d6021913960400191505060405180910390fd5b60025461087f90600163ffffffff610df116565b60025560008181526005602052604081205490546108a29163ffffffff610df116565b6000908155818152600360209081526040808320805460ff1916905560058252808320839055600154600254845483516001600160a01b038916815294850195909552838301919091526060830152608082019290925290517f1241fb43a101ff98ab819a1882097d4ccada51ba60f326c1981cc48840f55b8c9181900360a00190a15050565b600154604080516020808201939093526001600160601b0319606085901b1681830152815160348183030181526054909101825280519083012060009081526005909252902054919050565b6004546001600160a01b031681565b6004546001600160a01b031633146109db576040805162461bcd60e51b815260206004820152601560248201527426bab9ba103132903a34329037b832b930ba37b91760591b604482015290519081900360640190fd5b8051825114610a1b5760405162461bcd60e51b815260040180806020018281038252602f815260200180611101602f913960400191505060405180910390fd5b610a23610e8d565b60005b8251811015610a7757610a5f838281518110610a3e57fe5b6020026020010151838381518110610a5257fe5b6020026020010151610ef1565b610a7081600163ffffffff610e3316565b9050610a26565b5060015460025460005460408051938452602084019290925282820152517f3a7ef0da3179668af8114719645585b5a37092ef2d66f187dcf63d83a221eaa69181900360600190a15050565b60015481565b60036020526000908152604090205460ff1681565b6004546001600160a01b03163314610b35576040805162461bcd60e51b815260206004820152601560248201527426bab9ba103132903a34329037b832b930ba37b91760591b604482015290519081900360640190fd5b6001548210610b755760405162461bcd60e51b815260040180806020018281038252603581526020018061109e6035913960400191505060405180910390fd5b6040805160208082019490945260609290921b6001600160601b031916828201528051808303603401815260549092018152815191830191909120600090815260038352818120805460ff191690556005909252812055565b60056020526000908152604090205481565b60005481565b6004546001600160a01b03163314610c3d576040805162461bcd60e51b815260206004820152601560248201527426bab9ba103132903a34329037b832b930ba37b91760591b604482015290519081900360640190fd5b610c478282610ef1565b5050565b606a5460ff1615610c91576040805162461bcd60e51b815260206004820152600b60248201526a125b9a5d1a585b1a5e995960aa1b604482015290519081900360640190fd5b600480546001600160a01b0319166001600160a01b03851617905560006001908155606a805460ff19169091179055610cca8282610984565b505050565b604080517f19457468657265756d205369676e6564204d6573736167653a0a333200000000602080830191909152603c8083019490945282518083039094018452605c909101909152815191012090565b6000806000808451604114610d3b57600093505050506105ac565b50505060208201516040830151606084015160001a601b811015610d5d57601b015b8060ff16601b14158015610d7557508060ff16601c14155b15610d8657600093505050506105ac565b6040805160008152602080820180845289905260ff8416828401526060820186905260808201859052915160019260a0808401939192601f1981019281900390910190855afa158015610ddd573d6000803e3d6000fd5b5050506020604051035193505050506105ac565b60006105a983836040518060400160405280601e81526020017f536166654d6174683a207375627472616374696f6e206f766572666c6f770000815250610fe5565b6000828201838110156105a9576040805162461bcd60e51b815260206004820152601b60248201527f536166654d6174683a206164646974696f6e206f766572666c6f770000000000604482015290519081900360640190fd5b60018054610ea09163ffffffff610e3316565b600181905560006002819055808055604080519283526020830182905282810191909152517fd870653e19f161500290fd0c4ca41bf5cf2bcb1ba66448f41c66c512dabd65f29181900360600190a1565b60018054604080516020808201939093526001600160601b0319606087901b168183015281516034818303018152605490910190915280519101206002549091610f41919063ffffffff610e3316565b600255600054610f57908363ffffffff610e3316565b6000908155818152600360209081526040808320805460ff191660019081179091556005835281842086905554600254935482516001600160a01b0389168152938401879052838301919091526060830193909352608082019290925290517f1a396bcf647502e902dce665d58a0c1b25f982f193ab9a1d0f1500d8d927bf2a9181900360a00190a1505050565b600081848411156110745760405162461bcd60e51b81526004018080602001828103825283818151815260200191508051906020019080838360005b83811015611039578181015183820152602001611021565b50505050905090810190601f1680156110665780820380516001836020036101000a031916815260200191505b509250505060405180910390fd5b50505090039056fe43616e206f6e6c792072656d6f7665206163746976652076616c646961746f7273476173207265636f76657279206f6e6c7920616c6c6f77656420666f722070726576696f75732076616c696461746f72207365747343616e206f6e6c79207570646174652074686520706f776572206f66206163746976652076616c646961746f727345766572792076616c696461746f72206d7573742068617665206120636f72726573706f6e64696e6720706f776572a265627a7a723158208c88b1013172d9b3e273bef8600002bb4e53d1979cbf495e99e38a66e3ec3dbf64736f6c63430005100032",
  "source": "pragma solidity ^0.5.0;\n\nimport \"../node_modules/openzeppelin-solidity/contracts/math/SafeMath.sol\";\nimport \"./ValsetStorage.sol\";\n\ncontract Valset is ValsetStorage {\n    using SafeMath for uint256;\n\n    bool private _initialized;\n\n    /*\n     * @dev: Event declarations\n     */\n    event LogValidatorAdded(\n        address _validator,\n        uint256 _power,\n        uint256 _currentValsetVersion,\n        uint256 _validatorCount,\n        uint256 _totalPower\n    );\n\n    event LogValidatorPowerUpdated(\n        address _validator,\n        uint256 _power,\n        uint256 _currentValsetVersion,\n        uint256 _validatorCount,\n        uint256 _totalPower\n    );\n\n    event LogValidatorRemoved(\n        address _validator,\n        uint256 _power,\n        uint256 _currentValsetVersion,\n        uint256 _validatorCount,\n        uint256 _totalPower\n    );\n\n    event LogValsetReset(\n        uint256 _newValsetVersion,\n        uint256 _validatorCount,\n        uint256 _totalPower\n    );\n\n    event LogValsetUpdated(\n        uint256 _newValsetVersion,\n        uint256 _validatorCount,\n        uint256 _totalPower\n    );\n\n    /*\n     * @dev: Modifier which restricts access to the operator.\n     */\n    modifier onlyOperator() {\n        require(msg.sender == operator, \"Must be the operator.\");\n        _;\n    }\n\n    /*\n     * @dev: Constructor\n     */\n    function initialize(\n        address _operator,\n        address[] memory _initValidators,\n        uint256[] memory _initPowers\n    ) public {\n        require(!_initialized, \"Initialized\");\n\n        operator = _operator;\n        currentValsetVersion = 0;\n        _initialized = true;\n\n        updateValset(_initValidators, _initPowers);\n    }\n\n    function recover(bytes32 _message, bytes memory _signature)\n        public\n        pure\n        returns (address)\n    {\n        return verify(ethMessageHash(_message), _signature);\n    }\n\n    /*\n     * @dev: addValidator\n     */\n    function addValidator(address _validatorAddress, uint256 _validatorPower)\n        public\n        onlyOperator\n    {\n        addValidatorInternal(_validatorAddress, _validatorPower);\n    }\n\n    /*\n     * @dev: updateValidatorPower\n     */\n    function updateValidatorPower(\n        address _validatorAddress,\n        uint256 _newValidatorPower\n    ) public onlyOperator {\n        // Create a unique key which for this validator's position in the current version of the mapping\n        bytes32 key = keccak256(\n            abi.encodePacked(currentValsetVersion, _validatorAddress)\n        );\n\n        require(\n            validators[key],\n            \"Can only update the power of active valdiators\"\n        );\n\n        // Adjust total power by new validator power\n        uint256 priorPower = powers[key];\n        totalPower = totalPower.sub(priorPower);\n        totalPower = totalPower.add(_newValidatorPower);\n\n        // Set validator's new power\n        powers[key] = _newValidatorPower;\n\n        emit LogValidatorPowerUpdated(\n            _validatorAddress,\n            _newValidatorPower,\n            currentValsetVersion,\n            validatorCount,\n            totalPower\n        );\n    }\n\n    /*\n     * @dev: removeValidator\n     */\n    function removeValidator(address _validatorAddress) public onlyOperator {\n        // Create a unique key which for this validator's position in the current version of the mapping\n        bytes32 key = keccak256(\n            abi.encodePacked(currentValsetVersion, _validatorAddress)\n        );\n\n        require(validators[key], \"Can only remove active valdiators\");\n\n        // Update validator count and total power\n        validatorCount = validatorCount.sub(1);\n        totalPower = totalPower.sub(powers[key]);\n\n        // Delete validator and power\n        delete validators[key];\n        delete powers[key];\n\n        emit LogValidatorRemoved(\n            _validatorAddress,\n            0,\n            currentValsetVersion,\n            validatorCount,\n            totalPower\n        );\n    }\n\n    /*\n     * @dev: updateValset\n     */\n    function updateValset(\n        address[] memory _validators,\n        uint256[] memory _powers\n    ) public onlyOperator {\n        require(\n            _validators.length == _powers.length,\n            \"Every validator must have a corresponding power\"\n        );\n\n        resetValset();\n\n        for (uint256 i = 0; i < _validators.length; i = i.add(1)) {\n            addValidatorInternal(_validators[i], _powers[i]);\n        }\n\n        emit LogValsetUpdated(currentValsetVersion, validatorCount, totalPower);\n    }\n\n    /*\n     * @dev: isActiveValidator\n     */\n    function isActiveValidator(address _validatorAddress)\n        public\n        view\n        returns (bool)\n    {\n        // Recreate the unique key for this address given the current mapping version\n        bytes32 key = keccak256(\n            abi.encodePacked(currentValsetVersion, _validatorAddress)\n        );\n\n        // Return bool indicating if this address is an active validator\n        return validators[key];\n    }\n\n    /*\n     * @dev: getValidatorPower\n     */\n    function getValidatorPower(address _validatorAddress)\n        external\n        view\n        returns (uint256)\n    {\n        // Recreate the unique key for this address given the current mapping version\n        bytes32 key = keccak256(\n            abi.encodePacked(currentValsetVersion, _validatorAddress)\n        );\n\n        return powers[key];\n    }\n\n    /*\n     * @dev: recoverGas\n     */\n    function recoverGas(uint256 _valsetVersion, address _validatorAddress)\n        external\n        onlyOperator\n    {\n        require(\n            _valsetVersion < currentValsetVersion,\n            \"Gas recovery only allowed for previous validator sets\"\n        );\n\n        // Recreate the unique key used to identify this validator in the given version\n        bytes32 key = keccak256(\n            abi.encodePacked(_valsetVersion, _validatorAddress)\n        );\n\n        // Delete from mappings and recover gas\n        delete (validators[key]);\n        delete (powers[key]);\n    }\n\n    /*\n     * @dev: addValidatorInternal\n     */\n    function addValidatorInternal(\n        address _validatorAddress,\n        uint256 _validatorPower\n    ) internal {\n        // Create a unique key which for this validator's position in the current version of the mapping\n        bytes32 key = keccak256(\n            abi.encodePacked(currentValsetVersion, _validatorAddress)\n        );\n\n        validatorCount = validatorCount.add(1);\n        totalPower = totalPower.add(_validatorPower);\n\n        // Set validator as active and set their power\n        validators[key] = true;\n        powers[key] = _validatorPower;\n\n        emit LogValidatorAdded(\n            _validatorAddress,\n            _validatorPower,\n            currentValsetVersion,\n            validatorCount,\n            totalPower\n        );\n    }\n\n    /*\n     * @dev: resetValset\n     */\n    function resetValset() internal {\n        currentValsetVersion = currentValsetVersion.add(1);\n        validatorCount = 0;\n        totalPower = 0;\n\n        emit LogValsetReset(currentValsetVersion, validatorCount, totalPower);\n    }\n\n    /**\n     * @dev Recover signer address from a message by using their signature\n     * @param h bytes32 message, the hash is the signed message. What is recovered is the signer address.\n     * @param signature bytes signature, the signature is generated using web3.eth.sign()\n     */\n    function verify(bytes32 h, bytes memory signature)\n        internal\n        pure\n        returns (address)\n    {\n        bytes32 r;\n        bytes32 s;\n        uint8 v;\n\n        // Check the signature length\n        if (signature.length != 65) {\n            return (address(0));\n        }\n\n        // Divide the signature in r, s and v variables\n        // ecrecover takes the signature parameters, and the only way to get them\n        // currently is to use assembly.\n        // solium-disable-next-line security/no-inline-assembly\n        assembly {\n            r := mload(add(signature, 32))\n            s := mload(add(signature, 64))\n            v := byte(0, mload(add(signature, 96)))\n        }\n\n        // Version of signature should be 27 or 28, but 0 and 1 are also possible versions\n        if (v < 27) {\n            v += 27;\n        }\n\n        // If the version is correct return the signer address\n        if (v != 27 && v != 28) {\n            return (address(0));\n        } else {\n            // solium-disable-next-line arg-overflow\n            return ecrecover(h, v, r, s);\n        }\n    }\n\n    /**\n     * toEthSignedMessageHash\n     * @dev prefix a bytes32 value with \"\\x19Ethereum Signed Message:\"\n     * and hash the result\n     */\n    function ethMessageHash(bytes32 message) internal pure returns (bytes32) {\n        return\n            keccak256(\n                abi.encodePacked(\"\\x19Ethereum Signed Message:\\n32\", message)\n            );\n    }\n}\n",
  "sourcePath": "/Users/utx0/Code/sifchain/sifnode/smart-contracts/contracts/Valset.sol",
  "compiler": {
    "name": "solc",
    "version": "0.5.16+commit.9c3226ce.Emscripten.clang"
  },
  "schemaVersion": "3.3.2",
  "updatedAt": "2020-11-19T02:14:42.604Z",
  "networkType": "ethereum",
  "devdoc": {
    "methods": {}
  },
  "userdoc": {
    "methods": {}
  }
}