{
  "_format": "hh-sol-artifact-1",
  "contractName": "Oracle",
  "sourceName": "contracts/Oracle.sol",
  "abi": [
    {
      "anonymous": false,
      "inputs": [
        {
          "indexed": false,
          "internalType": "uint256",
          "name": "_prophecyID",
          "type": "uint256"
        },
        {
          "indexed": false,
          "internalType": "address",
          "name": "_validatorAddress",
          "type": "address"
        }
      ],
      "name": "LogNewOracleClaim",
      "type": "event"
    },
    {
      "anonymous": false,
      "inputs": [
        {
          "indexed": false,
          "internalType": "uint256",
          "name": "_prophecyID",
          "type": "uint256"
        },
        {
          "indexed": false,
          "internalType": "uint256",
          "name": "_prophecyPowerCurrent",
          "type": "uint256"
        },
        {
          "indexed": false,
          "internalType": "uint256",
          "name": "_prophecyPowerThreshold",
          "type": "uint256"
        },
        {
          "indexed": false,
          "internalType": "address",
          "name": "_submitter",
          "type": "address"
        }
      ],
      "name": "LogProphecyProcessed",
      "type": "event"
    },
    {
      "anonymous": false,
      "inputs": [
        {
          "indexed": false,
          "internalType": "address",
          "name": "_validator",
          "type": "address"
        },
        {
          "indexed": false,
          "internalType": "uint256",
          "name": "_power",
          "type": "uint256"
        },
        {
          "indexed": false,
          "internalType": "uint256",
          "name": "_currentValsetVersion",
          "type": "uint256"
        },
        {
          "indexed": false,
          "internalType": "uint256",
          "name": "_validatorCount",
          "type": "uint256"
        },
        {
          "indexed": false,
          "internalType": "uint256",
          "name": "_totalPower",
          "type": "uint256"
        }
      ],
      "name": "LogValidatorAdded",
      "type": "event"
    },
    {
      "anonymous": false,
      "inputs": [
        {
          "indexed": false,
          "internalType": "address",
          "name": "_validator",
          "type": "address"
        },
        {
          "indexed": false,
          "internalType": "uint256",
          "name": "_power",
          "type": "uint256"
        },
        {
          "indexed": false,
          "internalType": "uint256",
          "name": "_currentValsetVersion",
          "type": "uint256"
        },
        {
          "indexed": false,
          "internalType": "uint256",
          "name": "_validatorCount",
          "type": "uint256"
        },
        {
          "indexed": false,
          "internalType": "uint256",
          "name": "_totalPower",
          "type": "uint256"
        }
      ],
      "name": "LogValidatorPowerUpdated",
      "type": "event"
    },
    {
      "anonymous": false,
      "inputs": [
        {
          "indexed": false,
          "internalType": "address",
          "name": "_validator",
          "type": "address"
        },
        {
          "indexed": false,
          "internalType": "uint256",
          "name": "_power",
          "type": "uint256"
        },
        {
          "indexed": false,
          "internalType": "uint256",
          "name": "_currentValsetVersion",
          "type": "uint256"
        },
        {
          "indexed": false,
          "internalType": "uint256",
          "name": "_validatorCount",
          "type": "uint256"
        },
        {
          "indexed": false,
          "internalType": "uint256",
          "name": "_totalPower",
          "type": "uint256"
        }
      ],
      "name": "LogValidatorRemoved",
      "type": "event"
    },
    {
      "anonymous": false,
      "inputs": [
        {
          "indexed": false,
          "internalType": "uint256",
          "name": "_newValsetVersion",
          "type": "uint256"
        },
        {
          "indexed": false,
          "internalType": "uint256",
          "name": "_validatorCount",
          "type": "uint256"
        },
        {
          "indexed": false,
          "internalType": "uint256",
          "name": "_totalPower",
          "type": "uint256"
        }
      ],
      "name": "LogValsetReset",
      "type": "event"
    },
    {
      "anonymous": false,
      "inputs": [
        {
          "indexed": false,
          "internalType": "uint256",
          "name": "_newValsetVersion",
          "type": "uint256"
        },
        {
          "indexed": false,
          "internalType": "uint256",
          "name": "_validatorCount",
          "type": "uint256"
        },
        {
          "indexed": false,
          "internalType": "uint256",
          "name": "_totalPower",
          "type": "uint256"
        }
      ],
      "name": "LogValsetUpdated",
      "type": "event"
    },
    {
      "constant": false,
      "inputs": [
        {
          "internalType": "address",
          "name": "_validatorAddress",
          "type": "address"
        },
        {
          "internalType": "uint256",
          "name": "_validatorPower",
          "type": "uint256"
        }
      ],
      "name": "addValidator",
      "outputs": [],
      "payable": false,
      "stateMutability": "nonpayable",
      "type": "function"
    },
    {
      "constant": true,
      "inputs": [],
      "name": "consensusThreshold",
      "outputs": [
        {
          "internalType": "uint256",
          "name": "",
          "type": "uint256"
        }
      ],
      "payable": false,
      "stateMutability": "view",
      "type": "function"
    },
    {
      "constant": true,
      "inputs": [],
      "name": "cosmosBridge",
      "outputs": [
        {
          "internalType": "address",
          "name": "",
          "type": "address"
        }
      ],
      "payable": false,
      "stateMutability": "view",
      "type": "function"
    },
    {
      "constant": true,
      "inputs": [],
      "name": "currentValsetVersion",
      "outputs": [
        {
          "internalType": "uint256",
          "name": "",
          "type": "uint256"
        }
      ],
      "payable": false,
      "stateMutability": "view",
      "type": "function"
    },
    {
      "constant": true,
      "inputs": [
        {
          "internalType": "uint256",
          "name": "_prophecyID",
          "type": "uint256"
        }
      ],
      "name": "getProphecyThreshold",
      "outputs": [
        {
          "internalType": "bool",
          "name": "",
          "type": "bool"
        },
        {
          "internalType": "uint256",
          "name": "",
          "type": "uint256"
        },
        {
          "internalType": "uint256",
          "name": "",
          "type": "uint256"
        }
      ],
      "payable": false,
      "stateMutability": "view",
      "type": "function"
    },
    {
      "constant": true,
      "inputs": [
        {
          "internalType": "address",
          "name": "_validatorAddress",
          "type": "address"
        }
      ],
      "name": "getValidatorPower",
      "outputs": [
        {
          "internalType": "uint256",
          "name": "",
          "type": "uint256"
        }
      ],
      "payable": false,
      "stateMutability": "view",
      "type": "function"
    },
    {
      "constant": true,
      "inputs": [
        {
          "internalType": "uint256",
          "name": "",
          "type": "uint256"
        },
        {
          "internalType": "address",
          "name": "",
          "type": "address"
        }
      ],
      "name": "hasMadeClaim",
      "outputs": [
        {
          "internalType": "bool",
          "name": "",
          "type": "bool"
        }
      ],
      "payable": false,
      "stateMutability": "view",
      "type": "function"
    },
    {
      "constant": true,
      "inputs": [
        {
          "internalType": "address",
          "name": "_validatorAddress",
          "type": "address"
        }
      ],
      "name": "isActiveValidator",
      "outputs": [
        {
          "internalType": "bool",
          "name": "",
          "type": "bool"
        }
      ],
      "payable": false,
      "stateMutability": "view",
      "type": "function"
    },
    {
      "constant": true,
      "inputs": [],
      "name": "operator",
      "outputs": [
        {
          "internalType": "address",
          "name": "",
          "type": "address"
        }
      ],
      "payable": false,
      "stateMutability": "view",
      "type": "function"
    },
    {
      "constant": true,
      "inputs": [
        {
          "internalType": "uint256",
          "name": "",
          "type": "uint256"
        }
      ],
      "name": "oracleClaimValidators",
      "outputs": [
        {
          "internalType": "uint256",
          "name": "",
          "type": "uint256"
        }
      ],
      "payable": false,
      "stateMutability": "view",
      "type": "function"
    },
    {
      "constant": true,
      "inputs": [
        {
          "internalType": "address",
          "name": "",
          "type": "address"
        },
        {
          "internalType": "uint256",
          "name": "",
          "type": "uint256"
        }
      ],
      "name": "powers",
      "outputs": [
        {
          "internalType": "uint256",
          "name": "",
          "type": "uint256"
        }
      ],
      "payable": false,
      "stateMutability": "view",
      "type": "function"
    },
    {
      "constant": false,
      "inputs": [
        {
          "internalType": "uint256",
          "name": "_valsetVersion",
          "type": "uint256"
        },
        {
          "internalType": "address",
          "name": "_validatorAddress",
          "type": "address"
        }
      ],
      "name": "recoverGas",
      "outputs": [],
      "payable": false,
      "stateMutability": "nonpayable",
      "type": "function"
    },
    {
      "constant": false,
      "inputs": [
        {
          "internalType": "address",
          "name": "_validatorAddress",
          "type": "address"
        }
      ],
      "name": "removeValidator",
      "outputs": [],
      "payable": false,
      "stateMutability": "nonpayable",
      "type": "function"
    },
    {
      "constant": true,
      "inputs": [],
      "name": "totalPower",
      "outputs": [
        {
          "internalType": "uint256",
          "name": "",
          "type": "uint256"
        }
      ],
      "payable": false,
      "stateMutability": "view",
      "type": "function"
    },
    {
      "constant": false,
      "inputs": [
        {
          "internalType": "address",
          "name": "_validatorAddress",
          "type": "address"
        },
        {
          "internalType": "uint256",
          "name": "_newValidatorPower",
          "type": "uint256"
        }
      ],
      "name": "updateValidatorPower",
      "outputs": [],
      "payable": false,
      "stateMutability": "nonpayable",
      "type": "function"
    },
    {
      "constant": false,
      "inputs": [
        {
          "internalType": "address[]",
          "name": "_validators",
          "type": "address[]"
        },
        {
          "internalType": "uint256[]",
          "name": "_powers",
          "type": "uint256[]"
        }
      ],
      "name": "updateValset",
      "outputs": [],
      "payable": false,
      "stateMutability": "nonpayable",
      "type": "function"
    },
    {
      "constant": true,
      "inputs": [],
      "name": "validatorCount",
      "outputs": [
        {
          "internalType": "uint256",
          "name": "",
          "type": "uint256"
        }
      ],
      "payable": false,
      "stateMutability": "view",
      "type": "function"
    },
    {
      "constant": true,
      "inputs": [
        {
          "internalType": "address",
          "name": "",
          "type": "address"
        },
        {
          "internalType": "uint256",
          "name": "",
          "type": "uint256"
        }
      ],
      "name": "validators",
      "outputs": [
        {
          "internalType": "bool",
          "name": "",
          "type": "bool"
        }
      ],
      "payable": false,
      "stateMutability": "view",
      "type": "function"
    }
  ],
  "bytecode": "0x608060405234801561001057600080fd5b50610f5b806100206000396000f3fe608060405234801561001057600080fd5b50600436106101165760003560e01c8063850f43dd116100a2578063b0e9ef7111610071578063b0e9ef711461041a578063b5672be314610422578063db3ad22c1461044e578063f9b0b5b914610456578063fc6c1f021461045e57610116565b8063850f43dd1461037d5780638d56c37d146103a9578063a219763e146103b1578063aef6ac3a146103dd57610116565b806345aaf18c116100e957806345aaf18c146101c3578063473691a4146101ef578063570ca73514610215578063788cf92f1461023957806378ffb1c61461036057610116565b80630f43a6771461011b5780632e75293b1461013557806340550a1c1461016357806340a141ff1461019d575b600080fd5b61012361048a565b60408051918252519081900360200190f35b6101616004803603604081101561014b57600080fd5b506001600160a01b038135169060200135610490565b005b6101896004803603602081101561017957600080fd5b50356001600160a01b0316610620565b604080519115158252519081900360200190f35b610161600480360360208110156101b357600080fd5b50356001600160a01b031661064b565b610189600480360360408110156101d957600080fd5b506001600160a01b0381351690602001356107f7565b6101236004803603602081101561020557600080fd5b50356001600160a01b0316610817565b61021d61083f565b604080516001600160a01b039092168252519081900360200190f35b6101616004803603604081101561024f57600080fd5b81019060208101813564010000000081111561026a57600080fd5b82018360208201111561027c57600080fd5b8035906020019184602083028401116401000000008311171561029e57600080fd5b91908080602002602001604051908101604052809392919081815260200183836020028082843760009201919091525092959493602081019350359150506401000000008111156102ee57600080fd5b82018360208201111561030057600080fd5b8035906020019184602083028401116401000000008311171561032257600080fd5b91908080602002602001604051908101604052809392919081815260200183836020028082843760009201919091525092955061084e945050505050565b6101236004803603602081101561037657600080fd5b503561097d565b6101236004803603604081101561039357600080fd5b506001600160a01b03813516906020013561098f565b6101236109ac565b610189600480360360408110156103c757600080fd5b50803590602001356001600160a01b03166109b2565b6103fa600480360360208110156103f357600080fd5b50356109d2565b604080519315158452602084019290925282820152519081900360600190f35b61021d610a2b565b6101616004803603604081101561043857600080fd5b50803590602001356001600160a01b0316610a3a565b610123610b17565b610123610b1d565b6101616004803603604081101561047457600080fd5b506001600160a01b038135169060200135610b23565b606b5481565b606d546001600160a01b031633146104e7576040805162461bcd60e51b815260206004820152601560248201527426bab9ba103132903a34329037b832b930ba37b91760591b604482015290519081900360640190fd5b6001600160a01b0382166000908152606c60209081526040808320606a54845290915290205460ff1661054b5760405162461bcd60e51b815260040180806020018281038252602e815260200180610eca602e913960400191505060405180910390fd5b6001600160a01b0382166000908152606e60209081526040808320606a548452909152902054606954610584908263ffffffff610b8816565b6069819055610599908363ffffffff610bd316565b60699081556001600160a01b0384166000818152606e60209081526040808320606a80548552908352928190208790559154606b5494548351948552918401879052838301526060830193909352608082019290925290517f335940ce4119f8aae891d73dba74510a3d51f6210134d058237f26e6a31d53409181900360a00190a1505050565b6001600160a01b03166000908152606c60209081526040808320606a54845290915290205460ff1690565b606d546001600160a01b031633146106a2576040805162461bcd60e51b815260206004820152601560248201527426bab9ba103132903a34329037b832b930ba37b91760591b604482015290519081900360640190fd5b6001600160a01b0381166000908152606c60209081526040808320606a54845290915290205460ff166107065760405162461bcd60e51b8152600401808060200182810382526021815260200180610e746021913960400191505060405180910390fd5b606b5461071a90600163ffffffff610b8816565b606b556001600160a01b0381166000908152606e60209081526040808320606a5484529091529020546069546107559163ffffffff610b8816565b60699081556001600160a01b0382166000818152606c60209081526040808320606a80548552908352818420805460ff19169055848452606e835281842081548552835281842084905554606b549554825195865292850193909352838101929092526060830193909352608082019290925290517f1241fb43a101ff98ab819a1882097d4ccada51ba60f326c1981cc48840f55b8c9181900360a00190a150565b606c60209081526000928352604080842090915290825290205460ff1681565b6001600160a01b03166000908152606e60209081526040808320606a54845290915290205490565b606d546001600160a01b031681565b606d546001600160a01b031633146108a5576040805162461bcd60e51b815260206004820152601560248201527426bab9ba103132903a34329037b832b930ba37b91760591b604482015290519081900360640190fd5b80518251146108e55760405162461bcd60e51b815260040180806020018281038252602f815260200180610ef8602f913960400191505060405180910390fd5b6108ed610c2d565b60005b82518110156109315761092983828151811061090857fe5b602002602001015183838151811061091c57fe5b6020026020010151610c94565b6001016108f0565b50606a54606b5460695460408051938452602084019290925282820152517f3a7ef0da3179668af8114719645585b5a37092ef2d66f187dcf63d83a221eaa69181900360600190a15050565b60036020526000908152604090205481565b606e60209081526000928352604080842090915290825290205481565b606a5481565b600460209081526000928352604080842090915290825290205460ff1681565b60695460008281526003602052604081205460025491928392839291908390610a0290839063ffffffff610d6216565b90506000610a1784606463ffffffff610d6216565b828110159990985091965090945050505050565b6000546001600160a01b031681565b606d546001600160a01b03163314610a91576040805162461bcd60e51b815260206004820152601560248201527426bab9ba103132903a34329037b832b930ba37b91760591b604482015290519081900360640190fd5b606a548210610ad15760405162461bcd60e51b8152600401808060200182810382526035815260200180610e956035913960400191505060405180910390fd5b6001600160a01b03166000818152606c60209081526040808320606a80548552908352818420805460ff19169055938352606e8252808320935483529290529081205550565b60695481565b60025481565b606d546001600160a01b03163314610b7a576040805162461bcd60e51b815260206004820152601560248201527426bab9ba103132903a34329037b832b930ba37b91760591b604482015290519081900360640190fd5b610b848282610c94565b5050565b6000610bca83836040518060400160405280601e81526020017f536166654d6174683a207375627472616374696f6e206f766572666c6f770000815250610dbb565b90505b92915050565b600082820183811015610bca576040805162461bcd60e51b815260206004820152601b60248201527f536166654d6174683a206164646974696f6e206f766572666c6f770000000000604482015290519081900360640190fd5b606a54610c4190600163ffffffff610bd316565b606a8190556000606b8190556069819055604080519283526020830182905282810191909152517fd870653e19f161500290fd0c4ca41bf5cf2bcb1ba66448f41c66c512dabd65f29181900360600190a1565b606b54610ca890600163ffffffff610bd316565b606b55606954610cbe908263ffffffff610bd316565b60699081556001600160a01b0383166000818152606c60209081526040808320606a80548552908352818420805460ff19166001179055848452606e8352818420815485528352928190208690559154606b5494548351948552918401869052838301526060830193909352608082019290925290517f1a396bcf647502e902dce665d58a0c1b25f982f193ab9a1d0f1500d8d927bf2a9181900360a00190a15050565b600082610d7157506000610bcd565b82820282848281610d7e57fe5b0414610bca5760405162461bcd60e51b8152600401808060200182810382526021815260200180610e536021913960400191505060405180910390fd5b60008184841115610e4a5760405162461bcd60e51b81526004018080602001828103825283818151815260200191508051906020019080838360005b83811015610e0f578181015183820152602001610df7565b50505050905090810190601f168015610e3c5780820380516001836020036101000a031916815260200191505b509250505060405180910390fd5b50505090039056fe536166654d6174683a206d756c7469706c69636174696f6e206f766572666c6f7743616e206f6e6c792072656d6f7665206163746976652076616c696461746f7273476173207265636f76657279206f6e6c7920616c6c6f77656420666f722070726576696f75732076616c696461746f72207365747343616e206f6e6c79207570646174652074686520706f776572206f66206163746976652076616c646961746f727345766572792076616c696461746f72206d7573742068617665206120636f72726573706f6e64696e6720706f776572a265627a7a7231582075eecddb09a1add264cc862aa5f262b6d89d58640450690155d24e5d5168130964736f6c63430005100032",
  "linkReferences": {},
  "deployedLinkReferences": {}
}